{
  "address": "0xa153E474dd975c7fDba95a0D47839A57Ebc1772F",
  "abi": [
    {
      "inputs": [
        {
          "internalType": "address",
          "name": "_messageBus",
          "type": "address"
        }
      ],
      "stateMutability": "nonpayable",
      "type": "constructor"
    },
    {
      "anonymous": false,
      "inputs": [
        {
          "indexed": false,
          "internalType": "address",
          "name": "mainContract",
          "type": "address"
        }
      ],
      "name": "MainContractUpdated",
      "type": "event"
    },
    {
      "anonymous": false,
      "inputs": [
        {
          "indexed": false,
          "internalType": "address",
          "name": "messageBus",
          "type": "address"
        }
      ],
      "name": "MessageBusUpdated",
      "type": "event"
    },
    {
      "anonymous": false,
      "inputs": [
        {
          "indexed": true,
          "internalType": "address",
          "name": "previousOwner",
          "type": "address"
        },
        {
          "indexed": true,
          "internalType": "address",
          "name": "newOwner",
          "type": "address"
        }
      ],
      "name": "OwnershipTransferred",
      "type": "event"
    },
    {
      "inputs": [
        {
          "internalType": "uint64",
          "name": "_dstChainId",
          "type": "uint64"
        },
        {
          "internalType": "address",
          "name": "_receiver",
          "type": "address"
        },
        {
          "internalType": "uint256",
          "name": "_amount",
          "type": "uint256"
        },
        {
          "internalType": "address",
          "name": "_token",
          "type": "address"
        },
        {
          "internalType": "bytes",
          "name": "_bridgeParams",
          "type": "bytes"
        },
        {
          "internalType": "bytes",
          "name": "_requestMessage",
          "type": "bytes"
        }
      ],
      "name": "bridge",
      "outputs": [
        {
          "internalType": "bytes",
          "name": "bridgeResp",
          "type": "bytes"
        }
      ],
      "stateMutability": "payable",
      "type": "function"
    },
    {
      "inputs": [
        {
          "internalType": "address",
          "name": "_sender",
          "type": "address"
        },
        {
          "internalType": "uint64",
          "name": "_srcChainId",
          "type": "uint64"
        },
        {
          "internalType": "bytes",
          "name": "_message",
          "type": "bytes"
        },
        {
          "internalType": "address",
          "name": "_executor",
          "type": "address"
        }
      ],
      "name": "executeMessage",
      "outputs": [
        {
          "internalType": "enum IMessageReceiverApp.ExecutionStatus",
          "name": "",
          "type": "uint8"
        }
      ],
      "stateMutability": "payable",
      "type": "function"
    },
    {
      "inputs": [
        {
          "internalType": "address",
          "name": "_sender",
          "type": "address"
        },
        {
          "internalType": "address",
          "name": "_token",
          "type": "address"
        },
        {
          "internalType": "uint256",
          "name": "_amount",
          "type": "uint256"
        },
        {
          "internalType": "uint64",
          "name": "_srcChainId",
          "type": "uint64"
        },
        {
          "internalType": "bytes",
          "name": "_message",
          "type": "bytes"
        },
        {
          "internalType": "address",
          "name": "_executor",
          "type": "address"
        }
      ],
      "name": "executeMessageWithTransfer",
      "outputs": [
        {
          "internalType": "enum IMessageReceiverApp.ExecutionStatus",
          "name": "",
          "type": "uint8"
        }
      ],
      "stateMutability": "payable",
      "type": "function"
    },
    {
      "inputs": [
        {
          "internalType": "address",
          "name": "_sender",
          "type": "address"
        },
        {
          "internalType": "address",
          "name": "_token",
          "type": "address"
        },
        {
          "internalType": "uint256",
          "name": "_amount",
          "type": "uint256"
        },
        {
          "internalType": "uint64",
          "name": "_srcChainId",
          "type": "uint64"
        },
        {
          "internalType": "bytes",
          "name": "_message",
          "type": "bytes"
        },
        {
          "internalType": "address",
          "name": "_executor",
          "type": "address"
        }
      ],
      "name": "executeMessageWithTransferFallback",
      "outputs": [
        {
          "internalType": "enum IMessageReceiverApp.ExecutionStatus",
          "name": "",
          "type": "uint8"
        }
      ],
      "stateMutability": "payable",
      "type": "function"
    },
    {
      "inputs": [
        {
          "internalType": "address",
          "name": "_token",
          "type": "address"
        },
        {
          "internalType": "uint256",
          "name": "_amount",
          "type": "uint256"
        },
        {
          "internalType": "bytes",
          "name": "_message",
          "type": "bytes"
        },
        {
          "internalType": "address",
          "name": "_executor",
          "type": "address"
        }
      ],
      "name": "executeMessageWithTransferRefund",
      "outputs": [
        {
          "internalType": "enum IMessageReceiverApp.ExecutionStatus",
          "name": "",
          "type": "uint8"
        }
      ],
      "stateMutability": "payable",
      "type": "function"
    },
    {
      "inputs": [],
      "name": "mainContract",
      "outputs": [
        {
          "internalType": "address",
          "name": "",
          "type": "address"
        }
      ],
      "stateMutability": "view",
      "type": "function"
    },
    {
      "inputs": [],
      "name": "messageBus",
      "outputs": [
        {
          "internalType": "address",
          "name": "",
          "type": "address"
        }
      ],
      "stateMutability": "view",
      "type": "function"
    },
    {
      "inputs": [],
      "name": "owner",
      "outputs": [
        {
          "internalType": "address",
          "name": "",
          "type": "address"
        }
      ],
      "stateMutability": "view",
      "type": "function"
    },
    {
      "inputs": [],
      "name": "renounceOwnership",
      "outputs": [],
      "stateMutability": "nonpayable",
      "type": "function"
    },
    {
      "inputs": [
        {
          "internalType": "address",
          "name": "_messageBus",
          "type": "address"
        }
      ],
      "name": "setMessageBus",
      "outputs": [],
      "stateMutability": "nonpayable",
      "type": "function"
    },
    {
      "inputs": [],
      "name": "testMode",
      "outputs": [
        {
          "internalType": "bool",
          "name": "",
          "type": "bool"
        }
      ],
      "stateMutability": "view",
      "type": "function"
    },
    {
      "inputs": [
        {
          "internalType": "address",
          "name": "newOwner",
          "type": "address"
        }
      ],
      "name": "transferOwnership",
      "outputs": [],
      "stateMutability": "nonpayable",
      "type": "function"
    },
    {
      "inputs": [
        {
          "internalType": "address",
          "name": "_mainContract",
          "type": "address"
        }
      ],
      "name": "updateMainContract",
      "outputs": [],
      "stateMutability": "nonpayable",
      "type": "function"
    },
    {
      "stateMutability": "payable",
      "type": "receive"
    }
  ],
  "transactionHash": "0x2f31eda38dac39a8cf34fec05d79cb80887c02b1d26d7d6667dc76b0c089023f",
  "args": [
    "0xFF4E183a0Ceb4Fa98E63BbF8077B929c8E5A2bA4"
  ],
  "numDeployments": 5,
  "solcInputHash": "a75841212acef808aea6466c645556ea",
  "bytecode": "0x60806040523480156200001157600080fd5b50604051620022d0380380620022d08339810160408190526200003491620000ef565b6200003f3362000065565b600180546001600160a01b0319166001600160a01b03929092169190911790556200011c565b600080546001600160a01b038381166001600160a01b0319831681178455604051919092169283917f8be0079c531659141344cd1fd0a4f28419497f9722a3daafe3b4186f6b6457e09190a35050565b60006001600160a01b0382165b92915050565b620000d381620000b5565b8114620000df57600080fd5b50565b8051620000c281620000c8565b600060208284031215620001065762000106600080fd5b6000620001148484620000e2565b949350505050565b6121a4806200012c6000396000f3fe6080604052600436106100d65760003560e01c80638da5cb5b1161007f578063cd9ea34211610059578063cd9ea342146101cf578063d270e7ab146101fd578063df8bbc591461021d578063f2fde38b1461023d57600080fd5b80638da5cb5b146101755780639c649fdf1461019c578063a1a227fa146101af57600080fd5b8063715018a6116100b0578063715018a6146101405780637cd2bffc1461012d578063834bc3ea1461015557600080fd5b80630bcb4982146100e2578063547cad121461010b5780635ab7afc61461012d57600080fd5b366100dd57005b600080fd5b6100f56100f036600461143c565b61025d565b604051610102919061150f565b60405180910390f35b34801561011757600080fd5b5061012b61012636600461151d565b61046f565b005b6100f561013b366004611559565b6104db565b34801561014c57600080fd5b5061012b610524565b6101686101633660046116fa565b610538565b604051610102919061181a565b34801561018157600080fd5b506000546001600160a01b03165b6040516101029190611834565b6100f56101aa366004611842565b61075d565b3480156101bb57600080fd5b5060015461018f906001600160a01b031681565b3480156101db57600080fd5b506001546101f090600160a01b900460ff1681565b6040516101029190611882565b34801561020957600080fd5b5060025461018f906001600160a01b031681565b34801561022957600080fd5b5061012b61023836600461151d565b61079b565b34801561024957600080fd5b5061012b61025836600461151d565b6107fb565b600154600090600160a01b900460ff166102a4576001546001600160a01b031633146102a45760405162461bcd60e51b815260040161029b906118c7565b60405180910390fd5b6002546040805163457bfa2f60e01b815290516000926001600160a01b031691829163457bfa2f916004808201926020929091908290030181865afa1580156102f1573d6000803e3d6000fd5b505050506040513d601f19601f8201168201806040525081019061031591906118e2565b6001600160a01b0316886001600160a01b03161461034c57600254610347906001600160a01b038a8116911689610835565b610350565b8691505b6000816001600160a01b031663fb453787848b8b8b8b8b6040518763ffffffff1660e01b815260040161038795949392919061192c565b60206040518083038185885af11580156103a5573d6000803e3d6000fd5b50505050506040513d601f19601f820116820180604052508101906103ca9190611981565b9050816001600160a01b031663457bfa2f6040518163ffffffff1660e01b8152600401602060405180830381865afa15801561040a573d6000803e3d6000fd5b505050506040513d601f19601f8201168201806040525081019061042e91906118e2565b6001600160a01b0316896001600160a01b03161461046157600254610461906001600160a01b038b811691166000610835565b925050505b95945050505050565b610477610952565b6001805473ffffffffffffffffffffffffffffffffffffffff19166001600160a01b0383169081179091556040517f3f8223bcd8b3b875473e9f9e14e1ad075451a2b5ffd31591655da9a01516bf5e916104d091611834565b60405180910390a150565b600154600090600160a01b900460ff16610519576001546001600160a01b031633146105195760405162461bcd60e51b815260040161029b906118c7565b979650505050505050565b61052c610952565b610536600061097c565b565b6002546060906001600160a01b031633146105655760405162461bcd60e51b815260040161029b906119d6565b60008380602001905181019061057b9190611a92565b90506105926001600160a01b0386163330896109d9565b60408101516001600160a01b03161561066357600081604001516001600160a01b03166326afaadd6040518163ffffffff1660e01b8152600401602060405180830381865afa1580156105e9573d6000803e3d6000fd5b505050506040513d601f19601f8201168201806040525081019061060d91906118e2565b9050856001600160a01b0316816001600160a01b0316146106405760405162461bcd60e51b815260040161029b90611ae7565b604082015161065a906001600160a01b0388169089610835565b81604001519550505b60006106988887898c866060015187602001518a8960000151600160009054906101000a90046001600160a01b031634610a00565b60408301519091506001600160a01b03161561072e5761072e8260400151600084604001516001600160a01b03166326afaadd6040518163ffffffff1660e01b8152600401602060405180830381865afa1580156106fa573d6000803e3d6000fd5b505050506040513d601f19601f8201168201806040525081019061071e91906118e2565b6001600160a01b03169190610835565b8060405160200161073f9190611afa565b604051602081830303815290604052925050505b9695505050505050565b600154600090600160a01b900460ff16610466576001546001600160a01b031633146104665760405162461bcd60e51b815260040161029b906118c7565b6107a3610952565b6002805473ffffffffffffffffffffffffffffffffffffffff19166001600160a01b0383161790556040517f50d0cbf2750e0276715bec254c588e057e0b05e87927eab7ebbad47fe1e88b4b906104d0908390611834565b610803610952565b6001600160a01b0381166108295760405162461bcd60e51b815260040161029b90611b6c565b6108328161097c565b50565b8015806108ae5750604051636eb1769f60e11b81526001600160a01b0384169063dd62ed3e9061086b9030908690600401611b7c565b602060405180830381865afa158015610888573d6000803e3d6000fd5b505050506040513d601f19601f820116820180604052508101906108ac9190611ba2565b155b6108ca5760405162461bcd60e51b815260040161029b90611c1d565b61094d8363095ea7b360e01b84846040516024016108e9929190611c2d565b60408051601f198184030181529190526020810180517bffffffffffffffffffffffffffffffffffffffffffffffffffffffff167fffffffff0000000000000000000000000000000000000000000000000000000090931692909217909152610a99565b505050565b6000546001600160a01b031633146105365760405162461bcd60e51b815260040161029b90611c7a565b600080546001600160a01b0383811673ffffffffffffffffffffffffffffffffffffffff19831681178455604051919092169283917f8be0079c531659141344cd1fd0a4f28419497f9722a3daafe3b4186f6b6457e09190a35050565b6109fa846323b872dd60e01b8585856040516024016108e993929190611c8a565b50505050565b6000806000610a158d8d8d8d8d8d8c8c610b28565b8851919350915015610a8957846001600160a01b0316634289fbb3858f8d85878d6040518763ffffffff1660e01b8152600401610a56959493929190611cd1565b6000604051808303818588803b158015610a6f57600080fd5b505af1158015610a83573d6000803e3d6000fd5b50505050505b509b9a5050505050505050505050565b6000610aee826040518060400160405280602081526020017f5361666545524332303a206c6f772d6c6576656c2063616c6c206661696c6564815250856001600160a01b03166111699092919063ffffffff16565b80519091501561094d5780806020019051810190610b0c9190611d2b565b61094d5760405162461bcd60e51b815260040161029b90611da6565b6000806001846006811115610b3f57610b3f6114c0565b03610c3857826001600160a01b03166382980dc46040518163ffffffff1660e01b8152600401602060405180830381865afa158015610b82573d6000803e3d6000fd5b505050506040513d601f19601f82011682018060405250810190610ba691906118e2565b9050610bbc6001600160a01b038a16828a611182565b60405163a5977fbb60e01b81526001600160a01b0382169063a5977fbb90610bf2908d908d908d908d908d908d90600401611dd2565b600060405180830381600087803b158015610c0c57600080fd5b505af1158015610c20573d6000803e3d6000fd5b50505050610c318a8a8a8a8a61121f565b915061115c565b6002846006811115610c4c57610c4c6114c0565b03610d3c57826001600160a01b031663d8257d176040518163ffffffff1660e01b8152600401602060405180830381865afa158015610c8f573d6000803e3d6000fd5b505050506040513d601f19601f82011682018060405250810190610cb391906118e2565b9050610cc96001600160a01b038a16828a611182565b806001600160a01b031663234636248a8a8a8e8b6040518663ffffffff1660e01b8152600401610cfd959493929190611e21565b600060405180830381600087803b158015610d1757600080fd5b505af1158015610d2b573d6000803e3d6000fd5b50505050610c318a8a8a8a8a61125f565b6003846006811115610d5057610d506114c0565b03610e5357826001600160a01b031663dfa2dbaf6040518163ffffffff1660e01b8152600401602060405180830381865afa158015610d93573d6000803e3d6000fd5b505050506040513d601f19601f82011682018060405250810190610db791906118e2565b9050610dcd6001600160a01b038a16828a611182565b604051636f3c863f60e11b81526001600160a01b0382169063de790c7e90610dff908c908c908f908c90600401611e63565b600060405180830381600087803b158015610e1957600080fd5b505af1158015610e2d573d6000803e3d6000fd5b50610e47925050506001600160a01b038a16826000610835565b610c318a8a8a8961127e565b6004846006811115610e6757610e676114c0565b03610f5b57826001600160a01b031663c66a9c5a6040518163ffffffff1660e01b8152600401602060405180830381865afa158015610eaa573d6000803e3d6000fd5b505050506040513d601f19601f82011682018060405250810190610ece91906118e2565b9050610ee46001600160a01b038a16828a611182565b806001600160a01b031663234636248a8a8a8e8b6040518663ffffffff1660e01b8152600401610f18959493929190611e21565b6020604051808303816000875af1158015610f37573d6000803e3d6000fd5b505050506040513d601f19601f82011682018060405250810190610c319190611ba2565b6005846006811115610f6f57610f6f6114c0565b0361107f57826001600160a01b03166395b12c276040518163ffffffff1660e01b8152600401602060405180830381865afa158015610fb2573d6000803e3d6000fd5b505050506040513d601f19601f82011682018060405250810190610fd691906118e2565b9050610fec6001600160a01b038a16828a611182565b806001600160a01b031663a00293018a8a8a8e8b6040518663ffffffff1660e01b8152600401611020959493929190611e21565b6020604051808303816000875af115801561103f573d6000803e3d6000fd5b505050506040513d601f19601f820116820180604052508101906110639190611ba2565b915061107a6001600160a01b038a16826000610835565b61115c565b6006846006811115611093576110936114c0565b0361114457826001600160a01b03166395b12c276040518163ffffffff1660e01b8152600401602060405180830381865afa1580156110d6573d6000803e3d6000fd5b505050506040513d601f19601f820116820180604052508101906110fa91906118e2565b90506111106001600160a01b038a16828a611182565b806001600160a01b0316639e422c338a8a8a8e8b6040518663ffffffff1660e01b8152600401611020959493929190611e21565b60405162461bcd60e51b815260040161029b90611ecc565b9850989650505050505050565b606061117884846000856112bc565b90505b9392505050565b600081846001600160a01b031663dd62ed3e30866040518363ffffffff1660e01b81526004016111b3929190611b7c565b602060405180830381865afa1580156111d0573d6000803e3d6000fd5b505050506040513d601f19601f820116820180604052508101906111f49190611ba2565b6111fe9190611ef2565b90506109fa8463095ea7b360e01b85846040516024016108e9929190611c2d565b60003086868686864660405160200161123e9796959493929190611f51565b60405160208183030381529060405280519060200120905095945050505050565b60003085858589864660405160200161123e9796959493929190611fcc565b600030848487854660405160200161129b96959493929190612028565b6040516020818303038152906040528051906020012090505b949350505050565b6060824710156112de5760405162461bcd60e51b815260040161029b906120ec565b6001600160a01b0385163b6113055760405162461bcd60e51b815260040161029b90612130565b600080866001600160a01b031685876040516113219190612162565b60006040518083038185875af1925050503d806000811461135e576040519150601f19603f3d011682016040523d82523d6000602084013e611363565b606091505b50915091506105198282866060831561137d57508161117b565b82511561138d5782518084602001fd5b8160405162461bcd60e51b815260040161029b919061181a565b60006001600160a01b0382165b92915050565b6113c3816113a7565b811461083257600080fd5b80356113b4816113ba565b806113c3565b80356113b4816113d9565b60008083601f8401126113ff576113ff600080fd5b50813567ffffffffffffffff81111561141a5761141a600080fd5b60208301915083600182028301111561143557611435600080fd5b9250929050565b60008060008060006080868803121561145757611457600080fd5b600061146388886113ce565b9550506020611474888289016113df565b945050604086013567ffffffffffffffff81111561149457611494600080fd5b6114a0888289016113ea565b935093505060606114b3888289016113ce565b9150509295509295909350565b634e487b7160e01b600052602160045260246000fd5b60038110610832576108326114c0565b806114f0816114d6565b919050565b60006113b4826114e6565b611509816114f5565b82525050565b602081016113b48284611500565b60006020828403121561153257611532600080fd5b60006112b484846113ce565b67ffffffffffffffff81166113c3565b80356113b48161153e565b600080600080600080600060c0888a03121561157757611577600080fd5b60006115838a8a6113ce565b97505060206115948a828b016113ce565b96505060406115a58a828b016113df565b95505060606115b68a828b0161154e565b945050608088013567ffffffffffffffff8111156115d6576115d6600080fd5b6115e28a828b016113ea565b935093505060a06115f58a828b016113ce565b91505092959891949750929550565b634e487b7160e01b600052604160045260246000fd5b601f19601f830116810181811067ffffffffffffffff8211171561164057611640611604565b6040525050565b600061165260405190565b90506114f0828261161a565b600067ffffffffffffffff82111561167857611678611604565b601f19601f83011660200192915050565b82818337506000910152565b60006116a86116a38461165e565b611647565b9050828152602081018484840111156116c3576116c3600080fd5b6116ce848285611689565b509392505050565b600082601f8301126116ea576116ea600080fd5b81356112b4848260208601611695565b60008060008060008060c0878903121561171657611716600080fd5b6000611722898961154e565b965050602061173389828a016113ce565b955050604061174489828a016113df565b945050606061175589828a016113ce565b935050608087013567ffffffffffffffff81111561177557611775600080fd5b61178189828a016116d6565b92505060a087013567ffffffffffffffff8111156117a1576117a1600080fd5b6117ad89828a016116d6565b9150509295509295509295565b60005b838110156117d55781810151838201526020016117bd565b838111156109fa5750506000910152565b60006117f0825190565b8084526020840193506118078185602086016117ba565b601f19601f8201165b9093019392505050565b6020808252810161117b81846117e6565b611509816113a7565b602081016113b4828461182b565b60008060008060006080868803121561185d5761185d600080fd5b600061186988886113ce565b95505060206114748882890161154e565b801515611509565b602081016113b4828461187a565b601981526000602082017f63616c6c6572206973206e6f74206d6573736167652062757300000000000000815291505b5060200190565b602080825281016113b481611890565b80516113b4816113ba565b6000602082840312156118f7576118f7600080fd5b60006112b484846118d7565b80611509565b818352600060208401935061191f838584611689565b601f19601f840116611810565b6080810161193a828861182b565b6119476020830187611903565b818103604083015261195a818587611909565b9050610753606083018461182b565b6003811061083257600080fd5b80516113b481611969565b60006020828403121561199657611996600080fd5b60006112b48484611976565b601b81526000602082017f63616c6c6572206973206e6f74206d61696e20636f6e74726163740000000000815291506118c0565b602080825281016113b4816119a2565b6007811061083257600080fd5b80516113b4816119e6565b63ffffffff81166113c3565b80516113b4816119fe565b80516113b48161153e565b600060808284031215611a3557611a35600080fd5b611a3f6080611647565b90506000611a4d84846119f3565b8252506020611a5e84848301611a0a565b6020830152506040611a72848285016118d7565b6040830152506060611a8684828501611a15565b60608301525092915050565b600060808284031215611aa757611aa7600080fd5b60006112b48484611a20565b601381526000602082017f63616e6f6e6963616c20213d205f746f6b656e00000000000000000000000000815291506118c0565b602080825281016113b481611ab3565b90565b6000611b068284611903565b50602001919050565b602681526000602082017f4f776e61626c653a206e6577206f776e657220697320746865207a65726f206181527f6464726573730000000000000000000000000000000000000000000000000000602082015291505b5060400190565b602080825281016113b481611b0f565b60408101611b8a828561182b565b61117b602083018461182b565b80516113b4816113d9565b600060208284031215611bb757611bb7600080fd5b60006112b48484611b97565b603681526000602082017f5361666545524332303a20617070726f76652066726f6d206e6f6e2d7a65726f81527f20746f206e6f6e2d7a65726f20616c6c6f77616e63650000000000000000000060208201529150611b65565b602080825281016113b481611bc3565b60408101611c3b828561182b565b61117b6020830184611903565b60208082527f4f776e61626c653a2063616c6c6572206973206e6f7420746865206f776e6572910190815260006118c0565b602080825281016113b481611c48565b60608101611c98828661182b565b611ca5602083018561182b565b6112b46040830184611903565b60006113b4611af767ffffffffffffffff841681565b61150981611cb2565b60a08101611cdf828861182b565b611cec6020830187611cc8565b611cf9604083018661182b565b611d066060830185611903565b818103608083015261051981846117e6565b8015156113c3565b80516113b481611d18565b600060208284031215611d4057611d40600080fd5b60006112b48484611d20565b602a81526000602082017f5361666545524332303a204552433230206f7065726174696f6e20646964206e81527f6f7420737563636565640000000000000000000000000000000000000000000060208201529150611b65565b602080825281016113b481611d4c565b67ffffffffffffffff8116611509565b63ffffffff8116611509565b60c08101611de0828961182b565b611ded602083018861182b565b611dfa6040830187611903565b611e076060830186611db6565b611e146080830185611db6565b61051960a0830184611dc6565b60a08101611e2f828861182b565b611e3c6020830187611903565b611e496040830186611db6565b611e56606083018561182b565b6107536080830184611db6565b60808101611e71828761182b565b611e7e6020830186611903565b611e8b604083018561182b565b6104666060830184611db6565b601981526000602082017f6272696467652074797065206e6f7420737570706f7274656400000000000000815291506118c0565b602080825281016113b481611e98565b634e487b7160e01b600052601160045260246000fd5b60008219821115611f0557611f05611edc565b500190565b60006113b48260601b90565b60006113b482611f0a565b611509611f2d826113a7565b611f16565b60006113b48260c01b90565b61150967ffffffffffffffff8216611f32565b6000611f5d828a611f21565b601482019150611f6d8289611f21565b601482019150611f7d8288611f21565b601482019150611f8d8287611903565b602082019150611f9d8286611f3e565b600882019150611fad8285611f3e565b600882019150611fbd8284611f3e565b50600801979650505050505050565b6000611fd8828a611f21565b601482019150611fe88289611f21565b601482019150611ff88288611903565b6020820191506120088287611f3e565b6008820191506120188286611f21565b601482019150611fad8285611f3e565b60006120348289611f21565b6014820191506120448288611f21565b6014820191506120548287611903565b6020820191506120648286611f21565b6014820191506120748285611f3e565b6008820191506120848284611f3e565b506008019695505050505050565b602681526000602082017f416464726573733a20696e73756666696369656e742062616c616e636520666f81527f722063616c6c000000000000000000000000000000000000000000000000000060208201529150611b65565b602080825281016113b481612092565b601d81526000602082017f416464726573733a2063616c6c20746f206e6f6e2d636f6e7472616374000000815291506118c0565b602080825281016113b4816120fc565b600061214a825190565b6121588185602086016117ba565b9290920192915050565b600061117b828461214056fea2646970667358221220cd79e76d0fac0912a4f37e1571bbae256c897b7df8c71c3508fcf38a4927011e64736f6c634300080f0033",
  "devdoc": {
    "kind": "dev",
    "methods": {
      "executeMessage(address,uint64,bytes,address)": {
        "params": {
          "_executor": "Address who called the MessageBus execution function",
          "_message": "Arbitrary message bytes originated from and encoded by the source app contract",
          "_sender": "The address of the source app contract",
          "_srcChainId": "The source chain ID where the transfer is originated from"
        }
      },
      "executeMessageWithTransfer(address,address,uint256,uint64,bytes,address)": {
        "params": {
          "_amount": "The amount of tokens received at this contract through the cross-chain bridge.        the contract that implements this contract can safely assume that the tokens will arrive before this        function is called.",
          "_executor": "Address who called the MessageBus execution function",
          "_message": "Arbitrary message bytes originated from and encoded by the source app contract",
          "_sender": "The address of the source app contract",
          "_srcChainId": "The source chain ID where the transfer is originated from",
          "_token": "The address of the token that comes out of the bridge"
        }
      },
      "executeMessageWithTransferFallback(address,address,uint256,uint64,bytes,address)": {
        "params": {
          "_amount": "The amount of tokens received at this contract through the cross-chain bridge.        the contract that implements this contract can safely assume that the tokens will arrive before this        function is called.",
          "_executor": "Address who called the MessageBus execution function",
          "_message": "Arbitrary message bytes originated from and encoded by the source app contract",
          "_sender": "The address of the source app contract",
          "_srcChainId": "The source chain ID where the transfer is originated from",
          "_token": "The address of the token that comes out of the bridge"
        }
      },
      "executeMessageWithTransferRefund(address,uint256,bytes,address)": {
        "details": "only MessageBus can call this function, this requires the user to get sigs of the message from SGNBridge contract *always* sends native token to its receiver (this contract) even though the _token field is always an ERC20 token",
        "params": {
          "_amount": "the amount of token received by this contract",
          "_token": "the token received by this contract"
        },
        "returns": {
          "_0": "ok whether the processing is successful"
        }
      },
      "owner()": {
        "details": "Returns the address of the current owner."
      },
      "renounceOwnership()": {
        "details": "Leaves the contract without owner. It will not be possible to call `onlyOwner` functions anymore. Can only be called by the current owner. NOTE: Renouncing ownership will leave the contract without an owner, thereby removing any functionality that is only available to the owner."
      },
      "transferOwnership(address)": {
        "details": "Transfers ownership of the contract to a new account (`newOwner`). Can only be called by the current owner."
      }
    },
    "version": 1
  },
  "userdoc": {
    "kind": "user",
    "methods": {
      "executeMessage(address,uint64,bytes,address)": {
        "notice": "Called by MessageBus (MessageBusReceiver)"
      },
      "executeMessageWithTransfer(address,address,uint256,uint64,bytes,address)": {
        "notice": "Called by MessageBus (MessageBusReceiver) if the process is originated from MessageBus (MessageBusSender)'s         sendMessageWithTransfer it is only called when the tokens are checked to be arrived at this contract's address."
      },
      "executeMessageWithTransferFallback(address,address,uint256,uint64,bytes,address)": {
        "notice": "Only called by MessageBus (MessageBusReceiver) if         1. executeMessageWithTransfer reverts, or         2. executeMessageWithTransfer returns ExecutionStatus.Fail"
      },
      "executeMessageWithTransferRefund(address,uint256,bytes,address)": {
        "notice": "Used to trigger refund when bridging fails due to large slippage"
      }
    },
    "version": 1
  },
  "storageLayout": {
    "storage": [
      {
        "astId": 7,
        "contract": "contracts/bridges/CBridgeAdapter.sol:CBridgeAdapter",
        "label": "_owner",
        "offset": 0,
        "slot": "0",
        "type": "t_address"
      },
      {
        "astId": 9219,
        "contract": "contracts/bridges/CBridgeAdapter.sol:CBridgeAdapter",
        "label": "messageBus",
        "offset": 0,
        "slot": "1",
        "type": "t_address"
      },
      {
        "astId": 9246,
        "contract": "contracts/bridges/CBridgeAdapter.sol:CBridgeAdapter",
        "label": "testMode",
        "offset": 20,
        "slot": "1",
        "type": "t_bool"
      },
      {
        "astId": 5143,
        "contract": "contracts/bridges/CBridgeAdapter.sol:CBridgeAdapter",
        "label": "mainContract",
        "offset": 0,
        "slot": "2",
        "type": "t_address"
      }
    ],
    "types": {
      "t_address": {
        "encoding": "inplace",
        "label": "address",
        "numberOfBytes": "20"
      },
      "t_bool": {
        "encoding": "inplace",
        "label": "bool",
        "numberOfBytes": "1"
      }
    }
  }
}