{
  "address": "0x875EDD311a65995275F6e64b545025804a80e1De",
  "abi": [
    {
      "inputs": [
        {
          "internalType": "address",
          "name": "_feeCollector",
          "type": "address"
        }
      ],
      "stateMutability": "nonpayable",
      "type": "constructor"
    },
    {
      "anonymous": false,
      "inputs": [
        {
          "indexed": false,
          "internalType": "address",
          "name": "from",
          "type": "address"
        },
        {
          "indexed": false,
          "internalType": "address",
          "name": "to",
          "type": "address"
        }
      ],
      "name": "FeeCollectorUpdated",
      "type": "event"
    },
    {
      "anonymous": false,
      "inputs": [
        {
          "indexed": true,
          "internalType": "address",
          "name": "previousOwner",
          "type": "address"
        },
        {
          "indexed": true,
          "internalType": "address",
          "name": "newOwner",
          "type": "address"
        }
      ],
      "name": "OwnershipTransferred",
      "type": "event"
    },
    {
      "inputs": [
        {
          "internalType": "address[]",
          "name": "_tokens",
          "type": "address[]"
        },
        {
          "internalType": "address",
          "name": "_to",
          "type": "address"
        }
      ],
      "name": "collectFee",
      "outputs": [],
      "stateMutability": "nonpayable",
      "type": "function"
    },
    {
      "inputs": [],
      "name": "feeCollector",
      "outputs": [
        {
          "internalType": "address",
          "name": "",
          "type": "address"
        }
      ],
      "stateMutability": "view",
      "type": "function"
    },
    {
      "inputs": [],
      "name": "owner",
      "outputs": [
        {
          "internalType": "address",
          "name": "",
          "type": "address"
        }
      ],
      "stateMutability": "view",
      "type": "function"
    },
    {
      "inputs": [
        {
          "internalType": "address",
          "name": "_feeCollector",
          "type": "address"
        }
      ],
      "name": "setFeeCollector",
      "outputs": [],
      "stateMutability": "nonpayable",
      "type": "function"
    },
    {
      "inputs": [
        {
          "internalType": "address",
          "name": "newOwner",
          "type": "address"
        }
      ],
      "name": "transferOwnership",
      "outputs": [],
      "stateMutability": "nonpayable",
      "type": "function"
    },
    {
      "stateMutability": "payable",
      "type": "receive"
    }
  ],
  "transactionHash": "0x4211f3f8b878fa99a9e628869819275475179ef3acdb7cc1b24ba9ae09411709",
  "args": [
    "0xf0761BB438CeFca39A8fd1F27d75ccC7F6Df92d8"
  ],
  "numDeployments": 1,
  "solcInputHash": "ca232421932d0d30a2af9944bf4817a3",
  "bytecode": "0x608060405234801561001057600080fd5b50604051610b46380380610b4683398101604081905261002f916100ad565b6100383361005d565b600180546001600160a01b0319166001600160a01b03929092169190911790556100dd565b600080546001600160a01b038381166001600160a01b0319831681178455604051919092169283917f8be0079c531659141344cd1fd0a4f28419497f9722a3daafe3b4186f6b6457e09190a35050565b6000602082840312156100bf57600080fd5b81516001600160a01b03811681146100d657600080fd5b9392505050565b610a5a806100ec6000396000f3fe60806040526004361061005e5760003560e01c8063c415b95c11610043578063c415b95c146100c2578063efcfd8f5146100e2578063f2fde38b1461010257600080fd5b80638da5cb5b1461006a578063a42dce80146100a057600080fd5b3661006557005b600080fd5b34801561007657600080fd5b506000546001600160a01b03165b6040516001600160a01b03909116815260200160405180910390f35b3480156100ac57600080fd5b506100c06100bb366004610892565b610122565b005b3480156100ce57600080fd5b50600154610084906001600160a01b031681565b3480156100ee57600080fd5b506100c06100fd3660046108ad565b61019c565b34801561010e57600080fd5b506100c061011d366004610892565b6103d2565b336101356000546001600160a01b031690565b6001600160a01b0316146101905760405162461bcd60e51b815260206004820181905260248201527f4f776e61626c653a2063616c6c6572206973206e6f7420746865206f776e657260448201526064015b60405180910390fd5b610199816104c0565b50565b6001546001600160a01b031633146101f65760405162461bcd60e51b815260206004820152601160248201527f6e6f742066656520636f6c6c6563746f720000000000000000000000000000006044820152606401610187565b60005b828110156103cc57600084848381811061021557610215610931565b905060200201602081019061022a9190610892565b6001600160a01b0316036102e75760405147906000906001600160a01b0385169061c35090849084818181858888f193505050503d806000811461028a576040519150601f19603f3d011682016040523d82523d6000602084013e61028f565b606091505b50509050806102e05760405162461bcd60e51b815260206004820152601260248201527f73656e64206e6174697665206661696c656400000000000000000000000000006044820152606401610187565b50506103ba565b60008484838181106102fb576102fb610931565b90506020020160208101906103109190610892565b6040516370a0823160e01b81523060048201526001600160a01b0391909116906370a0823190602401602060405180830381865afa158015610356573d6000803e3d6000fd5b505050506040513d601f19601f8201168201806040525081019061037a9190610947565b90506103b8838287878681811061039357610393610931565b90506020020160208101906103a89190610892565b6001600160a01b0316919061052e565b505b806103c481610960565b9150506101f9565b50505050565b336103e56000546001600160a01b031690565b6001600160a01b03161461043b5760405162461bcd60e51b815260206004820181905260248201527f4f776e61626c653a2063616c6c6572206973206e6f7420746865206f776e65726044820152606401610187565b6001600160a01b0381166104b75760405162461bcd60e51b815260206004820152602660248201527f4f776e61626c653a206e6577206f776e657220697320746865207a65726f206160448201527f64647265737300000000000000000000000000000000000000000000000000006064820152608401610187565b6101998161059a565b600180546001600160a01b0383811673ffffffffffffffffffffffffffffffffffffffff1983168117909355604080519190921680825260208201939093527f5d16ad41baeb009cd23eb8f6c7cde5c2e0cd5acf4a33926ab488875c37c37f38910160405180910390a15050565b604080516001600160a01b038416602482015260448082018490528251808303909101815260649091019091526020810180517bffffffffffffffffffffffffffffffffffffffffffffffffffffffff1663a9059cbb60e01b1790526105959084906105f7565b505050565b600080546001600160a01b0383811673ffffffffffffffffffffffffffffffffffffffff19831681178455604051919092169283917f8be0079c531659141344cd1fd0a4f28419497f9722a3daafe3b4186f6b6457e09190a35050565b600061064c826040518060400160405280602081526020017f5361666545524332303a206c6f772d6c6576656c2063616c6c206661696c6564815250856001600160a01b03166106dc9092919063ffffffff16565b805190915015610595578080602001905181019061066a9190610987565b6105955760405162461bcd60e51b815260206004820152602a60248201527f5361666545524332303a204552433230206f7065726174696f6e20646964206e60448201527f6f742073756363656564000000000000000000000000000000000000000000006064820152608401610187565b60606106eb84846000856106f5565b90505b9392505050565b60608247101561076d5760405162461bcd60e51b815260206004820152602660248201527f416464726573733a20696e73756666696369656e742062616c616e636520666f60448201527f722063616c6c00000000000000000000000000000000000000000000000000006064820152608401610187565b6001600160a01b0385163b6107c45760405162461bcd60e51b815260206004820152601d60248201527f416464726573733a2063616c6c20746f206e6f6e2d636f6e74726163740000006044820152606401610187565b600080866001600160a01b031685876040516107e091906109d5565b60006040518083038185875af1925050503d806000811461081d576040519150601f19603f3d011682016040523d82523d6000602084013e610822565b606091505b509150915061083282828661083d565b979650505050505050565b6060831561084c5750816106ee565b82511561085c5782518084602001fd5b8160405162461bcd60e51b815260040161018791906109f1565b80356001600160a01b038116811461088d57600080fd5b919050565b6000602082840312156108a457600080fd5b6106ee82610876565b6000806000604084860312156108c257600080fd5b833567ffffffffffffffff808211156108da57600080fd5b818601915086601f8301126108ee57600080fd5b8135818111156108fd57600080fd5b8760208260051b850101111561091257600080fd5b6020928301955093506109289186019050610876565b90509250925092565b634e487b7160e01b600052603260045260246000fd5b60006020828403121561095957600080fd5b5051919050565b60006001820161098057634e487b7160e01b600052601160045260246000fd5b5060010190565b60006020828403121561099957600080fd5b815180151581146106ee57600080fd5b60005b838110156109c45781810151838201526020016109ac565b838111156103cc5750506000910152565b600082516109e78184602087016109a9565b9190910192915050565b6020815260008251806020840152610a108160408501602087016109a9565b601f01601f1916919091016040019291505056fea26469706673582212208076793a618d7e4b73e65776543fc88449a117d6631b90b687509118a57e95ad64736f6c634300080f0033",
  "devdoc": {
    "author": "Padoriku",
    "kind": "dev",
    "methods": {
      "owner()": {
        "details": "Returns the address of the current owner."
      },
      "transferOwnership(address)": {
        "details": "Transfers ownership of the contract to a new account (`newOwner`). Can only be called by the current owner."
      }
    },
    "title": "Allows the owner to set fee collector and allows fee collectors to collect fees",
    "version": 1
  },
  "userdoc": {
    "kind": "user",
    "methods": {},
    "version": 1
  },
  "storageLayout": {
    "storage": [
      {
        "astId": 9678,
        "contract": "contracts/FeeVault.sol:FeeVault",
        "label": "_owner",
        "offset": 0,
        "slot": "0",
        "type": "t_address"
      },
      {
        "astId": 4020,
        "contract": "contracts/FeeVault.sol:FeeVault",
        "label": "feeCollector",
        "offset": 0,
        "slot": "1",
        "type": "t_address"
      }
    ],
    "types": {
      "t_address": {
        "encoding": "inplace",
        "label": "address",
        "numberOfBytes": "20"
      }
    }
  }
}