{
  "address": "0x3BEbc3a0a97F7de155c978CA76954Ad9C284Bab9",
  "abi": [
    {
      "inputs": [
        {
          "internalType": "address[]",
          "name": "_tokens",
          "type": "address[]"
        },
        {
          "internalType": "address[]",
          "name": "_bridges",
          "type": "address[]"
        },
        {
          "internalType": "bool",
          "name": "_isL1",
          "type": "bool"
        },
        {
          "internalType": "address",
          "name": "_nativeWrap",
          "type": "address"
        }
      ],
      "stateMutability": "nonpayable",
      "type": "constructor"
    },
    {
      "anonymous": false,
      "inputs": [
        {
          "indexed": false,
          "internalType": "address[]",
          "name": "tokens",
          "type": "address[]"
        },
        {
          "indexed": false,
          "internalType": "address[]",
          "name": "bridges",
          "type": "address[]"
        }
      ],
      "name": "BridgeUpdated",
      "type": "event"
    },
    {
      "anonymous": false,
      "inputs": [
        {
          "indexed": false,
          "internalType": "address",
          "name": "nativeWrap",
          "type": "address"
        }
      ],
      "name": "NativeWrapUpdated",
      "type": "event"
    },
    {
      "anonymous": false,
      "inputs": [
        {
          "indexed": true,
          "internalType": "address",
          "name": "previousOwner",
          "type": "address"
        },
        {
          "indexed": true,
          "internalType": "address",
          "name": "newOwner",
          "type": "address"
        }
      ],
      "name": "OwnershipTransferred",
      "type": "event"
    },
    {
      "inputs": [
        {
          "internalType": "uint64",
          "name": "_dstChainId",
          "type": "uint64"
        },
        {
          "internalType": "address",
          "name": "_receiver",
          "type": "address"
        },
        {
          "internalType": "uint256",
          "name": "_amount",
          "type": "uint256"
        },
        {
          "internalType": "address",
          "name": "_token",
          "type": "address"
        },
        {
          "internalType": "bytes",
          "name": "_bridgeParams",
          "type": "bytes"
        },
        {
          "internalType": "bytes",
          "name": "",
          "type": "bytes"
        }
      ],
      "name": "bridge",
      "outputs": [
        {
          "internalType": "bytes",
          "name": "bridgeResp",
          "type": "bytes"
        }
      ],
      "stateMutability": "payable",
      "type": "function"
    },
    {
      "inputs": [
        {
          "internalType": "address",
          "name": "",
          "type": "address"
        }
      ],
      "name": "bridges",
      "outputs": [
        {
          "internalType": "address",
          "name": "",
          "type": "address"
        }
      ],
      "stateMutability": "view",
      "type": "function"
    },
    {
      "inputs": [],
      "name": "isL1",
      "outputs": [
        {
          "internalType": "bool",
          "name": "",
          "type": "bool"
        }
      ],
      "stateMutability": "view",
      "type": "function"
    },
    {
      "inputs": [],
      "name": "nativeWrap",
      "outputs": [
        {
          "internalType": "address",
          "name": "",
          "type": "address"
        }
      ],
      "stateMutability": "view",
      "type": "function"
    },
    {
      "inputs": [],
      "name": "owner",
      "outputs": [
        {
          "internalType": "address",
          "name": "",
          "type": "address"
        }
      ],
      "stateMutability": "view",
      "type": "function"
    },
    {
      "inputs": [],
      "name": "renounceOwnership",
      "outputs": [],
      "stateMutability": "nonpayable",
      "type": "function"
    },
    {
      "inputs": [
        {
          "internalType": "address[]",
          "name": "_tokens",
          "type": "address[]"
        },
        {
          "internalType": "address[]",
          "name": "_bridges",
          "type": "address[]"
        }
      ],
      "name": "setBridges",
      "outputs": [],
      "stateMutability": "nonpayable",
      "type": "function"
    },
    {
      "inputs": [
        {
          "internalType": "address",
          "name": "_nativeWrap",
          "type": "address"
        }
      ],
      "name": "setNativeWrap",
      "outputs": [],
      "stateMutability": "nonpayable",
      "type": "function"
    },
    {
      "inputs": [
        {
          "internalType": "address",
          "name": "newOwner",
          "type": "address"
        }
      ],
      "name": "transferOwnership",
      "outputs": [],
      "stateMutability": "nonpayable",
      "type": "function"
    },
    {
      "stateMutability": "payable",
      "type": "receive"
    }
  ],
  "transactionHash": "0x909739885551c6acc4118abec86e41f0b8d89a2af529e1c053ea5cf353bf275a",
  "args": [
    [
      "0x2791Bca1f2de4661ED88A30C99A7a9449Aa84174",
      "0xc2132D05D31c914a87C6611C10748AEb04B58e8F",
      "0x0d500B1d8E8eF31E21C99d1Db9A6444d3ADf1270",
      "0x8f3Cf7ad23Cd3CaDbD9735AFf958023239c6A063",
      "0x7ceB23fD6bC0adD59E62ac25578270cFf1b9f619",
      "0x1BFD67037B42Cf73acF2047067bd4F2C47D9BfD6"
    ],
    [
      "0x76b22b8C1079A44F1211D867D68b1eda76a635A7",
      "0x8741Ba6225A6BF91f9D73531A98A89807857a2B3",
      "0x884d1Aa15F9957E1aEAA86a82a72e49Bc2bfCbe3",
      "0x28529fec439cfF6d7D1D5917e956dEE62Cd3BE5c",
      "0xc315239cFb05F1E130E7E28E603CEa4C014c57f0",
      "0xCd1d7AEfA8055e020db0d0e98bbF3FeD1A16aad6"
    ],
    false,
    "0x0d500b1d8e8ef31e21c99d1db9a6444d3adf1270"
  ],
  "numDeployments": 1,
  "solcInputHash": "3adec8c27b43fb34c47eeb2e7f2a3fc4",
  "bytecode": "0x60a06040523480156200001157600080fd5b50604051620019db380380620019db833981016040819052620000349162000384565b806200004033620000ae565b6001600160a01b038116620000725760405162461bcd60e51b8152600401620000699062000453565b60405180910390fd5b600180546001600160a01b0319166001600160a01b0392909216919091179055811515608052620000a48484620000fe565b5050505062000585565b600080546001600160a01b038381166001600160a01b0319831681178455604051919092169283917f8be0079c531659141344cd1fd0a4f28419497f9722a3daafe3b4186f6b6457e09190a35050565b8051825114620001225760405162461bcd60e51b8152600401620000699062000489565b60005b82518160ff161015620001d057818160ff16815181106200014a576200014a6200049b565b602002602001015160026000858460ff16815181106200016e576200016e6200049b565b60200260200101516001600160a01b03166001600160a01b0316815260200190815260200160002060006101000a8154816001600160a01b0302191690836001600160a01b031602179055508080620001c790620004c7565b91505062000125565b507fe6f8b37160fcd8da316f0f1af6909be686dfdb00300ad6bb0727b8ca058df2f78282604051620002049291906200055c565b60405180910390a15050565b634e487b7160e01b600052604160045260246000fd5b601f19601f83011681018181106001600160401b03821117156200024e576200024e62000210565b6040525050565b60006200026160405190565b90506200026f828262000226565b919050565b60006001600160401b0382111562000290576200029062000210565b5060209081020190565b60006001600160a01b0382165b92915050565b620002b8816200029a565b8114620002c457600080fd5b50565b8051620002a781620002ad565b6000620002eb620002e58462000274565b62000255565b838152905060208082019084028301858111156200030c576200030c600080fd5b835b81811015620003345780620003248882620002c7565b845250602092830192016200030e565b5050509392505050565b600082601f830112620003545762000354600080fd5b815162000366848260208601620002d4565b949350505050565b801515620002b8565b8051620002a7816200036e565b600080600080608085870312156200039f576200039f600080fd5b84516001600160401b03811115620003ba57620003ba600080fd5b620003c8878288016200033e565b94505060208501516001600160401b03811115620003e957620003e9600080fd5b620003f7878288016200033e565b93505060406200040a8782880162000377565b92505060606200041d87828801620002c7565b91505092959194509250565b601081526000602082016f07a65726f206e617469766520777261760841b815291505b5060200190565b60208082528101620002a78162000429565b600c81526000602082016b0d8cadc40dad2e6dac2e8c6d60a31b815291506200044c565b60208082528101620002a78162000465565b634e487b7160e01b600052603260045260246000fd5b634e487b7160e01b600052601160045260246000fd5b60ff16600060fe198201620004e057620004e0620004b1565b5060010190565b620004f2816200029a565b82525050565b6000620005068383620004e7565b505060200190565b600062000519825190565b80845260209384019383018060005b83811015620005515781516200053f8882620004f8565b97506020830192505060010162000528565b509495945050505050565b604080825281016200056f81856200050e565b905081810360208301526200036681846200050e565b608051611434620005a76000396000818160b8015261034101526114346000f3fe60806040526004361061009a5760003560e01c8063715018a6116100695780638da5cb5b1161004e5780638da5cb5b14610194578063ced67f0c146101b2578063f2fde38b146101e857600080fd5b8063715018a61461015f578063834bc3ea1461017457600080fd5b80631974932b146100a65780633509c148146100f0578063457bfa2f146101125780635b5a66a71461013f57600080fd5b366100a157005b600080fd5b3480156100b257600080fd5b506100da7f000000000000000000000000000000000000000000000000000000000000000081565b6040516100e79190610a97565b60405180910390f35b3480156100fc57600080fd5b5061011061010b366004610afd565b610208565b005b34801561011e57600080fd5b50600154610132906001600160a01b031681565b6040516100e79190610b90565b34801561014b57600080fd5b5061011061015a366004610bbd565b610283565b34801561016b57600080fd5b506101106102ba565b610187610182366004610d05565b6102ce565b6040516100e79190610e23565b3480156101a057600080fd5b506000546001600160a01b0316610132565b3480156101be57600080fd5b506101326101cd366004610bbd565b6002602052600090815260409020546001600160a01b031681565b3480156101f457600080fd5b50610110610203366004610bbd565b6105fd565b610210610637565b61027d8484808060200260200160405190810160405280939291908181526020018383602002808284376000920191909152505060408051602080880282810182019093528782529093508792508691829185019084908082843760009201919091525061066192505050565b50505050565b61028b610637565b6001805473ffffffffffffffffffffffffffffffffffffffff19166001600160a01b0392909216919091179055565b6102c2610637565b6102cc6000610764565b565b60606000838060200190518101906102e69190610e9d565b6001600160a01b03808716600090815260026020526040902054919250168061032a5760405162461bcd60e51b815260040161032190610ef5565b60405180910390fd5b61033f6001600160a01b03871633308a6107c1565b7f000000000000000000000000000000000000000000000000000000000000000015610472576001546000906001600160a01b03908116908816036103e457604051632e1a7d4d60e01b81526001600160a01b03881690632e1a7d4d906103aa908b90600401610f0b565b600060405180830381600087803b1580156103c457600080fd5b505af11580156103d8573d6000803e3d6000fd5b505050508790506103f8565b6103f86001600160a01b038816838a610846565b816001600160a01b031663deace8f5828c8c8c886000015189602001516000806040518963ffffffff1660e01b815260040161043a9796959493929190610f50565b6000604051808303818588803b15801561045357600080fd5b505af1158015610467573d6000803e3d6000fd5b5050505050506105f1565b6001546000906001600160a01b0388811691161480156104ef5750816001600160a01b031663285551256040518163ffffffff1660e01b8152600401602060405180830381865afa1580156104cb573d6000803e3d6000fd5b505050506040513d601f19601f820116820180604052508101906104ef9190610fcb565b1561055a57604051632e1a7d4d60e01b81526001600160a01b03881690632e1a7d4d90610520908b90600401610f0b565b600060405180830381600087803b15801561053a57600080fd5b505af115801561054e573d6000803e3d6000fd5b5050505087905061056e565b61056e6001600160a01b038816838a610846565b816001600160a01b031663eea0d7b2828c8c8c886040015189600001518a602001518b600001518c602001516040518a63ffffffff1660e01b81526004016105bd989796959493929190610fec565b6000604051808303818588803b1580156105d657600080fd5b505af11580156105ea573d6000803e3d6000fd5b5050505050505b50509695505050505050565b610605610637565b6001600160a01b03811661062b5760405162461bcd60e51b8152600401610321906110c0565b61063481610764565b50565b6000546001600160a01b031633146102cc5760405162461bcd60e51b815260040161032190611102565b80518251146106825760405162461bcd60e51b815260040161032190611146565b60005b82518160ff16101561072657818160ff16815181106106a6576106a6611156565b602002602001015160026000858460ff16815181106106c7576106c7611156565b60200260200101516001600160a01b03166001600160a01b0316815260200190815260200160002060006101000a8154816001600160a01b0302191690836001600160a01b03160217905550808061071e90611182565b915050610685565b507fe6f8b37160fcd8da316f0f1af6909be686dfdb00300ad6bb0727b8ca058df2f782826040516107589291906111fc565b60405180910390a15050565b600080546001600160a01b0383811673ffffffffffffffffffffffffffffffffffffffff19831681178455604051919092169283917f8be0079c531659141344cd1fd0a4f28419497f9722a3daafe3b4186f6b6457e09190a35050565b61027d846323b872dd60e01b8585856040516024016107e293929190611221565b60408051601f198184030181529190526020810180517bffffffffffffffffffffffffffffffffffffffffffffffffffffffff167fffffffff00000000000000000000000000000000000000000000000000000000909316929092179091526108e3565b600081846001600160a01b031663dd62ed3e30866040518363ffffffff1660e01b8152600401610877929190611249565b602060405180830381865afa158015610894573d6000803e3d6000fd5b505050506040513d601f19601f820116820180604052508101906108b89190611264565b6108c29190611285565b905061027d8463095ea7b360e01b85846040516024016107e292919061129d565b6000610938826040518060400160405280602081526020017f5361666545524332303a206c6f772d6c6576656c2063616c6c206661696c6564815250856001600160a01b03166109779092919063ffffffff16565b80519091501561097257808060200190518101906109569190610fcb565b6109725760405162461bcd60e51b815260040161032190611312565b505050565b60606109868484600085610990565b90505b9392505050565b6060824710156109b25760405162461bcd60e51b81526004016103219061137c565b6001600160a01b0385163b6109d95760405162461bcd60e51b8152600401610321906113c0565b600080866001600160a01b031685876040516109f591906113f2565b60006040518083038185875af1925050503d8060008114610a32576040519150601f19603f3d011682016040523d82523d6000602084013e610a37565b606091505b5091509150610a47828286610a54565b925050505b949350505050565b60608315610a63575081610989565b825115610a735782518084602001fd5b8160405162461bcd60e51b81526004016103219190610e23565b8015155b82525050565b60208101610aa58284610a8d565b92915050565b60008083601f840112610ac057610ac0600080fd5b50813567ffffffffffffffff811115610adb57610adb600080fd5b602083019150836020820283011115610af657610af6600080fd5b9250929050565b60008060008060408587031215610b1657610b16600080fd5b843567ffffffffffffffff811115610b3057610b30600080fd5b610b3c87828801610aab565b9450945050602085013567ffffffffffffffff811115610b5e57610b5e600080fd5b610b6a87828801610aab565b95989497509550505050565b60006001600160a01b038216610aa5565b610a9181610b76565b60208101610aa58284610b87565b610ba781610b76565b811461063457600080fd5b8035610aa581610b9e565b600060208284031215610bd257610bd2600080fd5b6000610a4c8484610bb2565b67ffffffffffffffff8116610ba7565b8035610aa581610bde565b80610ba7565b8035610aa581610bf9565b634e487b7160e01b600052604160045260246000fd5b601f19601f830116810181811067ffffffffffffffff82111715610c4657610c46610c0a565b6040525050565b6000610c5860405190565b9050610c648282610c20565b919050565b600067ffffffffffffffff821115610c8357610c83610c0a565b601f19601f83011660200192915050565b82818337506000910152565b6000610cb3610cae84610c69565b610c4d565b905082815260208101848484011115610cce57610cce600080fd5b610cd9848285610c94565b509392505050565b600082601f830112610cf557610cf5600080fd5b8135610a4c848260208601610ca0565b60008060008060008060c08789031215610d2157610d21600080fd5b6000610d2d8989610bee565b9650506020610d3e89828a01610bb2565b9550506040610d4f89828a01610bff565b9450506060610d6089828a01610bb2565b935050608087013567ffffffffffffffff811115610d8057610d80600080fd5b610d8c89828a01610ce1565b92505060a087013567ffffffffffffffff811115610dac57610dac600080fd5b610db889828a01610ce1565b9150509295509295509295565b60005b83811015610de0578181015183820152602001610dc8565b8381111561027d5750506000910152565b6000610dfb825190565b808452602084019350610e12818560208601610dc5565b601f01601f19169290920192915050565b602080825281016109898184610df1565b8051610aa581610bf9565b600060608284031215610e5457610e54600080fd5b610e5e6060610c4d565b90506000610e6c8484610e34565b8252506020610e7d84848301610e34565b6020830152506040610e9184828501610e34565b60408301525092915050565b600060608284031215610eb257610eb2600080fd5b6000610a4c8484610e3f565b601081526000602082017f627269646765206e6f7420666f756e6400000000000000000000000000000000815291505b5060200190565b60208082528101610aa581610ebe565b80610a91565b60208101610aa58284610f05565b6000610aa5610f2f67ffffffffffffffff841681565b90565b610a9181610f19565b6000610aa5610f2f8381565b610a9181610f3b565b60e08101610f5e828a610f32565b610f6b6020830189610b87565b610f786040830188610f05565b610f856060830187610f05565b610f926080830186610f05565b610f9f60a0830185610b87565b610fac60c0830184610f47565b98975050505050505050565b801515610ba7565b8051610aa581610fb8565b600060208284031215610fe057610fe0600080fd5b6000610a4c8484610fc0565b6101008101610ffb828b610f32565b611008602083018a610b87565b6110156040830189610f05565b6110226060830188610f05565b61102f6080830187610f05565b61103c60a0830186610f05565b61104960c0830185610f05565b61105660e0830184610f05565b9998505050505050505050565b602681526000602082017f4f776e61626c653a206e6577206f776e657220697320746865207a65726f206181527f6464726573730000000000000000000000000000000000000000000000000000602082015291505b5060400190565b60208082528101610aa581611063565b60208082527f4f776e61626c653a2063616c6c6572206973206e6f7420746865206f776e657291019081526000610eee565b60208082528101610aa5816110d0565b600c81526000602082017f6c656e206d69736d61746368000000000000000000000000000000000000000081529150610eee565b60208082528101610aa581611112565b634e487b7160e01b600052603260045260246000fd5b634e487b7160e01b600052601160045260246000fd5b60ff16600060fe1982016111985761119861116c565b5060010190565b60006111ab8383610b87565b505060200190565b60006111bd825190565b80845260209384019383018060005b838110156111f15781516111e0888261119f565b9750602083019250506001016111cc565b509495945050505050565b6040808252810161120d81856111b3565b9050818103602083015261098681846111b3565b6060810161122f8286610b87565b61123c6020830185610b87565b610a4c6040830184610f05565b604081016112578285610b87565b6109896020830184610b87565b60006020828403121561127957611279600080fd5b6000610a4c8484610e34565b600082198211156112985761129861116c565b500190565b604081016112ab8285610b87565b6109896020830184610f05565b602a81526000602082017f5361666545524332303a204552433230206f7065726174696f6e20646964206e81527f6f74207375636365656400000000000000000000000000000000000000000000602082015291506110b9565b60208082528101610aa5816112b8565b602681526000602082017f416464726573733a20696e73756666696369656e742062616c616e636520666f81527f722063616c6c0000000000000000000000000000000000000000000000000000602082015291506110b9565b60208082528101610aa581611322565b601d81526000602082017f416464726573733a2063616c6c20746f206e6f6e2d636f6e747261637400000081529150610eee565b60208082528101610aa58161138c565b60006113da825190565b6113e8818560208601610dc5565b9290920192915050565b600061098982846113d056fea264697066735822122035d335cbf43b92027256169c0c68c354ef67278f3e619fe39ede3210319a921e64736f6c634300080f0033",
  "devdoc": {
    "kind": "dev",
    "methods": {
      "owner()": {
        "details": "Returns the address of the current owner."
      },
      "renounceOwnership()": {
        "details": "Leaves the contract without owner. It will not be possible to call `onlyOwner` functions anymore. Can only be called by the current owner. NOTE: Renouncing ownership will leave the contract without an owner, thereby removing any functionality that is only available to the owner."
      },
      "transferOwnership(address)": {
        "details": "Transfers ownership of the contract to a new account (`newOwner`). Can only be called by the current owner."
      }
    },
    "version": 1
  },
  "userdoc": {
    "kind": "user",
    "methods": {},
    "version": 1
  },
  "storageLayout": {
    "storage": [
      {
        "astId": 7,
        "contract": "contracts/bridges/HopAdapter.sol:HopAdapter",
        "label": "_owner",
        "offset": 0,
        "slot": "0",
        "type": "t_address"
      },
      {
        "astId": 10056,
        "contract": "contracts/bridges/HopAdapter.sol:HopAdapter",
        "label": "nativeWrap",
        "offset": 0,
        "slot": "1",
        "type": "t_address"
      },
      {
        "astId": 5501,
        "contract": "contracts/bridges/HopAdapter.sol:HopAdapter",
        "label": "bridges",
        "offset": 0,
        "slot": "2",
        "type": "t_mapping(t_address,t_address)"
      }
    ],
    "types": {
      "t_address": {
        "encoding": "inplace",
        "label": "address",
        "numberOfBytes": "20"
      },
      "t_mapping(t_address,t_address)": {
        "encoding": "mapping",
        "key": "t_address",
        "label": "mapping(address => address)",
        "numberOfBytes": "32",
        "value": "t_address"
      }
    }
  }
}