{
  "address": "0x4Ac11aff0B1EABB739c30E67388b0E74F685FB6f",
  "abi": [
    {
      "inputs": [
        {
          "internalType": "address[]",
          "name": "_anyswapRouters",
          "type": "address[]"
        }
      ],
      "stateMutability": "nonpayable",
      "type": "constructor"
    },
    {
      "anonymous": false,
      "inputs": [
        {
          "indexed": true,
          "internalType": "address",
          "name": "previousOwner",
          "type": "address"
        },
        {
          "indexed": true,
          "internalType": "address",
          "name": "newOwner",
          "type": "address"
        }
      ],
      "name": "OwnershipTransferred",
      "type": "event"
    },
    {
      "anonymous": false,
      "inputs": [
        {
          "indexed": false,
          "internalType": "address",
          "name": "router",
          "type": "address"
        },
        {
          "indexed": false,
          "internalType": "bool",
          "name": "enabled",
          "type": "bool"
        }
      ],
      "name": "SupportedRouterUpdated",
      "type": "event"
    },
    {
      "inputs": [
        {
          "internalType": "uint64",
          "name": "_dstChainId",
          "type": "uint64"
        },
        {
          "internalType": "address",
          "name": "_receiver",
          "type": "address"
        },
        {
          "internalType": "uint256",
          "name": "_amount",
          "type": "uint256"
        },
        {
          "internalType": "address",
          "name": "_token",
          "type": "address"
        },
        {
          "internalType": "bytes",
          "name": "_bridgeParams",
          "type": "bytes"
        },
        {
          "internalType": "bytes",
          "name": "",
          "type": "bytes"
        }
      ],
      "name": "bridge",
      "outputs": [
        {
          "internalType": "bytes",
          "name": "bridgeResp",
          "type": "bytes"
        }
      ],
      "stateMutability": "payable",
      "type": "function"
    },
    {
      "inputs": [],
      "name": "owner",
      "outputs": [
        {
          "internalType": "address",
          "name": "",
          "type": "address"
        }
      ],
      "stateMutability": "view",
      "type": "function"
    },
    {
      "inputs": [],
      "name": "renounceOwnership",
      "outputs": [],
      "stateMutability": "nonpayable",
      "type": "function"
    },
    {
      "inputs": [
        {
          "internalType": "address",
          "name": "_router",
          "type": "address"
        },
        {
          "internalType": "bool",
          "name": "_enabled",
          "type": "bool"
        }
      ],
      "name": "setSupportedRouter",
      "outputs": [],
      "stateMutability": "nonpayable",
      "type": "function"
    },
    {
      "inputs": [
        {
          "internalType": "address",
          "name": "",
          "type": "address"
        }
      ],
      "name": "supportedRouters",
      "outputs": [
        {
          "internalType": "bool",
          "name": "",
          "type": "bool"
        }
      ],
      "stateMutability": "view",
      "type": "function"
    },
    {
      "inputs": [
        {
          "internalType": "address",
          "name": "newOwner",
          "type": "address"
        }
      ],
      "name": "transferOwnership",
      "outputs": [],
      "stateMutability": "nonpayable",
      "type": "function"
    },
    {
      "inputs": [
        {
          "internalType": "bytes32",
          "name": "",
          "type": "bytes32"
        }
      ],
      "name": "transfers",
      "outputs": [
        {
          "internalType": "bool",
          "name": "",
          "type": "bool"
        }
      ],
      "stateMutability": "view",
      "type": "function"
    }
  ],
  "transactionHash": "0xd7813ff9a001c8614c76ad16e75d55f6fc5501dfcf623cb019090a6811a20dae",
  "args": [
    [
      "0xd1c5966f9f5ee6881ff6b261bbeda45972b1b5f3",
      "0xabd380327fe66724ffda91a87c772fb8d00be488",
      "0x92c079d3155c2722dbf7e65017a5baf9cd15561c",
      "0xf9736ec3926703e85c843fc972bd89a7f8e827c0"
    ]
  ],
  "numDeployments": 5,
  "solcInputHash": "1fabf771bf87ca53a7315bc65ffe47fc",
  "bytecode": "0x60806040523480156200001157600080fd5b506040516200156b3803806200156b8339810160408190526200003491620002bd565b6200003f336200010f565b60005b8151811015620001075760006001600160a01b03168282815181106200006c576200006c620002fd565b60200260200101516001600160a01b031603620000a65760405162461bcd60e51b81526004016200009d9062000313565b60405180910390fd5b6001806000848481518110620000c057620000c0620002fd565b6020908102919091018101516001600160a01b03168252810191909152604001600020805460ff191691151591909117905580620000fe816200034b565b91505062000042565b505062000368565b600080546001600160a01b038381166001600160a01b0319831681178455604051919092169283917f8be0079c531659141344cd1fd0a4f28419497f9722a3daafe3b4186f6b6457e09190a35050565b634e487b7160e01b600052604160045260246000fd5b601f19601f83011681018181106001600160401b03821117156200019d576200019d6200015f565b6040525050565b6000620001b060405190565b9050620001be828262000175565b919050565b60006001600160401b03821115620001df57620001df6200015f565b5060209081020190565b60006001600160a01b0382165b92915050565b6200020781620001e9565b81146200021357600080fd5b50565b8051620001f681620001fc565b60006200023a6200023484620001c3565b620001a4565b838152905060208082019084028301858111156200025b576200025b600080fd5b835b8181101562000283578062000273888262000216565b845250602092830192016200025d565b5050509392505050565b600082601f830112620002a357620002a3600080fd5b8151620002b584826020860162000223565b949350505050565b600060208284031215620002d457620002d4600080fd5b81516001600160401b03811115620002ef57620002ef600080fd5b620002b5848285016200028d565b634e487b7160e01b600052603260045260246000fd5b60208082528101620001f681600381526206e6f760ec1b602082015260400190565b634e487b7160e01b600052601160045260246000fd5b6000600019820362000361576200036162000335565b5060010190565b6111f380620003786000396000f3fe6080604052600436106100705760003560e01c80638da5cb5b1161004e5780638da5cb5b146100f25780639879c48d14610118578063f2fde38b14610148578063f8e9c5c01461016857600080fd5b80633c64f04b14610075578063715018a6146100bb578063834bc3ea146100d2575b600080fd5b34801561008157600080fd5b506100a56100903660046108cb565b60026020526000908152604090205460ff1681565b6040516100b291906108f6565b60405180910390f35b3480156100c757600080fd5b506100d0610188565b005b6100e56100e0366004610a3f565b61019c565b6040516100b29190610b5d565b3480156100fe57600080fd5b506000546001600160a01b03166040516100b29190610b77565b34801561012457600080fd5b506100a5610133366004610b85565b60016020526000908152604090205460ff1681565b34801561015457600080fd5b506100d0610163366004610b85565b61044e565b34801561017457600080fd5b506100d0610183366004610bb9565b610488565b610190610532565b61019a600061055c565b565b60606000838060200190518101906101b49190610c6a565b6040808201516001600160a01b031660009081526001602052205490915060ff166101fa5760405162461bcd60e51b81526004016101f190610cc2565b60405180910390fd5b8051604051600091610218918a9189918b918e914690602001610d22565b60408051601f1981840301815291815281516020928301206000818152600290935291205490915060ff16156102605760405162461bcd60e51b81526004016101f190610dc0565b6000818152600260205260409020805460ff1916600117905561028e6001600160a01b03871633308a6105c4565b60408201516102a8906001600160a01b038816908961064f565b60006001600160a01b031682602001516001600160a01b0316636f307dc36040518163ffffffff1660e01b8152600401602060405180830381865afa1580156102f5573d6000803e3d6000fd5b505050506040513d601f19601f820116820180604052508101906103199190610dd0565b6001600160a01b0316146103985781604001516001600160a01b031663edbdf5e283602001518a8a8d6040518563ffffffff1660e01b81526004016103619493929190610e10565b600060405180830381600087803b15801561037b57600080fd5b505af115801561038f573d6000803e3d6000fd5b50505050610405565b81604001516001600160a01b031663241dc2df83602001518a8a8d6040518563ffffffff1660e01b81526004016103d29493929190610e10565b600060405180830381600087803b1580156103ec57600080fd5b505af1158015610400573d6000803e3d6000fd5b505050505b6040820151610420906001600160a01b03881690600061064f565b806040516020016104319190610e4e565b604051602081830303815290604052925050509695505050505050565b610456610532565b6001600160a01b03811661047c5760405162461bcd60e51b81526004016101f190610ec0565b6104858161055c565b50565b610490610532565b6001600160a01b03821660009081526001602052604090205460ff16811515811515036104cf5760405162461bcd60e51b81526004016101f190610eea565b6001600160a01b03831660009081526001602052604090819020805460ff1916841515179055517f19df4f9d38a9b103263e051a2824d8cd9cd6dc4205d136abbd3932a9eeede061906105259085908590610efa565b60405180910390a1505050565b6000546001600160a01b0316331461019a5760405162461bcd60e51b81526004016101f190610f47565b600080546001600160a01b038381167fffffffffffffffffffffffff0000000000000000000000000000000000000000831681178455604051919092169283917f8be0079c531659141344cd1fd0a4f28419497f9722a3daafe3b4186f6b6457e09190a35050565b610649846323b872dd60e01b8585856040516024016105e593929190610f57565b60408051601f198184030181529190526020810180517bffffffffffffffffffffffffffffffffffffffffffffffffffffffff167fffffffff0000000000000000000000000000000000000000000000000000000090931692909217909152610708565b50505050565b8015806106c85750604051636eb1769f60e11b81526001600160a01b0384169063dd62ed3e906106859030908690600401610f7f565b602060405180830381865afa1580156106a2573d6000803e3d6000fd5b505050506040513d601f19601f820116820180604052508101906106c69190610fa5565b155b6106e45760405162461bcd60e51b81526004016101f190611020565b6107038363095ea7b360e01b84846040516024016105e5929190611030565b505050565b600061075d826040518060400160405280602081526020017f5361666545524332303a206c6f772d6c6576656c2063616c6c206661696c6564815250856001600160a01b03166107979092919063ffffffff16565b805190915015610703578080602001905181019061077b9190611056565b6107035760405162461bcd60e51b81526004016101f1906110d1565b60606107a684846000856107b0565b90505b9392505050565b6060824710156107d25760405162461bcd60e51b81526004016101f19061113b565b6001600160a01b0385163b6107f95760405162461bcd60e51b81526004016101f19061117f565b600080866001600160a01b0316858760405161081591906111b1565b60006040518083038185875af1925050503d8060008114610852576040519150601f19603f3d011682016040523d82523d6000602084013e610857565b606091505b5091509150610867828286610874565b925050505b949350505050565b606083156108835750816107a9565b8251156108935782518084602001fd5b8160405162461bcd60e51b81526004016101f19190610b5d565b805b811461048557600080fd5b80356108c5816108ad565b92915050565b6000602082840312156108e0576108e0600080fd5b600061086c84846108ba565b8015155b82525050565b602081016108c582846108ec565b67ffffffffffffffff81166108af565b80356108c581610904565b60006001600160a01b0382166108c5565b6108af8161091f565b80356108c581610930565b634e487b7160e01b600052604160045260246000fd5b601f19601f830116810181811067ffffffffffffffff8211171561098057610980610944565b6040525050565b600061099260405190565b905061099e828261095a565b919050565b600067ffffffffffffffff8211156109bd576109bd610944565b601f19601f83011660200192915050565b82818337506000910152565b60006109ed6109e8846109a3565b610987565b905082815260208101848484011115610a0857610a08600080fd5b610a138482856109ce565b509392505050565b600082601f830112610a2f57610a2f600080fd5b813561086c8482602086016109da565b60008060008060008060c08789031215610a5b57610a5b600080fd5b6000610a678989610914565b9650506020610a7889828a01610939565b9550506040610a8989828a016108ba565b9450506060610a9a89828a01610939565b935050608087013567ffffffffffffffff811115610aba57610aba600080fd5b610ac689828a01610a1b565b92505060a087013567ffffffffffffffff811115610ae657610ae6600080fd5b610af289828a01610a1b565b9150509295509295509295565b60005b83811015610b1a578181015183820152602001610b02565b838111156106495750506000910152565b6000610b35825190565b808452602084019350610b4c818560208601610aff565b601f01601f19169290920192915050565b602080825281016107a98184610b2b565b6108f08161091f565b602081016108c58284610b6e565b600060208284031215610b9a57610b9a600080fd5b600061086c8484610939565b8015156108af565b80356108c581610ba6565b60008060408385031215610bcf57610bcf600080fd5b6000610bdb8585610939565b9250506020610bec85828601610bae565b9150509250929050565b80516108c581610904565b80516108c581610930565b600060608284031215610c2157610c21600080fd5b610c2b6060610987565b90506000610c398484610bf6565b8252506020610c4a84848301610c01565b6020830152506040610c5e84828501610c01565b60408301525092915050565b600060608284031215610c7f57610c7f600080fd5b600061086c8484610c0c565b600e81526000602082017f696c6c6567616c20726f75746572000000000000000000000000000000000000815291505b5060200190565b602080825281016108c581610c8b565b60006108c58260601b90565b60006108c582610cd2565b6108f0610cf58261091f565b610cde565b806108f0565b90565b60006108c58260c01b90565b6108f067ffffffffffffffff8216610d03565b6000610d2e8289610ce9565b601482019150610d3e8288610ce9565b601482019150610d4e8287610cfa565b602082019150610d5e8286610d0f565b600882019150610d6e8285610d0f565b600882019150610d7e8284610d0f565b506008019695505050505050565b600f81526000602082017f7472616e7366657220657869737473000000000000000000000000000000000081529150610cbb565b602080825281016108c581610d8c565b600060208284031215610de557610de5600080fd5b600061086c8484610c01565b60006108c5610d0067ffffffffffffffff841681565b6108f081610df1565b60808101610e1e8287610b6e565b610e2b6020830186610b6e565b610e386040830185610cfa565b610e456060830184610e07565b95945050505050565b6000610e5a8284610cfa565b50602001919050565b602681526000602082017f4f776e61626c653a206e6577206f776e657220697320746865207a65726f206181527f6464726573730000000000000000000000000000000000000000000000000000602082015291505b5060400190565b602080825281016108c581610e63565b600381526000602082016206e6f760ec1b81529150610cbb565b602080825281016108c581610ed0565b60408101610f088285610b6e565b6107a960208301846108ec565b60208082527f4f776e61626c653a2063616c6c6572206973206e6f7420746865206f776e657291019081526000610cbb565b602080825281016108c581610f15565b60608101610f658286610b6e565b610f726020830185610b6e565b61086c6040830184610cfa565b60408101610f8d8285610b6e565b6107a96020830184610b6e565b80516108c5816108ad565b600060208284031215610fba57610fba600080fd5b600061086c8484610f9a565b603681526000602082017f5361666545524332303a20617070726f76652066726f6d206e6f6e2d7a65726f81527f20746f206e6f6e2d7a65726f20616c6c6f77616e63650000000000000000000060208201529150610eb9565b602080825281016108c581610fc6565b6040810161103e8285610b6e565b6107a96020830184610cfa565b80516108c581610ba6565b60006020828403121561106b5761106b600080fd5b600061086c848461104b565b602a81526000602082017f5361666545524332303a204552433230206f7065726174696f6e20646964206e81527f6f7420737563636565640000000000000000000000000000000000000000000060208201529150610eb9565b602080825281016108c581611077565b602681526000602082017f416464726573733a20696e73756666696369656e742062616c616e636520666f81527f722063616c6c000000000000000000000000000000000000000000000000000060208201529150610eb9565b602080825281016108c5816110e1565b601d81526000602082017f416464726573733a2063616c6c20746f206e6f6e2d636f6e747261637400000081529150610cbb565b602080825281016108c58161114b565b6000611199825190565b6111a7818560208601610aff565b9290920192915050565b60006107a9828461118f56fea26469706673582212209e6c5936d47068b627faee387e99aaeffad71c4c39655f6e45a3521ff163c8f164736f6c634300080f0033",
  "devdoc": {
    "kind": "dev",
    "methods": {
      "owner()": {
        "details": "Returns the address of the current owner."
      },
      "renounceOwnership()": {
        "details": "Leaves the contract without owner. It will not be possible to call `onlyOwner` functions anymore. Can only be called by the current owner. NOTE: Renouncing ownership will leave the contract without an owner, thereby removing any functionality that is only available to the owner."
      },
      "transferOwnership(address)": {
        "details": "Transfers ownership of the contract to a new account (`newOwner`). Can only be called by the current owner."
      }
    },
    "version": 1
  },
  "userdoc": {
    "kind": "user",
    "methods": {},
    "version": 1
  },
  "storageLayout": {
    "storage": [
      {
        "astId": 7,
        "contract": "contracts/bridges/AnyswapAdapter.sol:AnyswapAdapter",
        "label": "_owner",
        "offset": 0,
        "slot": "0",
        "type": "t_address"
      },
      {
        "astId": 4886,
        "contract": "contracts/bridges/AnyswapAdapter.sol:AnyswapAdapter",
        "label": "supportedRouters",
        "offset": 0,
        "slot": "1",
        "type": "t_mapping(t_address,t_bool)"
      },
      {
        "astId": 4890,
        "contract": "contracts/bridges/AnyswapAdapter.sol:AnyswapAdapter",
        "label": "transfers",
        "offset": 0,
        "slot": "2",
        "type": "t_mapping(t_bytes32,t_bool)"
      }
    ],
    "types": {
      "t_address": {
        "encoding": "inplace",
        "label": "address",
        "numberOfBytes": "20"
      },
      "t_bool": {
        "encoding": "inplace",
        "label": "bool",
        "numberOfBytes": "1"
      },
      "t_bytes32": {
        "encoding": "inplace",
        "label": "bytes32",
        "numberOfBytes": "32"
      },
      "t_mapping(t_address,t_bool)": {
        "encoding": "mapping",
        "key": "t_address",
        "label": "mapping(address => bool)",
        "numberOfBytes": "32",
        "value": "t_bool"
      },
      "t_mapping(t_bytes32,t_bool)": {
        "encoding": "mapping",
        "key": "t_bytes32",
        "label": "mapping(bytes32 => bool)",
        "numberOfBytes": "32",
        "value": "t_bool"
      }
    }
  }
}