{
  "address": "0xf8c8e9cF25617B1257c458F79ab9fa775eAA9107",
  "abi": [
    {
      "inputs": [
        {
          "internalType": "address[]",
          "name": "_anyswapRouters",
          "type": "address[]"
        }
      ],
      "stateMutability": "nonpayable",
      "type": "constructor"
    },
    {
      "anonymous": false,
      "inputs": [
        {
          "indexed": true,
          "internalType": "address",
          "name": "previousOwner",
          "type": "address"
        },
        {
          "indexed": true,
          "internalType": "address",
          "name": "newOwner",
          "type": "address"
        }
      ],
      "name": "OwnershipTransferred",
      "type": "event"
    },
    {
      "anonymous": false,
      "inputs": [
        {
          "indexed": false,
          "internalType": "address",
          "name": "router",
          "type": "address"
        },
        {
          "indexed": false,
          "internalType": "bool",
          "name": "enabled",
          "type": "bool"
        }
      ],
      "name": "SupportedRouterUpdated",
      "type": "event"
    },
    {
      "inputs": [
        {
          "internalType": "uint64",
          "name": "_dstChainId",
          "type": "uint64"
        },
        {
          "internalType": "address",
          "name": "_receiver",
          "type": "address"
        },
        {
          "internalType": "uint256",
          "name": "_amount",
          "type": "uint256"
        },
        {
          "internalType": "address",
          "name": "_token",
          "type": "address"
        },
        {
          "internalType": "bytes",
          "name": "_bridgeParams",
          "type": "bytes"
        }
      ],
      "name": "bridge",
      "outputs": [
        {
          "internalType": "bytes",
          "name": "bridgeResp",
          "type": "bytes"
        }
      ],
      "stateMutability": "payable",
      "type": "function"
    },
    {
      "inputs": [],
      "name": "owner",
      "outputs": [
        {
          "internalType": "address",
          "name": "",
          "type": "address"
        }
      ],
      "stateMutability": "view",
      "type": "function"
    },
    {
      "inputs": [
        {
          "internalType": "address",
          "name": "_router",
          "type": "address"
        },
        {
          "internalType": "bool",
          "name": "_enabled",
          "type": "bool"
        }
      ],
      "name": "setSupportedRouter",
      "outputs": [],
      "stateMutability": "nonpayable",
      "type": "function"
    },
    {
      "inputs": [
        {
          "internalType": "address",
          "name": "",
          "type": "address"
        }
      ],
      "name": "supportedRouters",
      "outputs": [
        {
          "internalType": "bool",
          "name": "",
          "type": "bool"
        }
      ],
      "stateMutability": "view",
      "type": "function"
    },
    {
      "inputs": [
        {
          "internalType": "address",
          "name": "newOwner",
          "type": "address"
        }
      ],
      "name": "transferOwnership",
      "outputs": [],
      "stateMutability": "nonpayable",
      "type": "function"
    },
    {
      "inputs": [
        {
          "internalType": "bytes32",
          "name": "",
          "type": "bytes32"
        }
      ],
      "name": "transfers",
      "outputs": [
        {
          "internalType": "bool",
          "name": "",
          "type": "bool"
        }
      ],
      "stateMutability": "view",
      "type": "function"
    }
  ],
  "transactionHash": "0x9e0c77e3e7d7bc404a4cca47801e33e9e8031c2edbafd594b2569a247875d395",
  "args": [
    [
      "0xd1c5966f9f5ee6881ff6b261bbeda45972b1b5f3",
      "0xabd380327fe66724ffda91a87c772fb8d00be488",
      "0x92c079d3155c2722dbf7e65017a5baf9cd15561c",
      "0xf9736ec3926703e85c843fc972bd89a7f8e827c0"
    ]
  ],
  "numDeployments": 6,
  "solcInputHash": "22c591f45fc65f2eaf51df31805c575c",
  "bytecode": "0x60806040523480156200001157600080fd5b506040516200109a3803806200109a8339810160408190526200003491620001a1565b6200003f336200011e565b60005b8151811015620001165760006001600160a01b03168282815181106200006c576200006c62000273565b60200260200101516001600160a01b031603620000b55760405162461bcd60e51b815260206004820152600360248201526206e6f760ec1b604482015260640160405180910390fd5b6001806000848481518110620000cf57620000cf62000273565b6020908102919091018101516001600160a01b03168252810191909152604001600020805460ff1916911515919091179055806200010d8162000289565b91505062000042565b5050620002b1565b600080546001600160a01b038381166001600160a01b0319831681178455604051919092169283917f8be0079c531659141344cd1fd0a4f28419497f9722a3daafe3b4186f6b6457e09190a35050565b634e487b7160e01b600052604160045260246000fd5b80516001600160a01b03811681146200019c57600080fd5b919050565b60006020808385031215620001b557600080fd5b82516001600160401b0380821115620001cd57600080fd5b818501915085601f830112620001e257600080fd5b815181811115620001f757620001f76200016e565b8060051b604051601f19603f830116810181811085821117156200021f576200021f6200016e565b6040529182528482019250838101850191888311156200023e57600080fd5b938501935b828510156200026757620002578562000184565b8452938501939285019262000243565b98975050505050505050565b634e487b7160e01b600052603260045260246000fd5b600060018201620002aa57634e487b7160e01b600052601160045260246000fd5b5060010190565b610dd980620002c16000396000f3fe6080604052600436106100655760003560e01c80639879c48d116100435780639879c48d146100fb578063f2fde38b1461012b578063f8e9c5c01461014d57600080fd5b806324c9401b1461006a5780633c64f04b146100935780638da5cb5b146100d3575b600080fd5b61007d610078366004610b03565b61016d565b60405161008a9190610c32565b60405180910390f35b34801561009f57600080fd5b506100c36100ae366004610c45565b60026020526000908152604090205460ff1681565b604051901515815260200161008a565b3480156100df57600080fd5b506000546040516001600160a01b03909116815260200161008a565b34801561010757600080fd5b506100c3610116366004610c5e565b60016020526000908152604090205460ff1681565b34801561013757600080fd5b5061014b610146366004610c5e565b6103d8565b005b34801561015957600080fd5b5061014b610168366004610c89565b6104c9565b60606000828060200190518101906101859190610cc2565b6040808201516001600160a01b031660009081526001602052205490915060ff166101f75760405162461bcd60e51b815260206004820152600e60248201527f696c6c6567616c20726f7574657200000000000000000000000000000000000060448201526064015b60405180910390fd5b61020c6001600160a01b0385163330886105eb565b6040810151610226906001600160a01b0386169087610689565b60006001600160a01b031681602001516001600160a01b0316636f307dc36040518163ffffffff1660e01b8152600401602060405180830381865afa158015610273573d6000803e3d6000fd5b505050506040513d601f19601f820116820180604052508101906102979190610d34565b6001600160a01b03161461032e57604080820151602083015191516376defaf160e11b81526001600160a01b03928316600482015288831660248201526044810188905267ffffffffffffffff8a16606482015291169063edbdf5e290608401600060405180830381600087803b15801561031157600080fd5b505af1158015610325573d6000803e3d6000fd5b505050506103b3565b6040808201516020830151915163241dc2df60e01b81526001600160a01b03928316600482015288831660248201526044810188905267ffffffffffffffff8a16606482015291169063241dc2df90608401600060405180830381600087803b15801561039a57600080fd5b505af11580156103ae573d6000803e3d6000fd5b505050505b60408101516103ce906001600160a01b038616906000610689565b5095945050505050565b336103eb6000546001600160a01b031690565b6001600160a01b0316146104415760405162461bcd60e51b815260206004820181905260248201527f4f776e61626c653a2063616c6c6572206973206e6f7420746865206f776e657260448201526064016101ee565b6001600160a01b0381166104bd5760405162461bcd60e51b815260206004820152602660248201527f4f776e61626c653a206e6577206f776e657220697320746865207a65726f206160448201527f646472657373000000000000000000000000000000000000000000000000000060648201526084016101ee565b6104c6816107aa565b50565b336104dc6000546001600160a01b031690565b6001600160a01b0316146105325760405162461bcd60e51b815260206004820181905260248201527f4f776e61626c653a2063616c6c6572206973206e6f7420746865206f776e657260448201526064016101ee565b6001600160a01b03821660009081526001602052604090205460ff16811515811515036105875760405162461bcd60e51b815260206004820152600360248201526206e6f760ec1b60448201526064016101ee565b6001600160a01b038316600081815260016020908152604091829020805460ff19168615159081179091558251938452908301527f19df4f9d38a9b103263e051a2824d8cd9cd6dc4205d136abbd3932a9eeede061910160405180910390a1505050565b6040516001600160a01b03808516602483015283166044820152606481018290526106839085906323b872dd60e01b906084015b60408051601f198184030181529190526020810180517bffffffffffffffffffffffffffffffffffffffffffffffffffffffff167fffffffff0000000000000000000000000000000000000000000000000000000090931692909217909152610812565b50505050565b8015806107035750604051636eb1769f60e11b81523060048201526001600160a01b03838116602483015284169063dd62ed3e90604401602060405180830381865afa1580156106dd573d6000803e3d6000fd5b505050506040513d601f19601f820116820180604052508101906107019190610d51565b155b6107755760405162461bcd60e51b815260206004820152603660248201527f5361666545524332303a20617070726f76652066726f6d206e6f6e2d7a65726f60448201527f20746f206e6f6e2d7a65726f20616c6c6f77616e63650000000000000000000060648201526084016101ee565b6040516001600160a01b0383166024820152604481018290526107a590849063095ea7b360e01b9060640161061f565b505050565b600080546001600160a01b038381167fffffffffffffffffffffffff0000000000000000000000000000000000000000831681178455604051919092169283917f8be0079c531659141344cd1fd0a4f28419497f9722a3daafe3b4186f6b6457e09190a35050565b6000610867826040518060400160405280602081526020017f5361666545524332303a206c6f772d6c6576656c2063616c6c206661696c6564815250856001600160a01b03166108f79092919063ffffffff16565b8051909150156107a557808060200190518101906108859190610d6a565b6107a55760405162461bcd60e51b815260206004820152602a60248201527f5361666545524332303a204552433230206f7065726174696f6e20646964206e60448201527f6f7420737563636565640000000000000000000000000000000000000000000060648201526084016101ee565b60606109068484600085610910565b90505b9392505050565b6060824710156109885760405162461bcd60e51b815260206004820152602660248201527f416464726573733a20696e73756666696369656e742062616c616e636520666f60448201527f722063616c6c000000000000000000000000000000000000000000000000000060648201526084016101ee565b6001600160a01b0385163b6109df5760405162461bcd60e51b815260206004820152601d60248201527f416464726573733a2063616c6c20746f206e6f6e2d636f6e747261637400000060448201526064016101ee565b600080866001600160a01b031685876040516109fb9190610d87565b60006040518083038185875af1925050503d8060008114610a38576040519150601f19603f3d011682016040523d82523d6000602084013e610a3d565b606091505b5091509150610a4d828286610a58565b979650505050505050565b60608315610a67575081610909565b825115610a775782518084602001fd5b8160405162461bcd60e51b81526004016101ee9190610c32565b67ffffffffffffffff811681146104c657600080fd5b6001600160a01b03811681146104c657600080fd5b634e487b7160e01b600052604160045260246000fd5b604051601f8201601f1916810167ffffffffffffffff81118282101715610afb57610afb610abc565b604052919050565b600080600080600060a08688031215610b1b57600080fd5b8535610b2681610a91565b9450602086810135610b3781610aa7565b9450604087013593506060870135610b4e81610aa7565b9250608087013567ffffffffffffffff80821115610b6b57600080fd5b818901915089601f830112610b7f57600080fd5b813581811115610b9157610b91610abc565b610ba3601f8201601f19168501610ad2565b91508082528a84828501011115610bb957600080fd5b80848401858401376000848284010152508093505050509295509295909350565b60005b83811015610bf5578181015183820152602001610bdd565b838111156106835750506000910152565b60008151808452610c1e816020860160208601610bda565b601f01601f19169290920160200192915050565b6020815260006109096020830184610c06565b600060208284031215610c5757600080fd5b5035919050565b600060208284031215610c7057600080fd5b813561090981610aa7565b80151581146104c657600080fd5b60008060408385031215610c9c57600080fd5b8235610ca781610aa7565b91506020830135610cb781610c7b565b809150509250929050565b600060608284031215610cd457600080fd5b6040516060810181811067ffffffffffffffff82111715610cf757610cf7610abc565b6040528251610d0581610a91565b81526020830151610d1581610aa7565b60208201526040830151610d2881610aa7565b60408201529392505050565b600060208284031215610d4657600080fd5b815161090981610aa7565b600060208284031215610d6357600080fd5b5051919050565b600060208284031215610d7c57600080fd5b815161090981610c7b565b60008251610d99818460208701610bda565b919091019291505056fea2646970667358221220edc38534004e9504ae7e24873ec64ba664530e236899d19c6e1427dc02d960fc64736f6c634300080f0033",
  "devdoc": {
    "kind": "dev",
    "methods": {
      "owner()": {
        "details": "Returns the address of the current owner."
      },
      "transferOwnership(address)": {
        "details": "Transfers ownership of the contract to a new account (`newOwner`). Can only be called by the current owner."
      }
    },
    "version": 1
  },
  "userdoc": {
    "kind": "user",
    "methods": {},
    "version": 1
  },
  "storageLayout": {
    "storage": [
      {
        "astId": 9703,
        "contract": "contracts/bridges/AnyswapAdapter.sol:AnyswapAdapter",
        "label": "_owner",
        "offset": 0,
        "slot": "0",
        "type": "t_address"
      },
      {
        "astId": 4470,
        "contract": "contracts/bridges/AnyswapAdapter.sol:AnyswapAdapter",
        "label": "supportedRouters",
        "offset": 0,
        "slot": "1",
        "type": "t_mapping(t_address,t_bool)"
      },
      {
        "astId": 4474,
        "contract": "contracts/bridges/AnyswapAdapter.sol:AnyswapAdapter",
        "label": "transfers",
        "offset": 0,
        "slot": "2",
        "type": "t_mapping(t_bytes32,t_bool)"
      }
    ],
    "types": {
      "t_address": {
        "encoding": "inplace",
        "label": "address",
        "numberOfBytes": "20"
      },
      "t_bool": {
        "encoding": "inplace",
        "label": "bool",
        "numberOfBytes": "1"
      },
      "t_bytes32": {
        "encoding": "inplace",
        "label": "bytes32",
        "numberOfBytes": "32"
      },
      "t_mapping(t_address,t_bool)": {
        "encoding": "mapping",
        "key": "t_address",
        "label": "mapping(address => bool)",
        "numberOfBytes": "32",
        "value": "t_bool"
      },
      "t_mapping(t_bytes32,t_bool)": {
        "encoding": "mapping",
        "key": "t_bytes32",
        "label": "mapping(bytes32 => bool)",
        "numberOfBytes": "32",
        "value": "t_bool"
      }
    }
  }
}