{
  "address": "0xb86A2C60A6D939a08349B4E0147B204487989510",
  "abi": [
    {
      "inputs": [
        {
          "internalType": "address",
          "name": "_pool",
          "type": "address"
        },
        {
          "internalType": "address",
          "name": "_nativeWrap",
          "type": "address"
        }
      ],
      "stateMutability": "nonpayable",
      "type": "constructor"
    },
    {
      "anonymous": false,
      "inputs": [
        {
          "indexed": false,
          "internalType": "uint8",
          "name": "version",
          "type": "uint8"
        }
      ],
      "name": "Initialized",
      "type": "event"
    },
    {
      "anonymous": false,
      "inputs": [
        {
          "indexed": false,
          "internalType": "address",
          "name": "nativeWrap",
          "type": "address"
        }
      ],
      "name": "NativeWrapUpdated",
      "type": "event"
    },
    {
      "anonymous": false,
      "inputs": [
        {
          "indexed": true,
          "internalType": "address",
          "name": "previousOwner",
          "type": "address"
        },
        {
          "indexed": true,
          "internalType": "address",
          "name": "newOwner",
          "type": "address"
        }
      ],
      "name": "OwnershipTransferred",
      "type": "event"
    },
    {
      "anonymous": false,
      "inputs": [
        {
          "indexed": false,
          "internalType": "address",
          "name": "pool",
          "type": "address"
        }
      ],
      "name": "PoolUpdated",
      "type": "event"
    },
    {
      "inputs": [
        {
          "internalType": "uint64",
          "name": "_dstChainId",
          "type": "uint64"
        },
        {
          "internalType": "address",
          "name": "_receiver",
          "type": "address"
        },
        {
          "internalType": "uint256",
          "name": "_amount",
          "type": "uint256"
        },
        {
          "internalType": "address",
          "name": "_token",
          "type": "address"
        },
        {
          "internalType": "bytes",
          "name": "",
          "type": "bytes"
        }
      ],
      "name": "bridge",
      "outputs": [
        {
          "internalType": "bytes",
          "name": "bridgeResp",
          "type": "bytes"
        }
      ],
      "stateMutability": "payable",
      "type": "function"
    },
    {
      "inputs": [],
      "name": "nativeWrap",
      "outputs": [
        {
          "internalType": "address",
          "name": "",
          "type": "address"
        }
      ],
      "stateMutability": "view",
      "type": "function"
    },
    {
      "inputs": [],
      "name": "owner",
      "outputs": [
        {
          "internalType": "address",
          "name": "",
          "type": "address"
        }
      ],
      "stateMutability": "view",
      "type": "function"
    },
    {
      "inputs": [],
      "name": "pool",
      "outputs": [
        {
          "internalType": "address",
          "name": "",
          "type": "address"
        }
      ],
      "stateMutability": "view",
      "type": "function"
    },
    {
      "inputs": [
        {
          "internalType": "address",
          "name": "_nativeWrap",
          "type": "address"
        }
      ],
      "name": "setNativeWrap",
      "outputs": [],
      "stateMutability": "nonpayable",
      "type": "function"
    },
    {
      "inputs": [
        {
          "internalType": "address",
          "name": "_pool",
          "type": "address"
        }
      ],
      "name": "setPool",
      "outputs": [],
      "stateMutability": "nonpayable",
      "type": "function"
    },
    {
      "inputs": [
        {
          "internalType": "address",
          "name": "newOwner",
          "type": "address"
        }
      ],
      "name": "transferOwnership",
      "outputs": [],
      "stateMutability": "nonpayable",
      "type": "function"
    },
    {
      "stateMutability": "payable",
      "type": "receive"
    }
  ],
  "transactionHash": "0x3b3f39399b6d041c7062339cce43c90d4ab01df7ab8f643210512c2bbed66ecb",
  "args": [
    "0x94D3E62151B12A12A4976F60EdC18459538FaF08",
    "0xbb4cdb9cbd36b01bd1cbaebf2de08d9173bc095c"
  ],
  "numDeployments": 2,
  "solcInputHash": "22c591f45fc65f2eaf51df31805c575c",
  "bytecode": "0x608060405234801561001057600080fd5b50604051610e32380380610e3283398101604081905261002f91610128565b80610039336100bc565b600180546001600160a01b0319166001600160a01b0392831617905582166100965760405162461bcd60e51b815260206004820152600c60248201526b7a65726f206164647265737360a01b604482015260640160405180910390fd5b50600280546001600160a01b0319166001600160a01b039290921691909117905561015b565b600080546001600160a01b038381166001600160a01b0319831681178455604051919092169283917f8be0079c531659141344cd1fd0a4f28419497f9722a3daafe3b4186f6b6457e09190a35050565b80516001600160a01b038116811461012357600080fd5b919050565b6000806040838503121561013b57600080fd5b6101448361010c565b91506101526020840161010c565b90509250929050565b610cc88061016a6000396000f3fe6080604052600436106100745760003560e01c8063457bfa2f1161004e578063457bfa2f146100ff5780635b5a66a71461011f5780638da5cb5b1461013f578063f2fde38b1461015d57600080fd5b806316f0115b1461008057806324c9401b146100bd5780634437152a146100dd57600080fd5b3661007b57005b600080fd5b34801561008c57600080fd5b506002546100a0906001600160a01b031681565b6040516001600160a01b0390911681526020015b60405180910390f35b6100d06100cb3660046109f0565b61017d565b6040516100b49190610b3f565b3480156100e957600080fd5b506100fd6100f8366004610b52565b6102ff565b005b34801561010b57600080fd5b506001546100a0906001600160a01b031681565b34801561012b57600080fd5b506100fd61013a366004610b52565b6103cf565b34801561014b57600080fd5b506000546001600160a01b03166100a0565b34801561016957600080fd5b506100fd610178366004610b52565b610444565b60606101946001600160a01b038416333087610532565b6001546001600160a01b039081169084160361027357600154604051632e1a7d4d60e01b8152600481018690526001600160a01b0390911690632e1a7d4d90602401600060405180830381600087803b1580156101f057600080fd5b505af1158015610204573d6000803e3d6000fd5b505060025460405163ea36842160e01b81526001600160a01b03909116925063ea3684219150869061023c9089908b90600401610b6d565b6000604051808303818588803b15801561025557600080fd5b505af1158015610269573d6000803e3d6000fd5b50505050506102f6565b60025461028d906001600160a01b038581169116866105d0565b6002546040516355d7359560e01b81526001600160a01b03909116906355d73595906102c390899087908a908a90600401610bb4565b600060405180830381600087803b1580156102dd57600080fd5b505af11580156102f1573d6000803e3d6000fd5b505050505b95945050505050565b336103126000546001600160a01b031690565b6001600160a01b03161461036d5760405162461bcd60e51b815260206004820181905260248201527f4f776e61626c653a2063616c6c6572206973206e6f7420746865206f776e657260448201526064015b60405180910390fd5b6002805473ffffffffffffffffffffffffffffffffffffffff19166001600160a01b0383169081179091556040519081527f380cec482764ddef4f75351b5398e3e2bea99ba23e53a00d5521f569fb668e1f906020015b60405180910390a150565b336103e26000546001600160a01b031690565b6001600160a01b0316146104385760405162461bcd60e51b815260206004820181905260248201527f4f776e61626c653a2063616c6c6572206973206e6f7420746865206f776e65726044820152606401610364565b61044181610682565b50565b336104576000546001600160a01b031690565b6001600160a01b0316146104ad5760405162461bcd60e51b815260206004820181905260248201527f4f776e61626c653a2063616c6c6572206973206e6f7420746865206f776e65726044820152606401610364565b6001600160a01b0381166105295760405162461bcd60e51b815260206004820152602660248201527f4f776e61626c653a206e6577206f776e657220697320746865207a65726f206160448201527f64647265737300000000000000000000000000000000000000000000000000006064820152608401610364565b610441816106dd565b6040516001600160a01b03808516602483015283166044820152606481018290526105ca9085906323b872dd60e01b906084015b60408051601f198184030181529190526020810180517bffffffffffffffffffffffffffffffffffffffffffffffffffffffff167fffffffff000000000000000000000000000000000000000000000000000000009093169290921790915261073a565b50505050565b604051636eb1769f60e11b81523060048201526001600160a01b038381166024830152600091839186169063dd62ed3e90604401602060405180830381865afa158015610621573d6000803e3d6000fd5b505050506040513d601f19601f820116820180604052508101906106459190610c15565b61064f9190610c2e565b6040516001600160a01b0385166024820152604481018290529091506105ca90859063095ea7b360e01b90606401610566565b6001805473ffffffffffffffffffffffffffffffffffffffff19166001600160a01b0383169081179091556040519081527fb878cd71628ac64b2df1872301925e01164824535b02e8601077749eeeb88c3d906020016103c4565b600080546001600160a01b0383811673ffffffffffffffffffffffffffffffffffffffff19831681178455604051919092169283917f8be0079c531659141344cd1fd0a4f28419497f9722a3daafe3b4186f6b6457e09190a35050565b600061078f826040518060400160405280602081526020017f5361666545524332303a206c6f772d6c6576656c2063616c6c206661696c6564815250856001600160a01b03166108249092919063ffffffff16565b80519091501561081f57808060200190518101906107ad9190610c54565b61081f5760405162461bcd60e51b815260206004820152602a60248201527f5361666545524332303a204552433230206f7065726174696f6e20646964206e60448201527f6f742073756363656564000000000000000000000000000000000000000000006064820152608401610364565b505050565b6060610833848460008561083d565b90505b9392505050565b6060824710156108b55760405162461bcd60e51b815260206004820152602660248201527f416464726573733a20696e73756666696369656e742062616c616e636520666f60448201527f722063616c6c00000000000000000000000000000000000000000000000000006064820152608401610364565b6001600160a01b0385163b61090c5760405162461bcd60e51b815260206004820152601d60248201527f416464726573733a2063616c6c20746f206e6f6e2d636f6e74726163740000006044820152606401610364565b600080866001600160a01b031685876040516109289190610c76565b60006040518083038185875af1925050503d8060008114610965576040519150601f19603f3d011682016040523d82523d6000602084013e61096a565b606091505b509150915061097a828286610985565b979650505050505050565b60608315610994575081610836565b8251156109a45782518084602001fd5b8160405162461bcd60e51b81526004016103649190610b3f565b80356001600160a01b03811681146109d557600080fd5b919050565b634e487b7160e01b600052604160045260246000fd5b600080600080600060a08688031215610a0857600080fd5b853567ffffffffffffffff8082168214610a2157600080fd5b819650610a30602089016109be565b955060408801359450610a45606089016109be565b93506080880135915080821115610a5b57600080fd5b818801915088601f830112610a6f57600080fd5b813581811115610a8157610a816109da565b604051601f8201601f19908116603f01168101908382118183101715610aa957610aa96109da565b816040528281528b6020848701011115610ac257600080fd5b8260208601602083013760006020848301015280955050505050509295509295909350565b60005b83811015610b02578181015183820152602001610aea565b838111156105ca5750506000910152565b60008151808452610b2b816020860160208601610ae7565b601f01601f19169290920160200192915050565b6020815260006108366020830184610b13565b600060208284031215610b6457600080fd5b610836826109be565b6001600160a01b038316815267ffffffffffffffff821660208201526060604082015260006108336060830160088152670636861696e686f760c41b602082015260400190565b67ffffffffffffffff8516815260006001600160a01b03808616602084015280851660408401525082606083015260a06080830152610c0b60a0830160088152670636861696e686f760c41b602082015260400190565b9695505050505050565b600060208284031215610c2757600080fd5b5051919050565b60008219821115610c4f57634e487b7160e01b600052601160045260246000fd5b500190565b600060208284031215610c6657600080fd5b8151801515811461083657600080fd5b60008251610c88818460208701610ae7565b919091019291505056fea264697066735822122080acff807a28c7a3f3338a0d3481c152f73e97b654f882e7a7997a82ce33bd9a64736f6c634300080f0033",
  "devdoc": {
    "kind": "dev",
    "methods": {
      "owner()": {
        "details": "Returns the address of the current owner."
      },
      "transferOwnership(address)": {
        "details": "Transfers ownership of the contract to a new account (`newOwner`). Can only be called by the current owner."
      }
    },
    "version": 1
  },
  "userdoc": {
    "kind": "user",
    "methods": {},
    "version": 1
  },
  "storageLayout": {
    "storage": [
      {
        "astId": 9703,
        "contract": "contracts/bridges/HyphenAdapter.sol:HyphenAdapter",
        "label": "_owner",
        "offset": 0,
        "slot": "0",
        "type": "t_address"
      },
      {
        "astId": 119,
        "contract": "contracts/bridges/HyphenAdapter.sol:HyphenAdapter",
        "label": "_initialized",
        "offset": 20,
        "slot": "0",
        "type": "t_uint8"
      },
      {
        "astId": 122,
        "contract": "contracts/bridges/HyphenAdapter.sol:HyphenAdapter",
        "label": "_initializing",
        "offset": 21,
        "slot": "0",
        "type": "t_bool"
      },
      {
        "astId": 9641,
        "contract": "contracts/bridges/HyphenAdapter.sol:HyphenAdapter",
        "label": "nativeWrap",
        "offset": 0,
        "slot": "1",
        "type": "t_address"
      },
      {
        "astId": 5321,
        "contract": "contracts/bridges/HyphenAdapter.sol:HyphenAdapter",
        "label": "pool",
        "offset": 0,
        "slot": "2",
        "type": "t_address"
      }
    ],
    "types": {
      "t_address": {
        "encoding": "inplace",
        "label": "address",
        "numberOfBytes": "20"
      },
      "t_bool": {
        "encoding": "inplace",
        "label": "bool",
        "numberOfBytes": "1"
      },
      "t_uint8": {
        "encoding": "inplace",
        "label": "uint8",
        "numberOfBytes": "1"
      }
    }
  }
}