{
  "address": "0xF762C3fC745948fF49a3dA00CCdC6b755e44305e",
  "abi": [
    {
      "inputs": [
        {
          "internalType": "address",
          "name": "_messageBus",
          "type": "address"
        },
        {
          "internalType": "address",
          "name": "_nativeWrap",
          "type": "address"
        },
        {
          "internalType": "address",
          "name": "_signer",
          "type": "address"
        },
        {
          "internalType": "address",
          "name": "_feeCollector",
          "type": "address"
        },
        {
          "internalType": "string[]",
          "name": "_funcSigs",
          "type": "string[]"
        },
        {
          "internalType": "address[]",
          "name": "_codecs",
          "type": "address[]"
        },
        {
          "internalType": "address[]",
          "name": "_supportedDexList",
          "type": "address[]"
        },
        {
          "internalType": "string[]",
          "name": "_supportedDexFuncs",
          "type": "string[]"
        },
        {
          "internalType": "bool",
          "name": "_testMode",
          "type": "bool"
        }
      ],
      "stateMutability": "nonpayable",
      "type": "constructor"
    },
    {
      "anonymous": false,
      "inputs": [
        {
          "indexed": false,
          "internalType": "bytes4",
          "name": "selector",
          "type": "bytes4"
        },
        {
          "indexed": false,
          "internalType": "address",
          "name": "codec",
          "type": "address"
        }
      ],
      "name": "CodecUpdated",
      "type": "event"
    },
    {
      "anonymous": false,
      "inputs": [
        {
          "indexed": false,
          "internalType": "bytes32",
          "name": "id",
          "type": "bytes32"
        },
        {
          "indexed": false,
          "internalType": "uint256",
          "name": "amountIn",
          "type": "uint256"
        },
        {
          "indexed": false,
          "internalType": "address",
          "name": "tokenIn",
          "type": "address"
        },
        {
          "indexed": false,
          "internalType": "uint256",
          "name": "amountOut",
          "type": "uint256"
        },
        {
          "indexed": false,
          "internalType": "address",
          "name": "tokenOut",
          "type": "address"
        }
      ],
      "name": "DirectSwap",
      "type": "event"
    },
    {
      "anonymous": false,
      "inputs": [
        {
          "indexed": false,
          "internalType": "address",
          "name": "from",
          "type": "address"
        },
        {
          "indexed": false,
          "internalType": "address",
          "name": "to",
          "type": "address"
        }
      ],
      "name": "FeeCollectorUpdated",
      "type": "event"
    },
    {
      "anonymous": false,
      "inputs": [
        {
          "indexed": false,
          "internalType": "address",
          "name": "messageBus",
          "type": "address"
        }
      ],
      "name": "MessageBusUpdated",
      "type": "event"
    },
    {
      "anonymous": false,
      "inputs": [
        {
          "indexed": false,
          "internalType": "address",
          "name": "nativeWrap",
          "type": "address"
        }
      ],
      "name": "NativeWrapUpdated",
      "type": "event"
    },
    {
      "anonymous": false,
      "inputs": [
        {
          "indexed": true,
          "internalType": "address",
          "name": "previousOwner",
          "type": "address"
        },
        {
          "indexed": true,
          "internalType": "address",
          "name": "newOwner",
          "type": "address"
        }
      ],
      "name": "OwnershipTransferred",
      "type": "event"
    },
    {
      "anonymous": false,
      "inputs": [
        {
          "indexed": false,
          "internalType": "address",
          "name": "account",
          "type": "address"
        }
      ],
      "name": "Paused",
      "type": "event"
    },
    {
      "anonymous": false,
      "inputs": [
        {
          "indexed": false,
          "internalType": "address",
          "name": "account",
          "type": "address"
        }
      ],
      "name": "PauserAdded",
      "type": "event"
    },
    {
      "anonymous": false,
      "inputs": [
        {
          "indexed": false,
          "internalType": "address",
          "name": "account",
          "type": "address"
        }
      ],
      "name": "PauserRemoved",
      "type": "event"
    },
    {
      "anonymous": false,
      "inputs": [
        {
          "indexed": false,
          "internalType": "bytes32",
          "name": "id",
          "type": "bytes32"
        },
        {
          "indexed": false,
          "internalType": "uint256",
          "name": "dstAmount",
          "type": "uint256"
        },
        {
          "indexed": false,
          "internalType": "uint256",
          "name": "refundAmount",
          "type": "uint256"
        },
        {
          "indexed": false,
          "internalType": "address",
          "name": "refundToken",
          "type": "address"
        },
        {
          "indexed": false,
          "internalType": "uint256",
          "name": "feeCollected",
          "type": "uint256"
        },
        {
          "indexed": false,
          "internalType": "enum Types.RequestStatus",
          "name": "status",
          "type": "uint8"
        },
        {
          "indexed": false,
          "internalType": "bytes",
          "name": "forwardResp",
          "type": "bytes"
        }
      ],
      "name": "RequestDone",
      "type": "event"
    },
    {
      "anonymous": false,
      "inputs": [
        {
          "indexed": false,
          "internalType": "bytes32",
          "name": "id",
          "type": "bytes32"
        },
        {
          "indexed": false,
          "internalType": "bytes",
          "name": "bridgeResp",
          "type": "bytes"
        },
        {
          "indexed": false,
          "internalType": "uint64",
          "name": "dstChainId",
          "type": "uint64"
        },
        {
          "indexed": false,
          "internalType": "uint256",
          "name": "srcAmount",
          "type": "uint256"
        },
        {
          "indexed": false,
          "internalType": "address",
          "name": "srcToken",
          "type": "address"
        },
        {
          "indexed": false,
          "internalType": "address",
          "name": "dstToken",
          "type": "address"
        },
        {
          "indexed": false,
          "internalType": "address",
          "name": "bridgeOutReceiver",
          "type": "address"
        },
        {
          "indexed": false,
          "internalType": "address",
          "name": "bridgeToken",
          "type": "address"
        },
        {
          "indexed": false,
          "internalType": "uint256",
          "name": "bridgeAmount",
          "type": "uint256"
        },
        {
          "indexed": false,
          "internalType": "string",
          "name": "bridgeProvider",
          "type": "string"
        }
      ],
      "name": "RequestSent",
      "type": "event"
    },
    {
      "anonymous": false,
      "inputs": [
        {
          "indexed": false,
          "internalType": "address",
          "name": "from",
          "type": "address"
        },
        {
          "indexed": false,
          "internalType": "address",
          "name": "to",
          "type": "address"
        }
      ],
      "name": "SignerUpdated",
      "type": "event"
    },
    {
      "anonymous": false,
      "inputs": [
        {
          "indexed": false,
          "internalType": "string[]",
          "name": "_bridgeProviders",
          "type": "string[]"
        },
        {
          "indexed": false,
          "internalType": "address[]",
          "name": "_bridgeAdapters",
          "type": "address[]"
        }
      ],
      "name": "SupportedBridgesUpdated",
      "type": "event"
    },
    {
      "anonymous": false,
      "inputs": [
        {
          "indexed": false,
          "internalType": "address",
          "name": "dex",
          "type": "address"
        },
        {
          "indexed": false,
          "internalType": "bytes4",
          "name": "selector",
          "type": "bytes4"
        },
        {
          "indexed": false,
          "internalType": "bool",
          "name": "enabled",
          "type": "bool"
        }
      ],
      "name": "SupportedDexUpdated",
      "type": "event"
    },
    {
      "anonymous": false,
      "inputs": [
        {
          "indexed": false,
          "internalType": "address",
          "name": "account",
          "type": "address"
        }
      ],
      "name": "Unpaused",
      "type": "event"
    },
    {
      "inputs": [],
      "name": "CBRIDGE_PROVIDER_HASH",
      "outputs": [
        {
          "internalType": "bytes32",
          "name": "",
          "type": "bytes32"
        }
      ],
      "stateMutability": "view",
      "type": "function"
    },
    {
      "inputs": [
        {
          "internalType": "address",
          "name": "account",
          "type": "address"
        }
      ],
      "name": "addPauser",
      "outputs": [],
      "stateMutability": "nonpayable",
      "type": "function"
    },
    {
      "inputs": [
        {
          "internalType": "bytes32",
          "name": "",
          "type": "bytes32"
        }
      ],
      "name": "bridges",
      "outputs": [
        {
          "internalType": "contract IBridgeAdapter",
          "name": "",
          "type": "address"
        }
      ],
      "stateMutability": "view",
      "type": "function"
    },
    {
      "inputs": [
        {
          "internalType": "uint256",
          "name": "",
          "type": "uint256"
        }
      ],
      "name": "codecs",
      "outputs": [
        {
          "internalType": "address",
          "name": "",
          "type": "address"
        }
      ],
      "stateMutability": "view",
      "type": "function"
    },
    {
      "inputs": [
        {
          "internalType": "address[]",
          "name": "_tokens",
          "type": "address[]"
        },
        {
          "internalType": "address",
          "name": "_to",
          "type": "address"
        }
      ],
      "name": "collectFee",
      "outputs": [],
      "stateMutability": "nonpayable",
      "type": "function"
    },
    {
      "inputs": [
        {
          "internalType": "address",
          "name": "",
          "type": "address"
        },
        {
          "internalType": "bytes4",
          "name": "",
          "type": "bytes4"
        }
      ],
      "name": "dexRegistry",
      "outputs": [
        {
          "internalType": "bool",
          "name": "",
          "type": "bool"
        }
      ],
      "stateMutability": "view",
      "type": "function"
    },
    {
      "inputs": [
        {
          "internalType": "address",
          "name": "_sender",
          "type": "address"
        },
        {
          "internalType": "uint64",
          "name": "_srcChainId",
          "type": "uint64"
        },
        {
          "internalType": "bytes",
          "name": "_message",
          "type": "bytes"
        },
        {
          "internalType": "address",
          "name": "_executor",
          "type": "address"
        }
      ],
      "name": "executeMessage",
      "outputs": [
        {
          "internalType": "enum IMessageReceiverApp.ExecutionStatus",
          "name": "",
          "type": "uint8"
        }
      ],
      "stateMutability": "payable",
      "type": "function"
    },
    {
      "inputs": [
        {
          "internalType": "address",
          "name": "",
          "type": "address"
        },
        {
          "internalType": "address",
          "name": "_token",
          "type": "address"
        },
        {
          "internalType": "uint256",
          "name": "_amount",
          "type": "uint256"
        },
        {
          "internalType": "uint64",
          "name": "",
          "type": "uint64"
        },
        {
          "internalType": "bytes",
          "name": "_message",
          "type": "bytes"
        },
        {
          "internalType": "address",
          "name": "_executor",
          "type": "address"
        }
      ],
      "name": "executeMessageWithTransfer",
      "outputs": [
        {
          "internalType": "enum IMessageReceiverApp.ExecutionStatus",
          "name": "",
          "type": "uint8"
        }
      ],
      "stateMutability": "payable",
      "type": "function"
    },
    {
      "inputs": [
        {
          "internalType": "address",
          "name": "",
          "type": "address"
        },
        {
          "internalType": "address",
          "name": "_token",
          "type": "address"
        },
        {
          "internalType": "uint256",
          "name": "_amount",
          "type": "uint256"
        },
        {
          "internalType": "uint64",
          "name": "",
          "type": "uint64"
        },
        {
          "internalType": "bytes",
          "name": "_message",
          "type": "bytes"
        },
        {
          "internalType": "address",
          "name": "",
          "type": "address"
        }
      ],
      "name": "executeMessageWithTransferFallback",
      "outputs": [
        {
          "internalType": "enum IMessageReceiverApp.ExecutionStatus",
          "name": "",
          "type": "uint8"
        }
      ],
      "stateMutability": "payable",
      "type": "function"
    },
    {
      "inputs": [
        {
          "internalType": "address",
          "name": "_token",
          "type": "address"
        },
        {
          "internalType": "uint256",
          "name": "_amount",
          "type": "uint256"
        },
        {
          "internalType": "bytes",
          "name": "_message",
          "type": "bytes"
        },
        {
          "internalType": "address",
          "name": "_executor",
          "type": "address"
        }
      ],
      "name": "executeMessageWithTransferRefund",
      "outputs": [
        {
          "internalType": "enum IMessageReceiverApp.ExecutionStatus",
          "name": "",
          "type": "uint8"
        }
      ],
      "stateMutability": "payable",
      "type": "function"
    },
    {
      "inputs": [
        {
          "internalType": "address",
          "name": "_token",
          "type": "address"
        },
        {
          "internalType": "uint256",
          "name": "_amount",
          "type": "uint256"
        },
        {
          "internalType": "bytes",
          "name": "_message",
          "type": "bytes"
        },
        {
          "internalType": "address",
          "name": "",
          "type": "address"
        }
      ],
      "name": "executeMessageWithTransferRefundFromAdapter",
      "outputs": [
        {
          "internalType": "enum IMessageReceiverApp.ExecutionStatus",
          "name": "",
          "type": "uint8"
        }
      ],
      "stateMutability": "payable",
      "type": "function"
    },
    {
      "inputs": [],
      "name": "feeCollector",
      "outputs": [
        {
          "internalType": "address",
          "name": "",
          "type": "address"
        }
      ],
      "stateMutability": "view",
      "type": "function"
    },
    {
      "inputs": [
        {
          "internalType": "address",
          "name": "account",
          "type": "address"
        }
      ],
      "name": "isPauser",
      "outputs": [
        {
          "internalType": "bool",
          "name": "",
          "type": "bool"
        }
      ],
      "stateMutability": "view",
      "type": "function"
    },
    {
      "inputs": [],
      "name": "messageBus",
      "outputs": [
        {
          "internalType": "address",
          "name": "",
          "type": "address"
        }
      ],
      "stateMutability": "view",
      "type": "function"
    },
    {
      "inputs": [],
      "name": "nativeWrap",
      "outputs": [
        {
          "internalType": "address",
          "name": "",
          "type": "address"
        }
      ],
      "stateMutability": "view",
      "type": "function"
    },
    {
      "inputs": [],
      "name": "owner",
      "outputs": [
        {
          "internalType": "address",
          "name": "",
          "type": "address"
        }
      ],
      "stateMutability": "view",
      "type": "function"
    },
    {
      "inputs": [],
      "name": "pause",
      "outputs": [],
      "stateMutability": "nonpayable",
      "type": "function"
    },
    {
      "inputs": [],
      "name": "paused",
      "outputs": [
        {
          "internalType": "bool",
          "name": "",
          "type": "bool"
        }
      ],
      "stateMutability": "view",
      "type": "function"
    },
    {
      "inputs": [
        {
          "internalType": "address",
          "name": "",
          "type": "address"
        }
      ],
      "name": "pausers",
      "outputs": [
        {
          "internalType": "bool",
          "name": "",
          "type": "bool"
        }
      ],
      "stateMutability": "view",
      "type": "function"
    },
    {
      "inputs": [
        {
          "internalType": "address",
          "name": "account",
          "type": "address"
        }
      ],
      "name": "removePauser",
      "outputs": [],
      "stateMutability": "nonpayable",
      "type": "function"
    },
    {
      "inputs": [],
      "name": "renounceOwnership",
      "outputs": [],
      "stateMutability": "nonpayable",
      "type": "function"
    },
    {
      "inputs": [],
      "name": "renouncePauser",
      "outputs": [],
      "stateMutability": "nonpayable",
      "type": "function"
    },
    {
      "inputs": [
        {
          "internalType": "bytes4",
          "name": "",
          "type": "bytes4"
        }
      ],
      "name": "selector2codec",
      "outputs": [
        {
          "internalType": "contract ICodec",
          "name": "",
          "type": "address"
        }
      ],
      "stateMutability": "view",
      "type": "function"
    },
    {
      "inputs": [
        {
          "internalType": "string",
          "name": "_funcSig",
          "type": "string"
        },
        {
          "internalType": "address",
          "name": "_codec",
          "type": "address"
        }
      ],
      "name": "setCodec",
      "outputs": [],
      "stateMutability": "nonpayable",
      "type": "function"
    },
    {
      "inputs": [
        {
          "internalType": "address",
          "name": "_feeCollector",
          "type": "address"
        }
      ],
      "name": "setFeeCollector",
      "outputs": [],
      "stateMutability": "nonpayable",
      "type": "function"
    },
    {
      "inputs": [
        {
          "internalType": "address",
          "name": "_messageBus",
          "type": "address"
        }
      ],
      "name": "setMessageBus",
      "outputs": [],
      "stateMutability": "nonpayable",
      "type": "function"
    },
    {
      "inputs": [
        {
          "internalType": "address",
          "name": "_nativeWrap",
          "type": "address"
        }
      ],
      "name": "setNativeWrap",
      "outputs": [],
      "stateMutability": "nonpayable",
      "type": "function"
    },
    {
      "inputs": [
        {
          "internalType": "address",
          "name": "_signer",
          "type": "address"
        }
      ],
      "name": "setSigner",
      "outputs": [],
      "stateMutability": "nonpayable",
      "type": "function"
    },
    {
      "inputs": [
        {
          "internalType": "string[]",
          "name": "_bridgeProviders",
          "type": "string[]"
        },
        {
          "internalType": "address[]",
          "name": "_bridgeAdapters",
          "type": "address[]"
        }
      ],
      "name": "setSupportedBridges",
      "outputs": [],
      "stateMutability": "nonpayable",
      "type": "function"
    },
    {
      "inputs": [
        {
          "internalType": "address",
          "name": "_dex",
          "type": "address"
        },
        {
          "internalType": "bytes4",
          "name": "_selector",
          "type": "bytes4"
        },
        {
          "internalType": "bool",
          "name": "_enabled",
          "type": "bool"
        }
      ],
      "name": "setSupportedDex",
      "outputs": [],
      "stateMutability": "nonpayable",
      "type": "function"
    },
    {
      "inputs": [],
      "name": "signer",
      "outputs": [
        {
          "internalType": "address",
          "name": "",
          "type": "address"
        }
      ],
      "stateMutability": "view",
      "type": "function"
    },
    {
      "inputs": [],
      "name": "testMode",
      "outputs": [
        {
          "internalType": "bool",
          "name": "",
          "type": "bool"
        }
      ],
      "stateMutability": "view",
      "type": "function"
    },
    {
      "inputs": [
        {
          "internalType": "address",
          "name": "newOwner",
          "type": "address"
        }
      ],
      "name": "transferOwnership",
      "outputs": [],
      "stateMutability": "nonpayable",
      "type": "function"
    },
    {
      "inputs": [
        {
          "components": [
            {
              "internalType": "address",
              "name": "receiver",
              "type": "address"
            },
            {
              "internalType": "uint64",
              "name": "dstChainId",
              "type": "uint64"
            },
            {
              "internalType": "address",
              "name": "dstTransferSwapper",
              "type": "address"
            },
            {
              "internalType": "uint64",
              "name": "nonce",
              "type": "uint64"
            },
            {
              "internalType": "string",
              "name": "bridgeProvider",
              "type": "string"
            },
            {
              "internalType": "bytes",
              "name": "bridgeParams",
              "type": "bytes"
            },
            {
              "internalType": "bool",
              "name": "nativeIn",
              "type": "bool"
            },
            {
              "internalType": "bool",
              "name": "nativeOut",
              "type": "bool"
            },
            {
              "internalType": "uint256",
              "name": "fee",
              "type": "uint256"
            },
            {
              "internalType": "uint256",
              "name": "feeDeadline",
              "type": "uint256"
            },
            {
              "internalType": "bytes",
              "name": "feeSig",
              "type": "bytes"
            },
            {
              "internalType": "uint256",
              "name": "amountIn",
              "type": "uint256"
            },
            {
              "internalType": "address",
              "name": "tokenIn",
              "type": "address"
            },
            {
              "internalType": "address",
              "name": "dstTokenOut",
              "type": "address"
            },
            {
              "internalType": "bool",
              "name": "allowPartialFill",
              "type": "bool"
            },
            {
              "internalType": "bytes",
              "name": "forward",
              "type": "bytes"
            }
          ],
          "internalType": "struct Types.TransferDescription",
          "name": "_desc",
          "type": "tuple"
        },
        {
          "components": [
            {
              "internalType": "address",
              "name": "dex",
              "type": "address"
            },
            {
              "internalType": "bytes",
              "name": "data",
              "type": "bytes"
            }
          ],
          "internalType": "struct ICodec.SwapDescription[]",
          "name": "_srcSwaps",
          "type": "tuple[]"
        },
        {
          "components": [
            {
              "internalType": "address",
              "name": "dex",
              "type": "address"
            },
            {
              "internalType": "bytes",
              "name": "data",
              "type": "bytes"
            }
          ],
          "internalType": "struct ICodec.SwapDescription[]",
          "name": "_dstSwaps",
          "type": "tuple[]"
        }
      ],
      "name": "transferWithSwap",
      "outputs": [],
      "stateMutability": "payable",
      "type": "function"
    },
    {
      "inputs": [],
      "name": "unpause",
      "outputs": [],
      "stateMutability": "nonpayable",
      "type": "function"
    },
    {
      "stateMutability": "payable",
      "type": "receive"
    }
  ],
  "transactionHash": "0xb2d7b14c52d0f04248a5126aa7be7316e3fb72891e93b48bc3e3789e2acf2c41",
  "args": [
    "0x0D71D18126E03646eb09FEc929e2ae87b7CAE69d",
    "0x4200000000000000000000000000000000000006",
    "0x26e6eAf3D3C5d4B8290AA7dd896140f383dFf043",
    "0xf0761BB438CeFca39A8fd1F27d75ccC7F6Df92d8",
    [
      "exactInput((bytes,address,uint256,uint256,uint256))",
      "clipperSwap(address,address,uint256,uint256)",
      "unoswap(address,uint256,uint256,bytes32[])",
      "uniswapV3Swap(uint256,uint256,uint256[])",
      "fillOrderRFQ((uint256,address,address,address,address,uint256,uint256),bytes,uint256,uint256)"
    ],
    [
      "0x9780F24a4696c59FE935f33Dd307884B1F05A56d",
      "0xf26055894aeaAe23d136dEfAa355A041a43D7DFd",
      "0xf26055894aeaAe23d136dEfAa355A041a43D7DFd",
      "0xf26055894aeaAe23d136dEfAa355A041a43D7DFd",
      "0xf26055894aeaAe23d136dEfAa355A041a43D7DFd"
    ],
    [
      "0xE592427A0AEce92De3Edee1F18E0157C05861564",
      "0x1111111254760f7ab3f16433eea9304126dcd199",
      "0x1111111254760f7ab3f16433eea9304126dcd199",
      "0x1111111254760f7ab3f16433eea9304126dcd199",
      "0x1111111254760f7ab3f16433eea9304126dcd199",
      "0x1111111254760f7ab3f16433eea9304126dcd199"
    ],
    [
      "exactInput((bytes,address,uint256,uint256,uint256))",
      "swap(address,(address,address,address,address,uint256,uint256,uint256,bytes),bytes)",
      "clipperSwap(address,address,uint256,uint256)",
      "unoswap(address,uint256,uint256,bytes32[])",
      "uniswapV3Swap(uint256,uint256,uint256[])",
      "fillOrderRFQ((uint256,address,address,address,address,uint256,uint256),bytes,uint256,uint256)"
    ],
    false
  ],
  "numDeployments": 4,
  "solcInputHash": "a75841212acef808aea6466c645556ea",
  "bytecode": "0x60a06040523480156200001157600080fd5b5060405162005f7738038062005f7783398101604081905262000034916200072b565b85878686868681818585620000493362000255565b8051825114620000765760405162461bcd60e51b81526004016200006d9062000896565b60405180910390fd5b60005b8251811015620000ef5760008382815181106200009a576200009a620008a8565b6020026020010151805190602001209050620000d981848481518110620000c557620000c5620008a8565b6020026020010151620002a560201b60201c565b5080620000e681620008d4565b91505062000079565b50505060005b82518110156200016d576000828281518110620001165762000116620008a8565b602002602001015180519060200120905062000157848381518110620001405762000140620008a8565b60200260200101518260016200031760201b60201c565b50806200016481620008d4565b915050620000f5565b5050600580546001600160a01b039788166001600160a01b03199182161790915560068054989097169716969096179094555050600160075550506009805460ff1916905550620001be33620003b0565b60018054600b80546001600160a01b039b8c166001600160a01b031991909116179055911515600160a01b026001600160a81b031990921698909916979097179690961790965550506040805180820190915260078152666362726964676560c81b60209091015250507f87d218bfcd262745694c36930f68b5dd697460f1af499de15378f8ddddb1d74f60805250620009869050565b600080546001600160a01b038381166001600160a01b0319831681178455604051919092169283917f8be0079c531659141344cd1fd0a4f28419497f9722a3daafe3b4186f6b6457e09190a35050565b6001600160e01b0319909116600090815260026020526040812080546001600160a01b039093166001600160a01b031993841681179091556003805460018101825592527fc2575a0e9e593c00f959f8c92f12db2869c3395a3b0502d05e2516446f71f85b9091018054909216179055565b6001600160a01b03831660009081526004602090815260408083206001600160e01b03198616845290915290205460ff16811515811515036200036e5760405162461bcd60e51b81526004016200006d906200090c565b506001600160a01b0390921660009081526004602090815260408083206001600160e01b0319909416835292905220805491151560ff19909216919091179055565b6001600160a01b0381166000908152600a602052604090205460ff1615620003ec5760405162461bcd60e51b81526004016200006d9062000953565b6001600160a01b0381166000908152600a602052604090819020805460ff19166001179055517f6719d08c1888103bea251a4ed56406bd0c3e69723c8a1686e017e7bbe159b6f8906200044190839062000976565b60405180910390a150565b60006001600160a01b0382165b92915050565b6200046a816200044c565b81146200047657600080fd5b50565b805162000459816200045f565b634e487b7160e01b600052604160045260246000fd5b601f19601f83011681018181106001600160401b0382111715620004c457620004c462000486565b6040525050565b6000620004d760405190565b9050620004e582826200049c565b919050565b60006001600160401b0382111562000506576200050662000486565b5060209081020190565b60006001600160401b038211156200052c576200052c62000486565b601f19601f83011660200192915050565b60005b838110156200055a57818101518382015260200162000540565b838111156200056a576000848401525b50505050565b600062000587620005818462000510565b620004cb565b905082815260208101848484011115620005a457620005a4600080fd5b620005b18482856200053d565b509392505050565b600082601f830112620005cf57620005cf600080fd5b8151620005e184826020860162000570565b949350505050565b6000620005fa6200058184620004ea565b838152905060208082019084028301858111156200061b576200061b600080fd5b835b81811015620006615780516001600160401b03811115620006415762000641600080fd5b808601620006508982620005b9565b85525050602092830192016200061d565b5050509392505050565b600082601f830112620006815762000681600080fd5b8151620005e1848260208601620005e9565b6000620006a46200058184620004ea565b83815290506020808201908402830185811115620006c557620006c5600080fd5b835b81811015620006615780620006dd888262000479565b84525060209283019201620006c7565b600082601f830112620007035762000703600080fd5b8151620005e184826020860162000693565b8015156200046a565b8051620004598162000715565b60008060008060008060008060006101208a8c0312156200074f576200074f600080fd5b60006200075d8c8c62000479565b9950506020620007708c828d0162000479565b9850506040620007838c828d0162000479565b9750506060620007968c828d0162000479565b96505060808a01516001600160401b03811115620007b757620007b7600080fd5b620007c58c828d016200066b565b95505060a08a01516001600160401b03811115620007e657620007e6600080fd5b620007f48c828d01620006ed565b94505060c08a01516001600160401b03811115620008155762000815600080fd5b620008238c828d01620006ed565b93505060e08a01516001600160401b03811115620008445762000844600080fd5b620008528c828d016200066b565b925050610100620008668c828d016200071e565b9150509295985092959850929598565b60068152600060208201656c656e206d6d60d01b815291505b5060200190565b60208082528101620004598162000876565b634e487b7160e01b600052603260045260246000fd5b634e487b7160e01b600052601160045260246000fd5b60006000198203620008ea57620008ea620008be565b5060010190565b600381526000602082016206e6f760ec1b815291506200088f565b602080825281016200045981620008f1565b601981526000602082017f4163636f756e7420697320616c72656164792070617573657200000000000000815291506200088f565b6020808252810162000459816200091e565b62000970816200044c565b82525050565b6020810162000459828462000965565b6080516155c7620009b06000396000818161059001528181610c06015261111d01526155c76000f3fe6080604052600436106102385760003560e01c806382dc1ec411610138578063c0404998116100b0578063eeaaa6511161007f578063f2fde38b11610064578063f2fde38b14610683578063fb453787146106a3578063fbf5d763146106b657600080fd5b8063eeaaa65114610620578063efcfd8f51461066357600080fd5b8063c04049981461057e578063c415b95c146105bf578063c5bccca3146105df578063cd9ea342146105ff57600080fd5b806391ec04b511610107578063a1a227fa116100ec578063a1a227fa1461052b578063a42dce801461054b578063a6131ca01461056b57600080fd5b806391ec04b5146104e25780639c649fdf1461051d57600080fd5b806382dc1ec41461046f5780638456cb591461048f5780638da5cb5b146104a4578063918ead76146104c257600080fd5b80635c975abb116101cb5780636ef8d66d1161019a5780637cd2bffc1161017f5780637cd2bffc1461040c57806380f51c121461041f57806382665a8f1461044f57600080fd5b80636ef8d66d146103e2578063715018a6146103f757600080fd5b80635c975abb1461036a578063675df759146103825780636b2c0f55146103a25780636c19e783146103c257600080fd5b806346fbf68e1161020757806346fbf68e146102d1578063547cad12146103175780635ab7afc6146103375780635b5a66a71461034a57600080fd5b80630bcb498214610244578063238ac9331461026d5780633f4ba83a1461029a578063457bfa2f146102b157600080fd5b3661023f57005b600080fd5b6102576102523660046132a7565b6106ec565b604051610264919061337a565b60405180910390f35b34801561027957600080fd5b5060055461028d906001600160a01b031681565b6040516102649190613391565b3480156102a657600080fd5b506102af61073c565b005b3480156102bd57600080fd5b50600b5461028d906001600160a01b031681565b3480156102dd57600080fd5b5061030a6102ec36600461339f565b6001600160a01b03166000908152600a602052604090205460ff1690565b60405161026491906133c8565b34801561032357600080fd5b506102af61033236600461339f565b610775565b6102576103453660046134df565b6107d4565b34801561035657600080fd5b506102af61036536600461339f565b6108ff565b34801561037657600080fd5b5060095460ff1661030a565b34801561038e57600080fd5b506102af61039d3660046135b2565b610952565b3480156103ae57600080fd5b506102af6103bd36600461339f565b6109a5565b3480156103ce57600080fd5b506102af6103dd36600461339f565b6109b9565b3480156103ee57600080fd5b506102af610a20565b34801561040357600080fd5b506102af610a29565b61025761041a3660046134df565b610a3b565b34801561042b57600080fd5b5061030a61043a36600461339f565b600a6020526000908152604090205460ff1681565b34801561045b57600080fd5b5061028d61046a366004613602565b610e15565b34801561047b57600080fd5b506102af61048a36600461339f565b610e3f565b34801561049b57600080fd5b506102af610e50565b3480156104b057600080fd5b506000546001600160a01b031661028d565b3480156104ce57600080fd5b506102af6104dd36600461366e565b610e87565b3480156104ee57600080fd5b5061030a6104fd3660046136e7565b600460209081526000928352604080842090915290825290205460ff1681565b610257610252366004613724565b34801561053757600080fd5b5060015461028d906001600160a01b031681565b34801561055757600080fd5b506102af61056636600461339f565b610fa7565b6102af610579366004613778565b611002565b34801561058a57600080fd5b506105b27f000000000000000000000000000000000000000000000000000000000000000081565b6040516102649190613828565b3480156105cb57600080fd5b5060065461028d906001600160a01b031681565b3480156105eb57600080fd5b506102af6105fa366004613836565b611346565b34801561060b57600080fd5b5060015461030a90600160a01b900460ff1681565b34801561062c57600080fd5b5061065661063b366004613602565b6008602052600090815260409020546001600160a01b031681565b60405161026491906138c9565b34801561066f57600080fd5b506102af61067e3660046138d7565b611412565b34801561068f57600080fd5b506102af61069e36600461339f565b6115f8565b6102576106b13660046132a7565b61162f565b3480156106c257600080fd5b506106566106d1366004613915565b6002602052600090815260409020546001600160a01b031681565b600154600090600160a01b900460ff16610733576001546001600160a01b031633146107335760405162461bcd60e51b815260040161072a9061396d565b60405180910390fd5b95945050505050565b336000908152600a602052604090205460ff1661076b5760405162461bcd60e51b815260040161072a906139b1565b61077361174f565b565b61077d61179b565b600180546001600160a01b0319166001600160a01b0383169081179091556040517f3f8223bcd8b3b875473e9f9e14e1ad075451a2b5ffd31591655da9a01516bf5e916107c991613391565b60405180910390a150565b600154600090600160a01b900460ff16610812576001546001600160a01b031633146108125760405162461bcd60e51b815260040161072a9061396d565b6002600754036108345760405162461bcd60e51b815260040161072a906139f5565b600260075560095460ff161561084c575060026108f0565b6000838060200190518101906108629190613cb3565b905061086e87876117c5565b60008160800151876108809190613d04565b905061089388828460400151600061194a565b8151608083015160408051602081018252600080825291517ffd53a0c19886b8e3b5a497eb3ab7a50cb59734988891978e5f6709e86af805c3946108e19490939287928f9291600291613d64565b60405180910390a16001925050505b60016007559695505050505050565b61090761179b565b600b80546001600160a01b0319166001600160a01b0383161790556040517fb878cd71628ac64b2df1872301925e01164824535b02e8601077749eeeb88c3d906107c9908390613391565b61095a61179b565b610965838383611a7a565b7f5e20184b00709d9f103306958e9fb9d509f78bec1829ca7080f2c43eb2ff21a883838360405161099893929190613de2565b60405180910390a1505050565b6109ad61179b565b6109b681611b10565b50565b6109c161179b565b600580546001600160a01b038381166001600160a01b03198316179092556040519116907f2d025324f0a785e8c12d0a0d91a9caa49df4ef20ff87e0df7213a1d4f3157beb90610a149083908590613e0a565b60405180910390a15050565b61077333611b10565b610a3161179b565b6107736000611b98565b600154600090600160a01b900460ff16610a79576001546001600160a01b03163314610a795760405162461bcd60e51b815260040161072a9061396d565b600260075403610a9b5760405162461bcd60e51b815260040161072a906139f5565b600260075560095460ff1615610ab3575060026108f0565b600083806020019051810190610ac99190613cb3565b90508060800151861015610b3b5760808101869052805160408051602081018252600080825291517ffd53a0c19886b8e3b5a497eb3ab7a50cb59734988891978e5f6709e86af805c393610b29939092909182918d918d91600191613e25565b60405180910390a160019150506108f0565b6080810151610b4a9087613d04565b95508560006060610b5b8a846117c5565b6020840151518a9015610bdf5760606000610b798760200151611be8565b90955093509150506001600160a01b03808216908e1614610bac5760405162461bcd60e51b815260040161072a90613e81565b610bc08760200151838e8a60a00151611e16565b90965094508415610bdc57610bdc8d868960400151600061194a565b50505b60c08501515115610d195760008560c00151806020019051810190610c049190613ec9565b7f00000000000000000000000000000000000000000000000000000000000000006000908152600860205260409020549091506001600160a01b031680610c5d5760405162461bcd60e51b815260040161072a90613f38565b610c716001600160a01b0384168288612159565b6000610c8588600001518960400151612242565b83516040808b0151602087015191516341a5e1f560e11b81529394506001600160a01b0386169363834bc3ea933493610cc89391928e918c918a90600401613f58565b60006040518083038185885af1158015610ce6573d6000803e3d6000fd5b50505050506040513d6000823e601f3d908101601f19168201604052610d0f9190810190613fbf565b9450505050610db1565b3415610d9d576000876001600160a01b031634604051610d3890613ffa565b60006040518083038185875af1925050503d8060008114610d75576040519150601f19603f3d011682016040523d82523d6000602084013e610d7a565b606091505b5050905080610d9b5760405162461bcd60e51b815260040161072a90614039565b505b610db181858760400151886060015161194a565b507ffd53a0c19886b8e3b5a497eb3ab7a50cb59734988891978e5f6709e86af805c3846000015184848d8860800151600187604051610df69796959493929190614049565b60405180910390a1600194505050505060016007559695505050505050565b60038181548110610e2557600080fd5b6000918252602090912001546001600160a01b0316905081565b610e4761179b565b6109b6816122b3565b336000908152600a602052604090205460ff16610e7f5760405162461bcd60e51b815260040161072a906139b1565b61077361233f565b610e8f61179b565b828114610eae5760405162461bcd60e51b815260040161072a90614098565b60005b83811015610f6357828282818110610ecb57610ecb6140a8565b9050602002016020810190610ee0919061339f565b60086000878785818110610ef657610ef66140a8565b9050602002810190610f0891906140be565b604051610f16929190614128565b6040518091039020815260200190815260200160002060006101000a8154816001600160a01b0302191690836001600160a01b031602179055508080610f5b90614135565b915050610eb1565b507f68d2b5e14eb61b73f2dfa46a255dcba81a3b53259093a83c90da69c3ade70b9684848484604051610f99949392919061429b565b60405180910390a150505050565b610faf61179b565b600680546001600160a01b038381166001600160a01b03198316179092556040519116907f5d16ad41baeb009cd23eb8f6c7cde5c2e0cd5acf4a33926ab488875c37c37f3890610a149083908590613e0a565b6002600754036110245760405162461bcd60e51b815260040161072a906139f5565b600260075561103161237c565b82151580611062575067ffffffffffffffff461661105560408701602088016142cc565b67ffffffffffffffff1614155b61107e5760405162461bcd60e51b815260040161072a90614307565b821515806110b65750610160850135158015906110b6575060006110aa6101a08701610180880161339f565b6001600160a01b031614155b6110d25760405162461bcd60e51b815260040161072a90614307565b60006110e160808701876140be565b6040516110ef929190614128565b60405190819003902090508115801561111557506111116101e08701876140be565b1590505b8061113f57507f000000000000000000000000000000000000000000000000000000000000000081145b61115b5760405162461bcd60e51b815260040161072a9061434b565b600081815260086020908152604091829020546001600160a01b03169167ffffffffffffffff461691611192918a01908a016142cc565b67ffffffffffffffff1614806111b057506001600160a01b03811615155b6111cc5760405162461bcd60e51b815260040161072a9061438f565b610160870135606060006111e86101a08b016101808c0161339f565b905060006111fe6101a08c016101808d0161339f565b90508815611223576112186112138a8c614466565b611be8565b929650919450925090505b61123360e08c0160c08d01614473565b156112f357600b546001600160a01b038381169116146112655760405162461bcd60e51b815260040161072a906144c8565b833410156112855760405162461bcd60e51b815260040161072a9061450c565b600b60009054906101000a90046001600160a01b03166001600160a01b031663d0e30db0856040518263ffffffff1660e01b81526004016000604051808303818588803b1580156112d557600080fd5b505af11580156112e9573d6000803e3d6000fd5b5050505050611308565b6113086001600160a01b03831633308761239f565b6113348282866113178f6146fc565b8e8e906113249190614466565b61132e8d8f614466565b896123c0565b50506001600755505050505050505050565b61134e61179b565b60008383604051611360929190614128565b604051809103902090506113e181836001600160e01b0319909116600090815260026020526040812080546001600160a01b039093166001600160a01b031993841681179091556003805460018101825592527fc2575a0e9e593c00f959f8c92f12db2869c3395a3b0502d05e2516446f71f85b9091018054909216179055565b7f58ddcdb40971f55ad1b6a8a28067274a4ffc7e9d77c3ea14a17652faa705e1978183604051610f99929190614708565b6006546001600160a01b0316331461143c5760405162461bcd60e51b815260040161072a9061474a565b60005b828110156115f257600084848381811061145b5761145b6140a8565b9050602002016020810190611470919061339f565b6001600160a01b03160361150b5760004790506000836001600160a01b03168261c350906040516114a090613ffa565b600060405180830381858888f193505050503d80600081146114de576040519150601f19603f3d011682016040523d82523d6000602084013e6114e3565b606091505b50509050806115045760405162461bcd60e51b815260040161072a9061478e565b50506115e0565b600084848381811061151f5761151f6140a8565b9050602002016020810190611534919061339f565b6001600160a01b03166370a08231306040518263ffffffff1660e01b815260040161155f9190613391565b602060405180830381865afa15801561157c573d6000803e3d6000fd5b505050506040513d601f19601f820116820180604052508101906115a0919061479e565b90506115de83828787868181106115b9576115b96140a8565b90506020020160208101906115ce919061339f565b6001600160a01b031691906124a2565b505b806115ea81614135565b91505061143f565b50505050565b61160061179b565b6001600160a01b0381166116265760405162461bcd60e51b815260040161072a9061481c565b6109b681611b98565b60006002600754036116535760405162461bcd60e51b815260040161072a906139f5565b600260075560095460ff161561166b57506002611741565b600b546001600160a01b0387811691161461169a576116956001600160a01b03871633308861239f565b6116ba565b843410156116ba5760405162461bcd60e51b815260040161072a90614860565b60006116c88486018661496c565b90506116d487876117c5565b6116e587878360400151600061194a565b8051608082015160408051602081018252600080825291517ffd53a0c19886b8e3b5a497eb3ab7a50cb59734988891978e5f6709e86af805c394611733949093928c928e9291600291613d64565b60405180910390a160019150505b600160075595945050505050565b6117576124c1565b6009805460ff191690557f5db9ee0a495bf2e6ff9c91a7834c1ba4fdd244a5e8aa4e537bd38aeae4b073aa335b6040516117919190613391565b60405180910390a1565b6000546001600160a01b031633146107735760405162461bcd60e51b815260040161072a906149d9565b600b546001600160a01b039081169083160361194657600154604080516320a6037160e21b815290516000926001600160a01b0316916382980dc49160048083019260209291908290030181865afa158015611825573d6000803e3d6000fd5b505050506040513d601f19601f8201168201806040525081019061184991906149e9565b9050600b60009054906101000a90046001600160a01b03166001600160a01b0316816001600160a01b031663457bfa2f6040518163ffffffff1660e01b8152600401602060405180830381865afa1580156118a8573d6000803e3d6000fd5b505050506040513d601f19601f820116820180604052508101906118cc91906149e9565b6001600160a01b03160361194457600b60009054906101000a90046001600160a01b03166001600160a01b031663d0e30db0836040518263ffffffff1660e01b81526004016000604051808303818588803b15801561192a57600080fd5b505af115801561193e573d6000803e3d6000fd5b50505050505b505b5050565b8015611a6657600b546001600160a01b0385811691161461197d5760405162461bcd60e51b815260040161072a90614a3e565b600b54604051632e1a7d4d60e01b81526001600160a01b0390911690632e1a7d4d906119ad908690600401613828565b600060405180830381600087803b1580156119c757600080fd5b505af11580156119db573d6000803e3d6000fd5b505050506000826001600160a01b03168461c350906040516119fc90613ffa565b600060405180830381858888f193505050503d8060008114611a3a576040519150601f19603f3d011682016040523d82523d6000602084013e611a3f565b606091505b5050905080611a605760405162461bcd60e51b815260040161072a90614039565b506115f2565b6115f26001600160a01b03851683856124a2565b6001600160a01b03831660009081526004602090815260408083206001600160e01b03198616845290915290205460ff1681151581151503611ace5760405162461bcd60e51b815260040161072a90614307565b506001600160a01b0390921660009081526004602090815260408083206001600160e01b0319909416835292905220805491151560ff19909216919091179055565b6001600160a01b0381166000908152600a602052604090205460ff16611b485760405162461bcd60e51b815260040161072a90614a82565b6001600160a01b0381166000908152600a602052604090819020805460ff19169055517fcd265ebaf09df2871cc7bd4133404a235ba12eff2041bb89d9c714a2621c7c7e906107c9908390613391565b600080546001600160a01b038381166001600160a01b0319831681178455604051919092169283917f8be0079c531659141344cd1fd0a4f28419497f9722a3daafe3b4186f6b6457e09190a35050565b60008060006060600080611bfb876124e3565b925060005b8751811015611e0c5760046000898381518110611c1f57611c1f6140a8565b6020026020010151600001516001600160a01b03166001600160a01b031681526020019081526020016000206000898381518110611c5f57611c5f6140a8565b602002602001015160200151611c7490614aa6565b6001600160e01b031916815260208101919091526040016000205460ff16611cae5760405162461bcd60e51b815260040161072a90614b1f565b6000806000868481518110611cc557611cc56140a8565b60200260200101516001600160a01b031663358f0e1c8c8681518110611ced57611ced6140a8565b60200260200101516040518263ffffffff1660e01b8152600401611d119190614b5b565b606060405180830381865afa158015611d2e573d6000803e3d6000fd5b505050506040513d601f19601f82011682018060405250810190611d529190614b6c565b919450925090506001600160a01b0386161580611d805750816001600160a01b0316866001600160a01b0316145b611d9c5760405162461bcd60e51b815260040161072a90614be6565b90945084906001600160a01b0385161580611dc85750806001600160a01b0316856001600160a01b0316145b611de45760405162461bcd60e51b815260040161072a90614c2a565b935083611df1838b614c3a565b99509097509550819050611e0481614135565b915050611c00565b5050509193509193565b6000806000806000611e2989888a612622565b9250925092506000816001600160a01b03166370a08231306040518263ffffffff1660e01b8152600401611e5d9190613391565b602060405180830381865afa158015611e7a573d6000803e3d6000fd5b505050506040513d601f19601f82011682018060405250810190611e9e919061479e565b905060005b8a518110156120ac5760008a8281518110611ec057611ec06140a8565b60200260200101516001600160a01b0316634c6da2698d8481518110611ee857611ee86140a8565b602002602001015160200151888581518110611f0657611f066140a8565b6020026020010151306040518463ffffffff1660e01b8152600401611f2d93929190614c52565b600060405180830381865afa158015611f4a573d6000803e3d6000fd5b505050506040513d6000823e601f3d908101601f19168201604052611f729190810190613fbf565b9050611fc88c8381518110611f8957611f896140a8565b602002602001015160000151878481518110611fa757611fa76140a8565b6020026020010151876001600160a01b03166121599092919063ffffffff16565b60008c8381518110611fdc57611fdc6140a8565b6020026020010151600001516001600160a01b031682604051611fff9190614ca1565b6000604051808303816000865af19150503d806000811461203c576040519150601f19603f3d011682016040523d82523d6000602084013e612041565b606091505b50509050808061204e5750895b61206a5760405162461bcd60e51b815260040161072a90614ce1565b8061209757868381518110612081576120816140a8565b6020026020010151886120949190614c3a565b97505b505080806120a490614135565b915050611ea3565b506040516370a0823160e01b81526000906001600160a01b038416906370a08231906120dc903090600401613391565b602060405180830381865afa1580156120f9573d6000803e3d6000fd5b505050506040513d601f19601f8201168201806040525081019061211d919061479e565b90506121298282613d04565b96506000871161214b5760405162461bcd60e51b815260040161072a90614d25565b505050505094509492505050565b600081846001600160a01b031663dd62ed3e30866040518363ffffffff1660e01b815260040161218a929190613e0a565b602060405180830381865afa1580156121a7573d6000803e3d6000fd5b505050506040513d601f19601f820116820180604052508101906121cb919061479e565b6121d59190614c3a565b90506115f28463095ea7b360e01b85846040516024016121f6929190614d35565b60408051601f198184030181529190526020810180517bffffffffffffffffffffffffffffffffffffffffffffffffffffffff166001600160e01b0319909316929092179091526127d7565b60608060606040518060e00160405280868152602001838152602001856001600160a01b03168152602001600015158152602001600081526020016000151581526020018281525060405160200161229a9190614e47565b6040516020818303038152906040529250505092915050565b6001600160a01b0381166000908152600a602052604090205460ff16156122ec5760405162461bcd60e51b815260040161072a90614e8c565b6001600160a01b0381166000908152600a602052604090819020805460ff19166001179055517f6719d08c1888103bea251a4ed56406bd0c3e69723c8a1686e017e7bbe159b6f8906107c9908390613391565b61234761237c565b6009805460ff191660011790557f62e78cea01bee320cd4e420270b5ea74000d11b0c9f74754ebdbfc544b05a2586117843390565b60095460ff16156107735760405162461bcd60e51b815260040161072a90614ed0565b6115f2846323b872dd60e01b8585856040516024016121f693929190614ee0565b82518590156123f85760006123d58584612866565b92509050806123f65760405162461bcd60e51b815260040161072a90614f3c565b505b600061240c86600001518760600151612bb0565b90504667ffffffffffffffff16866020015167ffffffffffffffff1603612487577f0e248ac8be20725176a5f0ab093c5fbb964634d4675012f3d3ad66e69e56d5b781888b858c604051612464959493929190614f4c565b60405180910390a1612480888388600001518960e0015161194a565b5050612499565b612496818a8a89888c88612be8565b50505b50505050505050565b6119448363a9059cbb60e01b84846040516024016121f6929190614d35565b60095460ff166107735760405162461bcd60e51b815260040161072a90614fc2565b60606000825167ffffffffffffffff811115612501576125016133f1565b60405190808252806020026020018201604052801561252a578160200160208202803683370190505b50905060005b835181101561261b57600084828151811061254d5761254d6140a8565b60200260200101516020015161256290614aa6565b6001600160e01b0319811660009081526002602052604090205484519192506001600160a01b03169084908490811061259d5761259d6140a8565b60200260200101906001600160a01b031690816001600160a01b03168152505060006001600160a01b03168383815181106125da576125da6140a8565b60200260200101516001600160a01b0316036126085760405162461bcd60e51b815260040161072a90615006565b508061261381614135565b915050612530565b5092915050565b60606000806000865167ffffffffffffffff811115612643576126436133f1565b60405190808252806020026020018201604052801561266c578160200160208202803683370190505b50935060005b875181101561276057600086828151811061268f5761268f6140a8565b60200260200101516001600160a01b031663358f0e1c8a84815181106126b7576126b76140a8565b60200260200101516040518263ffffffff1660e01b81526004016126db9190614b5b565b606060405180830381865afa1580156126f8573d6000803e3d6000fd5b505050506040513d601f19601f8201168201806040525081019061271c9190614b6c565b9096509450905061272d8184614c3a565b925080868381518110612742576127426140a8565b6020908102919091010152508061275881614135565b915050612672565b5060005b84518110156127cc5781858281518110612780576127806140a8565b6020026020010151886127939190615016565b61279d919061504b565b8582815181106127af576127af6140a8565b6020908102919091010152806127c481614135565b915050612764565b505093509350939050565b600061282c826040518060400160405280602081526020017f5361666545524332303a206c6f772d6c6576656c2063616c6c206661696c6564815250856001600160a01b0316612d689092919063ffffffff16565b805190915015611944578080602001905181019061284a919061505f565b6119445760405162461bcd60e51b815260040161072a906150da565b60008060005b8451811015612ba757600080600086848151811061288c5761288c6140a8565b60200260200101516001600160a01b031663358f0e1c8986815181106128b4576128b46140a8565b60200260200101516040518263ffffffff1660e01b81526004016128d89190614b5b565b606060405180830381865afa1580156128f5573d6000803e3d6000fd5b505050506040513d601f19601f820116820180604052508101906129199190614b6c565b9250925092506000878581518110612933576129336140a8565b60200260200101516001600160a01b0316634c6da2698a878151811061295b5761295b6140a8565b60200260200101516020015186306040518463ffffffff1660e01b815260040161298793929190614c52565b600060405180830381865afa1580156129a4573d6000803e3d6000fd5b505050506040513d6000823e601f3d908101601f191682016040526129cc9190810190613fbf565b9050612a008986815181106129e3576129e36140a8565b6020908102919091010151516001600160a01b0385169086612159565b6040516370a0823160e01b81526000906001600160a01b038416906370a0823190612a2f903090600401613391565b602060405180830381865afa158015612a4c573d6000803e3d6000fd5b505050506040513d601f19601f82011682018060405250810190612a70919061479e565b9050898681518110612a8457612a846140a8565b6020026020010151600001516001600160a01b031682604051612aa79190614ca1565b6000604051808303816000865af19150503d8060008114612ae4576040519150601f19603f3d011682016040523d82523d6000602084013e612ae9565b606091505b50508098505087612b065760008097509750505050505050612ba9565b6040516370a0823160e01b81526000906001600160a01b038516906370a0823190612b35903090600401613391565b602060405180830381865afa158015612b52573d6000803e3d6000fd5b505050506040513d601f19601f82011682018060405250810190612b76919061479e565b9050612b828282613d04565b612b8c9089614c3a565b97505050505050508080612b9f90614135565b91505061286c565b505b9250929050565b600033834684604051602001612bc99493929190615131565b6040516020818303038152906040528051906020012090505b92915050565b60008084511180612bff57506000856101e0015151115b612c0a578451612c10565b84604001515b90506060612c1f86858a612d81565b60c0860151349015612c3857612c358534613d04565b90505b608087015180516020918201206000908152600890915260409020546001600160a01b0390811690612c6d908a168287612159565b6000612c7a8c8a8a612e0b565b9050816001600160a01b031663834bc3ea848b60200151888a8f8f60a00151886040518863ffffffff1660e01b8152600401612cbb96959493929190613f58565b60006040518083038185885af1158015612cd9573d6000803e3d6000fd5b50505050506040513d6000823e601f3d908101601f19168201604052612d029190810190613fbf565b93505050507f082e2f634ceec1af5105aa53f234b7efad94428a54a714e3b7c7115ee549308089828860200151878c8b6101a00151888e8b8f60800151604051612d559a99989796959493929190615179565b60405180910390a1505050505050505050565b6060612d778484600085612e8c565b90505b9392505050565b60004684602001518484876101200151886101000151604051602001612dac9695949392919061521b565b6040516020818303038152906040528051906020012090506000612dcf82612f50565b9050612de081866101400151612f80565b4285610120015111612e045760405162461bcd60e51b815260040161072a906152df565b5050505050565b60606040518060e0016040528085815260200183815260200184600001516001600160a01b031681526020018460e00151151581526020018461010001518152602001846101c0015115158152602001846101e00151815250604051602001612e749190614e47565b60405160208183030381529060405290509392505050565b606082471015612eae5760405162461bcd60e51b815260040161072a90615349565b6001600160a01b0385163b612ed55760405162461bcd60e51b815260040161072a9061538d565b600080866001600160a01b03168587604051612ef19190614ca1565b60006040518083038185875af1925050503d8060008114612f2e576040519150601f19603f3d011682016040523d82523d6000602084013e612f33565b606091505b5091509150612f43828286612fbc565b925050505b949350505050565b600081604051602001612f63919061539d565b604051602081830303815290604052805190602001209050919050565b6000612f8c8383612ff5565b6005549091506001600160a01b038083169116146119445760405162461bcd60e51b815260040161072a9061540c565b60608315612fcb575081612d7a565b825115612fdb5782518084602001fd5b8160405162461bcd60e51b815260040161072a919061541c565b60008060006130048585613019565b915091506130118161305b565b509392505050565b600080825160410361304f5760208301516040840151606085015160001a6130438782858561313b565b94509450505050612ba9565b50600090506002612ba9565b600081600481111561306f5761306f61332b565b036130775750565b600181600481111561308b5761308b61332b565b036130a85760405162461bcd60e51b815260040161072a90615461565b60028160048111156130bc576130bc61332b565b036130d95760405162461bcd60e51b815260040161072a906154a5565b60038160048111156130ed576130ed61332b565b0361310a5760405162461bcd60e51b815260040161072a906154f4565b600481600481111561311e5761311e61332b565b036109b65760405162461bcd60e51b815260040161072a90615543565b6000807f7fffffffffffffffffffffffffffffff5d576e7357a4501ddfe92f46681b20a08311156131725750600090506003613212565b8460ff16601b1415801561318a57508460ff16601c14155b1561319b5750600090506004613212565b6000600187878787604051600081526020016040526040516131c0949392919061555c565b6020604051602081039080840390855afa1580156131e2573d6000803e3d6000fd5b5050604051601f1901519150506001600160a01b03811661320b57600060019250925050613212565b9150600090505b94509492505050565b60006001600160a01b038216612be2565b6132358161321b565b81146109b657600080fd5b8035612be28161322c565b80613235565b8035612be28161324b565b60008083601f84011261327157613271600080fd5b50813567ffffffffffffffff81111561328c5761328c600080fd5b602083019150836001820283011115612ba957612ba9600080fd5b6000806000806000608086880312156132c2576132c2600080fd5b60006132ce8888613240565b95505060206132df88828901613251565b945050604086013567ffffffffffffffff8111156132ff576132ff600080fd5b61330b8882890161325c565b9350935050606061331e88828901613240565b9150509295509295909350565b634e487b7160e01b600052602160045260246000fd5b600381106109b6576109b661332b565b8061335b81613341565b919050565b6000612be282613351565b61337481613360565b82525050565b60208101612be2828461336b565b6133748161321b565b60208101612be28284613388565b6000602082840312156133b4576133b4600080fd5b6000612f488484613240565b801515613374565b60208101612be282846133c0565b67ffffffffffffffff8116613235565b8035612be2816133d6565b634e487b7160e01b600052604160045260246000fd5b601f19601f830116810181811067ffffffffffffffff8211171561342d5761342d6133f1565b6040525050565b600061343f60405190565b905061335b8282613407565b600067ffffffffffffffff821115613465576134656133f1565b601f19601f83011660200192915050565b82818337506000910152565b60006134956134908461344b565b613434565b9050828152602081018484840111156134b0576134b0600080fd5b613011848285613476565b600082601f8301126134cf576134cf600080fd5b8135612f48848260208601613482565b60008060008060008060c087890312156134fb576134fb600080fd5b60006135078989613240565b965050602061351889828a01613240565b955050604061352989828a01613251565b945050606061353a89828a016133e6565b935050608087013567ffffffffffffffff81111561355a5761355a600080fd5b61356689828a016134bb565b92505060a061357789828a01613240565b9150509295509295509295565b6001600160e01b03198116613235565b8035612be281613584565b801515613235565b8035612be28161359f565b6000806000606084860312156135ca576135ca600080fd5b60006135d68686613240565b93505060206135e786828701613594565b92505060406135f8868287016135a7565b9150509250925092565b60006020828403121561361757613617600080fd5b6000612f488484613251565b60008083601f84011261363857613638600080fd5b50813567ffffffffffffffff81111561365357613653600080fd5b602083019150836020820283011115612ba957612ba9600080fd5b6000806000806040858703121561368757613687600080fd5b843567ffffffffffffffff8111156136a1576136a1600080fd5b6136ad87828801613623565b9450945050602085013567ffffffffffffffff8111156136cf576136cf600080fd5b6136db87828801613623565b95989497509550505050565b600080604083850312156136fd576136fd600080fd5b60006137098585613240565b925050602061371a85828601613594565b9150509250929050565b60008060008060006080868803121561373f5761373f600080fd5b600061374b8888613240565b95505060206132df888289016133e6565b6000610200828403121561377257613772600080fd5b50919050565b60008060008060006060868803121561379357613793600080fd5b853567ffffffffffffffff8111156137ad576137ad600080fd5b6137b98882890161375c565b955050602086013567ffffffffffffffff8111156137d9576137d9600080fd5b6137e588828901613623565b9450945050604086013567ffffffffffffffff81111561380757613807600080fd5b61381388828901613623565b92509250509295509295909350565b80613374565b60208101612be28284613822565b60008060006040848603121561384e5761384e600080fd5b833567ffffffffffffffff81111561386857613868600080fd5b6138748682870161325c565b935093505060206135f886828701613240565b6000612be26001600160a01b03831661389e565b90565b6001600160a01b031690565b6000612be282613887565b6000612be2826138aa565b613374816138b5565b60208101612be282846138c0565b6000806000604084860312156138ef576138ef600080fd5b833567ffffffffffffffff81111561390957613909600080fd5b61387486828701613623565b60006020828403121561392a5761392a600080fd5b6000612f488484613594565b601981526000602082017f63616c6c6572206973206e6f74206d6573736167652062757300000000000000815291505b5060200190565b60208082528101612be281613936565b601481526000602082017f43616c6c6572206973206e6f742070617573657200000000000000000000000081529150613966565b60208082528101612be28161397d565b601f81526000602082017f5265656e7472616e637947756172643a207265656e7472616e742063616c6c0081529150613966565b60208082528101612be2816139c1565b8051612be28161324b565b600067ffffffffffffffff821115613a2a57613a2a6133f1565b5060209081020190565b8051612be28161322c565b60005b83811015613a5a578181015183820152602001613a42565b838111156115f25750506000910152565b6000613a796134908461344b565b905082815260208101848484011115613a9457613a94600080fd5b613011848285613a3f565b600082601f830112613ab357613ab3600080fd5b8151612f48848260208601613a6b565b600060408284031215613ad857613ad8600080fd5b613ae26040613434565b90506000613af08484613a34565b825250602082015167ffffffffffffffff811115613b1057613b10600080fd5b613b1c84828501613a9f565b60208301525092915050565b6000613b3661349084613a10565b83815290506020808201908402830185811115613b5557613b55600080fd5b835b81811015613b9657805167ffffffffffffffff811115613b7957613b79600080fd5b808601613b868982613ac3565b8552505060209283019201613b57565b5050509392505050565b600082601f830112613bb457613bb4600080fd5b8151612f48848260208601613b28565b8051612be28161359f565b600060e08284031215613be457613be4600080fd5b613bee60e0613434565b90506000613bfc8484613a05565b825250602082015167ffffffffffffffff811115613c1c57613c1c600080fd5b613c2884828501613ba0565b6020830152506040613c3c84828501613a34565b6040830152506060613c5084828501613bc4565b6060830152506080613c6484828501613a05565b60808301525060a0613c7884828501613bc4565b60a08301525060c082015167ffffffffffffffff811115613c9b57613c9b600080fd5b613ca784828501613a9f565b60c08301525092915050565b600060208284031215613cc857613cc8600080fd5b815167ffffffffffffffff811115613ce257613ce2600080fd5b612f4884828501613bcf565b634e487b7160e01b600052601160045260246000fd5b600082821015613d1657613d16613cee565b500390565b6000612be261389b8381565b61337481613d1b565b6000613d3a825190565b808452602084019350613d51818560208601613a3f565b601f19601f8201165b9093019392505050565b60e08101613d72828a613822565b613d7f6020830189613d27565b613d8c6040830188613822565b613d996060830187613388565b613da66080830186613822565b613db360a083018561336b565b81810360c0830152613dc58184613d30565b9998505050505050505050565b6001600160e01b03198116613374565b60608101613df08286613388565b613dfd6020830185613dd2565b612f4860408301846133c0565b60408101613e188285613388565b612d7a6020830184613388565b60e08101613e33828a613822565b613e406020830189613d27565b613d8c6040830188613d27565b600781526000602082017f746b696e206d6d0000000000000000000000000000000000000000000000000081529150613966565b60208082528101612be281613e4d565b8051612be2816133d6565b600060408284031215613eb157613eb1600080fd5b613ebb6040613434565b90506000613af08484613e91565b600060208284031215613ede57613ede600080fd5b815167ffffffffffffffff811115613ef857613ef8600080fd5b612f4884828501613e9c565b600f81526000602082017f63627269646765206e6f7420736574000000000000000000000000000000000081529150613966565b60208082528101612be281613f04565b67ffffffffffffffff8116613374565b60c08101613f668289613f48565b613f736020830188613388565b613f806040830187613822565b613f8d6060830186613388565b8181036080830152613f9f8185613d30565b905081810360a0830152613fb38184613d30565b98975050505050505050565b600060208284031215613fd457613fd4600080fd5b815167ffffffffffffffff811115613fee57613fee600080fd5b612f4884828501613a9f565b6000612be28261389b565b600981526000602082017f73656e64206661696c000000000000000000000000000000000000000000000081529150613966565b60208082528101612be281614005565b60e08101614057828a613822565b613d7f6020830189613822565b601481526000602082017f706172616d732073697a65206d69736d6174636800000000000000000000000081529150613966565b60208082528101612be281614064565b634e487b7160e01b600052603260045260246000fd5b6000808335601e19368590030181126140d9576140d9600080fd5b80840192508235915067ffffffffffffffff8211156140fa576140fa600080fd5b602083019250600182023603831315612ba757612ba7600080fd5b6000614122838584613476565b50500190565b6000612f48828486614115565b6000600019820361414857614148613cee565b5060010190565b8183526000602084019350614165838584613476565b601f19601f840116613d5a565b6000612d7784848461414f565b6000808335601e193685900301811261419a5761419a600080fd5b83810160208101935035915067ffffffffffffffff8211156141be576141be600080fd5b36829003831315612ba757612ba7600080fd5b818352600060208401935083602084028101838060005b878110156142235784840389526141ff828461417f565b61420a868284614172565b95506020840160209b909b019a935050506001016141e8565b5091979650505050505050565b600061423c8383613388565b505060200190565b6000612d7a6020840184613240565b8183526000602084019350818060005b85811015614290576142758284614244565b61427f8882614230565b975060208301925050600101614263565b509495945050505050565b604080825281016142ad8186886141d1565b905081810360208301526142c2818486614253565b9695505050505050565b6000602082840312156142e1576142e1600080fd5b6000612f4884846133e6565b600381526000602082016206e6f760ec1b81529150613966565b60208082528101612be2816142ed565b601b81526000602082017f62726964676520646f6573206e6f7420737570706f7274206d7367000000000081529150613966565b60208082528101612be281614317565b601281526000602082017f756e737570706f7274656420627269646765000000000000000000000000000081529150613966565b60208082528101612be28161435b565b6000604082840312156143b4576143b4600080fd5b6143be6040613434565b905060006143cc8484613240565b825250602082013567ffffffffffffffff8111156143ec576143ec600080fd5b613b1c848285016134bb565b600061440661349084613a10565b8381529050602080820190840283018581111561442557614425600080fd5b835b81811015613b9657803567ffffffffffffffff81111561444957614449600080fd5b808601614456898261439f565b8552505060209283019201614427565b6000612d7a3684846143f8565b60006020828403121561448857614488600080fd5b6000612f4884846135a7565b601281526000602082017f746b696e206e6f206e617469766557726170000000000000000000000000000081529150613966565b60208082528101612be281614494565b600b81526000602082017f696e7366636e7420616d7400000000000000000000000000000000000000000081529150613966565b60208082528101612be2816144d8565b6000610200828403121561453257614532600080fd5b61453d610200613434565b9050600061454b8484613240565b825250602061455c848483016133e6565b602083015250604061457084828501613240565b6040830152506060614584848285016133e6565b606083015250608082013567ffffffffffffffff8111156145a7576145a7600080fd5b6145b3848285016134bb565b60808301525060a082013567ffffffffffffffff8111156145d6576145d6600080fd5b6145e2848285016134bb565b60a08301525060c06145f6848285016135a7565b60c08301525060e061460a848285016135a7565b60e08301525061010061461f84828501613251565b6101008301525061012061463584828501613251565b6101208301525061014082013567ffffffffffffffff81111561465a5761465a600080fd5b614666848285016134bb565b6101408301525061016061467c84828501613251565b6101608301525061018061469284828501613240565b610180830152506101a06146a884828501613240565b6101a0830152506101c06146be848285016135a7565b6101c0830152506101e082013567ffffffffffffffff8111156146e3576146e3600080fd5b6146ef848285016134bb565b6101e08301525092915050565b6000612be2368361451c565b60408101613e188285613dd2565b601181526000602082017f6e6f742066656520636f6c6c6563746f7200000000000000000000000000000081529150613966565b60208082528101612be281614716565b601281526000602082017f73656e64206e6174697665206661696c6564000000000000000000000000000081529150613966565b60208082528101612be28161475a565b6000602082840312156147b3576147b3600080fd5b6000612f488484613a05565b602681526000602082017f4f776e61626c653a206e6577206f776e657220697320746865207a65726f206181527f6464726573730000000000000000000000000000000000000000000000000000602082015291505b5060400190565b60208082528101612be2816147bf565b601881526000602082017f6e6f206e6174697665207472616e7366657272656420696e000000000000000081529150613966565b60208082528101612be28161482c565b600082601f83011261488457614884600080fd5b8135612f488482602086016143f8565b600060e082840312156148a9576148a9600080fd5b6148b360e0613434565b905060006148c18484613251565b825250602082013567ffffffffffffffff8111156148e1576148e1600080fd5b6148ed84828501614870565b602083015250604061490184828501613240565b6040830152506060614915848285016135a7565b606083015250608061492984828501613251565b60808301525060a061493d848285016135a7565b60a08301525060c082013567ffffffffffffffff81111561496057614960600080fd5b613ca7848285016134bb565b60006020828403121561498157614981600080fd5b813567ffffffffffffffff81111561499b5761499b600080fd5b612f4884828501614894565b60208082527f4f776e61626c653a2063616c6c6572206973206e6f7420746865206f776e657291019081526000613966565b60208082528101612be2816149a7565b6000602082840312156149fe576149fe600080fd5b6000612f488484613a34565b600c81526000602082017f746b206e6f206e6174697665000000000000000000000000000000000000000081529150613966565b60208082528101612be281614a0a565b601581526000602082017f4163636f756e74206973206e6f7420706175736572000000000000000000000081529150613966565b60208082528101612be281614a4e565b6000612be282516001600160e01b03191690565b6000614ab0825190565b60208301614abd81614a92565b92506004821015614ae457614adf6001600160e01b0319836004036008021b90565b831692505b5050919050565b600f81526000602082017f756e737570706f7274656420646578000000000000000000000000000000000081529150613966565b60208082528101612be281614aeb565b80516000906040840190614b438582613388565b50602083015184820360208601526107338282613d30565b60208082528101612d7a8184614b2f565b600080600060608486031215614b8457614b84600080fd5b6000614b908686613a05565b9350506020614ba186828701613a34565b92505060406135f886828701613a34565b600d81526000602082017f746b696e206d69736d617463680000000000000000000000000000000000000081529150613966565b60208082528101612be281614bb2565b600c81526000602082017f746b6f206d69736d61746368000000000000000000000000000000000000000081529150613966565b60208082528101612be281614bf6565b60008219821115614c4d57614c4d613cee565b500190565b60608082528101614c638186613d30565b9050614c726020830185613822565b612f486040830184613388565b6000614c89825190565b614c97818560208601613a3f565b9290920192915050565b6000612d7a8284614c7f565b600b81526000602082017f73776170206661696c656400000000000000000000000000000000000000000081529150613966565b60208082528101612be281614cad565b601081526000602082017f616c6c207377617073206661696c65640000000000000000000000000000000081529150613966565b60208082528101612be281614cf1565b60408101614d438285613388565b612d7a6020830184613822565b6000612d7a8383614b2f565b6000614d66825190565b80845260208401935083602082028501614d808560200190565b8060005b858110156142235784840389528151614d9d8582614d50565b94506020830160209a909a0199925050600101614d84565b805160009060e0840190614dc98582613822565b5060208301518482036020860152614de18282614d5c565b9150506040830151614df66040860182613388565b506060830151614e0960608601826133c0565b506080830151614e1c6080860182613822565b5060a0830151614e2f60a08601826133c0565b5060c083015184820360c08601526107338282613d30565b60208082528101612d7a8184614db5565b601981526000602082017f4163636f756e7420697320616c7265616479207061757365720000000000000081529150613966565b60208082528101612be281614e58565b601081526000602082017f5061757361626c653a207061757365640000000000000000000000000000000081529150613966565b60208082528101612be281614e9c565b60608101614eee8286613388565b614efb6020830185613388565b612f486040830184613822565b600981526000602082017f73776170206661696c000000000000000000000000000000000000000000000081529150613966565b60208082528101612be281614f08565b60a08101614f5a8288613822565b614f676020830187613822565b614f746040830186613388565b614f816060830185613822565b6142c26080830184613388565b601481526000602082017f5061757361626c653a206e6f742070617573656400000000000000000000000081529150613966565b60208082528101612be281614f8e565b600c81526000602082017f636463206e6f20666f756e64000000000000000000000000000000000000000081529150613966565b60208082528101612be281614fd2565b600081600019048311821515161561503057615030613cee565b500290565b634e487b7160e01b600052601260045260246000fd5b60008261505a5761505a615035565b500490565b60006020828403121561507457615074600080fd5b6000612f488484613bc4565b602a81526000602082017f5361666545524332303a204552433230206f7065726174696f6e20646964206e81527f6f7420737563636565640000000000000000000000000000000000000000000060208201529150614815565b60208082528101612be281615080565b6000612be28260601b90565b6000612be2826150ea565b61337461510d8261321b565b6150f6565b6000612be28260c01b90565b61337467ffffffffffffffff8216615112565b600061513d8287615101565b60148201915061514d8286615101565b60148201915061515d828561511e565b60088201915061516d828461511e565b50600801949350505050565b6101408101615188828d613822565b818103602083015261519a818c613d30565b90506151a9604083018b613f48565b6151b6606083018a613822565b6151c36080830189613388565b6151d060a0830188613388565b6151dd60c0830187613388565b6151ea60e0830186613388565b6151f8610100830185613822565b81810361012083015261520b8184613d30565b9c9b505050505050505050505050565b7f6578656375746f722066656500000000000000000000000000000000000000008152600c01600061524d828961511e565b60088201915061525d828861511e565b60088201915061526d8287613822565b60208201915061527d8286615101565b60148201915061528d8285613822565b60208201915061529d8284613822565b506020019695505050505050565b601181526000602082017f646561646c696e6520657863656564656400000000000000000000000000000081529150613966565b60208082528101612be2816152ab565b602681526000602082017f416464726573733a20696e73756666696369656e742062616c616e636520666f81527f722063616c6c000000000000000000000000000000000000000000000000000060208201529150614815565b60208082528101612be2816152ef565b601d81526000602082017f416464726573733a2063616c6c20746f206e6f6e2d636f6e747261637400000081529150613966565b60208082528101612be281615359565b7f19457468657265756d205369676e6564204d6573736167653a0a3332000000008152601c0160006153cf8284613822565b50602001919050565b600e81526000602082017f696e76616c6964207369676e657200000000000000000000000000000000000081529150613966565b60208082528101612be2816153d8565b60208082528101612d7a8184613d30565b601881526000602082017f45434453413a20696e76616c6964207369676e6174757265000000000000000081529150613966565b60208082528101612be28161542d565b601f81526000602082017f45434453413a20696e76616c6964207369676e6174757265206c656e6774680081529150613966565b60208082528101612be281615471565b602281526000602082017f45434453413a20696e76616c6964207369676e6174757265202773272076616c815261756560f01b60208201529150614815565b60208082528101612be2816154b5565b602281526000602082017f45434453413a20696e76616c6964207369676e6174757265202776272076616c815261756560f01b60208201529150614815565b60208082528101612be281615504565b60ff8116613374565b6080810161556a8287613822565b6155776020830186615553565b6155846040830185613822565b610733606083018461382256fea2646970667358221220601cde2b0e9fb0a8794427468b4ad9b1137bde8b2ee75fa69c11706fd8bf49b664736f6c634300080f0033",
  "devdoc": {
    "author": "Chainhop Dex TeamPadoriku",
    "events": {
      "DirectSwap(bytes32,uint256,address,uint256,address)": {
        "params": {
          "amountIn": "the input amount approved by the sender",
          "amountOut": "the output amount gained after swapping using the input tokens",
          "id": "see _computeId()",
          "tokenIn": "the input token approved by the sender",
          "tokenOut": "the output token gained after swapping using the input tokens"
        }
      },
      "RequestDone(bytes32,uint256,uint256,address,uint256,uint8,bytes)": {
        "details": "refundAmount may be fill by either a complete refund or when allowPartialFill is on and some swaps fails in the swap routes",
        "params": {
          "dstAmount": "the final output token (after bridging and swapping) desired by the sender",
          "feeCollected": "the fee chainhop deducts from bridge out token",
          "id": "see _computeId()",
          "refundAmount": "the amount refunded to the receiver in bridge token",
          "refundToken": "bridge out token",
          "status": "see RequestStatus"
        }
      },
      "RequestSent(bytes32,bytes,uint64,uint256,address,address,address,address,uint256,string)": {
        "params": {
          "bridgeAmount": "the amount of the bridgeToken to bridge",
          "bridgeOutReceiver": "the receiver (user or dst TransferSwapper) of the bridge token",
          "bridgeProvider": "the bridge provider",
          "bridgeResp": "arbitrary response data returned by bridge",
          "bridgeToken": "the token used for bridging",
          "dstChainId": "destination chain id",
          "dstToken": "the final output token (after bridging and swapping) desired by the sender",
          "id": "see _computeId()",
          "srcAmount": "input amount approved by the sender",
          "srcToken": "the input token approved by the sender"
        }
      }
    },
    "kind": "dev",
    "methods": {
      "executeMessage(address,uint64,bytes,address)": {
        "params": {
          "_executor": "Address who called the MessageBus execution function",
          "_message": "Arbitrary message bytes originated from and encoded by the source app contract",
          "_sender": "The address of the source app contract",
          "_srcChainId": "The source chain ID where the transfer is originated from"
        }
      },
      "executeMessageWithTransfer(address,address,uint256,uint64,bytes,address)": {
        "details": "If allowPartialFill is off, this function reverts as soon as one swap in swap routes failsThis function is called and is only callable by MessageBus. The transaction of such call is triggered by executor.Bridge contract *always* sends native token to its receiver (this contract) even though the _token field is always an ERC20 token",
        "params": {
          "_amount": "the amount of token received by this contract",
          "_token": "the token received by this contract"
        },
        "returns": {
          "_0": "ok whether the processing is successful"
        }
      },
      "executeMessageWithTransferFallback(address,address,uint256,uint64,bytes,address)": {
        "details": "Only called if executeMessageWithTransfer revertsBridge contract *always* sends native token to its receiver (this contract) even though the _token field is always an ERC20 token",
        "params": {
          "_amount": "the amount of token received by this contract",
          "_token": "the token received by this contract"
        },
        "returns": {
          "_0": "ok whether the processing is successful"
        }
      },
      "executeMessageWithTransferRefund(address,uint256,bytes,address)": {
        "params": {
          "_amount": "The amount of the original transfer",
          "_executor": "Address who called the MessageBus execution function",
          "_message": "The same message associated with the original transfer",
          "_token": "The token address of the original transfer"
        }
      },
      "executeMessageWithTransferRefundFromAdapter(address,uint256,bytes,address)": {
        "details": "only MessageBus can call this function, this requires the user to get sigs of the message from SGNBridge contract *always* sends native token to its receiver (this contract) even though the _token field is always an ERC20 token",
        "params": {
          "_amount": "the amount of token received by this contract",
          "_token": "the token received by this contract"
        },
        "returns": {
          "_0": "ok whether the processing is successful"
        }
      },
      "owner()": {
        "details": "Returns the address of the current owner."
      },
      "paused()": {
        "details": "Returns true if the contract is paused, and false otherwise."
      },
      "renounceOwnership()": {
        "details": "Leaves the contract without owner. It will not be possible to call `onlyOwner` functions anymore. Can only be called by the current owner. NOTE: Renouncing ownership will leave the contract without an owner, thereby removing any functionality that is only available to the owner."
      },
      "transferOwnership(address)": {
        "details": "Transfers ownership of the contract to a new account (`newOwner`). Can only be called by the current owner."
      }
    },
    "title": "An app that enables swapping on a chain, transferring to another chain and swapping another time on the destination chain before sending the result tokens to a user",
    "version": 1
  },
  "userdoc": {
    "events": {
      "DirectSwap(bytes32,uint256,address,uint256,address)": {
        "notice": "Emitted when requested dstChainId == srcChainId, no bridging"
      },
      "RequestDone(bytes32,uint256,uint256,address,uint256,uint8,bytes)": {
        "notice": "Emitted when operations on dst chain is done."
      },
      "RequestSent(bytes32,bytes,uint64,uint256,address,address,address,address,uint256,string)": {
        "notice": "Emitted when operations on src chain is done, the transfer is sent through the bridge"
      }
    },
    "kind": "user",
    "methods": {
      "executeMessage(address,uint64,bytes,address)": {
        "notice": "Called by MessageBus (MessageBusReceiver)"
      },
      "executeMessageWithTransfer(address,address,uint256,uint64,bytes,address)": {
        "notice": "Executes a swap if needed, then sends the output token to the receiver"
      },
      "executeMessageWithTransferFallback(address,address,uint256,uint64,bytes,address)": {
        "notice": "Sends the received token to the receiver"
      },
      "executeMessageWithTransferRefund(address,uint256,bytes,address)": {
        "notice": "Called by MessageBus (MessageBusReceiver) to process refund of the original transfer from this contract"
      },
      "executeMessageWithTransferRefundFromAdapter(address,uint256,bytes,address)": {
        "notice": "Used to trigger refund when bridging fails due to large slippage"
      },
      "nativeWrap()": {
        "notice": "erc20 wrap of the gas token of this chain, e.g. WETH"
      },
      "transferWithSwap((address,uint64,address,uint64,string,bytes,bool,bool,uint256,uint256,bytes,uint256,address,address,bool,bytes),(address,bytes)[],(address,bytes)[])": {
        "notice": "swaps if needed, then transfer the token to another chain along with an instruction on how to swap on that chain"
      }
    },
    "version": 1
  },
  "storageLayout": {
    "storage": [
      {
        "astId": 7,
        "contract": "contracts/TransferSwapper.sol:TransferSwapper",
        "label": "_owner",
        "offset": 0,
        "slot": "0",
        "type": "t_address"
      },
      {
        "astId": 9219,
        "contract": "contracts/TransferSwapper.sol:TransferSwapper",
        "label": "messageBus",
        "offset": 0,
        "slot": "1",
        "type": "t_address"
      },
      {
        "astId": 9246,
        "contract": "contracts/TransferSwapper.sol:TransferSwapper",
        "label": "testMode",
        "offset": 20,
        "slot": "1",
        "type": "t_bool"
      },
      {
        "astId": 2286,
        "contract": "contracts/TransferSwapper.sol:TransferSwapper",
        "label": "selector2codec",
        "offset": 0,
        "slot": "2",
        "type": "t_mapping(t_bytes4,t_contract(ICodec)8183)"
      },
      {
        "astId": 2289,
        "contract": "contracts/TransferSwapper.sol:TransferSwapper",
        "label": "codecs",
        "offset": 0,
        "slot": "3",
        "type": "t_array(t_address)dyn_storage"
      },
      {
        "astId": 2541,
        "contract": "contracts/TransferSwapper.sol:TransferSwapper",
        "label": "dexRegistry",
        "offset": 0,
        "slot": "4",
        "type": "t_mapping(t_address,t_mapping(t_bytes4,t_bool))"
      },
      {
        "astId": 2802,
        "contract": "contracts/TransferSwapper.sol:TransferSwapper",
        "label": "signer",
        "offset": 0,
        "slot": "5",
        "type": "t_address"
      },
      {
        "astId": 2658,
        "contract": "contracts/TransferSwapper.sol:TransferSwapper",
        "label": "feeCollector",
        "offset": 0,
        "slot": "6",
        "type": "t_address"
      },
      {
        "astId": 231,
        "contract": "contracts/TransferSwapper.sol:TransferSwapper",
        "label": "_status",
        "offset": 0,
        "slot": "7",
        "type": "t_uint256"
      },
      {
        "astId": 2217,
        "contract": "contracts/TransferSwapper.sol:TransferSwapper",
        "label": "bridges",
        "offset": 0,
        "slot": "8",
        "type": "t_mapping(t_bytes32,t_contract(IBridgeAdapter)7902)"
      },
      {
        "astId": 130,
        "contract": "contracts/TransferSwapper.sol:TransferSwapper",
        "label": "_paused",
        "offset": 0,
        "slot": "9",
        "type": "t_bool"
      },
      {
        "astId": 9997,
        "contract": "contracts/TransferSwapper.sol:TransferSwapper",
        "label": "pausers",
        "offset": 0,
        "slot": "10",
        "type": "t_mapping(t_address,t_bool)"
      },
      {
        "astId": 3440,
        "contract": "contracts/TransferSwapper.sol:TransferSwapper",
        "label": "nativeWrap",
        "offset": 0,
        "slot": "11",
        "type": "t_address"
      }
    ],
    "types": {
      "t_address": {
        "encoding": "inplace",
        "label": "address",
        "numberOfBytes": "20"
      },
      "t_array(t_address)dyn_storage": {
        "base": "t_address",
        "encoding": "dynamic_array",
        "label": "address[]",
        "numberOfBytes": "32"
      },
      "t_bool": {
        "encoding": "inplace",
        "label": "bool",
        "numberOfBytes": "1"
      },
      "t_bytes32": {
        "encoding": "inplace",
        "label": "bytes32",
        "numberOfBytes": "32"
      },
      "t_bytes4": {
        "encoding": "inplace",
        "label": "bytes4",
        "numberOfBytes": "4"
      },
      "t_contract(IBridgeAdapter)7902": {
        "encoding": "inplace",
        "label": "contract IBridgeAdapter",
        "numberOfBytes": "20"
      },
      "t_contract(ICodec)8183": {
        "encoding": "inplace",
        "label": "contract ICodec",
        "numberOfBytes": "20"
      },
      "t_mapping(t_address,t_bool)": {
        "encoding": "mapping",
        "key": "t_address",
        "label": "mapping(address => bool)",
        "numberOfBytes": "32",
        "value": "t_bool"
      },
      "t_mapping(t_address,t_mapping(t_bytes4,t_bool))": {
        "encoding": "mapping",
        "key": "t_address",
        "label": "mapping(address => mapping(bytes4 => bool))",
        "numberOfBytes": "32",
        "value": "t_mapping(t_bytes4,t_bool)"
      },
      "t_mapping(t_bytes32,t_contract(IBridgeAdapter)7902)": {
        "encoding": "mapping",
        "key": "t_bytes32",
        "label": "mapping(bytes32 => contract IBridgeAdapter)",
        "numberOfBytes": "32",
        "value": "t_contract(IBridgeAdapter)7902"
      },
      "t_mapping(t_bytes4,t_bool)": {
        "encoding": "mapping",
        "key": "t_bytes4",
        "label": "mapping(bytes4 => bool)",
        "numberOfBytes": "32",
        "value": "t_bool"
      },
      "t_mapping(t_bytes4,t_contract(ICodec)8183)": {
        "encoding": "mapping",
        "key": "t_bytes4",
        "label": "mapping(bytes4 => contract ICodec)",
        "numberOfBytes": "32",
        "value": "t_contract(ICodec)8183"
      },
      "t_uint256": {
        "encoding": "inplace",
        "label": "uint256",
        "numberOfBytes": "32"
      }
    }
  }
}