{
  "address": "0xe7E63C4494730C67878e6e11ad67E68cE4aD85f7",
  "abi": [
    {
      "inputs": [
        {
          "components": [
            {
              "internalType": "address",
              "name": "dex",
              "type": "address"
            },
            {
              "internalType": "bytes",
              "name": "data",
              "type": "bytes"
            }
          ],
          "internalType": "struct ICodec.SwapDescription",
          "name": "_swap",
          "type": "tuple"
        }
      ],
      "name": "decodeCalldata",
      "outputs": [
        {
          "internalType": "uint256",
          "name": "amountIn",
          "type": "uint256"
        },
        {
          "internalType": "address",
          "name": "tokenIn",
          "type": "address"
        },
        {
          "internalType": "address",
          "name": "tokenOut",
          "type": "address"
        }
      ],
      "stateMutability": "pure",
      "type": "function"
    },
    {
      "inputs": [
        {
          "internalType": "bytes",
          "name": "_data",
          "type": "bytes"
        },
        {
          "internalType": "uint256",
          "name": "_amountInOverride",
          "type": "uint256"
        },
        {
          "internalType": "address",
          "name": "_receiverOverride",
          "type": "address"
        }
      ],
      "name": "encodeCalldataWithOverride",
      "outputs": [
        {
          "internalType": "bytes",
          "name": "swapCalldata",
          "type": "bytes"
        }
      ],
      "stateMutability": "pure",
      "type": "function"
    }
  ],
  "transactionHash": "0x516e25449b9f33f30c2be24034d39c7ce43ef2603a3629d5b11c08daa4f69751",
  "args": [],
  "numDeployments": 3,
  "solcInputHash": "22c591f45fc65f2eaf51df31805c575c",
  "bytecode": "0x608060405234801561001057600080fd5b50610697806100206000396000f3fe608060405234801561001057600080fd5b50600436106100365760003560e01c8063358f0e1c1461003b5780634c6da26914610078575b600080fd5b61004e610049366004610238565b610098565b604080519384526001600160a01b0392831660208501529116908201526060015b60405180910390f35b61008b6100863660046102a2565b610175565b60405161006f919061032d565b6000808080806100ab6020870187610382565b6100b99160049082906103d0565b8101906100c691906104b2565b505050925050915060018251116101235760405162461bcd60e51b815260206004820152600b60248201527f6c656e20746b2070617468000000000000000000000000000000000000000000604482015260640160405180910390fd5b808260008151811061013757610137610546565b6020026020010151836001855161014e919061055c565b8151811061015e5761015e610546565b602002602001015194509450945050509193909250565b606060006101838587610581565b90506000808080610197896004818d6103d0565b8101906101a491906104b2565b955050945050935093508484848a858b866040516024016101ca9695949392919061060d565b60408051601f198184030181529190526020810180517bffffffffffffffffffffffffffffffffffffffffffffffffffffffff167fffffffff000000000000000000000000000000000000000000000000000000009093169290921790915295505050505050949350505050565b60006020828403121561024a57600080fd5b813567ffffffffffffffff81111561026157600080fd5b82016040818503121561027357600080fd5b9392505050565b6001600160a01b038116811461028f57600080fd5b50565b803561029d8161027a565b919050565b600080600080606085870312156102b857600080fd5b843567ffffffffffffffff808211156102d057600080fd5b818701915087601f8301126102e457600080fd5b8135818111156102f357600080fd5b88602082850101111561030557600080fd5b60209283019650945050850135915060408501356103228161027a565b939692955090935050565b600060208083528351808285015260005b8181101561035a5785810183015185820160400152820161033e565b8181111561036c576000604083870101525b50601f01601f1916929092016040019392505050565b6000808335601e1984360301811261039957600080fd5b83018035915067ffffffffffffffff8211156103b457600080fd5b6020019150368190038213156103c957600080fd5b9250929050565b600080858511156103e057600080fd5b838611156103ed57600080fd5b5050820193919092039150565b634e487b7160e01b600052604160045260246000fd5b600082601f83011261042157600080fd5b8135602067ffffffffffffffff8083111561043e5761043e6103fa565b8260051b604051601f19603f83011681018181108482111715610463576104636103fa565b60405293845285810183019383810192508785111561048157600080fd5b83870191505b848210156104a75761049882610292565b83529183019190830190610487565b979650505050505050565b60008060008060008060c087890312156104cb57600080fd5b863567ffffffffffffffff808211156104e357600080fd5b6104ef8a838b01610410565b9750602089013591508082111561050557600080fd5b5061051289828a01610410565b955050604087013593506060870135925060808701356105318161027a565b8092505060a087013590509295509295509295565b634e487b7160e01b600052603260045260246000fd5b60008282101561057c57634e487b7160e01b600052601160045260246000fd5b500390565b7fffffffff0000000000000000000000000000000000000000000000000000000081358181169160048510156105c15780818660040360031b1b83161692505b505092915050565b600081518084526020808501945080840160005b838110156106025781516001600160a01b0316875295820195908201906001016105dd565b509495945050505050565b60c08152600061062060c08301896105c9565b828103602084015261063281896105c9565b9150508560408301528460608301526001600160a01b03841660808301528260a083015297965050505050505056fea264697066735822122033c61ce96409f460a997e248646136ddac444d7c6f8d8094423d544ff32feba164736f6c634300080f0033",
  "devdoc": {
    "kind": "dev",
    "methods": {},
    "version": 1
  },
  "userdoc": {
    "kind": "user",
    "methods": {},
    "version": 1
  },
  "storageLayout": {
    "storage": [],
    "types": null
  }
}