{
  "address": "0x259bAeF0a44AC4E7913EcEA71B583414AfA2Ae03",
  "abi": [
    {
      "inputs": [
        {
          "internalType": "address",
          "name": "_nativeWrap",
          "type": "address"
        },
        {
          "internalType": "address[]",
          "name": "_routers",
          "type": "address[]"
        }
      ],
      "stateMutability": "nonpayable",
      "type": "constructor"
    },
    {
      "anonymous": false,
      "inputs": [
        {
          "indexed": false,
          "internalType": "address",
          "name": "nativeWrap",
          "type": "address"
        }
      ],
      "name": "NativeWrapUpdated",
      "type": "event"
    },
    {
      "anonymous": false,
      "inputs": [
        {
          "indexed": true,
          "internalType": "address",
          "name": "previousOwner",
          "type": "address"
        },
        {
          "indexed": true,
          "internalType": "address",
          "name": "newOwner",
          "type": "address"
        }
      ],
      "name": "OwnershipTransferred",
      "type": "event"
    },
    {
      "anonymous": false,
      "inputs": [
        {
          "indexed": false,
          "internalType": "address",
          "name": "router",
          "type": "address"
        },
        {
          "indexed": false,
          "internalType": "bool",
          "name": "enabled",
          "type": "bool"
        }
      ],
      "name": "SupportedRouterUpdated",
      "type": "event"
    },
    {
      "inputs": [
        {
          "internalType": "uint64",
          "name": "_dstChainId",
          "type": "uint64"
        },
        {
          "internalType": "address",
          "name": "_receiver",
          "type": "address"
        },
        {
          "internalType": "uint256",
          "name": "_amount",
          "type": "uint256"
        },
        {
          "internalType": "address",
          "name": "_token",
          "type": "address"
        },
        {
          "internalType": "bytes",
          "name": "_bridgeParams",
          "type": "bytes"
        },
        {
          "internalType": "bytes",
          "name": "",
          "type": "bytes"
        }
      ],
      "name": "bridge",
      "outputs": [
        {
          "internalType": "bytes",
          "name": "bridgeResp",
          "type": "bytes"
        }
      ],
      "stateMutability": "payable",
      "type": "function"
    },
    {
      "inputs": [],
      "name": "nativeWrap",
      "outputs": [
        {
          "internalType": "address",
          "name": "",
          "type": "address"
        }
      ],
      "stateMutability": "view",
      "type": "function"
    },
    {
      "inputs": [],
      "name": "owner",
      "outputs": [
        {
          "internalType": "address",
          "name": "",
          "type": "address"
        }
      ],
      "stateMutability": "view",
      "type": "function"
    },
    {
      "inputs": [],
      "name": "renounceOwnership",
      "outputs": [],
      "stateMutability": "nonpayable",
      "type": "function"
    },
    {
      "inputs": [
        {
          "internalType": "address",
          "name": "_nativeWrap",
          "type": "address"
        }
      ],
      "name": "setNativeWrap",
      "outputs": [],
      "stateMutability": "nonpayable",
      "type": "function"
    },
    {
      "inputs": [
        {
          "internalType": "address",
          "name": "_router",
          "type": "address"
        },
        {
          "internalType": "bool",
          "name": "_enabled",
          "type": "bool"
        }
      ],
      "name": "setSupportedRouter",
      "outputs": [],
      "stateMutability": "nonpayable",
      "type": "function"
    },
    {
      "inputs": [
        {
          "internalType": "address",
          "name": "",
          "type": "address"
        }
      ],
      "name": "supportedRouters",
      "outputs": [
        {
          "internalType": "bool",
          "name": "",
          "type": "bool"
        }
      ],
      "stateMutability": "view",
      "type": "function"
    },
    {
      "inputs": [
        {
          "internalType": "address",
          "name": "newOwner",
          "type": "address"
        }
      ],
      "name": "transferOwnership",
      "outputs": [],
      "stateMutability": "nonpayable",
      "type": "function"
    },
    {
      "inputs": [
        {
          "internalType": "bytes32",
          "name": "",
          "type": "bytes32"
        }
      ],
      "name": "transfers",
      "outputs": [
        {
          "internalType": "bool",
          "name": "",
          "type": "bool"
        }
      ],
      "stateMutability": "view",
      "type": "function"
    },
    {
      "stateMutability": "payable",
      "type": "receive"
    }
  ],
  "transactionHash": "0x22bc6705ef21bb9b1210bdae60c3fe5d32559b92217dae0d303a1f916b16465a",
  "args": [
    "0xB31f66AA3C1e785363F0875A1B74E27b85FD66c7",
    [
      "0xB0D502E938ed5f4df2E681fE6E419ff29631d62b",
      "0xB49c4e680174E331CB0A7fF3Ab58afC9738d5F8b"
    ]
  ],
  "numDeployments": 5,
  "solcInputHash": "1fabf771bf87ca53a7315bc65ffe47fc",
  "bytecode": "0x60806040523480156200001157600080fd5b5060405162001b5a38038062001b5a833981016040819052620000349162000309565b8162000040336200015b565b6001600160a01b038116620000725760405162461bcd60e51b8152600401620000699062000392565b60405180910390fd5b600180546001600160a01b0319166001600160a01b039290921691909117905560005b8151811015620001525760006001600160a01b0316828281518110620000bf57620000bf620003a4565b60200260200101516001600160a01b031603620000f05760405162461bcd60e51b81526004016200006990620003d5565b6001600260008484815181106200010b576200010b620003a4565b6020908102919091018101516001600160a01b03168252810191909152604001600020805460ff1916911515919091179055806200014981620003fd565b91505062000095565b5050506200041a565b600080546001600160a01b038381166001600160a01b0319831681178455604051919092169283917f8be0079c531659141344cd1fd0a4f28419497f9722a3daafe3b4186f6b6457e09190a35050565b60006001600160a01b0382165b92915050565b620001c981620001ab565b8114620001d557600080fd5b50565b8051620001b881620001be565b634e487b7160e01b600052604160045260246000fd5b601f19601f83011681018181106001600160401b0382111715620002235762000223620001e5565b6040525050565b60006200023660405190565b9050620002448282620001fb565b919050565b60006001600160401b03821115620002655762000265620001e5565b5060209081020190565b600062000286620002808462000249565b6200022a565b83815290506020808201908402830185811115620002a757620002a7600080fd5b835b81811015620002cf5780620002bf8882620001d8565b84525060209283019201620002a9565b5050509392505050565b600082601f830112620002ef57620002ef600080fd5b8151620003018482602086016200026f565b949350505050565b60008060408385031215620003215762000321600080fd5b60006200032f8585620001d8565b92505060208301516001600160401b03811115620003505762000350600080fd5b6200035e85828601620002d9565b9150509250929050565b601081526000602082016f07a65726f206e617469766520777261760841b815291505b5060200190565b60208082528101620001b88162000368565b634e487b7160e01b600052603260045260246000fd5b600381526000602082016206e6f760ec1b815291506200038b565b60208082528101620001b881620003ba565b634e487b7160e01b600052601160045260246000fd5b60006000198203620004135762000413620003e7565b5060010190565b611730806200042a6000396000f3fe60806040526004361061009a5760003560e01c8063834bc3ea116100695780639879c48d1161004e5780639879c48d1461018e578063f2fde38b146101be578063f8e9c5c0146101de57600080fd5b8063834bc3ea146101505780638da5cb5b1461017057600080fd5b80633c64f04b146100a6578063457bfa2f146100ec5780635b5a66a714610119578063715018a61461013b57600080fd5b366100a157005b600080fd5b3480156100b257600080fd5b506100d66100c1366004610c62565b60036020526000908152604090205460ff1681565b6040516100e39190610c8d565b60405180910390f35b3480156100f857600080fd5b5060015461010c906001600160a01b031681565b6040516100e39190610cb5565b34801561012557600080fd5b50610139610134366004610cd7565b6101fe565b005b34801561014757600080fd5b50610139610235565b61016361015e366004610e0e565b610249565b6040516100e39190610f2c565b34801561017c57600080fd5b506000546001600160a01b031661010c565b34801561019a57600080fd5b506100d66101a9366004610cd7565b60026020526000908152604090205460ff1681565b3480156101ca57600080fd5b506101396101d9366004610cd7565b61037d565b3480156101ea57600080fd5b506101396101f9366004610f50565b6103b7565b610206610461565b6001805473ffffffffffffffffffffffffffffffffffffffff19166001600160a01b0392909216919091179055565b61023d610461565b610247600061048b565b565b6060600083806020019051810190610261919061105d565b60a08101516001600160a01b031660009081526002602052604090205490915060ff166102a95760405162461bcd60e51b81526004016102a0906110b5565b60405180910390fd5b80516040516000916102c7918a9189918b918e914690602001611112565b60408051601f1981840301815291815281516020928301206000818152600390935291205490915060ff161561030f5760405162461bcd60e51b81526004016102a0906111b0565b6000818152600360205260409020805460ff1916600117905561033d6001600160a01b03871633308a6104e8565b600061034b878a8a86610573565b90508060405160200161035e91906111c0565b60405160208183030381529060405293505050505b9695505050505050565b610385610461565b6001600160a01b0381166103ab5760405162461bcd60e51b81526004016102a090611232565b6103b48161048b565b50565b6103bf610461565b6001600160a01b03821660009081526002602052604090205460ff16811515811515036103fe5760405162461bcd60e51b81526004016102a09061125c565b6001600160a01b03831660009081526002602052604090819020805460ff1916841515179055517f19df4f9d38a9b103263e051a2824d8cd9cd6dc4205d136abbd3932a9eeede06190610454908590859061126c565b60405180910390a1505050565b6000546001600160a01b031633146102475760405162461bcd60e51b81526004016102a0906112b9565b600080546001600160a01b0383811673ffffffffffffffffffffffffffffffffffffffff19831681178455604051919092169283917f8be0079c531659141344cd1fd0a4f28419497f9722a3daafe3b4186f6b6457e09190a35050565b61056d846323b872dd60e01b858585604051602401610509939291906112c9565b60408051601f198184030181529190526020810180517bffffffffffffffffffffffffffffffffffffffffffffffffffffffff167fffffffff00000000000000000000000000000000000000000000000000000000909316929092179091526109e6565b50505050565b60a0810151600154600091906001600160a01b039081169087160361068e57604051632e1a7d4d60e01b81526001600160a01b03871690632e1a7d4d906105be9087906004016112f1565b600060405180830381600087803b1580156105d857600080fd5b505af11580156105ec573d6000803e3d6000fd5b50505050806001600160a01b0316631114cd2a853461060b9190611315565b85608001518889604051602001610622919061132d565b6040516020818303038152906040528989606001516040518763ffffffff1660e01b815260040161065795949392919061134c565b6000604051808303818588803b15801561067057600080fd5b505af1158015610684573d6000803e3d6000fd5b50505050506107b9565b60a08301516106a8906001600160a01b0388169086610a7a565b806001600160a01b0316639fbf10fc348560800151866020015187604001518a8a8a606001516040518060600160405280600081526020016000815260200160405180604001604052806002815260200161060f60f31b8152508152508e604051602001610716919061132d565b60408051601f198184030181526020830182526000835290517fffffffff0000000000000000000000000000000000000000000000000000000060e08d901b16815261076c9998979695949392906004016113dd565b6000604051808303818588803b15801561078557600080fd5b505af1158015610799573d6000803e3d6000fd5b50505060a08501516107b992506001600160a01b03891691506000610a7a565b6001546000906001600160a01b039081169088160361089c57816001600160a01b031663a9e56f3c6040518163ffffffff1660e01b8152600401602060405180830381865afa158015610810573d6000803e3d6000fd5b505050506040513d601f19601f820116820180604052508101906108349190611477565b6001600160a01b031663e78cea926040518163ffffffff1660e01b8152600401602060405180830381865afa158015610871573d6000803e3d6000fd5b505050506040513d601f19601f820116820180604052508101906108959190611477565b9050610901565b816001600160a01b031663e78cea926040518163ffffffff1660e01b8152600401602060405180830381865afa1580156108da573d6000803e3d6000fd5b505050506040513d601f19601f820116820180604052508101906108fe9190611477565b90505b6000816001600160a01b03166307968db16040518163ffffffff1660e01b8152600401602060405180830381865afa158015610941573d6000803e3d6000fd5b505050506040513d601f19601f820116820180604052508101906109659190611477565b6080860151604051630f428ae960e31b81529192506001600160a01b03831691637a14574891610999918690600401611498565b602060405180830381865afa1580156109b6573d6000803e3d6000fd5b505050506040513d601f19601f820116820180604052508101906109da91906114b3565b98975050505050505050565b6000610a3b826040518060400160405280602081526020017f5361666545524332303a206c6f772d6c6576656c2063616c6c206661696c6564815250856001600160a01b0316610b2e9092919063ffffffff16565b805190915015610a755780806020019051810190610a5991906114df565b610a755760405162461bcd60e51b81526004016102a09061155a565b505050565b801580610af35750604051636eb1769f60e11b81526001600160a01b0384169063dd62ed3e90610ab0903090869060040161156a565b602060405180830381865afa158015610acd573d6000803e3d6000fd5b505050506040513d601f19601f82011682018060405250810190610af19190611578565b155b610b0f5760405162461bcd60e51b81526004016102a0906115f3565b610a758363095ea7b360e01b8484604051602401610509929190611603565b6060610b3d8484600085610b47565b90505b9392505050565b606082471015610b695760405162461bcd60e51b81526004016102a090611678565b6001600160a01b0385163b610b905760405162461bcd60e51b81526004016102a0906116bc565b600080866001600160a01b03168587604051610bac91906116ee565b60006040518083038185875af1925050503d8060008114610be9576040519150601f19603f3d011682016040523d82523d6000602084013e610bee565b606091505b5091509150610bfe828286610c0b565b925050505b949350505050565b60608315610c1a575081610b40565b825115610c2a5782518084602001fd5b8160405162461bcd60e51b81526004016102a09190610f2c565b805b81146103b457600080fd5b8035610c5c81610c44565b92915050565b600060208284031215610c7757610c77600080fd5b6000610c038484610c51565b8015155b82525050565b60208101610c5c8284610c83565b60006001600160a01b038216610c5c565b610c8781610c9b565b60208101610c5c8284610cac565b610c4681610c9b565b8035610c5c81610cc3565b600060208284031215610cec57610cec600080fd5b6000610c038484610ccc565b67ffffffffffffffff8116610c46565b8035610c5c81610cf8565b634e487b7160e01b600052604160045260246000fd5b601f19601f830116810181811067ffffffffffffffff82111715610d4f57610d4f610d13565b6040525050565b6000610d6160405190565b9050610d6d8282610d29565b919050565b600067ffffffffffffffff821115610d8c57610d8c610d13565b601f19601f83011660200192915050565b82818337506000910152565b6000610dbc610db784610d72565b610d56565b905082815260208101848484011115610dd757610dd7600080fd5b610de2848285610d9d565b509392505050565b600082601f830112610dfe57610dfe600080fd5b8135610c03848260208601610da9565b60008060008060008060c08789031215610e2a57610e2a600080fd5b6000610e368989610d08565b9650506020610e4789828a01610ccc565b9550506040610e5889828a01610c51565b9450506060610e6989828a01610ccc565b935050608087013567ffffffffffffffff811115610e8957610e89600080fd5b610e9589828a01610dea565b92505060a087013567ffffffffffffffff811115610eb557610eb5600080fd5b610ec189828a01610dea565b9150509295509295509295565b60005b83811015610ee9578181015183820152602001610ed1565b8381111561056d5750506000910152565b6000610f04825190565b808452602084019350610f1b818560208601610ece565b601f01601f19169290920192915050565b60208082528101610b408184610efa565b801515610c46565b8035610c5c81610f3d565b60008060408385031215610f6657610f66600080fd5b6000610f728585610ccc565b9250506020610f8385828601610f45565b9150509250929050565b8051610c5c81610cf8565b8051610c5c81610c44565b61ffff8116610c46565b8051610c5c81610fa3565b8051610c5c81610cc3565b600060c08284031215610fd857610fd8600080fd5b610fe260c0610d56565b90506000610ff08484610f8d565b825250602061100184848301610f98565b602083015250604061101584828501610f98565b604083015250606061102984828501610f98565b606083015250608061103d84828501610fad565b60808301525060a061105184828501610fb8565b60a08301525092915050565b600060c0828403121561107257611072600080fd5b6000610c038484610fc3565b600e81526000602082017f696c6c6567616c20726f75746572000000000000000000000000000000000000815291505b5060200190565b60208082528101610c5c8161107e565b6000610c5c8260601b90565b6000610c5c826110c5565b610c876110e882610c9b565b6110d1565b80610c87565b6000610c5c8260c01b90565b610c8767ffffffffffffffff82166110f3565b600061111e82896110dc565b60148201915061112e82886110dc565b60148201915061113e82876110ed565b60208201915061114e82866110ff565b60088201915061115e82856110ff565b60088201915061116e82846110ff565b506008019695505050505050565b600f81526000602082017f7472616e73666572206578697374730000000000000000000000000000000000815291506110ae565b60208082528101610c5c8161117c565b60006111cc82846110ff565b50600801919050565b602681526000602082017f4f776e61626c653a206e6577206f776e657220697320746865207a65726f206181527f6464726573730000000000000000000000000000000000000000000000000000602082015291505b5060400190565b60208082528101610c5c816111d5565b600381526000602082016206e6f760ec1b815291506110ae565b60208082528101610c5c81611242565b6040810161127a8285610cac565b610b406020830184610c83565b60208082527f4f776e61626c653a2063616c6c6572206973206e6f7420746865206f776e6572910190815260006110ae565b60208082528101610c5c81611287565b606081016112d78286610cac565b6112e46020830185610cac565b610c0360408301846110ed565b60208101610c5c82846110ed565b634e487b7160e01b600052601160045260246000fd5b60008219821115611328576113286112ff565b500190565b600061133982846110dc565b50601401919050565b61ffff8116610c87565b60a0810161135a8288611342565b6113676020830187610cac565b81810360408301526113798186610efa565b905061138860608301856110ed565b61037360808301846110ed565b805160009060608401906113a985826110ed565b5060208301516113bc60208601826110ed565b50604083015184820360408601526113d48282610efa565b95945050505050565b61012081016113ec828c611342565b6113f9602083018b6110ed565b611406604083018a6110ed565b6114136060830189610cac565b61142060808301886110ed565b61142d60a08301876110ed565b81810360c083015261143f8186611395565b905081810360e08301526114538185610efa565b90508181036101008301526114688184610efa565b9b9a5050505050505050505050565b60006020828403121561148c5761148c600080fd5b6000610c038484610fb8565b604081016114a68285611342565b610b406020830184610cac565b6000602082840312156114c8576114c8600080fd5b6000610c038484610f8d565b8051610c5c81610f3d565b6000602082840312156114f4576114f4600080fd5b6000610c0384846114d4565b602a81526000602082017f5361666545524332303a204552433230206f7065726174696f6e20646964206e81527f6f742073756363656564000000000000000000000000000000000000000000006020820152915061122b565b60208082528101610c5c81611500565b604081016114a68285610cac565b60006020828403121561158d5761158d600080fd5b6000610c038484610f98565b603681526000602082017f5361666545524332303a20617070726f76652066726f6d206e6f6e2d7a65726f81527f20746f206e6f6e2d7a65726f20616c6c6f77616e6365000000000000000000006020820152915061122b565b60208082528101610c5c81611599565b604081016116118285610cac565b610b4060208301846110ed565b602681526000602082017f416464726573733a20696e73756666696369656e742062616c616e636520666f81527f722063616c6c00000000000000000000000000000000000000000000000000006020820152915061122b565b60208082528101610c5c8161161e565b601d81526000602082017f416464726573733a2063616c6c20746f206e6f6e2d636f6e7472616374000000815291506110ae565b60208082528101610c5c81611688565b60006116d6825190565b6116e4818560208601610ece565b9290920192915050565b6000610b4082846116cc56fea264697066735822122088adc24cee15d3826e8cdd5139e1f7e6e1ebccab765823b24d77d92d9ed2bbe364736f6c634300080f0033",
  "devdoc": {
    "kind": "dev",
    "methods": {
      "owner()": {
        "details": "Returns the address of the current owner."
      },
      "renounceOwnership()": {
        "details": "Leaves the contract without owner. It will not be possible to call `onlyOwner` functions anymore. Can only be called by the current owner. NOTE: Renouncing ownership will leave the contract without an owner, thereby removing any functionality that is only available to the owner."
      },
      "transferOwnership(address)": {
        "details": "Transfers ownership of the contract to a new account (`newOwner`). Can only be called by the current owner."
      }
    },
    "version": 1
  },
  "userdoc": {
    "kind": "user",
    "methods": {},
    "version": 1
  },
  "storageLayout": {
    "storage": [
      {
        "astId": 7,
        "contract": "contracts/bridges/StargateAdapter.sol:StargateAdapter",
        "label": "_owner",
        "offset": 0,
        "slot": "0",
        "type": "t_address"
      },
      {
        "astId": 9938,
        "contract": "contracts/bridges/StargateAdapter.sol:StargateAdapter",
        "label": "nativeWrap",
        "offset": 0,
        "slot": "1",
        "type": "t_address"
      },
      {
        "astId": 5869,
        "contract": "contracts/bridges/StargateAdapter.sol:StargateAdapter",
        "label": "supportedRouters",
        "offset": 0,
        "slot": "2",
        "type": "t_mapping(t_address,t_bool)"
      },
      {
        "astId": 5873,
        "contract": "contracts/bridges/StargateAdapter.sol:StargateAdapter",
        "label": "transfers",
        "offset": 0,
        "slot": "3",
        "type": "t_mapping(t_bytes32,t_bool)"
      }
    ],
    "types": {
      "t_address": {
        "encoding": "inplace",
        "label": "address",
        "numberOfBytes": "20"
      },
      "t_bool": {
        "encoding": "inplace",
        "label": "bool",
        "numberOfBytes": "1"
      },
      "t_bytes32": {
        "encoding": "inplace",
        "label": "bytes32",
        "numberOfBytes": "32"
      },
      "t_mapping(t_address,t_bool)": {
        "encoding": "mapping",
        "key": "t_address",
        "label": "mapping(address => bool)",
        "numberOfBytes": "32",
        "value": "t_bool"
      },
      "t_mapping(t_bytes32,t_bool)": {
        "encoding": "mapping",
        "key": "t_bytes32",
        "label": "mapping(bytes32 => bool)",
        "numberOfBytes": "32",
        "value": "t_bool"
      }
    }
  }
}