{
  "address": "0x413b1AfCa96a3df5A686d8BFBF93d30688a7f7D9",
  "abi": [
    {
      "inputs": [
        {
          "internalType": "address",
          "name": "_messageBus",
          "type": "address"
        },
        {
          "internalType": "address",
          "name": "_nativeWrap",
          "type": "address"
        },
        {
          "internalType": "address",
          "name": "_signer",
          "type": "address"
        },
        {
          "internalType": "address",
          "name": "_feeCollector",
          "type": "address"
        },
        {
          "internalType": "string[]",
          "name": "_funcSigs",
          "type": "string[]"
        },
        {
          "internalType": "address[]",
          "name": "_codecs",
          "type": "address[]"
        },
        {
          "internalType": "address[]",
          "name": "_supportedDexList",
          "type": "address[]"
        },
        {
          "internalType": "string[]",
          "name": "_supportedDexFuncs",
          "type": "string[]"
        }
      ],
      "stateMutability": "nonpayable",
      "type": "constructor"
    },
    {
      "anonymous": false,
      "inputs": [
        {
          "indexed": false,
          "internalType": "bytes4",
          "name": "selector",
          "type": "bytes4"
        },
        {
          "indexed": false,
          "internalType": "address",
          "name": "codec",
          "type": "address"
        }
      ],
      "name": "CodecUpdated",
      "type": "event"
    },
    {
      "anonymous": false,
      "inputs": [
        {
          "indexed": false,
          "internalType": "bytes32",
          "name": "id",
          "type": "bytes32"
        },
        {
          "indexed": false,
          "internalType": "uint256",
          "name": "amountIn",
          "type": "uint256"
        },
        {
          "indexed": false,
          "internalType": "address",
          "name": "tokenIn",
          "type": "address"
        },
        {
          "indexed": false,
          "internalType": "uint256",
          "name": "amountOut",
          "type": "uint256"
        },
        {
          "indexed": false,
          "internalType": "address",
          "name": "tokenOut",
          "type": "address"
        }
      ],
      "name": "DirectSwap",
      "type": "event"
    },
    {
      "anonymous": false,
      "inputs": [
        {
          "indexed": false,
          "internalType": "address",
          "name": "from",
          "type": "address"
        },
        {
          "indexed": false,
          "internalType": "address",
          "name": "to",
          "type": "address"
        }
      ],
      "name": "FeeCollectorUpdated",
      "type": "event"
    },
    {
      "anonymous": false,
      "inputs": [
        {
          "indexed": false,
          "internalType": "address",
          "name": "messageBus",
          "type": "address"
        }
      ],
      "name": "MessageBusUpdated",
      "type": "event"
    },
    {
      "anonymous": false,
      "inputs": [
        {
          "indexed": false,
          "internalType": "address",
          "name": "nativeWrap",
          "type": "address"
        }
      ],
      "name": "NativeWrapUpdated",
      "type": "event"
    },
    {
      "anonymous": false,
      "inputs": [
        {
          "indexed": true,
          "internalType": "address",
          "name": "previousOwner",
          "type": "address"
        },
        {
          "indexed": true,
          "internalType": "address",
          "name": "newOwner",
          "type": "address"
        }
      ],
      "name": "OwnershipTransferred",
      "type": "event"
    },
    {
      "anonymous": false,
      "inputs": [
        {
          "indexed": false,
          "internalType": "bytes32",
          "name": "id",
          "type": "bytes32"
        },
        {
          "indexed": false,
          "internalType": "uint256",
          "name": "dstAmount",
          "type": "uint256"
        },
        {
          "indexed": false,
          "internalType": "uint256",
          "name": "refundAmount",
          "type": "uint256"
        },
        {
          "indexed": false,
          "internalType": "address",
          "name": "refundToken",
          "type": "address"
        },
        {
          "indexed": false,
          "internalType": "uint256",
          "name": "feeCollected",
          "type": "uint256"
        },
        {
          "indexed": false,
          "internalType": "enum TransferSwapper.RequestStatus",
          "name": "status",
          "type": "uint8"
        }
      ],
      "name": "RequestDone",
      "type": "event"
    },
    {
      "anonymous": false,
      "inputs": [
        {
          "indexed": false,
          "internalType": "bytes32",
          "name": "id",
          "type": "bytes32"
        },
        {
          "indexed": false,
          "internalType": "bytes32",
          "name": "transferId",
          "type": "bytes32"
        },
        {
          "indexed": false,
          "internalType": "uint64",
          "name": "dstChainId",
          "type": "uint64"
        },
        {
          "indexed": false,
          "internalType": "uint256",
          "name": "srcAmount",
          "type": "uint256"
        },
        {
          "indexed": false,
          "internalType": "address",
          "name": "srcToken",
          "type": "address"
        },
        {
          "indexed": false,
          "internalType": "address",
          "name": "dstToken",
          "type": "address"
        }
      ],
      "name": "RequestSent",
      "type": "event"
    },
    {
      "anonymous": false,
      "inputs": [
        {
          "indexed": false,
          "internalType": "address",
          "name": "from",
          "type": "address"
        },
        {
          "indexed": false,
          "internalType": "address",
          "name": "to",
          "type": "address"
        }
      ],
      "name": "SignerUpdated",
      "type": "event"
    },
    {
      "anonymous": false,
      "inputs": [
        {
          "indexed": false,
          "internalType": "address",
          "name": "dex",
          "type": "address"
        },
        {
          "indexed": false,
          "internalType": "bytes4",
          "name": "selector",
          "type": "bytes4"
        },
        {
          "indexed": false,
          "internalType": "bool",
          "name": "enabled",
          "type": "bool"
        }
      ],
      "name": "SupportedDexUpdated",
      "type": "event"
    },
    {
      "inputs": [
        {
          "internalType": "uint256",
          "name": "",
          "type": "uint256"
        }
      ],
      "name": "codecs",
      "outputs": [
        {
          "internalType": "address",
          "name": "",
          "type": "address"
        }
      ],
      "stateMutability": "view",
      "type": "function"
    },
    {
      "inputs": [
        {
          "internalType": "address[]",
          "name": "_tokens",
          "type": "address[]"
        },
        {
          "internalType": "address",
          "name": "_to",
          "type": "address"
        }
      ],
      "name": "collectFee",
      "outputs": [],
      "stateMutability": "nonpayable",
      "type": "function"
    },
    {
      "inputs": [
        {
          "internalType": "address",
          "name": "",
          "type": "address"
        },
        {
          "internalType": "bytes4",
          "name": "",
          "type": "bytes4"
        }
      ],
      "name": "dexRegistry",
      "outputs": [
        {
          "internalType": "bool",
          "name": "",
          "type": "bool"
        }
      ],
      "stateMutability": "view",
      "type": "function"
    },
    {
      "inputs": [
        {
          "internalType": "address",
          "name": "_sender",
          "type": "address"
        },
        {
          "internalType": "uint64",
          "name": "_srcChainId",
          "type": "uint64"
        },
        {
          "internalType": "bytes",
          "name": "_message",
          "type": "bytes"
        },
        {
          "internalType": "address",
          "name": "_executor",
          "type": "address"
        }
      ],
      "name": "executeMessage",
      "outputs": [
        {
          "internalType": "enum IMessageReceiverApp.ExecutionStatus",
          "name": "",
          "type": "uint8"
        }
      ],
      "stateMutability": "payable",
      "type": "function"
    },
    {
      "inputs": [
        {
          "internalType": "address",
          "name": "",
          "type": "address"
        },
        {
          "internalType": "address",
          "name": "_token",
          "type": "address"
        },
        {
          "internalType": "uint256",
          "name": "_amount",
          "type": "uint256"
        },
        {
          "internalType": "uint64",
          "name": "",
          "type": "uint64"
        },
        {
          "internalType": "bytes",
          "name": "_message",
          "type": "bytes"
        },
        {
          "internalType": "address",
          "name": "",
          "type": "address"
        }
      ],
      "name": "executeMessageWithTransfer",
      "outputs": [
        {
          "internalType": "enum IMessageReceiverApp.ExecutionStatus",
          "name": "",
          "type": "uint8"
        }
      ],
      "stateMutability": "payable",
      "type": "function"
    },
    {
      "inputs": [
        {
          "internalType": "address",
          "name": "",
          "type": "address"
        },
        {
          "internalType": "address",
          "name": "_token",
          "type": "address"
        },
        {
          "internalType": "uint256",
          "name": "_amount",
          "type": "uint256"
        },
        {
          "internalType": "uint64",
          "name": "",
          "type": "uint64"
        },
        {
          "internalType": "bytes",
          "name": "_message",
          "type": "bytes"
        },
        {
          "internalType": "address",
          "name": "",
          "type": "address"
        }
      ],
      "name": "executeMessageWithTransferFallback",
      "outputs": [
        {
          "internalType": "enum IMessageReceiverApp.ExecutionStatus",
          "name": "",
          "type": "uint8"
        }
      ],
      "stateMutability": "payable",
      "type": "function"
    },
    {
      "inputs": [
        {
          "internalType": "address",
          "name": "_token",
          "type": "address"
        },
        {
          "internalType": "uint256",
          "name": "_amount",
          "type": "uint256"
        },
        {
          "internalType": "bytes",
          "name": "_message",
          "type": "bytes"
        },
        {
          "internalType": "address",
          "name": "",
          "type": "address"
        }
      ],
      "name": "executeMessageWithTransferRefund",
      "outputs": [
        {
          "internalType": "enum IMessageReceiverApp.ExecutionStatus",
          "name": "",
          "type": "uint8"
        }
      ],
      "stateMutability": "payable",
      "type": "function"
    },
    {
      "inputs": [],
      "name": "feeCollector",
      "outputs": [
        {
          "internalType": "address",
          "name": "",
          "type": "address"
        }
      ],
      "stateMutability": "view",
      "type": "function"
    },
    {
      "inputs": [],
      "name": "messageBus",
      "outputs": [
        {
          "internalType": "address",
          "name": "",
          "type": "address"
        }
      ],
      "stateMutability": "view",
      "type": "function"
    },
    {
      "inputs": [],
      "name": "nativeWrap",
      "outputs": [
        {
          "internalType": "address",
          "name": "",
          "type": "address"
        }
      ],
      "stateMutability": "view",
      "type": "function"
    },
    {
      "inputs": [],
      "name": "owner",
      "outputs": [
        {
          "internalType": "address",
          "name": "",
          "type": "address"
        }
      ],
      "stateMutability": "view",
      "type": "function"
    },
    {
      "inputs": [],
      "name": "renounceOwnership",
      "outputs": [],
      "stateMutability": "nonpayable",
      "type": "function"
    },
    {
      "inputs": [
        {
          "internalType": "bytes4",
          "name": "",
          "type": "bytes4"
        }
      ],
      "name": "selector2codec",
      "outputs": [
        {
          "internalType": "contract ICodec",
          "name": "",
          "type": "address"
        }
      ],
      "stateMutability": "view",
      "type": "function"
    },
    {
      "inputs": [
        {
          "internalType": "string",
          "name": "_funcSig",
          "type": "string"
        },
        {
          "internalType": "address",
          "name": "_codec",
          "type": "address"
        }
      ],
      "name": "setCodec",
      "outputs": [],
      "stateMutability": "nonpayable",
      "type": "function"
    },
    {
      "inputs": [
        {
          "internalType": "address",
          "name": "_feeCollector",
          "type": "address"
        }
      ],
      "name": "setFeeCollector",
      "outputs": [],
      "stateMutability": "nonpayable",
      "type": "function"
    },
    {
      "inputs": [
        {
          "internalType": "address",
          "name": "_messageBus",
          "type": "address"
        }
      ],
      "name": "setMessageBus",
      "outputs": [],
      "stateMutability": "nonpayable",
      "type": "function"
    },
    {
      "inputs": [
        {
          "internalType": "address",
          "name": "_nativeWrap",
          "type": "address"
        }
      ],
      "name": "setNativeWrap",
      "outputs": [],
      "stateMutability": "nonpayable",
      "type": "function"
    },
    {
      "inputs": [
        {
          "internalType": "address",
          "name": "_signer",
          "type": "address"
        }
      ],
      "name": "setSigner",
      "outputs": [],
      "stateMutability": "nonpayable",
      "type": "function"
    },
    {
      "inputs": [
        {
          "internalType": "address",
          "name": "_dex",
          "type": "address"
        },
        {
          "internalType": "bytes4",
          "name": "_selector",
          "type": "bytes4"
        },
        {
          "internalType": "bool",
          "name": "_enabled",
          "type": "bool"
        }
      ],
      "name": "setSupportedDex",
      "outputs": [],
      "stateMutability": "nonpayable",
      "type": "function"
    },
    {
      "inputs": [],
      "name": "signer",
      "outputs": [
        {
          "internalType": "address",
          "name": "",
          "type": "address"
        }
      ],
      "stateMutability": "view",
      "type": "function"
    },
    {
      "inputs": [
        {
          "internalType": "address",
          "name": "newOwner",
          "type": "address"
        }
      ],
      "name": "transferOwnership",
      "outputs": [],
      "stateMutability": "nonpayable",
      "type": "function"
    },
    {
      "inputs": [
        {
          "internalType": "address",
          "name": "_dstTransferSwapper",
          "type": "address"
        },
        {
          "components": [
            {
              "internalType": "address",
              "name": "receiver",
              "type": "address"
            },
            {
              "internalType": "uint64",
              "name": "dstChainId",
              "type": "uint64"
            },
            {
              "internalType": "uint32",
              "name": "maxBridgeSlippage",
              "type": "uint32"
            },
            {
              "internalType": "enum MsgDataTypes.BridgeSendType",
              "name": "bridgeType",
              "type": "uint8"
            },
            {
              "internalType": "uint64",
              "name": "nonce",
              "type": "uint64"
            },
            {
              "internalType": "bool",
              "name": "nativeIn",
              "type": "bool"
            },
            {
              "internalType": "bool",
              "name": "nativeOut",
              "type": "bool"
            },
            {
              "internalType": "uint256",
              "name": "fee",
              "type": "uint256"
            },
            {
              "internalType": "uint256",
              "name": "feeDeadline",
              "type": "uint256"
            },
            {
              "internalType": "bytes",
              "name": "feeSig",
              "type": "bytes"
            },
            {
              "internalType": "uint256",
              "name": "amountIn",
              "type": "uint256"
            },
            {
              "internalType": "address",
              "name": "tokenIn",
              "type": "address"
            },
            {
              "internalType": "address",
              "name": "dstTokenOut",
              "type": "address"
            },
            {
              "internalType": "bool",
              "name": "allowPartialFill",
              "type": "bool"
            }
          ],
          "internalType": "struct TransferSwapper.TransferDescription",
          "name": "_desc",
          "type": "tuple"
        },
        {
          "components": [
            {
              "internalType": "address",
              "name": "dex",
              "type": "address"
            },
            {
              "internalType": "bytes",
              "name": "data",
              "type": "bytes"
            }
          ],
          "internalType": "struct ICodec.SwapDescription[]",
          "name": "_srcSwaps",
          "type": "tuple[]"
        },
        {
          "components": [
            {
              "internalType": "address",
              "name": "dex",
              "type": "address"
            },
            {
              "internalType": "bytes",
              "name": "data",
              "type": "bytes"
            }
          ],
          "internalType": "struct ICodec.SwapDescription[]",
          "name": "_dstSwaps",
          "type": "tuple[]"
        }
      ],
      "name": "transferWithSwap",
      "outputs": [],
      "stateMutability": "payable",
      "type": "function"
    },
    {
      "stateMutability": "payable",
      "type": "receive"
    }
  ],
  "transactionHash": "0xe178b04bb54de21e2ff78627ec6228a5bbe301494a239d53b739c4f398af9941",
  "args": [
    "0x4066d196a423b2b3b8b054f4f40efb47a74e200c",
    "0xc02aaa39b223fe8d0a0e5c4f27ead9083c756cc2",
    "0x26e6eAf3D3C5d4B8290AA7dd896140f383dFf043",
    "0xf0761BB438CeFca39A8fd1F27d75ccC7F6Df92d8",
    [
      "exactInput((bytes,address,uint256,uint256,uint256))",
      "exchange(int128,int128,uint256,uint256)",
      "exchange_underlying(int128,int128,uint256,uint256)",
      "exchange_underlying(int128,int128,uint256,uint256,address)"
    ],
    [
      "0xaB7B4c595d3cE8C85e16DA86630f2fc223B05057",
      "0xAD523115cd35a8d4E60B3C0953E0E0ac10418309",
      "0x045857BDEAE7C1c7252d611eB24eB55564198b4C",
      "0x2b5A4e5493d4a54E717057B127cf0C000C876f9B"
    ],
    [
      "0xE592427A0AEce92De3Edee1F18E0157C05861564",
      "0xbEbc44782C7dB0a1A60Cb6fe97d0b483032FF1C7",
      "0xd632f22692FaC7611d2AA1C0D552930D43CAEd3B",
      "0x5a6A4D54456819380173272A5E8E9B9904BdF41B",
      "0xCEAF7747579696A2F0bb206a14210e3c9e6fB269",
      "0xA5407eAE9Ba41422680e2e00537571bcC53efBfD",
      "0xEd279fDD11cA84bEef15AF5D39BB4d4bEE23F0cA",
      "0x4807862AA8b2bF68830e4C8dc86D0e9A998e085a"
    ],
    [
      "exactInput((bytes,address,uint256,uint256,uint256))",
      "exchange(int128,int128,uint256,uint256)",
      "exchange_underlying(int128,int128,uint256,uint256,address)",
      "exchange_underlying(int128,int128,uint256,uint256,address)",
      "exchange_underlying(int128,int128,uint256,uint256,address)",
      "exchange_underlying(int128,int128,uint256,uint256)",
      "exchange_underlying(int128,int128,uint256,uint256,address)",
      "exchange_underlying(int128,int128,uint256,uint256,address)"
    ]
  ],
  "numDeployments": 1,
  "solcInputHash": "7800e8536f81a358cb32d7adf9896e8a",
  "bytecode": "0x60806040523480156200001157600080fd5b5060405162005784380380620057848339810160408190526200003491620005fa565b848685858585818185856200004933620001d5565b8051825114620000765760405162461bcd60e51b81526004016200006d906200074f565b60405180910390fd5b60005b8251811015620000ef5760008382815181106200009a576200009a62000761565b6020026020010151805190602001209050620000d981848481518110620000c557620000c562000761565b60200260200101516200022560201b60201c565b5080620000e6816200078d565b91505062000079565b50505060005b82518110156200016d57600082828151811062000116576200011662000761565b60200260200101518051906020012090506200015784838151811062000140576200014062000761565b60200260200101518260016200029760201b60201c565b508062000164816200078d565b915050620000f5565b5050600580546001600160a01b03199081166001600160a01b039889161790915560068054821698881698909817909755505060016007819055805486169d85169d909d17909c5550506008805490921698169790971790965550620007d895505050505050565b600080546001600160a01b038381166001600160a01b0319831681178455604051919092169283917f8be0079c531659141344cd1fd0a4f28419497f9722a3daafe3b4186f6b6457e09190a35050565b6001600160e01b0319909116600090815260026020526040812080546001600160a01b039093166001600160a01b031993841681179091556003805460018101825592527fc2575a0e9e593c00f959f8c92f12db2869c3395a3b0502d05e2516446f71f85b9091018054909216179055565b6001600160a01b03831660009081526004602090815260408083206001600160e01b03198616845290915290205460ff168015158215151415620002ef5760405162461bcd60e51b81526004016200006d90620007c6565b506001600160a01b0390921660009081526004602090815260408083206001600160e01b0319909416835292905220805491151560ff19909216919091179055565b60006001600160a01b0382165b92915050565b6200034f8162000331565b81146200035b57600080fd5b50565b80516200033e8162000344565b634e487b7160e01b600052604160045260246000fd5b601f19601f83011681018181106001600160401b0382111715620003a957620003a96200036b565b6040525050565b6000620003bc60405190565b9050620003ca828262000381565b919050565b60006001600160401b03821115620003eb57620003eb6200036b565b5060209081020190565b60006001600160401b038211156200041157620004116200036b565b601f19601f83011660200192915050565b60005b838110156200043f57818101518382015260200162000425565b838111156200044f576000848401525b50505050565b60006200046c6200046684620003f5565b620003b0565b905082815260208101848484011115620004895762000489600080fd5b6200049684828562000422565b509392505050565b600082601f830112620004b457620004b4600080fd5b8151620004c684826020860162000455565b949350505050565b6000620004df6200046684620003cf565b83815290506020808201908402830185811115620005005762000500600080fd5b835b81811015620005465780516001600160401b03811115620005265762000526600080fd5b8086016200053589826200049e565b855250506020928301920162000502565b5050509392505050565b600082601f830112620005665762000566600080fd5b8151620004c6848260208601620004ce565b6000620005896200046684620003cf565b83815290506020808201908402830185811115620005aa57620005aa600080fd5b835b81811015620005465780620005c288826200035e565b84525060209283019201620005ac565b600082601f830112620005e857620005e8600080fd5b8151620004c684826020860162000578565b600080600080600080600080610100898b0312156200061c576200061c600080fd5b60006200062a8b8b6200035e565b98505060206200063d8b828c016200035e565b9750506040620006508b828c016200035e565b9650506060620006638b828c016200035e565b95505060808901516001600160401b03811115620006845762000684600080fd5b620006928b828c0162000550565b94505060a08901516001600160401b03811115620006b357620006b3600080fd5b620006c18b828c01620005d2565b93505060c08901516001600160401b03811115620006e257620006e2600080fd5b620006f08b828c01620005d2565b92505060e08901516001600160401b03811115620007115762000711600080fd5b6200071f8b828c0162000550565b9150509295985092959890939650565b60068152600060208201656c656e206d6d60d01b815291505b5060200190565b602080825281016200033e816200072f565b634e487b7160e01b600052603260045260246000fd5b634e487b7160e01b600052601160045260246000fd5b6000600019821415620007a457620007a462000777565b5060010190565b600381526000602082016206e6f760ec1b8152915062000748565b602080825281016200033e81620007ab565b614f9c80620007e86000396000f3fe6080604052600436106101795760003560e01c80638da5cb5b116100cb578063c415b95c1161007f578063efcfd8f511610059578063efcfd8f5146103e4578063f2fde38b14610404578063fbf5d7631461042457600080fd5b8063c415b95c14610391578063c5bccca3146103b1578063d8318ae5146103d157600080fd5b80639c649fdf116100b05780639c649fdf1461033e578063a1a227fa14610351578063a42dce801461037157600080fd5b80638da5cb5b146102d857806391ec04b5146102f657600080fd5b80635b5a66a71161012d578063715018a611610107578063715018a6146102905780637cd2bffc146102a557806382665a8f146102b857600080fd5b80635b5a66a714610230578063675df759146102505780636c19e7831461027057600080fd5b8063457bfa2f1161015e578063457bfa2f146101db578063547cad12146101fb5780635ab7afc61461021d57600080fd5b80630bcb498214610185578063238ac933146101ae57600080fd5b3661018057005b600080fd5b610198610193366004612fde565b610467565b6040516101a591906130b1565b60405180910390f35b3480156101ba57600080fd5b506005546101ce906001600160a01b031681565b6040516101a591906130c8565b3480156101e757600080fd5b506008546101ce906001600160a01b031681565b34801561020757600080fd5b5061021b6102163660046130d6565b610544565b005b61019861022b366004613200565b6105c5565b34801561023c57600080fd5b5061021b61024b3660046130d6565b6106ba565b34801561025c57600080fd5b5061021b61026b3660046132d3565b61072f565b34801561027c57600080fd5b5061021b61028b3660046130d6565b6107a4565b34801561029c57600080fd5b5061021b61082d565b6101986102b3366004613200565b610863565b3480156102c457600080fd5b506101ce6102d3366004613323565b610a45565b3480156102e457600080fd5b506000546001600160a01b03166101ce565b34801561030257600080fd5b50610331610311366004613344565b600460209081526000928352604080842090915290825290205460ff1681565b6040516101a59190613389565b61019861034c366004613397565b610a6f565b34801561035d57600080fd5b506001546101ce906001600160a01b031681565b34801561037d57600080fd5b5061021b61038c3660046130d6565b610aa5565b34801561039d57600080fd5b506006546101ce906001600160a01b031681565b3480156103bd57600080fd5b5061021b6103cc3660046133cf565b610b22565b61021b6103df366004613487565b610c1e565b3480156103f057600080fd5b5061021b6103ff366004613544565b610ea0565b34801561041057600080fd5b5061021b61041f3660046130d6565b610fc1565b34801561043057600080fd5b5061045a61043f366004613582565b6002602052600090815260409020546001600160a01b031681565b6040516101a591906135e5565b6001546000906001600160a01b0316331461049d5760405162461bcd60e51b81526004016104949061362a565b60405180910390fd5b600260075414156104c05760405162461bcd60e51b81526004016104949061366e565b600260075560006104d384860186613858565b90506104e687878360400151600061101d565b7f83fb878bc850fecc32634e2924a47daa8db823de1e2eb33084be9fd29f22c24581600001516000888a85608001516002604051610529969594939291906138ae565b60405180910390a16001915050600160075595945050505050565b6000546001600160a01b0316331461056e5760405162461bcd60e51b81526004016104949061393a565b600180546001600160a01b0319166001600160a01b0383169081179091556040517f3f8223bcd8b3b875473e9f9e14e1ad075451a2b5ffd31591655da9a01516bf5e916105ba916130c8565b60405180910390a150565b6001546000906001600160a01b031633146105f25760405162461bcd60e51b81526004016104949061362a565b600260075414156106155760405162461bcd60e51b81526004016104949061366e565b600260075582516000906106329085016020908101908601613b83565b905060008160800151876106469190613bd4565b905061065988828460400151600061101d565b7f83fb878bc850fecc32634e2924a47daa8db823de1e2eb33084be9fd29f22c24582600001516000838b8660800151600260405161069c969594939291906138ae565b60405180910390a16001925050505b60016007559695505050505050565b6000546001600160a01b031633146106e45760405162461bcd60e51b81526004016104949061393a565b600880546001600160a01b0319166001600160a01b0383161790556040517fb878cd71628ac64b2df1872301925e01164824535b02e8601077749eeeb88c3d906105ba9083906130c8565b6000546001600160a01b031633146107595760405162461bcd60e51b81526004016104949061393a565b61076483838361114d565b7f5e20184b00709d9f103306958e9fb9d509f78bec1829ca7080f2c43eb2ff21a883838360405161079793929190613bfb565b60405180910390a1505050565b6000546001600160a01b031633146107ce5760405162461bcd60e51b81526004016104949061393a565b600580546001600160a01b038381166001600160a01b03198316179092556040519116907f2d025324f0a785e8c12d0a0d91a9caa49df4ef20ff87e0df7213a1d4f3157beb906108219083908590613c23565b60405180910390a15050565b6000546001600160a01b031633146108575760405162461bcd60e51b81526004016104949061393a565b61086160006111e4565b565b6001546000906001600160a01b031633146108905760405162461bcd60e51b81526004016104949061362a565b600260075414156108b35760405162461bcd60e51b81526004016104949061366e565b600260075582516000906108d09085016020908101908601613b83565b90508060800151861015610933576080810186905280516040517f83fb878bc850fecc32634e2924a47daa8db823de1e2eb33084be9fd29f22c245916109219160009081908c908c90600190613c3e565b60405180910390a160019150506106ab565b60808101516109429087613bd4565b955060608101516020820151518891908890600090156109bc576060600061096d8760200151611234565b90985093509150506001600160a01b03808216908e16146109a05760405162461bcd60e51b815260040161049490613c9a565b6109b48760200151838e8a60a00151611462565b909450925050505b80156109d3576109d38b828760400151600061101d565b6109e3848387604001518661101d565b7f83fb878bc850fecc32634e2924a47daa8db823de1e2eb33084be9fd29f22c245856000015183838e89608001516001604051610a2596959493929190613caa565b60405180910390a160019550505050505060016007559695505050505050565b60038181548110610a5557600080fd5b6000918252602090912001546001600160a01b0316905081565b6001546000906001600160a01b03163314610a9c5760405162461bcd60e51b81526004016104949061362a565b95945050505050565b6000546001600160a01b03163314610acf5760405162461bcd60e51b81526004016104949061393a565b600680546001600160a01b038381166001600160a01b03198316179092556040519116907f5d16ad41baeb009cd23eb8f6c7cde5c2e0cd5acf4a33926ab488875c37c37f38906108219083908590613c23565b6000546001600160a01b03163314610b4c5760405162461bcd60e51b81526004016104949061393a565b60008383604051610b5e929190613cd8565b60405180910390209050610bdf81836001600160e01b0319909116600090815260026020526040812080546001600160a01b039093166001600160a01b031993841681179091556003805460018101825592527fc2575a0e9e593c00f959f8c92f12db2869c3395a3b0502d05e2516446f71f85b9091018054909216179055565b7f58ddcdb40971f55ad1b6a8a28067274a4ffc7e9d77c3ea14a17652faa705e1978183604051610c10929190613ce5565b60405180910390a150505050565b60026007541415610c415760405162461bcd60e51b81526004016104949061366e565b600260075582151580610c77575067ffffffffffffffff4616610c6a6040870160208801613cf3565b67ffffffffffffffff1614155b610c935760405162461bcd60e51b815260040161049490613d2e565b82151580610ccb575061014085013515801590610ccb57506000610cbf610180870161016088016130d6565b6001600160a01b031614155b610ce75760405162461bcd60e51b815260040161049490613d2e565b6101408501356000610d01610180880161016089016130d6565b90506000610d1761018089016101608a016130d6565b905060608615610d7f57610d33610d2e888a613d3e565b611234565b92965090945092509050610d4f6101808a016101608b016130d6565b6001600160a01b0316836001600160a01b031614610d7f5760405162461bcd60e51b815260040161049490613c9a565b610d8f60c08a0160a08b01613d4b565b15610e4f576008546001600160a01b03848116911614610dc15760405162461bcd60e51b815260040161049490613da0565b83341015610de15760405162461bcd60e51b815260040161049490613de4565b600860009054906101000a90046001600160a01b03166001600160a01b031663d0e30db0856040518263ffffffff1660e01b81526004016000604051808303818588803b158015610e3157600080fd5b505af1158015610e45573d6000803e3d6000fd5b5050505050610e64565b610e646001600160a01b0384163330876117a5565b610e8f8a858585610e758c8e613d3e565b610e7f8b8d613d3e565b8f610e8990613f86565b88611812565b505060016007555050505050505050565b6006546001600160a01b03163314610eca5760405162461bcd60e51b815260040161049490613fc6565b60005b82811015610fbb576000848483818110610ee957610ee9613fd6565b9050602002016020810190610efe91906130d6565b6001600160a01b03166370a08231306040518263ffffffff1660e01b8152600401610f2991906130c8565b602060405180830381865afa158015610f46573d6000803e3d6000fd5b505050506040513d601f19601f82011682018060405250810190610f6a9190613fec565b9050610fa88382878786818110610f8357610f83613fd6565b9050602002016020810190610f9891906130d6565b6001600160a01b0316919061196a565b5080610fb38161400d565b915050610ecd565b50505050565b6000546001600160a01b03163314610feb5760405162461bcd60e51b81526004016104949061393a565b6001600160a01b0381166110115760405162461bcd60e51b815260040161049490614085565b61101a816111e4565b50565b8015611139576008546001600160a01b038581169116146110505760405162461bcd60e51b8152600401610494906140c9565b600854604051632e1a7d4d60e01b81526001600160a01b0390911690632e1a7d4d906110809086906004016140d9565b600060405180830381600087803b15801561109a57600080fd5b505af11580156110ae573d6000803e3d6000fd5b505050506000826001600160a01b03168461c350906040516110cf906140e7565b600060405180830381858888f193505050503d806000811461110d576040519150601f19603f3d011682016040523d82523d6000602084013e611112565b606091505b50509050806111335760405162461bcd60e51b815260040161049490614126565b50610fbb565b610fbb6001600160a01b038516838561196a565b6001600160a01b03831660009081526004602090815260408083206001600160e01b03198616845290915290205460ff1680151582151514156111a25760405162461bcd60e51b815260040161049490613d2e565b506001600160a01b0390921660009081526004602090815260408083206001600160e01b0319909416835292905220805491151560ff19909216919091179055565b600080546001600160a01b038381166001600160a01b0319831681178455604051919092169283917f8be0079c531659141344cd1fd0a4f28419497f9722a3daafe3b4186f6b6457e09190a35050565b600080600060606000806112478761198e565b925060005b8751811015611458576004600089838151811061126b5761126b613fd6565b6020026020010151600001516001600160a01b03166001600160a01b0316815260200190815260200160002060008983815181106112ab576112ab613fd6565b6020026020010151602001516112c09061414a565b6001600160e01b031916815260208101919091526040016000205460ff166112fa5760405162461bcd60e51b8152600401610494906141c3565b600080600086848151811061131157611311613fd6565b60200260200101516001600160a01b031663358f0e1c8c868151811061133957611339613fd6565b60200260200101516040518263ffffffff1660e01b815260040161135d9190614231565b606060405180830381865afa15801561137a573d6000803e3d6000fd5b505050506040513d601f19601f8201168201806040525081019061139e9190614242565b919450925090506001600160a01b03861615806113cc5750816001600160a01b0316866001600160a01b0316145b6113e85760405162461bcd60e51b8152600401610494906142bc565b90945084906001600160a01b03851615806114145750806001600160a01b0316856001600160a01b0316145b6114305760405162461bcd60e51b815260040161049490614300565b93508361143d838b614310565b995090975095508190506114508161400d565b91505061124c565b5050509193509193565b600080600080600061147589888a611ace565b9250925092506000816001600160a01b03166370a08231306040518263ffffffff1660e01b81526004016114a991906130c8565b602060405180830381865afa1580156114c6573d6000803e3d6000fd5b505050506040513d601f19601f820116820180604052508101906114ea9190613fec565b905060005b8a518110156116f85760008a828151811061150c5761150c613fd6565b60200260200101516001600160a01b0316634c6da2698d848151811061153457611534613fd6565b60200260200101516020015188858151811061155257611552613fd6565b6020026020010151306040518463ffffffff1660e01b815260040161157993929190614328565b600060405180830381865afa158015611596573d6000803e3d6000fd5b505050506040513d6000823e601f3d908101601f191682016040526115be9190810190614355565b90506116148c83815181106115d5576115d5613fd6565b6020026020010151600001518784815181106115f3576115f3613fd6565b6020026020010151876001600160a01b0316611c839092919063ffffffff16565b60008c838151811061162857611628613fd6565b6020026020010151600001516001600160a01b03168260405161164b91906143b2565b6000604051808303816000865af19150503d8060008114611688576040519150601f19603f3d011682016040523d82523d6000602084013e61168d565b606091505b50509050808061169a5750895b6116b65760405162461bcd60e51b8152600401610494906143f2565b806116e3578683815181106116cd576116cd613fd6565b6020026020010151886116e09190614310565b97505b505080806116f09061400d565b9150506114ef565b506040516370a0823160e01b81526000906001600160a01b038416906370a08231906117289030906004016130c8565b602060405180830381865afa158015611745573d6000803e3d6000fd5b505050506040513d601f19601f820116820180604052508101906117699190613fec565b90506117758282613bd4565b9650600087116117975760405162461bcd60e51b815260040161049490614436565b505050505094509492505050565b610fbb846323b872dd60e01b8585856040516024016117c693929190614446565b60408051601f198184030181529190526020810180517bffffffffffffffffffffffffffffffffffffffffffffffffffffffff166001600160e01b031990931692909217909152611d20565b835187901561184a5760006118278684611daf565b92509050806118485760405162461bcd60e51b8152600401610494906144a2565b505b600061185e846000015185608001516120f9565b90504667ffffffffffffffff16846020015167ffffffffffffffff1614156118da577f0e248ac8be20725176a5f0ab093c5fbb964634d4675012f3d3ad66e69e56d5b7818a8a858b6040516118b79594939291906144b2565b60405180910390a16118d3878386600001518760c0015161101d565b5050611960565b6118e5848a8a612131565b60a08401513490156118fe576118fb8a34613bd4565b90505b600061190f838d888a888e886121ba565b90507f958488e5972a6160a144bf2f2c48a92fca44afb5403c6be746904dbdf01cf549838288602001518e8e8b61018001516040516119539695949392919061450e565b60405180910390a1505050505b5050505050505050565b6119898363a9059cbb60e01b84846040516024016117c692919061455d565b505050565b60606000825167ffffffffffffffff8111156119ac576119ac613112565b6040519080825280602002602001820160405280156119d5578160200160208202803683370190505b50905060005b8351811015611ac75760008482815181106119f8576119f8613fd6565b602002602001015160200151611a0d9061414a565b6001600160e01b0319811660009081526002602052604090205484519192506001600160a01b031690849084908110611a4857611a48613fd6565b60200260200101906001600160a01b031690816001600160a01b03168152505060006001600160a01b0316838381518110611a8557611a85613fd6565b60200260200101516001600160a01b03161415611ab45760405162461bcd60e51b8152600401610494906145ac565b5080611abf8161400d565b9150506119db565b5092915050565b60606000806000865167ffffffffffffffff811115611aef57611aef613112565b604051908082528060200260200182016040528015611b18578160200160208202803683370190505b50935060005b8751811015611c0c576000868281518110611b3b57611b3b613fd6565b60200260200101516001600160a01b031663358f0e1c8a8481518110611b6357611b63613fd6565b60200260200101516040518263ffffffff1660e01b8152600401611b879190614231565b606060405180830381865afa158015611ba4573d6000803e3d6000fd5b505050506040513d601f19601f82011682018060405250810190611bc89190614242565b90965094509050611bd98184614310565b925080868381518110611bee57611bee613fd6565b60209081029190910101525080611c048161400d565b915050611b1e565b5060005b8451811015611c785781858281518110611c2c57611c2c613fd6565b602002602001015188611c3f91906145bc565b611c4991906145f1565b858281518110611c5b57611c5b613fd6565b602090810291909101015280611c708161400d565b915050611c10565b505093509350939050565b600081846001600160a01b031663dd62ed3e30866040518363ffffffff1660e01b8152600401611cb4929190613c23565b602060405180830381865afa158015611cd1573d6000803e3d6000fd5b505050506040513d601f19601f82011682018060405250810190611cf59190613fec565b611cff9190614310565b9050610fbb8463095ea7b360e01b85846040516024016117c692919061455d565b6000611d75826040518060400160405280602081526020017f5361666545524332303a206c6f772d6c6576656c2063616c6c206661696c6564815250856001600160a01b03166122549092919063ffffffff16565b8051909150156119895780806020019051810190611d939190614605565b6119895760405162461bcd60e51b815260040161049490614680565b60008060005b84518110156120f0576000806000868481518110611dd557611dd5613fd6565b60200260200101516001600160a01b031663358f0e1c898681518110611dfd57611dfd613fd6565b60200260200101516040518263ffffffff1660e01b8152600401611e219190614231565b606060405180830381865afa158015611e3e573d6000803e3d6000fd5b505050506040513d601f19601f82011682018060405250810190611e629190614242565b9250925092506000878581518110611e7c57611e7c613fd6565b60200260200101516001600160a01b0316634c6da2698a8781518110611ea457611ea4613fd6565b60200260200101516020015186306040518463ffffffff1660e01b8152600401611ed093929190614328565b600060405180830381865afa158015611eed573d6000803e3d6000fd5b505050506040513d6000823e601f3d908101601f19168201604052611f159190810190614355565b9050611f49898681518110611f2c57611f2c613fd6565b6020908102919091010151516001600160a01b0385169086611c83565b6040516370a0823160e01b81526000906001600160a01b038416906370a0823190611f789030906004016130c8565b602060405180830381865afa158015611f95573d6000803e3d6000fd5b505050506040513d601f19601f82011682018060405250810190611fb99190613fec565b9050898681518110611fcd57611fcd613fd6565b6020026020010151600001516001600160a01b031682604051611ff091906143b2565b6000604051808303816000865af19150503d806000811461202d576040519150601f19603f3d011682016040523d82523d6000602084013e612032565b606091505b5050809850508761204f57600080975097505050505050506120f2565b6040516370a0823160e01b81526000906001600160a01b038516906370a082319061207e9030906004016130c8565b602060405180830381865afa15801561209b573d6000803e3d6000fd5b505050506040513d601f19601f820116820180604052508101906120bf9190613fec565b90506120cb8282613bd4565b6120d59089614310565b975050505050505080806120e89061400d565b915050611db5565b505b9250929050565b60003383468460405160200161211294939291906146d7565b6040516020818303038152906040528051906020012090505b92915050565b600046846020015184848761010001518860e0015160405160200161215b9695949392919061471f565b604051602081830303815290604052805190602001209050600061217e8261226d565b905061218f8186610120015161229d565b42856101000151116121b35760405162461bcd60e51b8152600401610494906147e3565b5050505050565b6000806121c88988886122d9565b865190915015612210576122098885878a602001518b608001518c60400151878e60600151600160009054906101000a90046001600160a01b03168c61234e565b9150612248565b86516020880151608089015160408a015160608b015160015461224495948a948c94919390926001600160a01b03166123e0565b5091505b50979650505050505050565b60606122638484600085612a3c565b90505b9392505050565b60008160405160200161228091906147f3565b604051602081830303815290604052805190602001209050919050565b60006122a98383612b00565b6005549091506001600160a01b038083169116146119895760405162461bcd60e51b815260040161049490614862565b60606040518060c0016040528085815260200183815260200184600001516001600160a01b031681526020018460c00151151581526020018460e001518152602001846101a001511515815250604051602001612336919061495e565b60405160208183030381529060405290509392505050565b60008060006123638d8d8d8d8d8d8c8c6123e0565b91509150846001600160a01b0316634289fbb3858f8d85878d6040518763ffffffff1660e01b815260040161239c95949392919061498e565b6000604051808303818588803b1580156123b557600080fd5b505af11580156123c9573d6000803e3d6000fd5b5094955050505050509a9950505050505050505050565b60008060018460068111156123f7576123f7613062565b14156124f157826001600160a01b03166382980dc46040518163ffffffff1660e01b8152600401602060405180830381865afa15801561243b573d6000803e3d6000fd5b505050506040513d601f19601f8201168201806040525081019061245f91906149d5565b90506124756001600160a01b038a16828a611c83565b60405163a5977fbb60e01b81526001600160a01b0382169063a5977fbb906124ab908d908d908d908d908d908d90600401614a02565b600060405180830381600087803b1580156124c557600080fd5b505af11580156124d9573d6000803e3d6000fd5b505050506124ea8a8a8a8a8a612b24565b9150612a2f565b600284600681111561250557612505613062565b14156125f657826001600160a01b031663d8257d176040518163ffffffff1660e01b8152600401602060405180830381865afa158015612549573d6000803e3d6000fd5b505050506040513d601f19601f8201168201806040525081019061256d91906149d5565b90506125836001600160a01b038a16828a611c83565b806001600160a01b031663234636248a8a8a8e8b6040518663ffffffff1660e01b81526004016125b7959493929190614a51565b600060405180830381600087803b1580156125d157600080fd5b505af11580156125e5573d6000803e3d6000fd5b505050506124ea8a8a8a8a8a612b64565b600384600681111561260a5761260a613062565b141561270e57826001600160a01b031663dfa2dbaf6040518163ffffffff1660e01b8152600401602060405180830381865afa15801561264e573d6000803e3d6000fd5b505050506040513d601f19601f8201168201806040525081019061267291906149d5565b90506126886001600160a01b038a16828a611c83565b604051636f3c863f60e11b81526001600160a01b0382169063de790c7e906126ba908c908c908f908c90600401614a93565b600060405180830381600087803b1580156126d457600080fd5b505af11580156126e8573d6000803e3d6000fd5b50612702925050506001600160a01b038a16826000612b83565b6124ea8a8a8a89612c37565b600484600681111561272257612722613062565b141561282557826001600160a01b031663c66a9c5a6040518163ffffffff1660e01b8152600401602060405180830381865afa158015612766573d6000803e3d6000fd5b505050506040513d601f19601f8201168201806040525081019061278a91906149d5565b90506127a06001600160a01b038a16828a611c83565b806001600160a01b031663234636248a8a8a8e8b6040518663ffffffff1660e01b81526004016127d4959493929190614a51565b6020604051808303816000875af11580156127f3573d6000803e3d6000fd5b505050506040513d601f19601f820116820180604052508101906128179190613fec565b506124ea8a8a8a8a8a612c74565b600584600681111561283957612839613062565b141561295157826001600160a01b03166395b12c276040518163ffffffff1660e01b8152600401602060405180830381865afa15801561287d573d6000803e3d6000fd5b505050506040513d601f19601f820116820180604052508101906128a191906149d5565b90506128b76001600160a01b038a16828a611c83565b806001600160a01b031663a00293018a8a8a8e8b6040518663ffffffff1660e01b81526004016128eb959493929190614a51565b6020604051808303816000875af115801561290a573d6000803e3d6000fd5b505050506040513d601f19601f8201168201806040525081019061292e9190613fec565b506129446001600160a01b038a16826000612b83565b6124ea8a8a8a8a8a612c74565b600684600681111561296557612965613062565b1415612a1757826001600160a01b03166395b12c276040518163ffffffff1660e01b8152600401602060405180830381865afa1580156129a9573d6000803e3d6000fd5b505050506040513d601f19601f820116820180604052508101906129cd91906149d5565b90506129e36001600160a01b038a16828a611c83565b806001600160a01b0316639e422c338a8a8a8e8b6040518663ffffffff1660e01b81526004016128eb959493929190614a51565b60405162461bcd60e51b815260040161049490614afc565b9850989650505050505050565b606082471015612a5e5760405162461bcd60e51b815260040161049490614b66565b6001600160a01b0385163b612a855760405162461bcd60e51b815260040161049490614baa565b600080866001600160a01b03168587604051612aa191906143b2565b60006040518083038185875af1925050503d8060008114612ade576040519150601f19603f3d011682016040523d82523d6000602084013e612ae3565b606091505b5091509150612af3828286612c95565b925050505b949350505050565b6000806000612b0f8585612cce565b91509150612b1c81612d3b565b509392505050565b600030868686868646604051602001612b439796959493929190614bba565b60405160208183030381529060405280519060200120905095945050505050565b600030858585898646604051602001612b439796959493929190614c35565b801580612bfc5750604051636eb1769f60e11b81526001600160a01b0384169063dd62ed3e90612bb99030908690600401613c23565b602060405180830381865afa158015612bd6573d6000803e3d6000fd5b505050506040513d601f19601f82011682018060405250810190612bfa9190613fec565b155b612c185760405162461bcd60e51b815260040161049490614ceb565b6119898363095ea7b360e01b84846040516024016117c692919061455d565b6000308484878546604051602001612c5496959493929190614cfb565b604051602081830303815290604052805190602001209050949350505050565b60003385858589864630604051602001612b43989796959493929190614d65565b60608315612ca4575081612266565b825115612cb45782518084602001fd5b8160405162461bcd60e51b81526004016104949190614df1565b600080825160411415612d055760208301516040840151606085015160001a612cf987828585612e20565b945094505050506120f2565b825160401415612d2f5760208301516040840151612d24868383612f00565b9350935050506120f2565b506000905060026120f2565b6000816004811115612d4f57612d4f613062565b1415612d585750565b6001816004811115612d6c57612d6c613062565b1415612d8a5760405162461bcd60e51b815260040161049490614e36565b6002816004811115612d9e57612d9e613062565b1415612dbc5760405162461bcd60e51b815260040161049490614e7a565b6003816004811115612dd057612dd0613062565b1415612dee5760405162461bcd60e51b815260040161049490614ec9565b6004816004811115612e0257612e02613062565b141561101a5760405162461bcd60e51b815260040161049490614f18565b6000807f7fffffffffffffffffffffffffffffff5d576e7357a4501ddfe92f46681b20a0831115612e575750600090506003612ef7565b8460ff16601b14158015612e6f57508460ff16601c14155b15612e805750600090506004612ef7565b600060018787878760405160008152602001604052604051612ea59493929190614f31565b6020604051602081039080840390855afa158015612ec7573d6000803e3d6000fd5b5050604051601f1901519150506001600160a01b038116612ef057600060019250925050612ef7565b9150600090505b94509492505050565b6000807f7fffffffffffffffffffffffffffffffffffffffffffffffffffffffffffffff831681612f3660ff86901c601b614310565b9050612f4487828885612e20565b935093505050935093915050565b60006001600160a01b03821661212b565b612f6c81612f52565b811461101a57600080fd5b803561212b81612f63565b80612f6c565b803561212b81612f82565b60008083601f840112612fa857612fa8600080fd5b50813567ffffffffffffffff811115612fc357612fc3600080fd5b6020830191508360018202830111156120f2576120f2600080fd5b600080600080600060808688031215612ff957612ff9600080fd5b60006130058888612f77565b955050602061301688828901612f88565b945050604086013567ffffffffffffffff81111561303657613036600080fd5b61304288828901612f93565b9350935050606061305588828901612f77565b9150509295509295909350565b634e487b7160e01b600052602160045260246000fd5b6003811061101a5761101a613062565b8061309281613078565b919050565b600061212b82613088565b6130ab81613097565b82525050565b6020810161212b82846130a2565b6130ab81612f52565b6020810161212b82846130bf565b6000602082840312156130eb576130eb600080fd5b6000612af88484612f77565b67ffffffffffffffff8116612f6c565b803561212b816130f7565b634e487b7160e01b600052604160045260246000fd5b601f19601f830116810181811067ffffffffffffffff8211171561314e5761314e613112565b6040525050565b600061316060405190565b90506130928282613128565b600067ffffffffffffffff82111561318657613186613112565b601f19601f83011660200192915050565b82818337506000910152565b60006131b66131b18461316c565b613155565b9050828152602081018484840111156131d1576131d1600080fd5b612b1c848285613197565b600082601f8301126131f0576131f0600080fd5b8135612af88482602086016131a3565b60008060008060008060c0878903121561321c5761321c600080fd5b60006132288989612f77565b965050602061323989828a01612f77565b955050604061324a89828a01612f88565b945050606061325b89828a01613107565b935050608087013567ffffffffffffffff81111561327b5761327b600080fd5b61328789828a016131dc565b92505060a061329889828a01612f77565b9150509295509295509295565b6001600160e01b03198116612f6c565b803561212b816132a5565b801515612f6c565b803561212b816132c0565b6000806000606084860312156132eb576132eb600080fd5b60006132f78686612f77565b9350506020613308868287016132b5565b9250506040613319868287016132c8565b9150509250925092565b60006020828403121561333857613338600080fd5b6000612af88484612f88565b6000806040838503121561335a5761335a600080fd5b60006133668585612f77565b9250506020613377858286016132b5565b9150509250929050565b8015156130ab565b6020810161212b8284613381565b6000806000806000608086880312156133b2576133b2600080fd5b60006133be8888612f77565b955050602061301688828901613107565b6000806000604084860312156133e7576133e7600080fd5b833567ffffffffffffffff81111561340157613401600080fd5b61340d86828701612f93565b9350935050602061331986828701612f77565b60006101c0828403121561343657613436600080fd5b50919050565b60008083601f84011261345157613451600080fd5b50813567ffffffffffffffff81111561346c5761346c600080fd5b6020830191508360208202830111156120f2576120f2600080fd5b600080600080600080608087890312156134a3576134a3600080fd5b60006134af8989612f77565b965050602087013567ffffffffffffffff8111156134cf576134cf600080fd5b6134db89828a01613420565b955050604087013567ffffffffffffffff8111156134fb576134fb600080fd5b61350789828a0161343c565b9450945050606087013567ffffffffffffffff81111561352957613529600080fd5b61353589828a0161343c565b92509250509295509295509295565b60008060006040848603121561355c5761355c600080fd5b833567ffffffffffffffff81111561357657613576600080fd5b61340d8682870161343c565b60006020828403121561359757613597600080fd5b6000612af884846132b5565b600061212b6001600160a01b0383166135ba565b90565b6001600160a01b031690565b600061212b826135a3565b600061212b826135c6565b6130ab816135d1565b6020810161212b82846135dc565b601981526000602082017f63616c6c6572206973206e6f74206d6573736167652062757300000000000000815291505b5060200190565b6020808252810161212b816135f3565b601f81526000602082017f5265656e7472616e637947756172643a207265656e7472616e742063616c6c0081529150613623565b6020808252810161212b8161363a565b600067ffffffffffffffff82111561369857613698613112565b5060209081020190565b6000604082840312156136b7576136b7600080fd5b6136c16040613155565b905060006136cf8484612f77565b825250602082013567ffffffffffffffff8111156136ef576136ef600080fd5b6136fb848285016131dc565b60208301525092915050565b60006137156131b18461367e565b8381529050602080820190840283018581111561373457613734600080fd5b835b8181101561377557803567ffffffffffffffff81111561375857613758600080fd5b80860161376589826136a2565b8552505060209283019201613736565b5050509392505050565b600082601f83011261379357613793600080fd5b8135612af8848260208601613707565b600060c082840312156137b8576137b8600080fd5b6137c260c0613155565b905060006137d08484612f88565b825250602082013567ffffffffffffffff8111156137f0576137f0600080fd5b6137fc8482850161377f565b602083015250604061381084828501612f77565b6040830152506060613824848285016132c8565b606083015250608061383884828501612f88565b60808301525060a061384c848285016132c8565b60a08301525092915050565b60006020828403121561386d5761386d600080fd5b813567ffffffffffffffff81111561388757613887600080fd5b612af8848285016137a3565b806130ab565b600061212b6135b78381565b6130ab81613899565b60c081016138bc8289613893565b6138c960208301886138a5565b6138d66040830187613893565b6138e360608301866130bf565b6138f06080830185613893565b6138fd60a08301846130a2565b979650505050505050565b60208082527f4f776e61626c653a2063616c6c6572206973206e6f7420746865206f776e657291019081526000613623565b6020808252810161212b81613908565b805161212b81612f82565b805161212b81612f63565b60005b8381101561397b578181015183820152602001613963565b83811115610fbb5750506000910152565b600061399a6131b18461316c565b9050828152602081018484840111156139b5576139b5600080fd5b612b1c848285613960565b600082601f8301126139d4576139d4600080fd5b8151612af884826020860161398c565b6000604082840312156139f9576139f9600080fd5b613a036040613155565b90506000613a118484613955565b825250602082015167ffffffffffffffff811115613a3157613a31600080fd5b6136fb848285016139c0565b6000613a4b6131b18461367e565b83815290506020808201908402830185811115613a6a57613a6a600080fd5b835b8181101561377557805167ffffffffffffffff811115613a8e57613a8e600080fd5b808601613a9b89826139e4565b8552505060209283019201613a6c565b600082601f830112613abf57613abf600080fd5b8151612af8848260208601613a3d565b805161212b816132c0565b600060c08284031215613aef57613aef600080fd5b613af960c0613155565b90506000613b07848461394a565b825250602082015167ffffffffffffffff811115613b2757613b27600080fd5b613b3384828501613aab565b6020830152506040613b4784828501613955565b6040830152506060613b5b84828501613acf565b6060830152506080613b6f8482850161394a565b60808301525060a061384c84828501613acf565b600060208284031215613b9857613b98600080fd5b815167ffffffffffffffff811115613bb257613bb2600080fd5b612af884828501613ada565b634e487b7160e01b600052601160045260246000fd5b600082821015613be657613be6613bbe565b500390565b6001600160e01b031981166130ab565b60608101613c0982866130bf565b613c166020830185613beb565b612af86040830184613381565b60408101613c3182856130bf565b61226660208301846130bf565b60c08101613c4c8289613893565b613c5960208301886138a5565b6138d660408301876138a5565b600781526000602082017f746b696e206d6d0000000000000000000000000000000000000000000000000081529150613623565b6020808252810161212b81613c66565b60c08101613cb88289613893565b6138c96020830188613893565b6000613cd2838584613197565b50500190565b6000612af8828486613cc5565b60408101613c318285613beb565b600060208284031215613d0857613d08600080fd5b6000612af88484613107565b600381526000602082016206e6f760ec1b81529150613623565b6020808252810161212b81613d14565b6000612266368484613707565b600060208284031215613d6057613d60600080fd5b6000612af884846132c8565b601281526000602082017f746b696e206e6f206e617469766557726170000000000000000000000000000081529150613623565b6020808252810161212b81613d6c565b600b81526000602082017f696e7366636e7420616d7400000000000000000000000000000000000000000081529150613623565b6020808252810161212b81613db0565b63ffffffff8116612f6c565b803561212b81613df4565b6007811061101a57600080fd5b803561212b81613e0b565b60006101c08284031215613e3957613e39600080fd5b613e446101c0613155565b90506000613e528484612f77565b8252506020613e6384848301613107565b6020830152506040613e7784828501613e00565b6040830152506060613e8b84828501613e18565b6060830152506080613e9f84828501613107565b60808301525060a0613eb3848285016132c8565b60a08301525060c0613ec7848285016132c8565b60c08301525060e0613edb84828501612f88565b60e083015250610100613ef084828501612f88565b6101008301525061012082013567ffffffffffffffff811115613f1557613f15600080fd5b613f21848285016131dc565b61012083015250610140613f3784828501612f88565b61014083015250610160613f4d84828501612f77565b61016083015250610180613f6384828501612f77565b610180830152506101a0613f79848285016132c8565b6101a08301525092915050565b600061212b3683613e23565b601181526000602082017f6e6f742066656520636f6c6c6563746f7200000000000000000000000000000081529150613623565b6020808252810161212b81613f92565b634e487b7160e01b600052603260045260246000fd5b60006020828403121561400157614001600080fd5b6000612af8848461394a565b600060001982141561402157614021613bbe565b5060010190565b602681526000602082017f4f776e61626c653a206e6577206f776e657220697320746865207a65726f206181527f6464726573730000000000000000000000000000000000000000000000000000602082015291505b5060400190565b6020808252810161212b81614028565b600c81526000602082017f746b206e6f206e6174697665000000000000000000000000000000000000000081529150613623565b6020808252810161212b81614095565b6020810161212b8284613893565b600061212b826135b7565b600981526000602082017f73656e64206661696c000000000000000000000000000000000000000000000081529150613623565b6020808252810161212b816140f2565b600061212b82516001600160e01b03191690565b6000614154825190565b6020830161416181614136565b92506004821015614188576141836001600160e01b0319836004036008021b90565b831692505b5050919050565b600f81526000602082017f756e737570706f7274656420646578000000000000000000000000000000000081529150613623565b6020808252810161212b8161418f565b60006141dd825190565b8084526020840193506141f4818560208601613960565b601f01601f19169290920192915050565b8051600090604084019061421985826130bf565b5060208301518482036020860152610a9c82826141d3565b602080825281016122668184614205565b60008060006060848603121561425a5761425a600080fd5b6000614266868661394a565b935050602061427786828701613955565b925050604061331986828701613955565b600d81526000602082017f746b696e206d69736d617463680000000000000000000000000000000000000081529150613623565b6020808252810161212b81614288565b600c81526000602082017f746b6f206d69736d61746368000000000000000000000000000000000000000081529150613623565b6020808252810161212b816142cc565b6000821982111561432357614323613bbe565b500190565b6060808252810161433981866141d3565b90506143486020830185613893565b612af860408301846130bf565b60006020828403121561436a5761436a600080fd5b815167ffffffffffffffff81111561438457614384600080fd5b612af8848285016139c0565b600061439a825190565b6143a8818560208601613960565b9290920192915050565b60006122668284614390565b600b81526000602082017f73776170206661696c656400000000000000000000000000000000000000000081529150613623565b6020808252810161212b816143be565b601081526000602082017f616c6c207377617073206661696c65640000000000000000000000000000000081529150613623565b6020808252810161212b81614402565b6060810161445482866130bf565b61446160208301856130bf565b612af86040830184613893565b600981526000602082017f73776170206661696c000000000000000000000000000000000000000000000081529150613623565b6020808252810161212b8161446e565b60a081016144c08288613893565b6144cd6020830187613893565b6144da60408301866130bf565b6144e76060830185613893565b6144f460808301846130bf565b9695505050505050565b67ffffffffffffffff81166130ab565b60c0810161451c8289613893565b6145296020830188613893565b61453660408301876144fe565b6145436060830186613893565b61455060808301856130bf565b6138fd60a08301846130bf565b6040810161456b82856130bf565b6122666020830184613893565b600c81526000602082017f636463206e6f20666f756e64000000000000000000000000000000000000000081529150613623565b6020808252810161212b81614578565b60008160001904831182151516156145d6576145d6613bbe565b500290565b634e487b7160e01b600052601260045260246000fd5b600082614600576146006145db565b500490565b60006020828403121561461a5761461a600080fd5b6000612af88484613acf565b602a81526000602082017f5361666545524332303a204552433230206f7065726174696f6e20646964206e81527f6f742073756363656564000000000000000000000000000000000000000000006020820152915061407e565b6020808252810161212b81614626565b600061212b8260601b90565b600061212b82614690565b6130ab6146b382612f52565b61469c565b600061212b8260c01b90565b6130ab67ffffffffffffffff82166146b8565b60006146e382876146a7565b6014820191506146f382866146a7565b60148201915061470382856146c4565b60088201915061471382846146c4565b50600801949350505050565b7f6578656375746f722066656500000000000000000000000000000000000000008152600c01600061475182896146c4565b60088201915061476182886146c4565b6008820191506147718287613893565b60208201915061478182866146a7565b6014820191506147918285613893565b6020820191506147a18284613893565b506020019695505050505050565b601181526000602082017f646561646c696e6520657863656564656400000000000000000000000000000081529150613623565b6020808252810161212b816147af565b7f19457468657265756d205369676e6564204d6573736167653a0a3332000000008152601c0160006148258284613893565b50602001919050565b600e81526000602082017f696e76616c6964207369676e657200000000000000000000000000000000000081529150613623565b6020808252810161212b8161482e565b60006122668383614205565b6000614888825190565b808452602084019350836020820285016148a28560200190565b8060005b858110156148d757848403895281516148bf8582614872565b94506020830160209a909a01999250506001016148a6565b5091979650505050505050565b805160009060c08401906148f88582613893565b5060208301518482036020860152614910828261487e565b915050604083015161492560408601826130bf565b5060608301516149386060860182613381565b50608083015161494b6080860182613893565b5060a0830151612b1c60a0860182613381565b6020808252810161226681846148e4565b600061212b6135b767ffffffffffffffff841681565b6130ab8161496f565b60a0810161499c82886130bf565b6149a96020830187614985565b6149b660408301866130bf565b6149c36060830185613893565b81810360808301526138fd81846141d3565b6000602082840312156149ea576149ea600080fd5b6000612af88484613955565b63ffffffff81166130ab565b60c08101614a1082896130bf565b614a1d60208301886130bf565b614a2a6040830187613893565b614a3760608301866144fe565b614a4460808301856144fe565b6138fd60a08301846149f6565b60a08101614a5f82886130bf565b614a6c6020830187613893565b614a7960408301866144fe565b614a8660608301856130bf565b6144f460808301846144fe565b60808101614aa182876130bf565b614aae6020830186613893565b614abb60408301856130bf565b610a9c60608301846144fe565b601981526000602082017f6272696467652074797065206e6f7420737570706f727465640000000000000081529150613623565b6020808252810161212b81614ac8565b602681526000602082017f416464726573733a20696e73756666696369656e742062616c616e636520666f81527f722063616c6c00000000000000000000000000000000000000000000000000006020820152915061407e565b6020808252810161212b81614b0c565b601d81526000602082017f416464726573733a2063616c6c20746f206e6f6e2d636f6e747261637400000081529150613623565b6020808252810161212b81614b76565b6000614bc6828a6146a7565b601482019150614bd682896146a7565b601482019150614be682886146a7565b601482019150614bf68287613893565b602082019150614c0682866146c4565b600882019150614c1682856146c4565b600882019150614c2682846146c4565b50600801979650505050505050565b6000614c41828a6146a7565b601482019150614c5182896146a7565b601482019150614c618288613893565b602082019150614c7182876146c4565b600882019150614c8182866146a7565b601482019150614c1682856146c4565b603681526000602082017f5361666545524332303a20617070726f76652066726f6d206e6f6e2d7a65726f81527f20746f206e6f6e2d7a65726f20616c6c6f77616e6365000000000000000000006020820152915061407e565b6020808252810161212b81614c91565b6000614d0782896146a7565b601482019150614d1782886146a7565b601482019150614d278287613893565b602082019150614d3782866146a7565b601482019150614d4782856146c4565b600882019150614d5782846146c4565b506008019695505050505050565b6000614d71828b6146a7565b601482019150614d81828a6146a7565b601482019150614d918289613893565b602082019150614da182886146c4565b600882019150614db182876146a7565b601482019150614dc182866146c4565b600882019150614dd182856146c4565b600882019150614de182846146a7565b5060140198975050505050505050565b6020808252810161226681846141d3565b601881526000602082017f45434453413a20696e76616c6964207369676e6174757265000000000000000081529150613623565b6020808252810161212b81614e02565b601f81526000602082017f45434453413a20696e76616c6964207369676e6174757265206c656e6774680081529150613623565b6020808252810161212b81614e46565b602281526000602082017f45434453413a20696e76616c6964207369676e6174757265202773272076616c815261756560f01b6020820152915061407e565b6020808252810161212b81614e8a565b602281526000602082017f45434453413a20696e76616c6964207369676e6174757265202776272076616c815261756560f01b6020820152915061407e565b6020808252810161212b81614ed9565b60ff81166130ab565b60808101614f3f8287613893565b614f4c6020830186614f28565b614f596040830185613893565b610a9c606083018461389356fea264697066735822122026c1f6608db35972d056300265c50a5e92eaa49b360670804bbc34b6632570c164736f6c634300080c0033",
  "devdoc": {
    "author": "Chainhop Dex TeamPadoriku",
    "events": {
      "DirectSwap(bytes32,uint256,address,uint256,address)": {
        "params": {
          "amountIn": "the input amount approved by the sender",
          "amountOut": "the output amount gained after swapping using the input tokens",
          "id": "see _computeId()",
          "tokenIn": "the input token approved by the sender",
          "tokenOut": "the output token gained after swapping using the input tokens"
        }
      },
      "RequestDone(bytes32,uint256,uint256,address,uint256,uint8)": {
        "details": "refundAmount may be fill by either a complete refund or when allowPartialFill is on and some swaps fails in the swap routes",
        "params": {
          "dstAmount": "the final output token (after bridging and swapping) desired by the sender",
          "feeCollected": "the fee chainhop deducts from bridge out token",
          "id": "see _computeId()",
          "refundAmount": "the amount refunded to the receiver in bridge token",
          "refundToken": "bridge out token",
          "status": "see RequestStatus"
        }
      },
      "RequestSent(bytes32,bytes32,uint64,uint256,address,address)": {
        "params": {
          "dstChainId": "destination chain id",
          "dstToken": "the final output token (after bridging and swapping) desired by the sender",
          "id": "see _computeId()",
          "srcAmount": "input amount approved by the sender",
          "srcToken": "the input token approved by the sender",
          "transferId": "the src transfer id produced by MessageSenderLib.sendMessageWithTransfer()"
        }
      }
    },
    "kind": "dev",
    "methods": {
      "executeMessage(address,uint64,bytes,address)": {
        "params": {
          "_executor": "Address who called the MessageBus execution function",
          "_message": "Arbitrary message bytes originated from and encoded by the source app contract",
          "_sender": "The address of the source app contract",
          "_srcChainId": "The source chain ID where the transfer is originated from"
        }
      },
      "executeMessageWithTransfer(address,address,uint256,uint64,bytes,address)": {
        "details": "If allowPartialFill is off, this function reverts as soon as one swap in swap routes failsThis function is called and is only callable by MessageBus. The transaction of such call is triggered by executor.",
        "params": {
          "_amount": "the amount of token received by this contract",
          "_token": "the token received by this contract"
        },
        "returns": {
          "_0": "ok whether the processing is successful"
        }
      },
      "executeMessageWithTransferFallback(address,address,uint256,uint64,bytes,address)": {
        "details": "Only called if executeMessageWithTransfer reverts",
        "params": {
          "_amount": "the amount of token received by this contract",
          "_token": "the token received by this contract"
        },
        "returns": {
          "_0": "ok whether the processing is successful"
        }
      },
      "executeMessageWithTransferRefund(address,uint256,bytes,address)": {
        "details": "only MessageBus can call this function, this requires the user to get sigs of the message from SGN",
        "params": {
          "_amount": "the amount of token received by this contract",
          "_token": "the token received by this contract"
        },
        "returns": {
          "_0": "ok whether the processing is successful"
        }
      },
      "owner()": {
        "details": "Returns the address of the current owner."
      },
      "renounceOwnership()": {
        "details": "Leaves the contract without owner. It will not be possible to call `onlyOwner` functions anymore. Can only be called by the current owner. NOTE: Renouncing ownership will leave the contract without an owner, thereby removing any functionality that is only available to the owner."
      },
      "transferOwnership(address)": {
        "details": "Transfers ownership of the contract to a new account (`newOwner`). Can only be called by the current owner."
      },
      "transferWithSwap(address,(address,uint64,uint32,uint8,uint64,bool,bool,uint256,uint256,bytes,uint256,address,address,bool),(address,bytes)[],(address,bytes)[])": {
        "details": "this field has no effect if the there is no dst swaps as the bridged tokens are sent directly to _desc.receiver",
        "params": {
          "_dstTransferSwapper": "the address of the receiving party of the bridge token (TransferSwapper) on the destination chain"
        }
      }
    },
    "title": "An app that enables swapping on a chain, transferring to another chain and swapping another time on the destination chain before sending the result tokens to a user",
    "version": 1
  },
  "userdoc": {
    "events": {
      "DirectSwap(bytes32,uint256,address,uint256,address)": {
        "notice": "Emitted when requested dstChainId == srcChainId, no bridging"
      },
      "RequestDone(bytes32,uint256,uint256,address,uint256,uint8)": {
        "notice": "Emitted when operations on dst chain is done."
      },
      "RequestSent(bytes32,bytes32,uint64,uint256,address,address)": {
        "notice": "Emitted when operations on src chain is done, the transfer is sent through the bridge"
      }
    },
    "kind": "user",
    "methods": {
      "executeMessage(address,uint64,bytes,address)": {
        "notice": "Called by MessageBus (MessageBusReceiver)"
      },
      "executeMessageWithTransfer(address,address,uint256,uint64,bytes,address)": {
        "notice": "Executes a swap if needed, then sends the output token to the receiver"
      },
      "executeMessageWithTransferFallback(address,address,uint256,uint64,bytes,address)": {
        "notice": "Sends the received token to the receiver"
      },
      "executeMessageWithTransferRefund(address,uint256,bytes,address)": {
        "notice": "Used to trigger refund when bridging fails due to large slippage"
      },
      "nativeWrap()": {
        "notice": "erc20 wrap of the gas token of this chain, e.g. WETH"
      },
      "transferWithSwap(address,(address,uint64,uint32,uint8,uint64,bool,bool,uint256,uint256,bytes,uint256,address,address,bool),(address,bytes)[],(address,bytes)[])": {
        "notice": "swaps if needed, then transfer the token to another chain along with an instruction on how to swap on that chain"
      }
    },
    "version": 1
  },
  "storageLayout": {
    "storage": [
      {
        "astId": 7,
        "contract": "contracts/TransferSwapper.sol:TransferSwapper",
        "label": "_owner",
        "offset": 0,
        "slot": "0",
        "type": "t_address"
      },
      {
        "astId": 5730,
        "contract": "contracts/TransferSwapper.sol:TransferSwapper",
        "label": "messageBus",
        "offset": 0,
        "slot": "1",
        "type": "t_address"
      },
      {
        "astId": 2090,
        "contract": "contracts/TransferSwapper.sol:TransferSwapper",
        "label": "selector2codec",
        "offset": 0,
        "slot": "2",
        "type": "t_mapping(t_bytes4,t_contract(ICodec)5181)"
      },
      {
        "astId": 2093,
        "contract": "contracts/TransferSwapper.sol:TransferSwapper",
        "label": "codecs",
        "offset": 0,
        "slot": "3",
        "type": "t_array(t_address)dyn_storage"
      },
      {
        "astId": 2345,
        "contract": "contracts/TransferSwapper.sol:TransferSwapper",
        "label": "dexRegistry",
        "offset": 0,
        "slot": "4",
        "type": "t_mapping(t_address,t_mapping(t_bytes4,t_bool))"
      },
      {
        "astId": 2572,
        "contract": "contracts/TransferSwapper.sol:TransferSwapper",
        "label": "signer",
        "offset": 0,
        "slot": "5",
        "type": "t_address"
      },
      {
        "astId": 2462,
        "contract": "contracts/TransferSwapper.sol:TransferSwapper",
        "label": "feeCollector",
        "offset": 0,
        "slot": "6",
        "type": "t_address"
      },
      {
        "astId": 207,
        "contract": "contracts/TransferSwapper.sol:TransferSwapper",
        "label": "_status",
        "offset": 0,
        "slot": "7",
        "type": "t_uint256"
      },
      {
        "astId": 3298,
        "contract": "contracts/TransferSwapper.sol:TransferSwapper",
        "label": "nativeWrap",
        "offset": 0,
        "slot": "8",
        "type": "t_address"
      }
    ],
    "types": {
      "t_address": {
        "encoding": "inplace",
        "label": "address",
        "numberOfBytes": "20"
      },
      "t_array(t_address)dyn_storage": {
        "base": "t_address",
        "encoding": "dynamic_array",
        "label": "address[]",
        "numberOfBytes": "32"
      },
      "t_bool": {
        "encoding": "inplace",
        "label": "bool",
        "numberOfBytes": "1"
      },
      "t_bytes4": {
        "encoding": "inplace",
        "label": "bytes4",
        "numberOfBytes": "4"
      },
      "t_contract(ICodec)5181": {
        "encoding": "inplace",
        "label": "contract ICodec",
        "numberOfBytes": "20"
      },
      "t_mapping(t_address,t_mapping(t_bytes4,t_bool))": {
        "encoding": "mapping",
        "key": "t_address",
        "label": "mapping(address => mapping(bytes4 => bool))",
        "numberOfBytes": "32",
        "value": "t_mapping(t_bytes4,t_bool)"
      },
      "t_mapping(t_bytes4,t_bool)": {
        "encoding": "mapping",
        "key": "t_bytes4",
        "label": "mapping(bytes4 => bool)",
        "numberOfBytes": "32",
        "value": "t_bool"
      },
      "t_mapping(t_bytes4,t_contract(ICodec)5181)": {
        "encoding": "mapping",
        "key": "t_bytes4",
        "label": "mapping(bytes4 => contract ICodec)",
        "numberOfBytes": "32",
        "value": "t_contract(ICodec)5181"
      },
      "t_uint256": {
        "encoding": "inplace",
        "label": "uint256",
        "numberOfBytes": "32"
      }
    }
  }
}