{
  "address": "0x750C5c20BAF931f74E832A6DB505832C7239DC14",
  "abi": [
    {
      "inputs": [
        {
          "internalType": "address",
          "name": "_nativeWrap",
          "type": "address"
        },
        {
          "internalType": "address",
          "name": "_messageBus",
          "type": "address"
        }
      ],
      "stateMutability": "nonpayable",
      "type": "constructor"
    },
    {
      "anonymous": false,
      "inputs": [
        {
          "indexed": false,
          "internalType": "uint256",
          "name": "amount",
          "type": "uint256"
        },
        {
          "indexed": false,
          "internalType": "address",
          "name": "token",
          "type": "address"
        },
        {
          "indexed": false,
          "internalType": "address",
          "name": "receiver",
          "type": "address"
        }
      ],
      "name": "CBridgeRefunded",
      "type": "event"
    },
    {
      "anonymous": false,
      "inputs": [
        {
          "indexed": false,
          "internalType": "uint8",
          "name": "version",
          "type": "uint8"
        }
      ],
      "name": "Initialized",
      "type": "event"
    },
    {
      "anonymous": false,
      "inputs": [
        {
          "indexed": false,
          "internalType": "address",
          "name": "messageBus",
          "type": "address"
        }
      ],
      "name": "MessageBusUpdated",
      "type": "event"
    },
    {
      "anonymous": false,
      "inputs": [
        {
          "indexed": false,
          "internalType": "address",
          "name": "nativeWrap",
          "type": "address"
        }
      ],
      "name": "NativeWrapUpdated",
      "type": "event"
    },
    {
      "anonymous": false,
      "inputs": [
        {
          "indexed": true,
          "internalType": "address",
          "name": "previousOwner",
          "type": "address"
        },
        {
          "indexed": true,
          "internalType": "address",
          "name": "newOwner",
          "type": "address"
        }
      ],
      "name": "OwnershipTransferred",
      "type": "event"
    },
    {
      "anonymous": false,
      "inputs": [
        {
          "indexed": false,
          "internalType": "address",
          "name": "account",
          "type": "address"
        }
      ],
      "name": "Paused",
      "type": "event"
    },
    {
      "anonymous": false,
      "inputs": [
        {
          "indexed": false,
          "internalType": "address",
          "name": "account",
          "type": "address"
        }
      ],
      "name": "PauserAdded",
      "type": "event"
    },
    {
      "anonymous": false,
      "inputs": [
        {
          "indexed": false,
          "internalType": "address",
          "name": "account",
          "type": "address"
        }
      ],
      "name": "PauserRemoved",
      "type": "event"
    },
    {
      "anonymous": false,
      "inputs": [
        {
          "indexed": false,
          "internalType": "address",
          "name": "account",
          "type": "address"
        }
      ],
      "name": "Unpaused",
      "type": "event"
    },
    {
      "inputs": [
        {
          "internalType": "address",
          "name": "account",
          "type": "address"
        }
      ],
      "name": "addPauser",
      "outputs": [],
      "stateMutability": "nonpayable",
      "type": "function"
    },
    {
      "inputs": [
        {
          "internalType": "uint64",
          "name": "_dstChainId",
          "type": "uint64"
        },
        {
          "internalType": "address",
          "name": "_receiver",
          "type": "address"
        },
        {
          "internalType": "uint256",
          "name": "_amount",
          "type": "uint256"
        },
        {
          "internalType": "address",
          "name": "_token",
          "type": "address"
        },
        {
          "internalType": "bytes",
          "name": "_bridgeParams",
          "type": "bytes"
        }
      ],
      "name": "bridge",
      "outputs": [
        {
          "internalType": "bytes",
          "name": "bridgeResp",
          "type": "bytes"
        }
      ],
      "stateMutability": "payable",
      "type": "function"
    },
    {
      "inputs": [
        {
          "internalType": "address",
          "name": "_sender",
          "type": "address"
        },
        {
          "internalType": "uint64",
          "name": "_srcChainId",
          "type": "uint64"
        },
        {
          "internalType": "bytes",
          "name": "_message",
          "type": "bytes"
        },
        {
          "internalType": "address",
          "name": "_executor",
          "type": "address"
        }
      ],
      "name": "executeMessage",
      "outputs": [
        {
          "internalType": "enum IMessageReceiver.ExecutionStatus",
          "name": "",
          "type": "uint8"
        }
      ],
      "stateMutability": "payable",
      "type": "function"
    },
    {
      "inputs": [
        {
          "internalType": "address",
          "name": "_token",
          "type": "address"
        },
        {
          "internalType": "uint256",
          "name": "_amount",
          "type": "uint256"
        },
        {
          "internalType": "bytes",
          "name": "_message",
          "type": "bytes"
        },
        {
          "internalType": "address",
          "name": "",
          "type": "address"
        }
      ],
      "name": "executeMessageWithTransferRefund",
      "outputs": [
        {
          "internalType": "enum IMessageReceiver.ExecutionStatus",
          "name": "",
          "type": "uint8"
        }
      ],
      "stateMutability": "payable",
      "type": "function"
    },
    {
      "inputs": [
        {
          "internalType": "address",
          "name": "_token",
          "type": "address"
        },
        {
          "internalType": "uint256",
          "name": "_amount",
          "type": "uint256"
        },
        {
          "internalType": "bytes",
          "name": "_message",
          "type": "bytes"
        }
      ],
      "name": "executeMessageWithTransferRefund",
      "outputs": [
        {
          "internalType": "bool",
          "name": "",
          "type": "bool"
        }
      ],
      "stateMutability": "payable",
      "type": "function"
    },
    {
      "inputs": [
        {
          "internalType": "address",
          "name": "account",
          "type": "address"
        }
      ],
      "name": "isPauser",
      "outputs": [
        {
          "internalType": "bool",
          "name": "",
          "type": "bool"
        }
      ],
      "stateMutability": "view",
      "type": "function"
    },
    {
      "inputs": [],
      "name": "messageBus",
      "outputs": [
        {
          "internalType": "address",
          "name": "",
          "type": "address"
        }
      ],
      "stateMutability": "view",
      "type": "function"
    },
    {
      "inputs": [],
      "name": "nativeWrap",
      "outputs": [
        {
          "internalType": "address",
          "name": "",
          "type": "address"
        }
      ],
      "stateMutability": "view",
      "type": "function"
    },
    {
      "inputs": [],
      "name": "owner",
      "outputs": [
        {
          "internalType": "address",
          "name": "",
          "type": "address"
        }
      ],
      "stateMutability": "view",
      "type": "function"
    },
    {
      "inputs": [],
      "name": "pause",
      "outputs": [],
      "stateMutability": "nonpayable",
      "type": "function"
    },
    {
      "inputs": [],
      "name": "paused",
      "outputs": [
        {
          "internalType": "bool",
          "name": "",
          "type": "bool"
        }
      ],
      "stateMutability": "view",
      "type": "function"
    },
    {
      "inputs": [
        {
          "internalType": "address",
          "name": "",
          "type": "address"
        }
      ],
      "name": "pausers",
      "outputs": [
        {
          "internalType": "bool",
          "name": "",
          "type": "bool"
        }
      ],
      "stateMutability": "view",
      "type": "function"
    },
    {
      "inputs": [
        {
          "internalType": "address",
          "name": "account",
          "type": "address"
        }
      ],
      "name": "removePauser",
      "outputs": [],
      "stateMutability": "nonpayable",
      "type": "function"
    },
    {
      "inputs": [],
      "name": "renounceOwnership",
      "outputs": [],
      "stateMutability": "nonpayable",
      "type": "function"
    },
    {
      "inputs": [],
      "name": "renouncePauser",
      "outputs": [],
      "stateMutability": "nonpayable",
      "type": "function"
    },
    {
      "inputs": [
        {
          "internalType": "address",
          "name": "_msgbus",
          "type": "address"
        }
      ],
      "name": "setMessageBus",
      "outputs": [],
      "stateMutability": "nonpayable",
      "type": "function"
    },
    {
      "inputs": [
        {
          "internalType": "address",
          "name": "_nativeWrap",
          "type": "address"
        }
      ],
      "name": "setNativeWrap",
      "outputs": [],
      "stateMutability": "nonpayable",
      "type": "function"
    },
    {
      "inputs": [],
      "name": "testMode",
      "outputs": [
        {
          "internalType": "bool",
          "name": "",
          "type": "bool"
        }
      ],
      "stateMutability": "view",
      "type": "function"
    },
    {
      "inputs": [
        {
          "internalType": "address",
          "name": "newOwner",
          "type": "address"
        }
      ],
      "name": "transferOwnership",
      "outputs": [],
      "stateMutability": "nonpayable",
      "type": "function"
    },
    {
      "inputs": [],
      "name": "unpause",
      "outputs": [],
      "stateMutability": "nonpayable",
      "type": "function"
    },
    {
      "stateMutability": "payable",
      "type": "receive"
    }
  ],
  "transactionHash": "0x5bb26df7a83917bdd5688bb60a8aa90dd39756770c248bf2153bda635b1906a5",
  "args": [
    "0xfCbB818c2C13775515C5088D12FD249F2Dd19966",
    "0xAd204986D6cB67A5Bc76a3CB8974823F43Cb9AAA"
  ],
  "numDeployments": 3,
  "solcInputHash": "68e60a224fc4a34f17bd830208f07f82",
  "bytecode": "0x60806040523480156200001157600080fd5b506040516200260a3803806200260a8339810160408190526200003491620001de565b816000826200004333620000a9565b60008054921515600160b01b0260ff60b01b1990931692909217909155600180546001600160a01b039283166001600160a01b0319909116179055600280546001600160a81b03191692909116919091179055620000a133620000f9565b505062000216565b600080546001600160a01b038381166001600160a01b0319831681178455604051919092169283917f8be0079c531659141344cd1fd0a4f28419497f9722a3daafe3b4186f6b6457e09190a35050565b6001600160a01b03811660009081526003602052604090205460ff1615620001675760405162461bcd60e51b815260206004820152601960248201527f4163636f756e7420697320616c72656164792070617573657200000000000000604482015260640160405180910390fd5b6001600160a01b038116600081815260036020908152604091829020805460ff1916600117905590519182527f6719d08c1888103bea251a4ed56406bd0c3e69723c8a1686e017e7bbe159b6f8910160405180910390a150565b80516001600160a01b0381168114620001d957600080fd5b919050565b60008060408385031215620001f257600080fd5b620001fd83620001c1565b91506200020d60208401620001c1565b90509250929050565b6123e480620002266000396000f3fe6080604052600436106101635760003560e01c80636ef8d66d116100c05780638da5cb5b11610074578063a1a227fa11610059578063a1a227fa146103ad578063cd9ea342146103cd578063f2fde38b146103ee57600080fd5b80638da5cb5b146103765780639c649fdf1461039457600080fd5b806380f51c12116100a557806380f51c121461031157806382dc1ec4146103415780638456cb591461036157600080fd5b80636ef8d66d146102e7578063715018a6146102fc57600080fd5b806346fbf68e116101175780635b5a66a7116100fc5780635b5a66a7146102885780635c975abb146102a85780636b2c0f55146102c757600080fd5b806346fbf68e1461022f578063547cad121461026857600080fd5b806324c9401b1161014857806324c9401b146101c05780633f4ba83a146101e0578063457bfa2f146101f757600080fd5b80630bcb49821461016f57806320be95f21461019857600080fd5b3661016a57005b600080fd5b61018261017d366004611f27565b61040e565b60405161018f9190611fb1565b60405180910390f35b6101b06101a6366004611fd9565b6000949350505050565b604051901515815260200161018f565b6101d36101ce366004612092565b610556565b60405161018f91906121c1565b3480156101ec57600080fd5b506101f561079b565b005b34801561020357600080fd5b50600254610217906001600160a01b031681565b6040516001600160a01b03909116815260200161018f565b34801561023b57600080fd5b506101b061024a3660046121d4565b6001600160a01b031660009081526003602052604090205460ff1690565b34801561027457600080fd5b506101f56102833660046121d4565b610804565b34801561029457600080fd5b506101f56102a33660046121d4565b61086e565b3480156102b457600080fd5b50600254600160a01b900460ff166101b0565b3480156102d357600080fd5b506101f56102e23660046121d4565b610882565b3480156102f357600080fd5b506101f5610893565b34801561030857600080fd5b506101f561089c565b34801561031d57600080fd5b506101b061032c3660046121d4565b60036020526000908152604090205460ff1681565b34801561034d57600080fd5b506101f561035c3660046121d4565b6108ae565b34801561036d57600080fd5b506101f56108bf565b34801561038257600080fd5b506000546001600160a01b0316610217565b6101826103a23660046121f1565b600095945050505050565b3480156103b957600080fd5b50600154610217906001600160a01b031681565b3480156103d957600080fd5b506000546101b090600160b01b900460ff1681565b3480156103fa57600080fd5b506101f56104093660046121d4565b610926565b60008054600160b01b900460ff1661047f576001546001600160a01b0316331461047f5760405162461bcd60e51b815260206004820152601960248201527f63616c6c6572206973206e6f74206d657373616765206275730000000000000060448201526064015b60405180910390fd5b600254600160a01b900460ff16156104d95760405162461bcd60e51b815260206004820152601160248201527f4d53473a3a41424f52543a7061757365640000000000000000000000000000006044820152606401610476565b60006104e7848601866121d4565b90506104f387876109b3565b6105008787836000610b38565b604080518781526001600160a01b03898116602083015283168183015290517fe5e764ffa6b9d27de89d8ac25d5365714f9c5ef837fcbfd3afdfa1cd4cf84a129181900360600190a15060019695505050505050565b606060008280602001905181019061056e9190612240565b90506105856001600160a01b038516333088610cc1565b60408101516001600160a01b03161561068657600081604001516001600160a01b03166326afaadd6040518163ffffffff1660e01b8152600401602060405180830381865afa1580156105dc573d6000803e3d6000fd5b505050506040513d601f19601f8201168201806040525081019061060091906122d2565b9050846001600160a01b0316816001600160a01b0316146106635760405162461bcd60e51b815260206004820152601360248201527f63616e6f6e6963616c20213d205f746f6b656e000000000000000000000000006044820152606401610476565b604082015161067d906001600160a01b0387169088610d59565b81604001519450505b60006106dd8786888b866060015187602001518d6040516020016106b991906001600160a01b0391909116815260200190565b60408051601f1981840301815291905289516001546001600160a01b031634610e75565b60408301519091506001600160a01b031615610773576107738260400151600084604001516001600160a01b03166326afaadd6040518163ffffffff1660e01b8152600401602060405180830381865afa15801561073f573d6000803e3d6000fd5b505050506040513d601f19601f8201168201806040525081019061076391906122d2565b6001600160a01b03169190610d59565b6040805160208101839052016040516020818303038152906040529250505095945050505050565b3360009081526003602052604090205460ff166107fa5760405162461bcd60e51b815260206004820152601460248201527f43616c6c6572206973206e6f74207061757365720000000000000000000000006044820152606401610476565b610802610f0e565b565b61080c610f63565b6001805473ffffffffffffffffffffffffffffffffffffffff19166001600160a01b0383169081179091556040519081527f3f8223bcd8b3b875473e9f9e14e1ad075451a2b5ffd31591655da9a01516bf5e906020015b60405180910390a150565b610876610f63565b61087f81610fbd565b50565b61088a610f63565b61087f81611018565b61080233611018565b6108a4610f63565b61080260006110d1565b6108b6610f63565b61087f8161112e565b3360009081526003602052604090205460ff1661091e5760405162461bcd60e51b815260206004820152601460248201527f43616c6c6572206973206e6f74207061757365720000000000000000000000006044820152606401610476565b6108026111eb565b61092e610f63565b6001600160a01b0381166109aa5760405162461bcd60e51b815260206004820152602660248201527f4f776e61626c653a206e6577206f776e657220697320746865207a65726f206160448201527f64647265737300000000000000000000000000000000000000000000000000006064820152608401610476565b61087f816110d1565b6002546001600160a01b0390811690831603610b3457600154604080516320a6037160e21b815290516000926001600160a01b0316916382980dc49160048083019260209291908290030181865afa158015610a13573d6000803e3d6000fd5b505050506040513d601f19601f82011682018060405250810190610a3791906122d2565b9050600260009054906101000a90046001600160a01b03166001600160a01b0316816001600160a01b031663457bfa2f6040518163ffffffff1660e01b8152600401602060405180830381865afa158015610a96573d6000803e3d6000fd5b505050506040513d601f19601f82011682018060405250810190610aba91906122d2565b6001600160a01b031603610b3257600260009054906101000a90046001600160a01b03166001600160a01b031663d0e30db0836040518263ffffffff1660e01b81526004016000604051808303818588803b158015610b1857600080fd5b505af1158015610b2c573d6000803e3d6000fd5b50505050505b505b5050565b8015610ca7576002546001600160a01b03858116911614610b9b5760405162461bcd60e51b815260206004820152600c60248201527f746b206e6f206e617469766500000000000000000000000000000000000000006044820152606401610476565b600254604051632e1a7d4d60e01b8152600481018590526001600160a01b0390911690632e1a7d4d90602401600060405180830381600087803b158015610be157600080fd5b505af1158015610bf5573d6000803e3d6000fd5b505050506000826001600160a01b03168461c35090604051600060405180830381858888f193505050503d8060008114610c4b576040519150601f19603f3d011682016040523d82523d6000602084013e610c50565b606091505b5050905080610ca15760405162461bcd60e51b815260206004820152600960248201527f73656e64206661696c00000000000000000000000000000000000000000000006044820152606401610476565b50610cbb565b610cbb6001600160a01b038516838561122e565b50505050565b6040516001600160a01b0380851660248301528316604482015260648101829052610cbb9085906323b872dd60e01b906084015b60408051601f198184030181529190526020810180517bffffffffffffffffffffffffffffffffffffffffffffffffffffffff167fffffffff000000000000000000000000000000000000000000000000000000009093169290921790915261125e565b801580610dd35750604051636eb1769f60e11b81523060048201526001600160a01b03838116602483015284169063dd62ed3e90604401602060405180830381865afa158015610dad573d6000803e3d6000fd5b505050506040513d601f19601f82011682018060405250810190610dd191906122ef565b155b610e455760405162461bcd60e51b815260206004820152603660248201527f5361666545524332303a20617070726f76652066726f6d206e6f6e2d7a65726f60448201527f20746f206e6f6e2d7a65726f20616c6c6f77616e6365000000000000000000006064820152608401610476565b6040516001600160a01b038316602482015260448101829052610b3290849063095ea7b360e01b90606401610cf5565b6000806000610e8a8d8d8d8d8d8d8c8c611343565b8851919350915015610efe57846001600160a01b0316634289fbb3858f8d85878d6040518763ffffffff1660e01b8152600401610ecb959493929190612308565b6000604051808303818588803b158015610ee457600080fd5b505af1158015610ef8573d6000803e3d6000fd5b50505050505b509b9a5050505050505050505050565b610f16611ad4565b6002805460ff60a01b191690557f5db9ee0a495bf2e6ff9c91a7834c1ba4fdd244a5e8aa4e537bd38aeae4b073aa335b6040516001600160a01b03909116815260200160405180910390a1565b6000546001600160a01b031633146108025760405162461bcd60e51b815260206004820181905260248201527f4f776e61626c653a2063616c6c6572206973206e6f7420746865206f776e65726044820152606401610476565b6002805473ffffffffffffffffffffffffffffffffffffffff19166001600160a01b0383169081179091556040519081527fb878cd71628ac64b2df1872301925e01164824535b02e8601077749eeeb88c3d90602001610863565b6001600160a01b03811660009081526003602052604090205460ff166110805760405162461bcd60e51b815260206004820152601560248201527f4163636f756e74206973206e6f742070617573657200000000000000000000006044820152606401610476565b6001600160a01b038116600081815260036020908152604091829020805460ff1916905590519182527fcd265ebaf09df2871cc7bd4133404a235ba12eff2041bb89d9c714a2621c7c7e9101610863565b600080546001600160a01b0383811673ffffffffffffffffffffffffffffffffffffffff19831681178455604051919092169283917f8be0079c531659141344cd1fd0a4f28419497f9722a3daafe3b4186f6b6457e09190a35050565b6001600160a01b03811660009081526003602052604090205460ff16156111975760405162461bcd60e51b815260206004820152601960248201527f4163636f756e7420697320616c726561647920706175736572000000000000006044820152606401610476565b6001600160a01b038116600081815260036020908152604091829020805460ff1916600117905590519182527f6719d08c1888103bea251a4ed56406bd0c3e69723c8a1686e017e7bbe159b6f89101610863565b6111f3611b2d565b6002805460ff60a01b1916600160a01b1790557f62e78cea01bee320cd4e420270b5ea74000d11b0c9f74754ebdbfc544b05a258610f463390565b6040516001600160a01b038316602482015260448101829052610b3290849063a9059cbb60e01b90606401610cf5565b60006112b3826040518060400160405280602081526020017f5361666545524332303a206c6f772d6c6576656c2063616c6c206661696c6564815250856001600160a01b0316611b879092919063ffffffff16565b805190915015610b3257808060200190518101906112d1919061234a565b610b325760405162461bcd60e51b815260206004820152602a60248201527f5361666545524332303a204552433230206f7065726174696f6e20646964206e60448201527f6f742073756363656564000000000000000000000000000000000000000000006064820152608401610476565b600080600184600681111561135a5761135a611f9b565b0361147957826001600160a01b03166382980dc46040518163ffffffff1660e01b8152600401602060405180830381865afa15801561139d573d6000803e3d6000fd5b505050506040513d601f19601f820116820180604052508101906113c191906122d2565b90506113d76001600160a01b038a16828a611ba0565b60405163a5977fbb60e01b81526001600160a01b038b811660048301528a81166024830152604482018a905267ffffffffffffffff808a1660648401528816608483015263ffffffff871660a483015282169063a5977fbb9060c401600060405180830381600087803b15801561144d57600080fd5b505af1158015611461573d6000803e3d6000fd5b505050506114728a8a8a8a8a611c52565b9150611ac7565b600284600681111561148d5761148d611f9b565b0361159957826001600160a01b031663d8257d176040518163ffffffff1660e01b8152600401602060405180830381865afa1580156114d0573d6000803e3d6000fd5b505050506040513d601f19601f820116820180604052508101906114f491906122d2565b905061150a6001600160a01b038a16828a611ba0565b6040516308d18d8960e21b81526001600160a01b038a81166004830152602482018a905267ffffffffffffffff808a1660448401528c821660648401528816608483015282169063234636249060a401600060405180830381600087803b15801561157457600080fd5b505af1158015611588573d6000803e3d6000fd5b505050506114728a8a8a8a8a611cda565b60038460068111156115ad576115ad611f9b565b0361173457826001600160a01b031663dfa2dbaf6040518163ffffffff1660e01b8152600401602060405180830381865afa1580156115f0573d6000803e3d6000fd5b505050506040513d601f19601f8201168201806040525081019061161491906122d2565b905061162a6001600160a01b038a16828a611ba0565b604051636f3c863f60e11b81526001600160a01b038a81166004830152602482018a90528b8116604483015267ffffffffffffffff8816606483015282169063de790c7e90608401600060405180830381600087803b15801561168c57600080fd5b505af11580156116a0573d6000803e3d6000fd5b506116ba925050506001600160a01b038a16826000610d59565b604080516bffffffffffffffffffffffff1930606090811b82166020808501919091528d821b83166034850152604884018d9052908e901b90911660688301526001600160c01b031960c08a811b8216607c85015246901b1660848301528251808303606c018152608c9092019092528051910120611472565b600484600681111561174857611748611f9b565b0361185857826001600160a01b031663c66a9c5a6040518163ffffffff1660e01b8152600401602060405180830381865afa15801561178b573d6000803e3d6000fd5b505050506040513d601f19601f820116820180604052508101906117af91906122d2565b90506117c56001600160a01b038a16828a611ba0565b6040516308d18d8960e21b81526001600160a01b038a81166004830152602482018a905267ffffffffffffffff808a1660448401528c821660648401528816608483015282169063234636249060a4016020604051808303816000875af1158015611834573d6000803e3d6000fd5b505050506040513d601f19601f8201168201806040525081019061147291906122ef565b600584600681111561186c5761186c611f9b565b0361199957826001600160a01b03166395b12c276040518163ffffffff1660e01b8152600401602060405180830381865afa1580156118af573d6000803e3d6000fd5b505050506040513d601f19601f820116820180604052508101906118d391906122d2565b90506118e96001600160a01b038a16828a611ba0565b60405163a002930160e01b81526001600160a01b038a81166004830152602482018a905267ffffffffffffffff808a1660448401528c821660648401528816608483015282169063a00293019060a4015b6020604051808303816000875af1158015611959573d6000803e3d6000fd5b505050506040513d601f19601f8201168201806040525081019061197d91906122ef565b91506119946001600160a01b038a16826000610d59565b611ac7565b60068460068111156119ad576119ad611f9b565b03611a7f57826001600160a01b03166395b12c276040518163ffffffff1660e01b8152600401602060405180830381865afa1580156119f0573d6000803e3d6000fd5b505050506040513d601f19601f82011682018060405250810190611a1491906122d2565b9050611a2a6001600160a01b038a16828a611ba0565b604051639e422c3360e01b81526001600160a01b038a81166004830152602482018a905267ffffffffffffffff808a1660448401528c8216606484015288166084830152821690639e422c339060a40161193a565b60405162461bcd60e51b815260206004820152601960248201527f6272696467652074797065206e6f7420737570706f72746564000000000000006044820152606401610476565b9850989650505050505050565b600254600160a01b900460ff166108025760405162461bcd60e51b815260206004820152601460248201527f5061757361626c653a206e6f74207061757365640000000000000000000000006044820152606401610476565b600254600160a01b900460ff16156108025760405162461bcd60e51b815260206004820152601060248201527f5061757361626c653a20706175736564000000000000000000000000000000006044820152606401610476565b6060611b968484600085611d48565b90505b9392505050565b604051636eb1769f60e11b81523060048201526001600160a01b038381166024830152600091839186169063dd62ed3e90604401602060405180830381865afa158015611bf1573d6000803e3d6000fd5b505050506040513d601f19601f82011682018060405250810190611c1591906122ef565b611c1f919061236c565b6040516001600160a01b038516602482015260448101829052909150610cbb90859063095ea7b360e01b90606401610cf5565b6040516bffffffffffffffffffffffff1930606090811b8216602084015287811b8216603484015286901b166048820152605c81018490526001600160c01b031960c084811b8216607c84015283811b8216608484015246901b16608c8201526000906094015b60405160208183030381529060405280519060200120905095945050505050565b6040516bffffffffffffffffffffffff1930606090811b8216602084015286811b82166034840152604883018690526001600160c01b031960c086811b821660688601529189901b909216607084015283811b8216608484015246901b16608c820152600090609401611cb9565b606082471015611dc05760405162461bcd60e51b815260206004820152602660248201527f416464726573733a20696e73756666696369656e742062616c616e636520666f60448201527f722063616c6c00000000000000000000000000000000000000000000000000006064820152608401610476565b6001600160a01b0385163b611e175760405162461bcd60e51b815260206004820152601d60248201527f416464726573733a2063616c6c20746f206e6f6e2d636f6e74726163740000006044820152606401610476565b600080866001600160a01b03168587604051611e339190612392565b60006040518083038185875af1925050503d8060008114611e70576040519150601f19603f3d011682016040523d82523d6000602084013e611e75565b606091505b5091509150611e85828286611e90565b979650505050505050565b60608315611e9f575081611b99565b825115611eaf5782518084602001fd5b8160405162461bcd60e51b815260040161047691906121c1565b6001600160a01b038116811461087f57600080fd5b60008083601f840112611ef057600080fd5b50813567ffffffffffffffff811115611f0857600080fd5b602083019150836020828501011115611f2057600080fd5b9250929050565b600080600080600060808688031215611f3f57600080fd5b8535611f4a81611ec9565b945060208601359350604086013567ffffffffffffffff811115611f6d57600080fd5b611f7988828901611ede565b9094509250506060860135611f8d81611ec9565b809150509295509295909350565b634e487b7160e01b600052602160045260246000fd5b6020810160038310611fd357634e487b7160e01b600052602160045260246000fd5b91905290565b60008060008060608587031215611fef57600080fd5b8435611ffa81611ec9565b935060208501359250604085013567ffffffffffffffff81111561201d57600080fd5b61202987828801611ede565b95989497509550505050565b67ffffffffffffffff8116811461087f57600080fd5b634e487b7160e01b600052604160045260246000fd5b604051601f8201601f1916810167ffffffffffffffff8111828210171561208a5761208a61204b565b604052919050565b600080600080600060a086880312156120aa57600080fd5b85356120b581612035565b94506020868101356120c681611ec9565b94506040870135935060608701356120dd81611ec9565b9250608087013567ffffffffffffffff808211156120fa57600080fd5b818901915089601f83011261210e57600080fd5b8135818111156121205761212061204b565b612132601f8201601f19168501612061565b91508082528a8482850101111561214857600080fd5b80848401858401376000848284010152508093505050509295509295909350565b60005b8381101561218457818101518382015260200161216c565b83811115610cbb5750506000910152565b600081518084526121ad816020860160208601612169565b601f01601f19169290920160200192915050565b602081526000611b996020830184612195565b6000602082840312156121e657600080fd5b8135611b9981611ec9565b60008060008060006080868803121561220957600080fd5b853561221481611ec9565b9450602086013561222481612035565b9350604086013567ffffffffffffffff811115611f6d57600080fd5b60006080828403121561225257600080fd5b6040516080810181811067ffffffffffffffff821117156122755761227561204b565b60405282516007811061228757600080fd5b8152602083015163ffffffff811681146122a057600080fd5b602082015260408301516122b381611ec9565b604082015260608301516122c681612035565b60608201529392505050565b6000602082840312156122e457600080fd5b8151611b9981611ec9565b60006020828403121561230157600080fd5b5051919050565b60006001600160a01b03808816835267ffffffffffffffff8716602084015280861660408401525083606083015260a06080830152611e8560a0830184612195565b60006020828403121561235c57600080fd5b81518015158114611b9957600080fd5b6000821982111561238d57634e487b7160e01b600052601160045260246000fd5b500190565b600082516123a4818460208701612169565b919091019291505056fea264697066735822122056d3a098811a5f24ca23afc6f29add09d0bcb98c68a95bccdf443e06c5dd58d564736f6c634300080f0033",
  "devdoc": {
    "kind": "dev",
    "methods": {
      "executeMessage(address,uint64,bytes,address)": {
        "params": {
          "_executor": "Address who called the MessageBus execution function",
          "_message": "Arbitrary message bytes originated from and encoded by the source app contract",
          "_sender": "The address of the source app contract",
          "_srcChainId": "The source chain ID where the transfer is originated from"
        }
      },
      "executeMessageWithTransferRefund(address,uint256,bytes)": {
        "params": {
          "_amount": "The amount of the original transfer",
          "_message": "The same message associated with the original transfer",
          "_token": "The token address of the original transfer"
        }
      },
      "executeMessageWithTransferRefund(address,uint256,bytes,address)": {
        "details": "only MessageBus can call this function, this requires the user to get sigs of the message from SGNBridge contract *always* sends native token to its receiver (this contract) even though the _token field is always an ERC20 token",
        "params": {
          "_amount": "the amount of token received by this contract",
          "_token": "the token received by this contract"
        },
        "returns": {
          "_0": "ExecutionStatus a status indicates whether the processing is successful"
        }
      },
      "owner()": {
        "details": "Returns the address of the current owner."
      },
      "paused()": {
        "details": "Returns true if the contract is paused, and false otherwise."
      },
      "renounceOwnership()": {
        "details": "Leaves the contract without owner. It will not be possible to call `onlyOwner` functions anymore. Can only be called by the current owner. NOTE: Renouncing ownership will leave the contract without an owner, thereby removing any functionality that is only available to the owner."
      },
      "transferOwnership(address)": {
        "details": "Transfers ownership of the contract to a new account (`newOwner`). Can only be called by the current owner."
      }
    },
    "version": 1
  },
  "userdoc": {
    "kind": "user",
    "methods": {
      "executeMessage(address,uint64,bytes,address)": {
        "notice": "Called by MessageBus (MessageBusReceiver)"
      },
      "executeMessageWithTransferRefund(address,uint256,bytes)": {
        "notice": "Called by MessageBus (MessageBusReceiver) to process refund of the original transfer from this contract"
      },
      "executeMessageWithTransferRefund(address,uint256,bytes,address)": {
        "notice": "Used to trigger refund when bridging fails due to large slippage"
      }
    },
    "version": 1
  },
  "storageLayout": {
    "storage": [
      {
        "astId": 7,
        "contract": "contracts/bridges/CBridgeAdapter.sol:CBridgeAdapter",
        "label": "_owner",
        "offset": 0,
        "slot": "0",
        "type": "t_address"
      },
      {
        "astId": 119,
        "contract": "contracts/bridges/CBridgeAdapter.sol:CBridgeAdapter",
        "label": "_initialized",
        "offset": 20,
        "slot": "0",
        "type": "t_uint8"
      },
      {
        "astId": 122,
        "contract": "contracts/bridges/CBridgeAdapter.sol:CBridgeAdapter",
        "label": "_initializing",
        "offset": 21,
        "slot": "0",
        "type": "t_bool"
      },
      {
        "astId": 8941,
        "contract": "contracts/bridges/CBridgeAdapter.sol:CBridgeAdapter",
        "label": "testMode",
        "offset": 22,
        "slot": "0",
        "type": "t_bool"
      },
      {
        "astId": 8943,
        "contract": "contracts/bridges/CBridgeAdapter.sol:CBridgeAdapter",
        "label": "messageBus",
        "offset": 0,
        "slot": "1",
        "type": "t_address"
      },
      {
        "astId": 9626,
        "contract": "contracts/bridges/CBridgeAdapter.sol:CBridgeAdapter",
        "label": "nativeWrap",
        "offset": 0,
        "slot": "2",
        "type": "t_address"
      },
      {
        "astId": 281,
        "contract": "contracts/bridges/CBridgeAdapter.sol:CBridgeAdapter",
        "label": "_paused",
        "offset": 20,
        "slot": "2",
        "type": "t_bool"
      },
      {
        "astId": 9695,
        "contract": "contracts/bridges/CBridgeAdapter.sol:CBridgeAdapter",
        "label": "pausers",
        "offset": 0,
        "slot": "3",
        "type": "t_mapping(t_address,t_bool)"
      }
    ],
    "types": {
      "t_address": {
        "encoding": "inplace",
        "label": "address",
        "numberOfBytes": "20"
      },
      "t_bool": {
        "encoding": "inplace",
        "label": "bool",
        "numberOfBytes": "1"
      },
      "t_mapping(t_address,t_bool)": {
        "encoding": "mapping",
        "key": "t_address",
        "label": "mapping(address => bool)",
        "numberOfBytes": "32",
        "value": "t_bool"
      },
      "t_uint8": {
        "encoding": "inplace",
        "label": "uint8",
        "numberOfBytes": "1"
      }
    }
  }
}