{
  "address": "0xC817DAB3341ae0d40D9BE12546E719F37b7bc832",
  "abi": [
    {
      "inputs": [
        {
          "internalType": "address",
          "name": "_messageBus",
          "type": "address"
        },
        {
          "internalType": "address",
          "name": "_nativeWrap",
          "type": "address"
        },
        {
          "internalType": "address",
          "name": "_signer",
          "type": "address"
        },
        {
          "internalType": "address",
          "name": "_feeCollector",
          "type": "address"
        },
        {
          "internalType": "string[]",
          "name": "_funcSigs",
          "type": "string[]"
        },
        {
          "internalType": "address[]",
          "name": "_codecs",
          "type": "address[]"
        },
        {
          "internalType": "address[]",
          "name": "_supportedDexList",
          "type": "address[]"
        },
        {
          "internalType": "string[]",
          "name": "_supportedDexFuncs",
          "type": "string[]"
        }
      ],
      "stateMutability": "nonpayable",
      "type": "constructor"
    },
    {
      "anonymous": false,
      "inputs": [
        {
          "indexed": false,
          "internalType": "bytes4",
          "name": "selector",
          "type": "bytes4"
        },
        {
          "indexed": false,
          "internalType": "address",
          "name": "codec",
          "type": "address"
        }
      ],
      "name": "CodecUpdated",
      "type": "event"
    },
    {
      "anonymous": false,
      "inputs": [
        {
          "indexed": false,
          "internalType": "bytes32",
          "name": "id",
          "type": "bytes32"
        },
        {
          "indexed": false,
          "internalType": "uint256",
          "name": "amountIn",
          "type": "uint256"
        },
        {
          "indexed": false,
          "internalType": "address",
          "name": "tokenIn",
          "type": "address"
        },
        {
          "indexed": false,
          "internalType": "uint256",
          "name": "amountOut",
          "type": "uint256"
        },
        {
          "indexed": false,
          "internalType": "address",
          "name": "tokenOut",
          "type": "address"
        }
      ],
      "name": "DirectSwap",
      "type": "event"
    },
    {
      "anonymous": false,
      "inputs": [
        {
          "indexed": false,
          "internalType": "address",
          "name": "from",
          "type": "address"
        },
        {
          "indexed": false,
          "internalType": "address",
          "name": "to",
          "type": "address"
        }
      ],
      "name": "FeeCollectorUpdated",
      "type": "event"
    },
    {
      "anonymous": false,
      "inputs": [
        {
          "indexed": false,
          "internalType": "address",
          "name": "messageBus",
          "type": "address"
        }
      ],
      "name": "MessageBusUpdated",
      "type": "event"
    },
    {
      "anonymous": false,
      "inputs": [
        {
          "indexed": false,
          "internalType": "address",
          "name": "nativeWrap",
          "type": "address"
        }
      ],
      "name": "NativeWrapUpdated",
      "type": "event"
    },
    {
      "anonymous": false,
      "inputs": [
        {
          "indexed": true,
          "internalType": "address",
          "name": "previousOwner",
          "type": "address"
        },
        {
          "indexed": true,
          "internalType": "address",
          "name": "newOwner",
          "type": "address"
        }
      ],
      "name": "OwnershipTransferred",
      "type": "event"
    },
    {
      "anonymous": false,
      "inputs": [
        {
          "indexed": false,
          "internalType": "bytes32",
          "name": "id",
          "type": "bytes32"
        },
        {
          "indexed": false,
          "internalType": "uint256",
          "name": "dstAmount",
          "type": "uint256"
        },
        {
          "indexed": false,
          "internalType": "uint256",
          "name": "refundAmount",
          "type": "uint256"
        },
        {
          "indexed": false,
          "internalType": "address",
          "name": "refundToken",
          "type": "address"
        },
        {
          "indexed": false,
          "internalType": "uint256",
          "name": "feeCollected",
          "type": "uint256"
        },
        {
          "indexed": false,
          "internalType": "enum TransferSwapper.RequestStatus",
          "name": "status",
          "type": "uint8"
        }
      ],
      "name": "RequestDone",
      "type": "event"
    },
    {
      "anonymous": false,
      "inputs": [
        {
          "indexed": false,
          "internalType": "bytes32",
          "name": "id",
          "type": "bytes32"
        },
        {
          "indexed": false,
          "internalType": "bytes32",
          "name": "transferId",
          "type": "bytes32"
        },
        {
          "indexed": false,
          "internalType": "uint64",
          "name": "dstChainId",
          "type": "uint64"
        },
        {
          "indexed": false,
          "internalType": "uint256",
          "name": "srcAmount",
          "type": "uint256"
        },
        {
          "indexed": false,
          "internalType": "address",
          "name": "srcToken",
          "type": "address"
        },
        {
          "indexed": false,
          "internalType": "address",
          "name": "dstToken",
          "type": "address"
        },
        {
          "indexed": false,
          "internalType": "address",
          "name": "bridgeOutReceiver",
          "type": "address"
        }
      ],
      "name": "RequestSent",
      "type": "event"
    },
    {
      "anonymous": false,
      "inputs": [
        {
          "indexed": false,
          "internalType": "address",
          "name": "from",
          "type": "address"
        },
        {
          "indexed": false,
          "internalType": "address",
          "name": "to",
          "type": "address"
        }
      ],
      "name": "SignerUpdated",
      "type": "event"
    },
    {
      "anonymous": false,
      "inputs": [
        {
          "indexed": false,
          "internalType": "address",
          "name": "dex",
          "type": "address"
        },
        {
          "indexed": false,
          "internalType": "bytes4",
          "name": "selector",
          "type": "bytes4"
        },
        {
          "indexed": false,
          "internalType": "bool",
          "name": "enabled",
          "type": "bool"
        }
      ],
      "name": "SupportedDexUpdated",
      "type": "event"
    },
    {
      "inputs": [
        {
          "internalType": "uint256",
          "name": "",
          "type": "uint256"
        }
      ],
      "name": "codecs",
      "outputs": [
        {
          "internalType": "address",
          "name": "",
          "type": "address"
        }
      ],
      "stateMutability": "view",
      "type": "function"
    },
    {
      "inputs": [
        {
          "internalType": "address[]",
          "name": "_tokens",
          "type": "address[]"
        },
        {
          "internalType": "address",
          "name": "_to",
          "type": "address"
        }
      ],
      "name": "collectFee",
      "outputs": [],
      "stateMutability": "nonpayable",
      "type": "function"
    },
    {
      "inputs": [
        {
          "internalType": "address",
          "name": "",
          "type": "address"
        },
        {
          "internalType": "bytes4",
          "name": "",
          "type": "bytes4"
        }
      ],
      "name": "dexRegistry",
      "outputs": [
        {
          "internalType": "bool",
          "name": "",
          "type": "bool"
        }
      ],
      "stateMutability": "view",
      "type": "function"
    },
    {
      "inputs": [
        {
          "internalType": "bytes32",
          "name": "",
          "type": "bytes32"
        }
      ],
      "name": "directBridgeSenders",
      "outputs": [
        {
          "internalType": "address",
          "name": "",
          "type": "address"
        }
      ],
      "stateMutability": "view",
      "type": "function"
    },
    {
      "inputs": [
        {
          "internalType": "address",
          "name": "_sender",
          "type": "address"
        },
        {
          "internalType": "uint64",
          "name": "_srcChainId",
          "type": "uint64"
        },
        {
          "internalType": "bytes",
          "name": "_message",
          "type": "bytes"
        },
        {
          "internalType": "address",
          "name": "_executor",
          "type": "address"
        }
      ],
      "name": "executeMessage",
      "outputs": [
        {
          "internalType": "enum IMessageReceiverApp.ExecutionStatus",
          "name": "",
          "type": "uint8"
        }
      ],
      "stateMutability": "payable",
      "type": "function"
    },
    {
      "inputs": [
        {
          "internalType": "address",
          "name": "",
          "type": "address"
        },
        {
          "internalType": "address",
          "name": "_token",
          "type": "address"
        },
        {
          "internalType": "uint256",
          "name": "_amount",
          "type": "uint256"
        },
        {
          "internalType": "uint64",
          "name": "",
          "type": "uint64"
        },
        {
          "internalType": "bytes",
          "name": "_message",
          "type": "bytes"
        },
        {
          "internalType": "address",
          "name": "",
          "type": "address"
        }
      ],
      "name": "executeMessageWithTransfer",
      "outputs": [
        {
          "internalType": "enum IMessageReceiverApp.ExecutionStatus",
          "name": "",
          "type": "uint8"
        }
      ],
      "stateMutability": "payable",
      "type": "function"
    },
    {
      "inputs": [
        {
          "internalType": "address",
          "name": "",
          "type": "address"
        },
        {
          "internalType": "address",
          "name": "_token",
          "type": "address"
        },
        {
          "internalType": "uint256",
          "name": "_amount",
          "type": "uint256"
        },
        {
          "internalType": "uint64",
          "name": "",
          "type": "uint64"
        },
        {
          "internalType": "bytes",
          "name": "_message",
          "type": "bytes"
        },
        {
          "internalType": "address",
          "name": "",
          "type": "address"
        }
      ],
      "name": "executeMessageWithTransferFallback",
      "outputs": [
        {
          "internalType": "enum IMessageReceiverApp.ExecutionStatus",
          "name": "",
          "type": "uint8"
        }
      ],
      "stateMutability": "payable",
      "type": "function"
    },
    {
      "inputs": [
        {
          "internalType": "address",
          "name": "_token",
          "type": "address"
        },
        {
          "internalType": "uint256",
          "name": "_amount",
          "type": "uint256"
        },
        {
          "internalType": "bytes",
          "name": "_message",
          "type": "bytes"
        },
        {
          "internalType": "address",
          "name": "",
          "type": "address"
        }
      ],
      "name": "executeMessageWithTransferRefund",
      "outputs": [
        {
          "internalType": "enum IMessageReceiverApp.ExecutionStatus",
          "name": "",
          "type": "uint8"
        }
      ],
      "stateMutability": "payable",
      "type": "function"
    },
    {
      "inputs": [],
      "name": "feeCollector",
      "outputs": [
        {
          "internalType": "address",
          "name": "",
          "type": "address"
        }
      ],
      "stateMutability": "view",
      "type": "function"
    },
    {
      "inputs": [],
      "name": "messageBus",
      "outputs": [
        {
          "internalType": "address",
          "name": "",
          "type": "address"
        }
      ],
      "stateMutability": "view",
      "type": "function"
    },
    {
      "inputs": [],
      "name": "nativeWrap",
      "outputs": [
        {
          "internalType": "address",
          "name": "",
          "type": "address"
        }
      ],
      "stateMutability": "view",
      "type": "function"
    },
    {
      "inputs": [],
      "name": "owner",
      "outputs": [
        {
          "internalType": "address",
          "name": "",
          "type": "address"
        }
      ],
      "stateMutability": "view",
      "type": "function"
    },
    {
      "inputs": [],
      "name": "renounceOwnership",
      "outputs": [],
      "stateMutability": "nonpayable",
      "type": "function"
    },
    {
      "inputs": [
        {
          "internalType": "bytes4",
          "name": "",
          "type": "bytes4"
        }
      ],
      "name": "selector2codec",
      "outputs": [
        {
          "internalType": "contract ICodec",
          "name": "",
          "type": "address"
        }
      ],
      "stateMutability": "view",
      "type": "function"
    },
    {
      "inputs": [
        {
          "internalType": "string",
          "name": "_funcSig",
          "type": "string"
        },
        {
          "internalType": "address",
          "name": "_codec",
          "type": "address"
        }
      ],
      "name": "setCodec",
      "outputs": [],
      "stateMutability": "nonpayable",
      "type": "function"
    },
    {
      "inputs": [
        {
          "internalType": "address",
          "name": "_feeCollector",
          "type": "address"
        }
      ],
      "name": "setFeeCollector",
      "outputs": [],
      "stateMutability": "nonpayable",
      "type": "function"
    },
    {
      "inputs": [
        {
          "internalType": "address",
          "name": "_messageBus",
          "type": "address"
        }
      ],
      "name": "setMessageBus",
      "outputs": [],
      "stateMutability": "nonpayable",
      "type": "function"
    },
    {
      "inputs": [
        {
          "internalType": "address",
          "name": "_nativeWrap",
          "type": "address"
        }
      ],
      "name": "setNativeWrap",
      "outputs": [],
      "stateMutability": "nonpayable",
      "type": "function"
    },
    {
      "inputs": [
        {
          "internalType": "address",
          "name": "_signer",
          "type": "address"
        }
      ],
      "name": "setSigner",
      "outputs": [],
      "stateMutability": "nonpayable",
      "type": "function"
    },
    {
      "inputs": [
        {
          "internalType": "address",
          "name": "_dex",
          "type": "address"
        },
        {
          "internalType": "bytes4",
          "name": "_selector",
          "type": "bytes4"
        },
        {
          "internalType": "bool",
          "name": "_enabled",
          "type": "bool"
        }
      ],
      "name": "setSupportedDex",
      "outputs": [],
      "stateMutability": "nonpayable",
      "type": "function"
    },
    {
      "inputs": [],
      "name": "signer",
      "outputs": [
        {
          "internalType": "address",
          "name": "",
          "type": "address"
        }
      ],
      "stateMutability": "view",
      "type": "function"
    },
    {
      "inputs": [
        {
          "internalType": "address",
          "name": "newOwner",
          "type": "address"
        }
      ],
      "name": "transferOwnership",
      "outputs": [],
      "stateMutability": "nonpayable",
      "type": "function"
    },
    {
      "inputs": [
        {
          "internalType": "address",
          "name": "_dstTransferSwapper",
          "type": "address"
        },
        {
          "components": [
            {
              "internalType": "address",
              "name": "receiver",
              "type": "address"
            },
            {
              "internalType": "uint64",
              "name": "dstChainId",
              "type": "uint64"
            },
            {
              "internalType": "uint32",
              "name": "maxBridgeSlippage",
              "type": "uint32"
            },
            {
              "internalType": "enum MsgDataTypes.BridgeSendType",
              "name": "bridgeType",
              "type": "uint8"
            },
            {
              "internalType": "uint64",
              "name": "nonce",
              "type": "uint64"
            },
            {
              "internalType": "bool",
              "name": "nativeIn",
              "type": "bool"
            },
            {
              "internalType": "bool",
              "name": "nativeOut",
              "type": "bool"
            },
            {
              "internalType": "uint256",
              "name": "fee",
              "type": "uint256"
            },
            {
              "internalType": "uint256",
              "name": "feeDeadline",
              "type": "uint256"
            },
            {
              "internalType": "bytes",
              "name": "feeSig",
              "type": "bytes"
            },
            {
              "internalType": "uint256",
              "name": "amountIn",
              "type": "uint256"
            },
            {
              "internalType": "address",
              "name": "tokenIn",
              "type": "address"
            },
            {
              "internalType": "address",
              "name": "dstTokenOut",
              "type": "address"
            },
            {
              "internalType": "bool",
              "name": "allowPartialFill",
              "type": "bool"
            }
          ],
          "internalType": "struct TransferSwapper.TransferDescription",
          "name": "_desc",
          "type": "tuple"
        },
        {
          "components": [
            {
              "internalType": "address",
              "name": "dex",
              "type": "address"
            },
            {
              "internalType": "bytes",
              "name": "data",
              "type": "bytes"
            }
          ],
          "internalType": "struct ICodec.SwapDescription[]",
          "name": "_srcSwaps",
          "type": "tuple[]"
        },
        {
          "components": [
            {
              "internalType": "address",
              "name": "dex",
              "type": "address"
            },
            {
              "internalType": "bytes",
              "name": "data",
              "type": "bytes"
            }
          ],
          "internalType": "struct ICodec.SwapDescription[]",
          "name": "_dstSwaps",
          "type": "tuple[]"
        }
      ],
      "name": "transferWithSwap",
      "outputs": [],
      "stateMutability": "payable",
      "type": "function"
    },
    {
      "stateMutability": "payable",
      "type": "receive"
    }
  ],
  "transactionHash": "0x81294981e16d4c237c17adddd5adb47d2c47959eb05c285b088c654668c224dc",
  "args": [
    "0xAd204986D6cB67A5Bc76a3CB8974823F43Cb9AAA",
    "0xfCbB818c2C13775515C5088D12FD249F2Dd19966",
    "0x9532f934EfcE6c4Bf5BA078b25fDd81a780FBdfB",
    "0x9532f934EfcE6c4Bf5BA078b25fDd81a780FBdfB",
    [
      "swapExactTokensForTokens(uint256,uint256,address[],address,uint256)"
    ],
    [
      "0xcBB4832cF152FA34EA5cb710BFe9023BE6D0bE5E"
    ],
    [
      "0x9Ac64Cc6e4415144C455BD8E4837Fea55603e5c3"
    ],
    [
      "swapExactTokensForTokens(uint256,uint256,address[],address,uint256)"
    ]
  ],
  "numDeployments": 7,
  "solcInputHash": "e17b4b774392f3820311963e512b90c1",
  "bytecode": "0x60806040523480156200001157600080fd5b50604051620056f5380380620056f58339810160408190526200003491620005fa565b848685858585818185856200004933620001d5565b8051825114620000765760405162461bcd60e51b81526004016200006d906200074f565b60405180910390fd5b60005b8251811015620000ef5760008382815181106200009a576200009a62000761565b6020026020010151805190602001209050620000d981848481518110620000c557620000c562000761565b60200260200101516200022560201b60201c565b5080620000e6816200078d565b91505062000079565b50505060005b82518110156200016d57600082828151811062000116576200011662000761565b60200260200101518051906020012090506200015784838151811062000140576200014062000761565b60200260200101518260016200029760201b60201c565b508062000164816200078d565b915050620000f5565b5050600580546001600160a01b03199081166001600160a01b039889161790915560068054821698881698909817909755505060016007819055805486169d85169d909d17909c5550506008805490921698169790971790965550620007d895505050505050565b600080546001600160a01b038381166001600160a01b0319831681178455604051919092169283917f8be0079c531659141344cd1fd0a4f28419497f9722a3daafe3b4186f6b6457e09190a35050565b6001600160e01b0319909116600090815260026020526040812080546001600160a01b039093166001600160a01b031993841681179091556003805460018101825592527fc2575a0e9e593c00f959f8c92f12db2869c3395a3b0502d05e2516446f71f85b9091018054909216179055565b6001600160a01b03831660009081526004602090815260408083206001600160e01b03198616845290915290205460ff168015158215151415620002ef5760405162461bcd60e51b81526004016200006d90620007c6565b506001600160a01b0390921660009081526004602090815260408083206001600160e01b0319909416835292905220805491151560ff19909216919091179055565b60006001600160a01b0382165b92915050565b6200034f8162000331565b81146200035b57600080fd5b50565b80516200033e8162000344565b634e487b7160e01b600052604160045260246000fd5b601f19601f83011681018181106001600160401b0382111715620003a957620003a96200036b565b6040525050565b6000620003bc60405190565b9050620003ca828262000381565b919050565b60006001600160401b03821115620003eb57620003eb6200036b565b5060209081020190565b60006001600160401b038211156200041157620004116200036b565b601f19601f83011660200192915050565b60005b838110156200043f57818101518382015260200162000425565b838111156200044f576000848401525b50505050565b60006200046c6200046684620003f5565b620003b0565b905082815260208101848484011115620004895762000489600080fd5b6200049684828562000422565b509392505050565b600082601f830112620004b457620004b4600080fd5b8151620004c684826020860162000455565b949350505050565b6000620004df6200046684620003cf565b83815290506020808201908402830185811115620005005762000500600080fd5b835b81811015620005465780516001600160401b03811115620005265762000526600080fd5b8086016200053589826200049e565b855250506020928301920162000502565b5050509392505050565b600082601f830112620005665762000566600080fd5b8151620004c6848260208601620004ce565b6000620005896200046684620003cf565b83815290506020808201908402830185811115620005aa57620005aa600080fd5b835b81811015620005465780620005c288826200035e565b84525060209283019201620005ac565b600082601f830112620005e857620005e8600080fd5b8151620004c684826020860162000578565b600080600080600080600080610100898b0312156200061c576200061c600080fd5b60006200062a8b8b6200035e565b98505060206200063d8b828c016200035e565b9750506040620006508b828c016200035e565b9650506060620006638b828c016200035e565b95505060808901516001600160401b03811115620006845762000684600080fd5b620006928b828c0162000550565b94505060a08901516001600160401b03811115620006b357620006b3600080fd5b620006c18b828c01620005d2565b93505060c08901516001600160401b03811115620006e257620006e2600080fd5b620006f08b828c01620005d2565b92505060e08901516001600160401b03811115620007115762000711600080fd5b6200071f8b828c0162000550565b9150509295985092959890939650565b60068152600060208201656c656e206d6d60d01b815291505b5060200190565b602080825281016200033e816200072f565b634e487b7160e01b600052603260045260246000fd5b634e487b7160e01b600052601160045260246000fd5b6000600019821415620007a457620007a462000777565b5060010190565b600381526000602082016206e6f760ec1b8152915062000748565b602080825281016200033e81620007ab565b614f0d80620007e86000396000f3fe6080604052600436106101845760003560e01c80638da5cb5b116100d6578063c415b95c1161007f578063efcfd8f511610059578063efcfd8f514610425578063f2fde38b14610445578063fbf5d7631461046557600080fd5b8063c415b95c146103d2578063c5bccca3146103f2578063d8318ae51461041257600080fd5b8063a1a227fa116100b0578063a1a227fa1461035c578063a1c9d41e1461037c578063a42dce80146103b257600080fd5b80638da5cb5b146102e357806391ec04b5146103015780639c649fdf1461034957600080fd5b80635b5a66a711610138578063715018a611610112578063715018a61461029b5780637cd2bffc146102b057806382665a8f146102c357600080fd5b80635b5a66a71461023b578063675df7591461025b5780636c19e7831461027b57600080fd5b8063457bfa2f11610169578063457bfa2f146101e6578063547cad12146102065780635ab7afc61461022857600080fd5b80630bcb498214610190578063238ac933146101b957600080fd5b3661018b57005b600080fd5b6101a361019e366004612fc2565b6104a8565b6040516101b09190613095565b60405180910390f35b3480156101c557600080fd5b506005546101d9906001600160a01b031681565b6040516101b091906130ac565b3480156101f257600080fd5b506008546101d9906001600160a01b031681565b34801561021257600080fd5b506102266102213660046130ba565b610585565b005b6101a36102363660046131e4565b610606565b34801561024757600080fd5b506102266102563660046130ba565b6106fb565b34801561026757600080fd5b506102266102763660046132b7565b610770565b34801561028757600080fd5b506102266102963660046130ba565b6107e5565b3480156102a757600080fd5b5061022661086e565b6101a36102be3660046131e4565b6108a4565b3480156102cf57600080fd5b506101d96102de366004613307565b610a86565b3480156102ef57600080fd5b506000546001600160a01b03166101d9565b34801561030d57600080fd5b5061033c61031c366004613328565b600460209081526000928352604080842090915290825290205460ff1681565b6040516101b0919061336d565b6101a361035736600461337b565b610ab0565b34801561036857600080fd5b506001546101d9906001600160a01b031681565b34801561038857600080fd5b506101d9610397366004613307565b6009602052600090815260409020546001600160a01b031681565b3480156103be57600080fd5b506102266103cd3660046130ba565b610ae6565b3480156103de57600080fd5b506006546101d9906001600160a01b031681565b3480156103fe57600080fd5b5061022661040d3660046133b3565b610b63565b61022661042036600461346b565b610c5f565b34801561043157600080fd5b50610226610440366004613528565b610ee1565b34801561045157600080fd5b506102266104603660046130ba565b611002565b34801561047157600080fd5b5061049b610480366004613566565b6002602052600090815260409020546001600160a01b031681565b6040516101b091906135c9565b6001546000906001600160a01b031633146104de5760405162461bcd60e51b81526004016104d59061360e565b60405180910390fd5b600260075414156105015760405162461bcd60e51b81526004016104d590613652565b600260075560006105148486018661383c565b905061052787878360400151600061105e565b7f83fb878bc850fecc32634e2924a47daa8db823de1e2eb33084be9fd29f22c24581600001516000888a8560800151600260405161056a96959493929190613892565b60405180910390a16001915050600160075595945050505050565b6000546001600160a01b031633146105af5760405162461bcd60e51b81526004016104d59061391e565b600180546001600160a01b0319166001600160a01b0383169081179091556040517f3f8223bcd8b3b875473e9f9e14e1ad075451a2b5ffd31591655da9a01516bf5e916105fb916130ac565b60405180910390a150565b6001546000906001600160a01b031633146106335760405162461bcd60e51b81526004016104d59061360e565b600260075414156106565760405162461bcd60e51b81526004016104d590613652565b600260075582516000906106739085016020908101908601613b67565b905060008160800151876106879190613bb8565b905061069a88828460400151600061105e565b7f83fb878bc850fecc32634e2924a47daa8db823de1e2eb33084be9fd29f22c24582600001516000838b866080015160026040516106dd96959493929190613892565b60405180910390a16001925050505b60016007559695505050505050565b6000546001600160a01b031633146107255760405162461bcd60e51b81526004016104d59061391e565b600880546001600160a01b0319166001600160a01b0383161790556040517fb878cd71628ac64b2df1872301925e01164824535b02e8601077749eeeb88c3d906105fb9083906130ac565b6000546001600160a01b0316331461079a5760405162461bcd60e51b81526004016104d59061391e565b6107a583838361118e565b7f5e20184b00709d9f103306958e9fb9d509f78bec1829ca7080f2c43eb2ff21a88383836040516107d893929190613bdf565b60405180910390a1505050565b6000546001600160a01b0316331461080f5760405162461bcd60e51b81526004016104d59061391e565b600580546001600160a01b038381166001600160a01b03198316179092556040519116907f2d025324f0a785e8c12d0a0d91a9caa49df4ef20ff87e0df7213a1d4f3157beb906108629083908590613c07565b60405180910390a15050565b6000546001600160a01b031633146108985760405162461bcd60e51b81526004016104d59061391e565b6108a26000611225565b565b6001546000906001600160a01b031633146108d15760405162461bcd60e51b81526004016104d59061360e565b600260075414156108f45760405162461bcd60e51b81526004016104d590613652565b600260075582516000906109119085016020908101908601613b67565b90508060800151861015610974576080810186905280516040517f83fb878bc850fecc32634e2924a47daa8db823de1e2eb33084be9fd29f22c245916109629160009081908c908c90600190613c22565b60405180910390a160019150506106ec565b60808101516109839087613bb8565b955060608101516020820151518891908890600090156109fd57606060006109ae8760200151611275565b90985093509150506001600160a01b03808216908e16146109e15760405162461bcd60e51b81526004016104d590613c7e565b6109f58760200151838e8a60a001516114a3565b909450925050505b8015610a1457610a148b828760400151600061105e565b610a24848387604001518661105e565b7f83fb878bc850fecc32634e2924a47daa8db823de1e2eb33084be9fd29f22c245856000015183838e89608001516001604051610a6696959493929190613c8e565b60405180910390a160019550505050505060016007559695505050505050565b60038181548110610a9657600080fd5b6000918252602090912001546001600160a01b0316905081565b6001546000906001600160a01b03163314610add5760405162461bcd60e51b81526004016104d59061360e565b95945050505050565b6000546001600160a01b03163314610b105760405162461bcd60e51b81526004016104d59061391e565b600680546001600160a01b038381166001600160a01b03198316179092556040519116907f5d16ad41baeb009cd23eb8f6c7cde5c2e0cd5acf4a33926ab488875c37c37f38906108629083908590613c07565b6000546001600160a01b03163314610b8d5760405162461bcd60e51b81526004016104d59061391e565b60008383604051610b9f929190613cbc565b60405180910390209050610c2081836001600160e01b0319909116600090815260026020526040812080546001600160a01b039093166001600160a01b031993841681179091556003805460018101825592527fc2575a0e9e593c00f959f8c92f12db2869c3395a3b0502d05e2516446f71f85b9091018054909216179055565b7f58ddcdb40971f55ad1b6a8a28067274a4ffc7e9d77c3ea14a17652faa705e1978183604051610c51929190613cc9565b60405180910390a150505050565b60026007541415610c825760405162461bcd60e51b81526004016104d590613652565b600260075582151580610cb8575067ffffffffffffffff4616610cab6040870160208801613cd7565b67ffffffffffffffff1614155b610cd45760405162461bcd60e51b81526004016104d590613d12565b82151580610d0c575061014085013515801590610d0c57506000610d00610180870161016088016130ba565b6001600160a01b031614155b610d285760405162461bcd60e51b81526004016104d590613d12565b6101408501356000610d42610180880161016089016130ba565b90506000610d5861018089016101608a016130ba565b905060608615610dc057610d74610d6f888a613d22565b611275565b92965090945092509050610d906101808a016101608b016130ba565b6001600160a01b0316836001600160a01b031614610dc05760405162461bcd60e51b81526004016104d590613c7e565b610dd060c08a0160a08b01613d2f565b15610e90576008546001600160a01b03848116911614610e025760405162461bcd60e51b81526004016104d590613d84565b83341015610e225760405162461bcd60e51b81526004016104d590613dc8565b600860009054906101000a90046001600160a01b03166001600160a01b031663d0e30db0856040518263ffffffff1660e01b81526004016000604051808303818588803b158015610e7257600080fd5b505af1158015610e86573d6000803e3d6000fd5b5050505050610ea5565b610ea56001600160a01b0384163330876117e6565b610ed08a858585610eb68c8e613d22565b610ec08b8d613d22565b8f610eca90613f6a565b88611853565b505060016007555050505050505050565b6006546001600160a01b03163314610f0b5760405162461bcd60e51b81526004016104d590613faa565b60005b82811015610ffc576000848483818110610f2a57610f2a613fba565b9050602002016020810190610f3f91906130ba565b6001600160a01b03166370a08231306040518263ffffffff1660e01b8152600401610f6a91906130ac565b602060405180830381865afa158015610f87573d6000803e3d6000fd5b505050506040513d601f19601f82011682018060405250810190610fab9190613fd0565b9050610fe98382878786818110610fc457610fc4613fba565b9050602002016020810190610fd991906130ba565b6001600160a01b031691906119c3565b5080610ff481613ff1565b915050610f0e565b50505050565b6000546001600160a01b0316331461102c5760405162461bcd60e51b81526004016104d59061391e565b6001600160a01b0381166110525760405162461bcd60e51b81526004016104d590614069565b61105b81611225565b50565b801561117a576008546001600160a01b038581169116146110915760405162461bcd60e51b81526004016104d5906140ad565b600854604051632e1a7d4d60e01b81526001600160a01b0390911690632e1a7d4d906110c19086906004016140bd565b600060405180830381600087803b1580156110db57600080fd5b505af11580156110ef573d6000803e3d6000fd5b505050506000826001600160a01b03168461c35090604051611110906140cb565b600060405180830381858888f193505050503d806000811461114e576040519150601f19603f3d011682016040523d82523d6000602084013e611153565b606091505b50509050806111745760405162461bcd60e51b81526004016104d59061410a565b50610ffc565b610ffc6001600160a01b03851683856119c3565b6001600160a01b03831660009081526004602090815260408083206001600160e01b03198616845290915290205460ff1680151582151514156111e35760405162461bcd60e51b81526004016104d590613d12565b506001600160a01b0390921660009081526004602090815260408083206001600160e01b0319909416835292905220805491151560ff19909216919091179055565b600080546001600160a01b038381166001600160a01b0319831681178455604051919092169283917f8be0079c531659141344cd1fd0a4f28419497f9722a3daafe3b4186f6b6457e09190a35050565b60008060006060600080611288876119e7565b925060005b875181101561149957600460008983815181106112ac576112ac613fba565b6020026020010151600001516001600160a01b03166001600160a01b0316815260200190815260200160002060008983815181106112ec576112ec613fba565b6020026020010151602001516113019061412e565b6001600160e01b031916815260208101919091526040016000205460ff1661133b5760405162461bcd60e51b81526004016104d5906141a7565b600080600086848151811061135257611352613fba565b60200260200101516001600160a01b031663358f0e1c8c868151811061137a5761137a613fba565b60200260200101516040518263ffffffff1660e01b815260040161139e9190614215565b606060405180830381865afa1580156113bb573d6000803e3d6000fd5b505050506040513d601f19601f820116820180604052508101906113df9190614226565b919450925090506001600160a01b038616158061140d5750816001600160a01b0316866001600160a01b0316145b6114295760405162461bcd60e51b81526004016104d5906142a0565b90945084906001600160a01b03851615806114555750806001600160a01b0316856001600160a01b0316145b6114715760405162461bcd60e51b81526004016104d5906142e4565b93508361147e838b6142f4565b9950909750955081905061149181613ff1565b91505061128d565b5050509193509193565b60008060008060006114b689888a611b27565b9250925092506000816001600160a01b03166370a08231306040518263ffffffff1660e01b81526004016114ea91906130ac565b602060405180830381865afa158015611507573d6000803e3d6000fd5b505050506040513d601f19601f8201168201806040525081019061152b9190613fd0565b905060005b8a518110156117395760008a828151811061154d5761154d613fba565b60200260200101516001600160a01b0316634c6da2698d848151811061157557611575613fba565b60200260200101516020015188858151811061159357611593613fba565b6020026020010151306040518463ffffffff1660e01b81526004016115ba9392919061430c565b600060405180830381865afa1580156115d7573d6000803e3d6000fd5b505050506040513d6000823e601f3d908101601f191682016040526115ff9190810190614339565b90506116558c838151811061161657611616613fba565b60200260200101516000015187848151811061163457611634613fba565b6020026020010151876001600160a01b0316611cdc9092919063ffffffff16565b60008c838151811061166957611669613fba565b6020026020010151600001516001600160a01b03168260405161168c9190614396565b6000604051808303816000865af19150503d80600081146116c9576040519150601f19603f3d011682016040523d82523d6000602084013e6116ce565b606091505b5050905080806116db5750895b6116f75760405162461bcd60e51b81526004016104d5906143d6565b806117245786838151811061170e5761170e613fba565b60200260200101518861172191906142f4565b97505b5050808061173190613ff1565b915050611530565b506040516370a0823160e01b81526000906001600160a01b038416906370a08231906117699030906004016130ac565b602060405180830381865afa158015611786573d6000803e3d6000fd5b505050506040513d601f19601f820116820180604052508101906117aa9190613fd0565b90506117b68282613bb8565b9650600087116117d85760405162461bcd60e51b81526004016104d59061441a565b505050505094509492505050565b610ffc846323b872dd60e01b8585856040516024016118079392919061442a565b60408051601f198184030181529190526020810180517bffffffffffffffffffffffffffffffffffffffffffffffffffffffff166001600160e01b031990931692909217909152611d79565b835187901561188b5760006118688684611e08565b92509050806118895760405162461bcd60e51b81526004016104d590614486565b505b600061189f84600001518560800151612152565b90504667ffffffffffffffff16846020015167ffffffffffffffff16141561191b577f0e248ac8be20725176a5f0ab093c5fbb964634d4675012f3d3ad66e69e56d5b7818a8a858b6040516118f8959493929190614496565b60405180910390a1611914878386600001518760c0015161105e565b50506119b9565b611926848a8a61218a565b60a084015134901561193f5761193c8a34613bb8565b90505b600080875111611950578551611952565b8b5b905060006119658483898b898f89612213565b90507fbac7d3515b47f762d5edcc83b041c8ad43133089d06f60e3b8f307a66fcb6221848289602001518f8f8c6101800151886040516119ab97969594939291906144f2565b60405180910390a150505050505b5050505050505050565b6119e28363a9059cbb60e01b848460405160240161180792919061455a565b505050565b60606000825167ffffffffffffffff811115611a0557611a056130f6565b604051908082528060200260200182016040528015611a2e578160200160208202803683370190505b50905060005b8351811015611b20576000848281518110611a5157611a51613fba565b602002602001015160200151611a669061412e565b6001600160e01b0319811660009081526002602052604090205484519192506001600160a01b031690849084908110611aa157611aa1613fba565b60200260200101906001600160a01b031690816001600160a01b03168152505060006001600160a01b0316838381518110611ade57611ade613fba565b60200260200101516001600160a01b03161415611b0d5760405162461bcd60e51b81526004016104d5906145a9565b5080611b1881613ff1565b915050611a34565b5092915050565b60606000806000865167ffffffffffffffff811115611b4857611b486130f6565b604051908082528060200260200182016040528015611b71578160200160208202803683370190505b50935060005b8751811015611c65576000868281518110611b9457611b94613fba565b60200260200101516001600160a01b031663358f0e1c8a8481518110611bbc57611bbc613fba565b60200260200101516040518263ffffffff1660e01b8152600401611be09190614215565b606060405180830381865afa158015611bfd573d6000803e3d6000fd5b505050506040513d601f19601f82011682018060405250810190611c219190614226565b90965094509050611c3281846142f4565b925080868381518110611c4757611c47613fba565b60209081029190910101525080611c5d81613ff1565b915050611b77565b5060005b8451811015611cd15781858281518110611c8557611c85613fba565b602002602001015188611c9891906145b9565b611ca291906145ee565b858281518110611cb457611cb4613fba565b602090810291909101015280611cc981613ff1565b915050611c69565b505093509350939050565b600081846001600160a01b031663dd62ed3e30866040518363ffffffff1660e01b8152600401611d0d929190613c07565b602060405180830381865afa158015611d2a573d6000803e3d6000fd5b505050506040513d601f19601f82011682018060405250810190611d4e9190613fd0565b611d5891906142f4565b9050610ffc8463095ea7b360e01b858460405160240161180792919061455a565b6000611dce826040518060400160405280602081526020017f5361666545524332303a206c6f772d6c6576656c2063616c6c206661696c6564815250856001600160a01b03166122679092919063ffffffff16565b8051909150156119e25780806020019051810190611dec9190614602565b6119e25760405162461bcd60e51b81526004016104d59061467d565b60008060005b8451811015612149576000806000868481518110611e2e57611e2e613fba565b60200260200101516001600160a01b031663358f0e1c898681518110611e5657611e56613fba565b60200260200101516040518263ffffffff1660e01b8152600401611e7a9190614215565b606060405180830381865afa158015611e97573d6000803e3d6000fd5b505050506040513d601f19601f82011682018060405250810190611ebb9190614226565b9250925092506000878581518110611ed557611ed5613fba565b60200260200101516001600160a01b0316634c6da2698a8781518110611efd57611efd613fba565b60200260200101516020015186306040518463ffffffff1660e01b8152600401611f299392919061430c565b600060405180830381865afa158015611f46573d6000803e3d6000fd5b505050506040513d6000823e601f3d908101601f19168201604052611f6e9190810190614339565b9050611fa2898681518110611f8557611f85613fba565b6020908102919091010151516001600160a01b0385169086611cdc565b6040516370a0823160e01b81526000906001600160a01b038416906370a0823190611fd19030906004016130ac565b602060405180830381865afa158015611fee573d6000803e3d6000fd5b505050506040513d601f19601f820116820180604052508101906120129190613fd0565b905089868151811061202657612026613fba565b6020026020010151600001516001600160a01b0316826040516120499190614396565b6000604051808303816000865af19150503d8060008114612086576040519150601f19603f3d011682016040523d82523d6000602084013e61208b565b606091505b505080985050876120a8576000809750975050505050505061214b565b6040516370a0823160e01b81526000906001600160a01b038516906370a08231906120d79030906004016130ac565b602060405180830381865afa1580156120f4573d6000803e3d6000fd5b505050506040513d601f19601f820116820180604052508101906121189190613fd0565b90506121248282613bb8565b61212e90896142f4565b9750505050505050808061214190613ff1565b915050611e0e565b505b9250929050565b60003383468460405160200161216b94939291906146d4565b6040516020818303038152906040528051906020012090505b92915050565b600046846020015184848761010001518860e001516040516020016121b49695949392919061471c565b60405160208183030381529060405280519060200120905060006121d782612280565b90506121e8818661012001516122b0565b428561010001511161220c5760405162461bcd60e51b81526004016104d5906147e0565b5050505050565b6000806122218988886122ec565b905061225a8885878a602001518b608001518c60400151878e60600151600160009054906101000a90046001600160a01b03168c612361565b9998505050505050505050565b606061227684846000856123fa565b90505b9392505050565b60008160405160200161229391906147f0565b604051602081830303815290604052805190602001209050919050565b60006122bc83836124be565b6005549091506001600160a01b038083169116146119e25760405162461bcd60e51b81526004016104d59061485f565b60606040518060c0016040528085815260200183815260200184600001516001600160a01b031681526020018460c00151151581526020018460e001518152602001846101a001511515815250604051602001612349919061495b565b60405160208183030381529060405290509392505050565b60008060006123768d8d8d8d8d8d8c8c6124e2565b88519193509150156123ea57846001600160a01b0316634289fbb3858f8d85878d6040518763ffffffff1660e01b81526004016123b795949392919061498b565b6000604051808303818588803b1580156123d057600080fd5b505af11580156123e4573d6000803e3d6000fd5b50505050505b509b9a5050505050505050505050565b60608247101561241c5760405162461bcd60e51b81526004016104d590614a2c565b6001600160a01b0385163b6124435760405162461bcd60e51b81526004016104d590614a70565b600080866001600160a01b0316858760405161245f9190614396565b60006040518083038185875af1925050503d806000811461249c576040519150601f19603f3d011682016040523d82523d6000602084013e6124a1565b606091505b50915091506124b1828286612b29565b925050505b949350505050565b60008060006124cd8585612b62565b915091506124da81612bcf565b509392505050565b60008060018460068111156124f9576124f9613046565b14156125f357826001600160a01b03166382980dc46040518163ffffffff1660e01b8152600401602060405180830381865afa15801561253d573d6000803e3d6000fd5b505050506040513d601f19601f820116820180604052508101906125619190614a80565b90506125776001600160a01b038a16828a611cdc565b60405163a5977fbb60e01b81526001600160a01b0382169063a5977fbb906125ad908d908d908d908d908d908d90600401614aad565b600060405180830381600087803b1580156125c757600080fd5b505af11580156125db573d6000803e3d6000fd5b505050506125ec8a8a8a8a8a612cb4565b9150612b1c565b600284600681111561260757612607613046565b14156126f857826001600160a01b031663d8257d176040518163ffffffff1660e01b8152600401602060405180830381865afa15801561264b573d6000803e3d6000fd5b505050506040513d601f19601f8201168201806040525081019061266f9190614a80565b90506126856001600160a01b038a16828a611cdc565b806001600160a01b031663234636248a8a8a8e8b6040518663ffffffff1660e01b81526004016126b9959493929190614afc565b600060405180830381600087803b1580156126d357600080fd5b505af11580156126e7573d6000803e3d6000fd5b505050506125ec8a8a8a8a8a612cf4565b600384600681111561270c5761270c613046565b141561281057826001600160a01b031663dfa2dbaf6040518163ffffffff1660e01b8152600401602060405180830381865afa158015612750573d6000803e3d6000fd5b505050506040513d601f19601f820116820180604052508101906127749190614a80565b905061278a6001600160a01b038a16828a611cdc565b604051636f3c863f60e11b81526001600160a01b0382169063de790c7e906127bc908c908c908f908c90600401614b3e565b600060405180830381600087803b1580156127d657600080fd5b505af11580156127ea573d6000803e3d6000fd5b50612804925050506001600160a01b038a16826000612d13565b6125ec8a8a8a89612dc7565b600484600681111561282457612824613046565b141561291957826001600160a01b031663c66a9c5a6040518163ffffffff1660e01b8152600401602060405180830381865afa158015612868573d6000803e3d6000fd5b505050506040513d601f19601f8201168201806040525081019061288c9190614a80565b90506128a26001600160a01b038a16828a611cdc565b806001600160a01b031663234636248a8a8a8e8b6040518663ffffffff1660e01b81526004016128d6959493929190614afc565b6020604051808303816000875af11580156128f5573d6000803e3d6000fd5b505050506040513d601f19601f820116820180604052508101906125ec9190613fd0565b600584600681111561292d5761292d613046565b1415612a3e57826001600160a01b03166395b12c276040518163ffffffff1660e01b8152600401602060405180830381865afa158015612971573d6000803e3d6000fd5b505050506040513d601f19601f820116820180604052508101906129959190614a80565b90506129ab6001600160a01b038a16828a611cdc565b806001600160a01b031663a00293018a8a8a8e8b6040518663ffffffff1660e01b81526004016129df959493929190614afc565b6020604051808303816000875af11580156129fe573d6000803e3d6000fd5b505050506040513d601f19601f82011682018060405250810190612a229190613fd0565b9150612a396001600160a01b038a16826000612d13565b612b1c565b6006846006811115612a5257612a52613046565b1415612b0457826001600160a01b03166395b12c276040518163ffffffff1660e01b8152600401602060405180830381865afa158015612a96573d6000803e3d6000fd5b505050506040513d601f19601f82011682018060405250810190612aba9190614a80565b9050612ad06001600160a01b038a16828a611cdc565b806001600160a01b0316639e422c338a8a8a8e8b6040518663ffffffff1660e01b81526004016129df959493929190614afc565b60405162461bcd60e51b81526004016104d590614ba7565b9850989650505050505050565b60608315612b38575081612279565b825115612b485782518084602001fd5b8160405162461bcd60e51b81526004016104d59190614bb7565b600080825160411415612b995760208301516040840151606085015160001a612b8d87828585612e04565b9450945050505061214b565b825160401415612bc35760208301516040840151612bb8868383612ee4565b93509350505061214b565b5060009050600261214b565b6000816004811115612be357612be3613046565b1415612bec5750565b6001816004811115612c0057612c00613046565b1415612c1e5760405162461bcd60e51b81526004016104d590614bfc565b6002816004811115612c3257612c32613046565b1415612c505760405162461bcd60e51b81526004016104d590614c40565b6003816004811115612c6457612c64613046565b1415612c825760405162461bcd60e51b81526004016104d590614c8f565b6004816004811115612c9657612c96613046565b141561105b5760405162461bcd60e51b81526004016104d590614cde565b600030868686868646604051602001612cd39796959493929190614cee565b60405160208183030381529060405280519060200120905095945050505050565b600030858585898646604051602001612cd39796959493929190614d69565b801580612d8c5750604051636eb1769f60e11b81526001600160a01b0384169063dd62ed3e90612d499030908690600401613c07565b602060405180830381865afa158015612d66573d6000803e3d6000fd5b505050506040513d601f19601f82011682018060405250810190612d8a9190613fd0565b155b612da85760405162461bcd60e51b81526004016104d590614e1f565b6119e28363095ea7b360e01b848460405160240161180792919061455a565b6000308484878546604051602001612de496959493929190614e2f565b604051602081830303815290604052805190602001209050949350505050565b6000807f7fffffffffffffffffffffffffffffff5d576e7357a4501ddfe92f46681b20a0831115612e3b5750600090506003612edb565b8460ff16601b14158015612e5357508460ff16601c14155b15612e645750600090506004612edb565b600060018787878760405160008152602001604052604051612e899493929190614ea2565b6020604051602081039080840390855afa158015612eab573d6000803e3d6000fd5b5050604051601f1901519150506001600160a01b038116612ed457600060019250925050612edb565b9150600090505b94509492505050565b6000807f7fffffffffffffffffffffffffffffffffffffffffffffffffffffffffffffff831681612f1a60ff86901c601b6142f4565b9050612f2887828885612e04565b935093505050935093915050565b60006001600160a01b038216612184565b612f5081612f36565b811461105b57600080fd5b803561218481612f47565b80612f50565b803561218481612f66565b60008083601f840112612f8c57612f8c600080fd5b50813567ffffffffffffffff811115612fa757612fa7600080fd5b60208301915083600182028301111561214b5761214b600080fd5b600080600080600060808688031215612fdd57612fdd600080fd5b6000612fe98888612f5b565b9550506020612ffa88828901612f6c565b945050604086013567ffffffffffffffff81111561301a5761301a600080fd5b61302688828901612f77565b9350935050606061303988828901612f5b565b9150509295509295909350565b634e487b7160e01b600052602160045260246000fd5b6003811061105b5761105b613046565b806130768161305c565b919050565b60006121848261306c565b61308f8161307b565b82525050565b602081016121848284613086565b61308f81612f36565b6020810161218482846130a3565b6000602082840312156130cf576130cf600080fd5b60006124b68484612f5b565b67ffffffffffffffff8116612f50565b8035612184816130db565b634e487b7160e01b600052604160045260246000fd5b601f19601f830116810181811067ffffffffffffffff82111715613132576131326130f6565b6040525050565b600061314460405190565b9050613076828261310c565b600067ffffffffffffffff82111561316a5761316a6130f6565b601f19601f83011660200192915050565b82818337506000910152565b600061319a61319584613150565b613139565b9050828152602081018484840111156131b5576131b5600080fd5b6124da84828561317b565b600082601f8301126131d4576131d4600080fd5b81356124b6848260208601613187565b60008060008060008060c0878903121561320057613200600080fd5b600061320c8989612f5b565b965050602061321d89828a01612f5b565b955050604061322e89828a01612f6c565b945050606061323f89828a016130eb565b935050608087013567ffffffffffffffff81111561325f5761325f600080fd5b61326b89828a016131c0565b92505060a061327c89828a01612f5b565b9150509295509295509295565b6001600160e01b03198116612f50565b803561218481613289565b801515612f50565b8035612184816132a4565b6000806000606084860312156132cf576132cf600080fd5b60006132db8686612f5b565b93505060206132ec86828701613299565b92505060406132fd868287016132ac565b9150509250925092565b60006020828403121561331c5761331c600080fd5b60006124b68484612f6c565b6000806040838503121561333e5761333e600080fd5b600061334a8585612f5b565b925050602061335b85828601613299565b9150509250929050565b80151561308f565b602081016121848284613365565b60008060008060006080868803121561339657613396600080fd5b60006133a28888612f5b565b9550506020612ffa888289016130eb565b6000806000604084860312156133cb576133cb600080fd5b833567ffffffffffffffff8111156133e5576133e5600080fd5b6133f186828701612f77565b935093505060206132fd86828701612f5b565b60006101c0828403121561341a5761341a600080fd5b50919050565b60008083601f84011261343557613435600080fd5b50813567ffffffffffffffff81111561345057613450600080fd5b60208301915083602082028301111561214b5761214b600080fd5b6000806000806000806080878903121561348757613487600080fd5b60006134938989612f5b565b965050602087013567ffffffffffffffff8111156134b3576134b3600080fd5b6134bf89828a01613404565b955050604087013567ffffffffffffffff8111156134df576134df600080fd5b6134eb89828a01613420565b9450945050606087013567ffffffffffffffff81111561350d5761350d600080fd5b61351989828a01613420565b92509250509295509295509295565b60008060006040848603121561354057613540600080fd5b833567ffffffffffffffff81111561355a5761355a600080fd5b6133f186828701613420565b60006020828403121561357b5761357b600080fd5b60006124b68484613299565b60006121846001600160a01b03831661359e565b90565b6001600160a01b031690565b600061218482613587565b6000612184826135aa565b61308f816135b5565b6020810161218482846135c0565b601981526000602082017f63616c6c6572206973206e6f74206d6573736167652062757300000000000000815291505b5060200190565b60208082528101612184816135d7565b601f81526000602082017f5265656e7472616e637947756172643a207265656e7472616e742063616c6c0081529150613607565b602080825281016121848161361e565b600067ffffffffffffffff82111561367c5761367c6130f6565b5060209081020190565b60006040828403121561369b5761369b600080fd5b6136a56040613139565b905060006136b38484612f5b565b825250602082013567ffffffffffffffff8111156136d3576136d3600080fd5b6136df848285016131c0565b60208301525092915050565b60006136f961319584613662565b8381529050602080820190840283018581111561371857613718600080fd5b835b8181101561375957803567ffffffffffffffff81111561373c5761373c600080fd5b8086016137498982613686565b855250506020928301920161371a565b5050509392505050565b600082601f83011261377757613777600080fd5b81356124b68482602086016136eb565b600060c0828403121561379c5761379c600080fd5b6137a660c0613139565b905060006137b48484612f6c565b825250602082013567ffffffffffffffff8111156137d4576137d4600080fd5b6137e084828501613763565b60208301525060406137f484828501612f5b565b6040830152506060613808848285016132ac565b606083015250608061381c84828501612f6c565b60808301525060a0613830848285016132ac565b60a08301525092915050565b60006020828403121561385157613851600080fd5b813567ffffffffffffffff81111561386b5761386b600080fd5b6124b684828501613787565b8061308f565b600061218461359b8381565b61308f8161387d565b60c081016138a08289613877565b6138ad6020830188613889565b6138ba6040830187613877565b6138c760608301866130a3565b6138d46080830185613877565b6138e160a0830184613086565b979650505050505050565b60208082527f4f776e61626c653a2063616c6c6572206973206e6f7420746865206f776e657291019081526000613607565b60208082528101612184816138ec565b805161218481612f66565b805161218481612f47565b60005b8381101561395f578181015183820152602001613947565b83811115610ffc5750506000910152565b600061397e61319584613150565b90508281526020810184848401111561399957613999600080fd5b6124da848285613944565b600082601f8301126139b8576139b8600080fd5b81516124b6848260208601613970565b6000604082840312156139dd576139dd600080fd5b6139e76040613139565b905060006139f58484613939565b825250602082015167ffffffffffffffff811115613a1557613a15600080fd5b6136df848285016139a4565b6000613a2f61319584613662565b83815290506020808201908402830185811115613a4e57613a4e600080fd5b835b8181101561375957805167ffffffffffffffff811115613a7257613a72600080fd5b808601613a7f89826139c8565b8552505060209283019201613a50565b600082601f830112613aa357613aa3600080fd5b81516124b6848260208601613a21565b8051612184816132a4565b600060c08284031215613ad357613ad3600080fd5b613add60c0613139565b90506000613aeb848461392e565b825250602082015167ffffffffffffffff811115613b0b57613b0b600080fd5b613b1784828501613a8f565b6020830152506040613b2b84828501613939565b6040830152506060613b3f84828501613ab3565b6060830152506080613b538482850161392e565b60808301525060a061383084828501613ab3565b600060208284031215613b7c57613b7c600080fd5b815167ffffffffffffffff811115613b9657613b96600080fd5b6124b684828501613abe565b634e487b7160e01b600052601160045260246000fd5b600082821015613bca57613bca613ba2565b500390565b6001600160e01b0319811661308f565b60608101613bed82866130a3565b613bfa6020830185613bcf565b6124b66040830184613365565b60408101613c1582856130a3565b61227960208301846130a3565b60c08101613c308289613877565b613c3d6020830188613889565b6138ba6040830187613889565b600781526000602082017f746b696e206d6d0000000000000000000000000000000000000000000000000081529150613607565b6020808252810161218481613c4a565b60c08101613c9c8289613877565b6138ad6020830188613877565b6000613cb683858461317b565b50500190565b60006124b6828486613ca9565b60408101613c158285613bcf565b600060208284031215613cec57613cec600080fd5b60006124b684846130eb565b600381526000602082016206e6f760ec1b81529150613607565b6020808252810161218481613cf8565b60006122793684846136eb565b600060208284031215613d4457613d44600080fd5b60006124b684846132ac565b601281526000602082017f746b696e206e6f206e617469766557726170000000000000000000000000000081529150613607565b6020808252810161218481613d50565b600b81526000602082017f696e7366636e7420616d7400000000000000000000000000000000000000000081529150613607565b6020808252810161218481613d94565b63ffffffff8116612f50565b803561218481613dd8565b6007811061105b57600080fd5b803561218481613def565b60006101c08284031215613e1d57613e1d600080fd5b613e286101c0613139565b90506000613e368484612f5b565b8252506020613e47848483016130eb565b6020830152506040613e5b84828501613de4565b6040830152506060613e6f84828501613dfc565b6060830152506080613e83848285016130eb565b60808301525060a0613e97848285016132ac565b60a08301525060c0613eab848285016132ac565b60c08301525060e0613ebf84828501612f6c565b60e083015250610100613ed484828501612f6c565b6101008301525061012082013567ffffffffffffffff811115613ef957613ef9600080fd5b613f05848285016131c0565b61012083015250610140613f1b84828501612f6c565b61014083015250610160613f3184828501612f5b565b61016083015250610180613f4784828501612f5b565b610180830152506101a0613f5d848285016132ac565b6101a08301525092915050565b60006121843683613e07565b601181526000602082017f6e6f742066656520636f6c6c6563746f7200000000000000000000000000000081529150613607565b6020808252810161218481613f76565b634e487b7160e01b600052603260045260246000fd5b600060208284031215613fe557613fe5600080fd5b60006124b6848461392e565b600060001982141561400557614005613ba2565b5060010190565b602681526000602082017f4f776e61626c653a206e6577206f776e657220697320746865207a65726f206181527f6464726573730000000000000000000000000000000000000000000000000000602082015291505b5060400190565b602080825281016121848161400c565b600c81526000602082017f746b206e6f206e6174697665000000000000000000000000000000000000000081529150613607565b6020808252810161218481614079565b602081016121848284613877565b60006121848261359b565b600981526000602082017f73656e64206661696c000000000000000000000000000000000000000000000081529150613607565b60208082528101612184816140d6565b600061218482516001600160e01b03191690565b6000614138825190565b602083016141458161411a565b9250600482101561416c576141676001600160e01b0319836004036008021b90565b831692505b5050919050565b600f81526000602082017f756e737570706f7274656420646578000000000000000000000000000000000081529150613607565b6020808252810161218481614173565b60006141c1825190565b8084526020840193506141d8818560208601613944565b601f01601f19169290920192915050565b805160009060408401906141fd85826130a3565b5060208301518482036020860152610add82826141b7565b6020808252810161227981846141e9565b60008060006060848603121561423e5761423e600080fd5b600061424a868661392e565b935050602061425b86828701613939565b92505060406132fd86828701613939565b600d81526000602082017f746b696e206d69736d617463680000000000000000000000000000000000000081529150613607565b602080825281016121848161426c565b600c81526000602082017f746b6f206d69736d61746368000000000000000000000000000000000000000081529150613607565b60208082528101612184816142b0565b6000821982111561430757614307613ba2565b500190565b6060808252810161431d81866141b7565b905061432c6020830185613877565b6124b660408301846130a3565b60006020828403121561434e5761434e600080fd5b815167ffffffffffffffff81111561436857614368600080fd5b6124b6848285016139a4565b600061437e825190565b61438c818560208601613944565b9290920192915050565b60006122798284614374565b600b81526000602082017f73776170206661696c656400000000000000000000000000000000000000000081529150613607565b60208082528101612184816143a2565b601081526000602082017f616c6c207377617073206661696c65640000000000000000000000000000000081529150613607565b60208082528101612184816143e6565b6060810161443882866130a3565b61444560208301856130a3565b6124b66040830184613877565b600981526000602082017f73776170206661696c000000000000000000000000000000000000000000000081529150613607565b6020808252810161218481614452565b60a081016144a48288613877565b6144b16020830187613877565b6144be60408301866130a3565b6144cb6060830185613877565b6144d860808301846130a3565b9695505050505050565b67ffffffffffffffff811661308f565b60e08101614500828a613877565b61450d6020830189613877565b61451a60408301886144e2565b6145276060830187613877565b61453460808301866130a3565b61454160a08301856130a3565b61454e60c08301846130a3565b98975050505050505050565b6040810161456882856130a3565b6122796020830184613877565b600c81526000602082017f636463206e6f20666f756e64000000000000000000000000000000000000000081529150613607565b6020808252810161218481614575565b60008160001904831182151516156145d3576145d3613ba2565b500290565b634e487b7160e01b600052601260045260246000fd5b6000826145fd576145fd6145d8565b500490565b60006020828403121561461757614617600080fd5b60006124b68484613ab3565b602a81526000602082017f5361666545524332303a204552433230206f7065726174696f6e20646964206e81527f6f7420737563636565640000000000000000000000000000000000000000000060208201529150614062565b6020808252810161218481614623565b60006121848260601b90565b60006121848261468d565b61308f6146b082612f36565b614699565b60006121848260c01b90565b61308f67ffffffffffffffff82166146b5565b60006146e082876146a4565b6014820191506146f082866146a4565b60148201915061470082856146c1565b60088201915061471082846146c1565b50600801949350505050565b7f6578656375746f722066656500000000000000000000000000000000000000008152600c01600061474e82896146c1565b60088201915061475e82886146c1565b60088201915061476e8287613877565b60208201915061477e82866146a4565b60148201915061478e8285613877565b60208201915061479e8284613877565b506020019695505050505050565b601181526000602082017f646561646c696e6520657863656564656400000000000000000000000000000081529150613607565b60208082528101612184816147ac565b7f19457468657265756d205369676e6564204d6573736167653a0a3332000000008152601c0160006148228284613877565b50602001919050565b600e81526000602082017f696e76616c6964207369676e657200000000000000000000000000000000000081529150613607565b602080825281016121848161482b565b600061227983836141e9565b6000614885825190565b8084526020840193508360208202850161489f8560200190565b8060005b858110156148d457848403895281516148bc858261486f565b94506020830160209a909a01999250506001016148a3565b5091979650505050505050565b805160009060c08401906148f58582613877565b506020830151848203602086015261490d828261487b565b915050604083015161492260408601826130a3565b5060608301516149356060860182613365565b5060808301516149486080860182613877565b5060a08301516124da60a0860182613365565b6020808252810161227981846148e1565b600061218461359b67ffffffffffffffff841681565b61308f8161496c565b60a0810161499982886130a3565b6149a66020830187614982565b6149b360408301866130a3565b6149c06060830185613877565b81810360808301526138e181846141b7565b602681526000602082017f416464726573733a20696e73756666696369656e742062616c616e636520666f81527f722063616c6c000000000000000000000000000000000000000000000000000060208201529150614062565b60208082528101612184816149d2565b601d81526000602082017f416464726573733a2063616c6c20746f206e6f6e2d636f6e747261637400000081529150613607565b6020808252810161218481614a3c565b600060208284031215614a9557614a95600080fd5b60006124b68484613939565b63ffffffff811661308f565b60c08101614abb82896130a3565b614ac860208301886130a3565b614ad56040830187613877565b614ae260608301866144e2565b614aef60808301856144e2565b6138e160a0830184614aa1565b60a08101614b0a82886130a3565b614b176020830187613877565b614b2460408301866144e2565b614b3160608301856130a3565b6144d860808301846144e2565b60808101614b4c82876130a3565b614b596020830186613877565b614b6660408301856130a3565b610add60608301846144e2565b601981526000602082017f6272696467652074797065206e6f7420737570706f727465640000000000000081529150613607565b6020808252810161218481614b73565b6020808252810161227981846141b7565b601881526000602082017f45434453413a20696e76616c6964207369676e6174757265000000000000000081529150613607565b6020808252810161218481614bc8565b601f81526000602082017f45434453413a20696e76616c6964207369676e6174757265206c656e6774680081529150613607565b6020808252810161218481614c0c565b602281526000602082017f45434453413a20696e76616c6964207369676e6174757265202773272076616c815261756560f01b60208201529150614062565b6020808252810161218481614c50565b602281526000602082017f45434453413a20696e76616c6964207369676e6174757265202776272076616c815261756560f01b60208201529150614062565b6020808252810161218481614c9f565b6000614cfa828a6146a4565b601482019150614d0a82896146a4565b601482019150614d1a82886146a4565b601482019150614d2a8287613877565b602082019150614d3a82866146c1565b600882019150614d4a82856146c1565b600882019150614d5a82846146c1565b50600801979650505050505050565b6000614d75828a6146a4565b601482019150614d8582896146a4565b601482019150614d958288613877565b602082019150614da582876146c1565b600882019150614db582866146a4565b601482019150614d4a82856146c1565b603681526000602082017f5361666545524332303a20617070726f76652066726f6d206e6f6e2d7a65726f81527f20746f206e6f6e2d7a65726f20616c6c6f77616e63650000000000000000000060208201529150614062565b6020808252810161218481614dc5565b6000614e3b82896146a4565b601482019150614e4b82886146a4565b601482019150614e5b8287613877565b602082019150614e6b82866146a4565b601482019150614e7b82856146c1565b600882019150614e8b82846146c1565b506008019695505050505050565b60ff811661308f565b60808101614eb08287613877565b614ebd6020830186614e99565b614eca6040830185613877565b610add606083018461387756fea2646970667358221220eae1c3b25d0ff199671cc0ccdeb5ab9d13b1454bc5f6ee971c30f3211cf9448d64736f6c634300080c0033",
  "devdoc": {
    "author": "Chainhop Dex TeamPadoriku",
    "events": {
      "DirectSwap(bytes32,uint256,address,uint256,address)": {
        "params": {
          "amountIn": "the input amount approved by the sender",
          "amountOut": "the output amount gained after swapping using the input tokens",
          "id": "see _computeId()",
          "tokenIn": "the input token approved by the sender",
          "tokenOut": "the output token gained after swapping using the input tokens"
        }
      },
      "RequestDone(bytes32,uint256,uint256,address,uint256,uint8)": {
        "details": "refundAmount may be fill by either a complete refund or when allowPartialFill is on and some swaps fails in the swap routes",
        "params": {
          "dstAmount": "the final output token (after bridging and swapping) desired by the sender",
          "feeCollected": "the fee chainhop deducts from bridge out token",
          "id": "see _computeId()",
          "refundAmount": "the amount refunded to the receiver in bridge token",
          "refundToken": "bridge out token",
          "status": "see RequestStatus"
        }
      },
      "RequestSent(bytes32,bytes32,uint64,uint256,address,address,address)": {
        "params": {
          "bridgeOutReceiver": "the receiver (user or dst TransferSwapper) of the bridge token",
          "dstChainId": "destination chain id",
          "dstToken": "the final output token (after bridging and swapping) desired by the sender",
          "id": "see _computeId()",
          "srcAmount": "input amount approved by the sender",
          "srcToken": "the input token approved by the sender",
          "transferId": "the src transfer id produced by MessageSenderLib.sendMessageWithTransfer()"
        }
      }
    },
    "kind": "dev",
    "methods": {
      "executeMessage(address,uint64,bytes,address)": {
        "params": {
          "_executor": "Address who called the MessageBus execution function",
          "_message": "Arbitrary message bytes originated from and encoded by the source app contract",
          "_sender": "The address of the source app contract",
          "_srcChainId": "The source chain ID where the transfer is originated from"
        }
      },
      "executeMessageWithTransfer(address,address,uint256,uint64,bytes,address)": {
        "details": "If allowPartialFill is off, this function reverts as soon as one swap in swap routes failsThis function is called and is only callable by MessageBus. The transaction of such call is triggered by executor.",
        "params": {
          "_amount": "the amount of token received by this contract",
          "_token": "the token received by this contract"
        },
        "returns": {
          "_0": "ok whether the processing is successful"
        }
      },
      "executeMessageWithTransferFallback(address,address,uint256,uint64,bytes,address)": {
        "details": "Only called if executeMessageWithTransfer reverts",
        "params": {
          "_amount": "the amount of token received by this contract",
          "_token": "the token received by this contract"
        },
        "returns": {
          "_0": "ok whether the processing is successful"
        }
      },
      "executeMessageWithTransferRefund(address,uint256,bytes,address)": {
        "details": "only MessageBus can call this function, this requires the user to get sigs of the message from SGN",
        "params": {
          "_amount": "the amount of token received by this contract",
          "_token": "the token received by this contract"
        },
        "returns": {
          "_0": "ok whether the processing is successful"
        }
      },
      "owner()": {
        "details": "Returns the address of the current owner."
      },
      "renounceOwnership()": {
        "details": "Leaves the contract without owner. It will not be possible to call `onlyOwner` functions anymore. Can only be called by the current owner. NOTE: Renouncing ownership will leave the contract without an owner, thereby removing any functionality that is only available to the owner."
      },
      "transferOwnership(address)": {
        "details": "Transfers ownership of the contract to a new account (`newOwner`). Can only be called by the current owner."
      },
      "transferWithSwap(address,(address,uint64,uint32,uint8,uint64,bool,bool,uint256,uint256,bytes,uint256,address,address,bool),(address,bytes)[],(address,bytes)[])": {
        "details": "this field has no effect if the there is no dst swaps as the bridged tokens are sent directly to _desc.receiver",
        "params": {
          "_dstTransferSwapper": "the address of the receiving party of the bridge token (TransferSwapper) on the destination chain"
        }
      }
    },
    "stateVariables": {
      "directBridgeSenders": {
        "details": "saves the sender addresses of direct bridge transfers so that when refund happens, this contract knows who to refund the tokens to"
      }
    },
    "title": "An app that enables swapping on a chain, transferring to another chain and swapping another time on the destination chain before sending the result tokens to a user",
    "version": 1
  },
  "userdoc": {
    "events": {
      "DirectSwap(bytes32,uint256,address,uint256,address)": {
        "notice": "Emitted when requested dstChainId == srcChainId, no bridging"
      },
      "RequestDone(bytes32,uint256,uint256,address,uint256,uint8)": {
        "notice": "Emitted when operations on dst chain is done."
      },
      "RequestSent(bytes32,bytes32,uint64,uint256,address,address,address)": {
        "notice": "Emitted when operations on src chain is done, the transfer is sent through the bridge"
      }
    },
    "kind": "user",
    "methods": {
      "executeMessage(address,uint64,bytes,address)": {
        "notice": "Called by MessageBus (MessageBusReceiver)"
      },
      "executeMessageWithTransfer(address,address,uint256,uint64,bytes,address)": {
        "notice": "Executes a swap if needed, then sends the output token to the receiver"
      },
      "executeMessageWithTransferFallback(address,address,uint256,uint64,bytes,address)": {
        "notice": "Sends the received token to the receiver"
      },
      "executeMessageWithTransferRefund(address,uint256,bytes,address)": {
        "notice": "Used to trigger refund when bridging fails due to large slippage"
      },
      "nativeWrap()": {
        "notice": "erc20 wrap of the gas token of this chain, e.g. WETH"
      },
      "transferWithSwap(address,(address,uint64,uint32,uint8,uint64,bool,bool,uint256,uint256,bytes,uint256,address,address,bool),(address,bytes)[],(address,bytes)[])": {
        "notice": "swaps if needed, then transfer the token to another chain along with an instruction on how to swap on that chain"
      }
    },
    "version": 1
  },
  "storageLayout": {
    "storage": [
      {
        "astId": 7,
        "contract": "contracts/TransferSwapper.sol:TransferSwapper",
        "label": "_owner",
        "offset": 0,
        "slot": "0",
        "type": "t_address"
      },
      {
        "astId": 5722,
        "contract": "contracts/TransferSwapper.sol:TransferSwapper",
        "label": "messageBus",
        "offset": 0,
        "slot": "1",
        "type": "t_address"
      },
      {
        "astId": 2090,
        "contract": "contracts/TransferSwapper.sol:TransferSwapper",
        "label": "selector2codec",
        "offset": 0,
        "slot": "2",
        "type": "t_mapping(t_bytes4,t_contract(ICodec)5173)"
      },
      {
        "astId": 2093,
        "contract": "contracts/TransferSwapper.sol:TransferSwapper",
        "label": "codecs",
        "offset": 0,
        "slot": "3",
        "type": "t_array(t_address)dyn_storage"
      },
      {
        "astId": 2345,
        "contract": "contracts/TransferSwapper.sol:TransferSwapper",
        "label": "dexRegistry",
        "offset": 0,
        "slot": "4",
        "type": "t_mapping(t_address,t_mapping(t_bytes4,t_bool))"
      },
      {
        "astId": 2572,
        "contract": "contracts/TransferSwapper.sol:TransferSwapper",
        "label": "signer",
        "offset": 0,
        "slot": "5",
        "type": "t_address"
      },
      {
        "astId": 2462,
        "contract": "contracts/TransferSwapper.sol:TransferSwapper",
        "label": "feeCollector",
        "offset": 0,
        "slot": "6",
        "type": "t_address"
      },
      {
        "astId": 207,
        "contract": "contracts/TransferSwapper.sol:TransferSwapper",
        "label": "_status",
        "offset": 0,
        "slot": "7",
        "type": "t_uint256"
      },
      {
        "astId": 3300,
        "contract": "contracts/TransferSwapper.sol:TransferSwapper",
        "label": "nativeWrap",
        "offset": 0,
        "slot": "8",
        "type": "t_address"
      },
      {
        "astId": 3305,
        "contract": "contracts/TransferSwapper.sol:TransferSwapper",
        "label": "directBridgeSenders",
        "offset": 0,
        "slot": "9",
        "type": "t_mapping(t_bytes32,t_address)"
      }
    ],
    "types": {
      "t_address": {
        "encoding": "inplace",
        "label": "address",
        "numberOfBytes": "20"
      },
      "t_array(t_address)dyn_storage": {
        "base": "t_address",
        "encoding": "dynamic_array",
        "label": "address[]",
        "numberOfBytes": "32"
      },
      "t_bool": {
        "encoding": "inplace",
        "label": "bool",
        "numberOfBytes": "1"
      },
      "t_bytes32": {
        "encoding": "inplace",
        "label": "bytes32",
        "numberOfBytes": "32"
      },
      "t_bytes4": {
        "encoding": "inplace",
        "label": "bytes4",
        "numberOfBytes": "4"
      },
      "t_contract(ICodec)5173": {
        "encoding": "inplace",
        "label": "contract ICodec",
        "numberOfBytes": "20"
      },
      "t_mapping(t_address,t_mapping(t_bytes4,t_bool))": {
        "encoding": "mapping",
        "key": "t_address",
        "label": "mapping(address => mapping(bytes4 => bool))",
        "numberOfBytes": "32",
        "value": "t_mapping(t_bytes4,t_bool)"
      },
      "t_mapping(t_bytes32,t_address)": {
        "encoding": "mapping",
        "key": "t_bytes32",
        "label": "mapping(bytes32 => address)",
        "numberOfBytes": "32",
        "value": "t_address"
      },
      "t_mapping(t_bytes4,t_bool)": {
        "encoding": "mapping",
        "key": "t_bytes4",
        "label": "mapping(bytes4 => bool)",
        "numberOfBytes": "32",
        "value": "t_bool"
      },
      "t_mapping(t_bytes4,t_contract(ICodec)5173)": {
        "encoding": "mapping",
        "key": "t_bytes4",
        "label": "mapping(bytes4 => contract ICodec)",
        "numberOfBytes": "32",
        "value": "t_contract(ICodec)5173"
      },
      "t_uint256": {
        "encoding": "inplace",
        "label": "uint256",
        "numberOfBytes": "32"
      }
    }
  }
}