{
  "address": "0xA83A1973d6D8e08e626b75FB4Bfbd248E1EE3eFF",
  "abi": [
    {
      "inputs": [
        {
          "internalType": "address",
          "name": "_spokePool",
          "type": "address"
        }
      ],
      "stateMutability": "nonpayable",
      "type": "constructor"
    },
    {
      "anonymous": false,
      "inputs": [
        {
          "indexed": true,
          "internalType": "address",
          "name": "previousOwner",
          "type": "address"
        },
        {
          "indexed": true,
          "internalType": "address",
          "name": "newOwner",
          "type": "address"
        }
      ],
      "name": "OwnershipTransferred",
      "type": "event"
    },
    {
      "anonymous": false,
      "inputs": [
        {
          "indexed": false,
          "internalType": "address",
          "name": "spokePool",
          "type": "address"
        }
      ],
      "name": "SpokePoolUpdated",
      "type": "event"
    },
    {
      "inputs": [
        {
          "internalType": "uint64",
          "name": "_dstChainId",
          "type": "uint64"
        },
        {
          "internalType": "address",
          "name": "_receiver",
          "type": "address"
        },
        {
          "internalType": "uint256",
          "name": "_amount",
          "type": "uint256"
        },
        {
          "internalType": "address",
          "name": "_token",
          "type": "address"
        },
        {
          "internalType": "bytes",
          "name": "_bridgeParams",
          "type": "bytes"
        },
        {
          "internalType": "bytes",
          "name": "",
          "type": "bytes"
        }
      ],
      "name": "bridge",
      "outputs": [
        {
          "internalType": "bytes",
          "name": "bridgeResp",
          "type": "bytes"
        }
      ],
      "stateMutability": "payable",
      "type": "function"
    },
    {
      "inputs": [
        {
          "components": [
            {
              "internalType": "uint64",
              "name": "relayerFeePct",
              "type": "uint64"
            },
            {
              "internalType": "uint32",
              "name": "quoteTimestamp",
              "type": "uint32"
            }
          ],
          "internalType": "struct AcrossAdapter.BridgeParams",
          "name": "_params",
          "type": "tuple"
        }
      ],
      "name": "encodeBridgeParams",
      "outputs": [],
      "stateMutability": "nonpayable",
      "type": "function"
    },
    {
      "inputs": [],
      "name": "owner",
      "outputs": [
        {
          "internalType": "address",
          "name": "",
          "type": "address"
        }
      ],
      "stateMutability": "view",
      "type": "function"
    },
    {
      "inputs": [],
      "name": "renounceOwnership",
      "outputs": [],
      "stateMutability": "nonpayable",
      "type": "function"
    },
    {
      "inputs": [
        {
          "internalType": "address",
          "name": "_spokePool",
          "type": "address"
        }
      ],
      "name": "setSpokePool",
      "outputs": [],
      "stateMutability": "nonpayable",
      "type": "function"
    },
    {
      "inputs": [],
      "name": "spokePool",
      "outputs": [
        {
          "internalType": "address",
          "name": "",
          "type": "address"
        }
      ],
      "stateMutability": "view",
      "type": "function"
    },
    {
      "inputs": [
        {
          "internalType": "address",
          "name": "newOwner",
          "type": "address"
        }
      ],
      "name": "transferOwnership",
      "outputs": [],
      "stateMutability": "nonpayable",
      "type": "function"
    }
  ],
  "transactionHash": "0x7bb24af8f02e3a4161ddc2fb0337410745834ad731831d6606d0be2e6db9f6ca",
  "args": [
    "0xB88690461dDbaB6f04Dfad7df66B7725942FEb9C"
  ],
  "numDeployments": 3,
  "solcInputHash": "26c8a0c2d6ce853e99ad16af4dec3f89",
  "bytecode": "0x608060405234801561001057600080fd5b50604051610ee8380380610ee883398101604081905261002f916100e2565b6100383361005d565b600180546001600160a01b0319166001600160a01b039290921691909117905561010b565b600080546001600160a01b038381166001600160a01b0319831681178455604051919092169283917f8be0079c531659141344cd1fd0a4f28419497f9722a3daafe3b4186f6b6457e09190a35050565b60006001600160a01b0382165b92915050565b6100c9816100ad565b81146100d457600080fd5b50565b80516100ba816100c0565b6000602082840312156100f7576100f7600080fd5b600061010384846100d7565b949350505050565b610dce8061011a6000396000f3fe6080604052600436106100705760003560e01c80638da5cb5b1161004e5780638da5cb5b146100d5578063a4c65ac2146100fc578063afdac3d61461011a578063f2fde38b1461013a57600080fd5b806353bb8ed214610075578063715018a614610097578063834bc3ea146100ac575b600080fd5b34801561008157600080fd5b506100956100903660046106d1565b61015a565b005b3480156100a357600080fd5b506100956101c5565b6100bf6100ba366004610819565b6101d9565b6040516100cc9190610937565b60405180910390f35b3480156100e157600080fd5b506000546001600160a01b03165b6040516100cc9190610957565b34801561010857600080fd5b506100956101173660046109c6565b50565b34801561012657600080fd5b506001546100ef906001600160a01b031681565b34801561014657600080fd5b506100956101553660046106d1565b6103a3565b6101626103e3565b6001805473ffffffffffffffffffffffffffffffffffffffff19166001600160a01b0383161790556040517f858735e1678f9a7c554ce71c39205b3cc321b048a516570e43cf003075dceb40906101ba908390610957565b60405180910390a150565b6101cd6103e3565b6101d7600061040d565b565b60606000838060200190518101906101f19190610a3b565b90506102086001600160a01b03861633308961046a565b60015460405163095ea7b360e01b81526001600160a01b038781169263095ea7b39261023c92909116908a90600401610a62565b6020604051808303816000875af115801561025b573d6000803e3d6000fd5b505050506040513d601f19601f8201168201806040525081019061027f9190610a90565b506001546040805163a1244c6760e01b815290516000926001600160a01b03169163a1244c679160048083019260209291908290030181865afa1580156102ca573d6000803e3d6000fd5b505050506040513d601f19601f820116820180604052508101906102ee9190610ab1565b9050600160009054906101000a90046001600160a01b03166001600160a01b0316634922897889888a8d876000015188602001516040518763ffffffff1660e01b815260040161034396959493929190610b10565b600060405180830381600087803b15801561035d57600080fd5b505af1158015610371573d6000803e3d6000fd5b50505050806040516020016103869190610b6a565b604051602081830303815290604052925050509695505050505050565b6103ab6103e3565b6001600160a01b0381166103da5760405162461bcd60e51b81526004016103d190610bd5565b60405180910390fd5b6101178161040d565b6000546001600160a01b031633146101d75760405162461bcd60e51b81526004016103d190610c1a565b600080546001600160a01b0383811673ffffffffffffffffffffffffffffffffffffffff19831681178455604051919092169283917f8be0079c531659141344cd1fd0a4f28419497f9722a3daafe3b4186f6b6457e09190a35050565b6104ef846323b872dd60e01b85858560405160240161048b93929190610c2a565b60408051601f198184030181529190526020810180517bffffffffffffffffffffffffffffffffffffffffffffffffffffffff167fffffffff00000000000000000000000000000000000000000000000000000000909316929092179091526104f5565b50505050565b600061054a826040518060400160405280602081526020017f5361666545524332303a206c6f772d6c6576656c2063616c6c206661696c6564815250856001600160a01b03166105899092919063ffffffff16565b80519091501561058457808060200190518101906105689190610a90565b6105845760405162461bcd60e51b81526004016103d190610cac565b505050565b606061059884846000856105a2565b90505b9392505050565b6060824710156105c45760405162461bcd60e51b81526004016103d190610d16565b6001600160a01b0385163b6105eb5760405162461bcd60e51b81526004016103d190610d5a565b600080866001600160a01b031685876040516106079190610d8c565b60006040518083038185875af1925050503d8060008114610644576040519150601f19603f3d011682016040523d82523d6000602084013e610649565b606091505b5091509150610659828286610666565b925050505b949350505050565b6060831561067557508161059b565b8251156106855782518084602001fd5b8160405162461bcd60e51b81526004016103d19190610937565b60006001600160a01b0382165b92915050565b6106bb8161069f565b811461011757600080fd5b80356106ac816106b2565b6000602082840312156106e6576106e6600080fd5b600061065e84846106c6565b67ffffffffffffffff81166106bb565b80356106ac816106f2565b806106bb565b80356106ac8161070d565b634e487b7160e01b600052604160045260246000fd5b601f19601f830116810181811067ffffffffffffffff8211171561075a5761075a61071e565b6040525050565b600061076c60405190565b90506107788282610734565b919050565b600067ffffffffffffffff8211156107975761079761071e565b601f19601f83011660200192915050565b82818337506000910152565b60006107c76107c28461077d565b610761565b9050828152602081018484840111156107e2576107e2600080fd5b6107ed8482856107a8565b509392505050565b600082601f83011261080957610809600080fd5b813561065e8482602086016107b4565b60008060008060008060c0878903121561083557610835600080fd5b60006108418989610702565b965050602061085289828a016106c6565b955050604061086389828a01610713565b945050606061087489828a016106c6565b935050608087013567ffffffffffffffff81111561089457610894600080fd5b6108a089828a016107f5565b92505060a087013567ffffffffffffffff8111156108c0576108c0600080fd5b6108cc89828a016107f5565b9150509295509295509295565b60005b838110156108f45781810151838201526020016108dc565b838111156104ef5750506000910152565b600061090f825190565b8084526020840193506109268185602086016108d9565b601f01601f19169290920192915050565b6020808252810161059b8184610905565b6109518161069f565b82525050565b602081016106ac8284610948565b63ffffffff81166106bb565b80356106ac81610965565b60006040828403121561099157610991600080fd5b61099b6040610761565b905060006109a98484610702565b82525060206109ba84848301610971565b60208301525092915050565b6000604082840312156109db576109db600080fd5b600061065e848461097c565b80516106ac816106f2565b80516106ac81610965565b600060408284031215610a1257610a12600080fd5b610a1c6040610761565b90506000610a2a84846109e7565b82525060206109ba848483016109f2565b600060408284031215610a5057610a50600080fd5b600061065e84846109fd565b80610951565b60408101610a708285610948565b61059b6020830184610a5c565b8015156106bb565b80516106ac81610a7d565b600060208284031215610aa557610aa5600080fd5b600061065e8484610a85565b600060208284031215610ac657610ac6600080fd5b600061065e84846109f2565b60006106ac610ae867ffffffffffffffff841681565b90565b61095181610ad2565b67ffffffffffffffff8116610951565b63ffffffff8116610951565b60c08101610b1e8289610948565b610b2b6020830188610948565b610b386040830187610a5c565b610b456060830186610aeb565b610b526080830185610af4565b610b5f60a0830184610b04565b979650505050505050565b602081016106ac8284610b04565b602681526000602082017f4f776e61626c653a206e6577206f776e657220697320746865207a65726f206181527f6464726573730000000000000000000000000000000000000000000000000000602082015291505b5060400190565b602080825281016106ac81610b78565b60208082527f4f776e61626c653a2063616c6c6572206973206e6f7420746865206f776e6572910190815260005b5060200190565b602080825281016106ac81610be5565b60608101610c388286610948565b610c456020830185610948565b61065e6040830184610a5c565b602a81526000602082017f5361666545524332303a204552433230206f7065726174696f6e20646964206e81527f6f7420737563636565640000000000000000000000000000000000000000000060208201529150610bce565b602080825281016106ac81610c52565b602681526000602082017f416464726573733a20696e73756666696369656e742062616c616e636520666f81527f722063616c6c000000000000000000000000000000000000000000000000000060208201529150610bce565b602080825281016106ac81610cbc565b601d81526000602082017f416464726573733a2063616c6c20746f206e6f6e2d636f6e747261637400000081529150610c13565b602080825281016106ac81610d26565b6000610d74825190565b610d828185602086016108d9565b9290920192915050565b600061059b8284610d6a56fea26469706673582212207d7e86726d6be286aa385850e24428757acd6d0e483d83b4a94fab64cefcd3cc64736f6c634300080f0033",
  "devdoc": {
    "kind": "dev",
    "methods": {
      "owner()": {
        "details": "Returns the address of the current owner."
      },
      "renounceOwnership()": {
        "details": "Leaves the contract without owner. It will not be possible to call `onlyOwner` functions anymore. Can only be called by the current owner. NOTE: Renouncing ownership will leave the contract without an owner, thereby removing any functionality that is only available to the owner."
      },
      "transferOwnership(address)": {
        "details": "Transfers ownership of the contract to a new account (`newOwner`). Can only be called by the current owner."
      }
    },
    "version": 1
  },
  "userdoc": {
    "kind": "user",
    "methods": {},
    "version": 1
  },
  "storageLayout": {
    "storage": [
      {
        "astId": 7,
        "contract": "contracts/bridges/AcrossAdapter.sol:AcrossAdapter",
        "label": "_owner",
        "offset": 0,
        "slot": "0",
        "type": "t_address"
      },
      {
        "astId": 4983,
        "contract": "contracts/bridges/AcrossAdapter.sol:AcrossAdapter",
        "label": "spokePool",
        "offset": 0,
        "slot": "1",
        "type": "t_address"
      }
    ],
    "types": {
      "t_address": {
        "encoding": "inplace",
        "label": "address",
        "numberOfBytes": "20"
      }
    }
  }
}