{
  "address": "0x7D58571bf282FA89DB72Fb94bf9A19f89f82584E",
  "abi": [
    {
      "inputs": [
        {
          "internalType": "address",
          "name": "_spokePool",
          "type": "address"
        }
      ],
      "stateMutability": "nonpayable",
      "type": "constructor"
    },
    {
      "anonymous": false,
      "inputs": [
        {
          "indexed": true,
          "internalType": "address",
          "name": "previousOwner",
          "type": "address"
        },
        {
          "indexed": true,
          "internalType": "address",
          "name": "newOwner",
          "type": "address"
        }
      ],
      "name": "OwnershipTransferred",
      "type": "event"
    },
    {
      "anonymous": false,
      "inputs": [
        {
          "indexed": false,
          "internalType": "address",
          "name": "spokePool",
          "type": "address"
        }
      ],
      "name": "SpokePoolUpdated",
      "type": "event"
    },
    {
      "inputs": [
        {
          "internalType": "uint64",
          "name": "_dstChainId",
          "type": "uint64"
        },
        {
          "internalType": "address",
          "name": "_receiver",
          "type": "address"
        },
        {
          "internalType": "uint256",
          "name": "_amount",
          "type": "uint256"
        },
        {
          "internalType": "address",
          "name": "_token",
          "type": "address"
        },
        {
          "internalType": "bytes",
          "name": "_bridgeParams",
          "type": "bytes"
        }
      ],
      "name": "bridge",
      "outputs": [
        {
          "internalType": "bytes",
          "name": "bridgeResp",
          "type": "bytes"
        }
      ],
      "stateMutability": "payable",
      "type": "function"
    },
    {
      "inputs": [
        {
          "components": [
            {
              "internalType": "uint64",
              "name": "relayerFeePct",
              "type": "uint64"
            },
            {
              "internalType": "uint32",
              "name": "quoteTimestamp",
              "type": "uint32"
            }
          ],
          "internalType": "struct AcrossAdapter.BridgeParams",
          "name": "_params",
          "type": "tuple"
        }
      ],
      "name": "encodeBridgeParams",
      "outputs": [],
      "stateMutability": "nonpayable",
      "type": "function"
    },
    {
      "inputs": [],
      "name": "owner",
      "outputs": [
        {
          "internalType": "address",
          "name": "",
          "type": "address"
        }
      ],
      "stateMutability": "view",
      "type": "function"
    },
    {
      "inputs": [
        {
          "internalType": "address",
          "name": "_spokePool",
          "type": "address"
        }
      ],
      "name": "setSpokePool",
      "outputs": [],
      "stateMutability": "nonpayable",
      "type": "function"
    },
    {
      "inputs": [],
      "name": "spokePool",
      "outputs": [
        {
          "internalType": "address",
          "name": "",
          "type": "address"
        }
      ],
      "stateMutability": "view",
      "type": "function"
    },
    {
      "inputs": [
        {
          "internalType": "address",
          "name": "newOwner",
          "type": "address"
        }
      ],
      "name": "transferOwnership",
      "outputs": [],
      "stateMutability": "nonpayable",
      "type": "function"
    }
  ],
  "transactionHash": "0x5a34d0072ba9862f517b021dfe16605401c6e00592adfb8149fe2630100d66a9",
  "args": [
    "0xB88690461dDbaB6f04Dfad7df66B7725942FEb9C"
  ],
  "numDeployments": 4,
  "solcInputHash": "fb7635353833d52c2a98e3fc1b0000fe",
  "bytecode": "0x608060405234801561001057600080fd5b50604051610c3d380380610c3d83398101604081905261002f916100ad565b6100383361005d565b600180546001600160a01b0319166001600160a01b03929092169190911790556100dd565b600080546001600160a01b038381166001600160a01b0319831681178455604051919092169283917f8be0079c531659141344cd1fd0a4f28419497f9722a3daafe3b4186f6b6457e09190a35050565b6000602082840312156100bf57600080fd5b81516001600160a01b03811681146100d657600080fd5b9392505050565b610b51806100ec6000396000f3fe6080604052600436106100655760003560e01c8063a4c65ac211610043578063a4c65ac2146100e7578063afdac3d614610105578063f2fde38b1461012557600080fd5b806324c9401b1461006a57806353bb8ed2146100935780638da5cb5b146100b5575b600080fd5b61007d6100783660046108df565b610145565b60405161008a9190610a0a565b60405180910390f35b34801561009f57600080fd5b506100b36100ae366004610a1d565b61032a565b005b3480156100c157600080fd5b506000546001600160a01b03165b6040516001600160a01b03909116815260200161008a565b3480156100f357600080fd5b506100b3610102366004610a4a565b50565b34801561011157600080fd5b506001546100cf906001600160a01b031681565b34801561013157600080fd5b506100b3610140366004610a1d565b6103f9565b606060008280602001905181019061015d9190610a8b565b90506101746001600160a01b0385163330886104e7565b60015460405163095ea7b360e01b81526001600160a01b039182166004820152602481018790529085169063095ea7b3906044016020604051808303816000875af11580156101c7573d6000803e3d6000fd5b505050506040513d601f19601f820116820180604052508101906101eb9190610ac0565b506001546040805163a1244c6760e01b815290516000926001600160a01b03169163a1244c679160048083019260209291908290030181865afa158015610236573d6000803e3d6000fd5b505050506040513d601f19601f8201168201806040525081019061025a9190610ae2565b60015483516020850151604051630924512f60e31b81526001600160a01b038c811660048301528a81166024830152604482018c905267ffffffffffffffff808f166064840152909316608482015263ffffffff90911660a4820152929350169063492289789060c401600060405180830381600087803b1580156102de57600080fd5b505af11580156102f2573d6000803e3d6000fd5b50506040805163ffffffff8516602082015201915061030e9050565b6040516020818303038152906040529250505095945050505050565b3361033d6000546001600160a01b031690565b6001600160a01b0316146103985760405162461bcd60e51b815260206004820181905260248201527f4f776e61626c653a2063616c6c6572206973206e6f7420746865206f776e657260448201526064015b60405180910390fd5b6001805473ffffffffffffffffffffffffffffffffffffffff19166001600160a01b0383169081179091556040519081527f858735e1678f9a7c554ce71c39205b3cc321b048a516570e43cf003075dceb409060200160405180910390a150565b3361040c6000546001600160a01b031690565b6001600160a01b0316146104625760405162461bcd60e51b815260206004820181905260248201527f4f776e61626c653a2063616c6c6572206973206e6f7420746865206f776e6572604482015260640161038f565b6001600160a01b0381166104de5760405162461bcd60e51b815260206004820152602660248201527f4f776e61626c653a206e6577206f776e657220697320746865207a65726f206160448201527f6464726573730000000000000000000000000000000000000000000000000000606482015260840161038f565b6101028161055c565b604080516001600160a01b0385811660248301528416604482015260648082018490528251808303909101815260849091019091526020810180517bffffffffffffffffffffffffffffffffffffffffffffffffffffffff166323b872dd60e01b1790526105569085906105b9565b50505050565b600080546001600160a01b0383811673ffffffffffffffffffffffffffffffffffffffff19831681178455604051919092169283917f8be0079c531659141344cd1fd0a4f28419497f9722a3daafe3b4186f6b6457e09190a35050565b600061060e826040518060400160405280602081526020017f5361666545524332303a206c6f772d6c6576656c2063616c6c206661696c6564815250856001600160a01b03166106a39092919063ffffffff16565b80519091501561069e578080602001905181019061062c9190610ac0565b61069e5760405162461bcd60e51b815260206004820152602a60248201527f5361666545524332303a204552433230206f7065726174696f6e20646964206e60448201527f6f74207375636365656400000000000000000000000000000000000000000000606482015260840161038f565b505050565b60606106b284846000856106bc565b90505b9392505050565b6060824710156107345760405162461bcd60e51b815260206004820152602660248201527f416464726573733a20696e73756666696369656e742062616c616e636520666f60448201527f722063616c6c0000000000000000000000000000000000000000000000000000606482015260840161038f565b6001600160a01b0385163b61078b5760405162461bcd60e51b815260206004820152601d60248201527f416464726573733a2063616c6c20746f206e6f6e2d636f6e7472616374000000604482015260640161038f565b600080866001600160a01b031685876040516107a79190610aff565b60006040518083038185875af1925050503d80600081146107e4576040519150601f19603f3d011682016040523d82523d6000602084013e6107e9565b606091505b50915091506107f9828286610804565b979650505050505050565b606083156108135750816106b5565b8251156108235782518084602001fd5b8160405162461bcd60e51b815260040161038f9190610a0a565b67ffffffffffffffff8116811461010257600080fd5b80356001600160a01b038116811461086a57600080fd5b919050565b634e487b7160e01b600052604160045260246000fd5b6040805190810167ffffffffffffffff811182821017156108a8576108a861086f565b60405290565b604051601f8201601f1916810167ffffffffffffffff811182821017156108d7576108d761086f565b604052919050565b600080600080600060a086880312156108f757600080fd5b85356109028161083d565b94506020610911878201610853565b94506040870135935061092660608801610853565b9250608087013567ffffffffffffffff8082111561094357600080fd5b818901915089601f83011261095757600080fd5b8135818111156109695761096961086f565b61097b601f8201601f191685016108ae565b91508082528a8482850101111561099157600080fd5b80848401858401376000848284010152508093505050509295509295909350565b60005b838110156109cd5781810151838201526020016109b5565b838111156105565750506000910152565b600081518084526109f68160208601602086016109b2565b601f01601f19169290920160200192915050565b6020815260006106b560208301846109de565b600060208284031215610a2f57600080fd5b6106b582610853565b63ffffffff8116811461010257600080fd5b600060408284031215610a5c57600080fd5b610a64610885565b8235610a6f8161083d565b81526020830135610a7f81610a38565b60208201529392505050565b600060408284031215610a9d57600080fd5b610aa5610885565b8251610ab08161083d565b81526020830151610a7f81610a38565b600060208284031215610ad257600080fd5b815180151581146106b557600080fd5b600060208284031215610af457600080fd5b81516106b581610a38565b60008251610b118184602087016109b2565b919091019291505056fea2646970667358221220dbe670c32d44e021e36789c3dae551ba09d654fe45067bddedede9fff4ce3ea264736f6c634300080f0033",
  "devdoc": {
    "kind": "dev",
    "methods": {
      "owner()": {
        "details": "Returns the address of the current owner."
      },
      "transferOwnership(address)": {
        "details": "Transfers ownership of the contract to a new account (`newOwner`). Can only be called by the current owner."
      }
    },
    "version": 1
  },
  "userdoc": {
    "kind": "user",
    "methods": {},
    "version": 1
  },
  "storageLayout": {
    "storage": [
      {
        "astId": 9681,
        "contract": "contracts/bridges/AcrossAdapter.sol:AcrossAdapter",
        "label": "_owner",
        "offset": 0,
        "slot": "0",
        "type": "t_address"
      },
      {
        "astId": 4312,
        "contract": "contracts/bridges/AcrossAdapter.sol:AcrossAdapter",
        "label": "spokePool",
        "offset": 0,
        "slot": "1",
        "type": "t_address"
      }
    ],
    "types": {
      "t_address": {
        "encoding": "inplace",
        "label": "address",
        "numberOfBytes": "20"
      }
    }
  }
}