{
  "address": "0x99B123d13918E30454703faD096e01D4dE89C88d",
  "abi": [
    {
      "inputs": [
        {
          "internalType": "address",
          "name": "_nativeWrap",
          "type": "address"
        },
        {
          "internalType": "address",
          "name": "_messageBus",
          "type": "address"
        }
      ],
      "stateMutability": "nonpayable",
      "type": "constructor"
    },
    {
      "anonymous": false,
      "inputs": [
        {
          "indexed": false,
          "internalType": "uint256",
          "name": "amount",
          "type": "uint256"
        },
        {
          "indexed": false,
          "internalType": "address",
          "name": "token",
          "type": "address"
        },
        {
          "indexed": false,
          "internalType": "address",
          "name": "receiver",
          "type": "address"
        }
      ],
      "name": "CBridgeRefunded",
      "type": "event"
    },
    {
      "anonymous": false,
      "inputs": [
        {
          "indexed": false,
          "internalType": "uint8",
          "name": "version",
          "type": "uint8"
        }
      ],
      "name": "Initialized",
      "type": "event"
    },
    {
      "anonymous": false,
      "inputs": [
        {
          "indexed": false,
          "internalType": "address",
          "name": "messageBus",
          "type": "address"
        }
      ],
      "name": "MessageBusUpdated",
      "type": "event"
    },
    {
      "anonymous": false,
      "inputs": [
        {
          "indexed": false,
          "internalType": "address",
          "name": "nativeWrap",
          "type": "address"
        }
      ],
      "name": "NativeWrapUpdated",
      "type": "event"
    },
    {
      "anonymous": false,
      "inputs": [
        {
          "indexed": true,
          "internalType": "address",
          "name": "previousOwner",
          "type": "address"
        },
        {
          "indexed": true,
          "internalType": "address",
          "name": "newOwner",
          "type": "address"
        }
      ],
      "name": "OwnershipTransferred",
      "type": "event"
    },
    {
      "anonymous": false,
      "inputs": [
        {
          "indexed": false,
          "internalType": "address",
          "name": "account",
          "type": "address"
        }
      ],
      "name": "Paused",
      "type": "event"
    },
    {
      "anonymous": false,
      "inputs": [
        {
          "indexed": false,
          "internalType": "address",
          "name": "account",
          "type": "address"
        }
      ],
      "name": "PauserAdded",
      "type": "event"
    },
    {
      "anonymous": false,
      "inputs": [
        {
          "indexed": false,
          "internalType": "address",
          "name": "account",
          "type": "address"
        }
      ],
      "name": "PauserRemoved",
      "type": "event"
    },
    {
      "anonymous": false,
      "inputs": [
        {
          "indexed": false,
          "internalType": "address",
          "name": "account",
          "type": "address"
        }
      ],
      "name": "Unpaused",
      "type": "event"
    },
    {
      "inputs": [
        {
          "internalType": "address",
          "name": "account",
          "type": "address"
        }
      ],
      "name": "addPauser",
      "outputs": [],
      "stateMutability": "nonpayable",
      "type": "function"
    },
    {
      "inputs": [
        {
          "internalType": "uint64",
          "name": "_dstChainId",
          "type": "uint64"
        },
        {
          "internalType": "address",
          "name": "_receiver",
          "type": "address"
        },
        {
          "internalType": "uint256",
          "name": "_amount",
          "type": "uint256"
        },
        {
          "internalType": "address",
          "name": "_token",
          "type": "address"
        },
        {
          "internalType": "bytes",
          "name": "_bridgeParams",
          "type": "bytes"
        }
      ],
      "name": "bridge",
      "outputs": [
        {
          "internalType": "bytes",
          "name": "bridgeResp",
          "type": "bytes"
        }
      ],
      "stateMutability": "payable",
      "type": "function"
    },
    {
      "inputs": [
        {
          "internalType": "address",
          "name": "_sender",
          "type": "address"
        },
        {
          "internalType": "uint64",
          "name": "_srcChainId",
          "type": "uint64"
        },
        {
          "internalType": "bytes",
          "name": "_message",
          "type": "bytes"
        },
        {
          "internalType": "address",
          "name": "_executor",
          "type": "address"
        }
      ],
      "name": "executeMessage",
      "outputs": [
        {
          "internalType": "enum IMessageReceiver.ExecutionStatus",
          "name": "",
          "type": "uint8"
        }
      ],
      "stateMutability": "payable",
      "type": "function"
    },
    {
      "inputs": [
        {
          "internalType": "address",
          "name": "_token",
          "type": "address"
        },
        {
          "internalType": "uint256",
          "name": "_amount",
          "type": "uint256"
        },
        {
          "internalType": "bytes",
          "name": "_message",
          "type": "bytes"
        },
        {
          "internalType": "address",
          "name": "",
          "type": "address"
        }
      ],
      "name": "executeMessageWithTransferRefund",
      "outputs": [
        {
          "internalType": "enum IMessageReceiver.ExecutionStatus",
          "name": "",
          "type": "uint8"
        }
      ],
      "stateMutability": "payable",
      "type": "function"
    },
    {
      "inputs": [
        {
          "internalType": "address",
          "name": "_token",
          "type": "address"
        },
        {
          "internalType": "uint256",
          "name": "_amount",
          "type": "uint256"
        },
        {
          "internalType": "bytes",
          "name": "_message",
          "type": "bytes"
        }
      ],
      "name": "executeMessageWithTransferRefund",
      "outputs": [
        {
          "internalType": "bool",
          "name": "",
          "type": "bool"
        }
      ],
      "stateMutability": "payable",
      "type": "function"
    },
    {
      "inputs": [
        {
          "internalType": "address",
          "name": "account",
          "type": "address"
        }
      ],
      "name": "isPauser",
      "outputs": [
        {
          "internalType": "bool",
          "name": "",
          "type": "bool"
        }
      ],
      "stateMutability": "view",
      "type": "function"
    },
    {
      "inputs": [],
      "name": "messageBus",
      "outputs": [
        {
          "internalType": "address",
          "name": "",
          "type": "address"
        }
      ],
      "stateMutability": "view",
      "type": "function"
    },
    {
      "inputs": [],
      "name": "nativeWrap",
      "outputs": [
        {
          "internalType": "address",
          "name": "",
          "type": "address"
        }
      ],
      "stateMutability": "view",
      "type": "function"
    },
    {
      "inputs": [],
      "name": "owner",
      "outputs": [
        {
          "internalType": "address",
          "name": "",
          "type": "address"
        }
      ],
      "stateMutability": "view",
      "type": "function"
    },
    {
      "inputs": [],
      "name": "pause",
      "outputs": [],
      "stateMutability": "nonpayable",
      "type": "function"
    },
    {
      "inputs": [],
      "name": "paused",
      "outputs": [
        {
          "internalType": "bool",
          "name": "",
          "type": "bool"
        }
      ],
      "stateMutability": "view",
      "type": "function"
    },
    {
      "inputs": [
        {
          "internalType": "address",
          "name": "",
          "type": "address"
        }
      ],
      "name": "pausers",
      "outputs": [
        {
          "internalType": "bool",
          "name": "",
          "type": "bool"
        }
      ],
      "stateMutability": "view",
      "type": "function"
    },
    {
      "inputs": [
        {
          "internalType": "address",
          "name": "account",
          "type": "address"
        }
      ],
      "name": "removePauser",
      "outputs": [],
      "stateMutability": "nonpayable",
      "type": "function"
    },
    {
      "inputs": [],
      "name": "renouncePauser",
      "outputs": [],
      "stateMutability": "nonpayable",
      "type": "function"
    },
    {
      "inputs": [
        {
          "internalType": "address",
          "name": "_msgbus",
          "type": "address"
        }
      ],
      "name": "setMessageBus",
      "outputs": [],
      "stateMutability": "nonpayable",
      "type": "function"
    },
    {
      "inputs": [
        {
          "internalType": "address",
          "name": "_nativeWrap",
          "type": "address"
        }
      ],
      "name": "setNativeWrap",
      "outputs": [],
      "stateMutability": "nonpayable",
      "type": "function"
    },
    {
      "inputs": [],
      "name": "testMode",
      "outputs": [
        {
          "internalType": "bool",
          "name": "",
          "type": "bool"
        }
      ],
      "stateMutability": "view",
      "type": "function"
    },
    {
      "inputs": [
        {
          "internalType": "address",
          "name": "newOwner",
          "type": "address"
        }
      ],
      "name": "transferOwnership",
      "outputs": [],
      "stateMutability": "nonpayable",
      "type": "function"
    },
    {
      "inputs": [],
      "name": "unpause",
      "outputs": [],
      "stateMutability": "nonpayable",
      "type": "function"
    },
    {
      "stateMutability": "payable",
      "type": "receive"
    }
  ],
  "transactionHash": "0xe17afeb39b77ecc0832f2afdeb7d6ec19dc5d6728964c1eef08f23f616b9b36f",
  "args": [
    "0x82aF49447D8a07e3bd95BD0d56f35241523fBab1",
    "0x3ad9d0648cdaa2426331e894e980d0a5ed16257f"
  ],
  "numDeployments": 6,
  "solcInputHash": "fb7635353833d52c2a98e3fc1b0000fe",
  "bytecode": "0x60806040523480156200001157600080fd5b5060405162002753380380620027538339810160408190526200003491620001de565b816000826200004333620000a9565b60008054921515600160b01b0260ff60b01b1990931692909217909155600180546001600160a01b039283166001600160a01b0319909116179055600280546001600160a81b03191692909116919091179055620000a133620000f9565b505062000216565b600080546001600160a01b038381166001600160a01b0319831681178455604051919092169283917f8be0079c531659141344cd1fd0a4f28419497f9722a3daafe3b4186f6b6457e09190a35050565b6001600160a01b03811660009081526003602052604090205460ff1615620001675760405162461bcd60e51b815260206004820152601960248201527f4163636f756e7420697320616c72656164792070617573657200000000000000604482015260640160405180910390fd5b6001600160a01b038116600081815260036020908152604091829020805460ff1916600117905590519182527f6719d08c1888103bea251a4ed56406bd0c3e69723c8a1686e017e7bbe159b6f8910160405180910390a150565b80516001600160a01b0381168114620001d957600080fd5b919050565b60008060408385031215620001f257600080fd5b620001fd83620001c1565b91506200020d60208401620001c1565b90509250929050565b61252d80620002266000396000f3fe6080604052600436106101485760003560e01c80636b2c0f55116100c05780638da5cb5b11610074578063a1a227fa11610059578063a1a227fa1461037d578063cd9ea3421461039d578063f2fde38b146103be57600080fd5b80638da5cb5b146103465780639c649fdf1461036457600080fd5b806380f51c12116100a557806380f51c12146102e157806382dc1ec4146103115780638456cb591461033157600080fd5b80636b2c0f55146102ac5780636ef8d66d146102cc57600080fd5b8063457bfa2f11610117578063547cad12116100fc578063547cad121461024d5780635b5a66a71461026d5780635c975abb1461028d57600080fd5b8063457bfa2f146101dc57806346fbf68e1461021457600080fd5b80630bcb49821461015457806320be95f21461017d57806324c9401b146101a55780633f4ba83a146101c557600080fd5b3661014f57005b600080fd5b610167610162366004612070565b6103de565b60405161017491906120fa565b60405180910390f35b61019561018b366004612122565b6000949350505050565b6040519015158152602001610174565b6101b86101b33660046121db565b610526565b604051610174919061230a565b3480156101d157600080fd5b506101da61076b565b005b3480156101e857600080fd5b506002546101fc906001600160a01b031681565b6040516001600160a01b039091168152602001610174565b34801561022057600080fd5b5061019561022f36600461231d565b6001600160a01b031660009081526003602052604090205460ff1690565b34801561025957600080fd5b506101da61026836600461231d565b6107d4565b34801561027957600080fd5b506101da61028836600461231d565b61089f565b34801561029957600080fd5b50600254600160a01b900460ff16610195565b3480156102b857600080fd5b506101da6102c736600461231d565b610914565b3480156102d857600080fd5b506101da610986565b3480156102ed57600080fd5b506101956102fc36600461231d565b60036020526000908152604090205460ff1681565b34801561031d57600080fd5b506101da61032c36600461231d565b61098f565b34801561033d57600080fd5b506101da610a01565b34801561035257600080fd5b506000546001600160a01b03166101fc565b61016761037236600461233a565b600095945050505050565b34801561038957600080fd5b506001546101fc906001600160a01b031681565b3480156103a957600080fd5b5060005461019590600160b01b900460ff1681565b3480156103ca57600080fd5b506101da6103d936600461231d565b610a68565b60008054600160b01b900460ff1661044f576001546001600160a01b0316331461044f5760405162461bcd60e51b815260206004820152601960248201527f63616c6c6572206973206e6f74206d657373616765206275730000000000000060448201526064015b60405180910390fd5b600254600160a01b900460ff16156104a95760405162461bcd60e51b815260206004820152601160248201527f4d53473a3a41424f52543a7061757365640000000000000000000000000000006044820152606401610446565b60006104b78486018661231d565b90506104c38787610b56565b6104d08787836000610cdb565b604080518781526001600160a01b03898116602083015283168183015290517fe5e764ffa6b9d27de89d8ac25d5365714f9c5ef837fcbfd3afdfa1cd4cf84a129181900360600190a15060019695505050505050565b606060008280602001905181019061053e9190612389565b90506105556001600160a01b038516333088610e64565b60408101516001600160a01b03161561065657600081604001516001600160a01b03166326afaadd6040518163ffffffff1660e01b8152600401602060405180830381865afa1580156105ac573d6000803e3d6000fd5b505050506040513d601f19601f820116820180604052508101906105d0919061241b565b9050846001600160a01b0316816001600160a01b0316146106335760405162461bcd60e51b815260206004820152601360248201527f63616e6f6e6963616c20213d205f746f6b656e000000000000000000000000006044820152606401610446565b604082015161064d906001600160a01b0387169088610efc565b81604001519450505b60006106ad8786888b866060015187602001518d60405160200161068991906001600160a01b0391909116815260200190565b60408051601f1981840301815291905289516001546001600160a01b031634611018565b60408301519091506001600160a01b031615610743576107438260400151600084604001516001600160a01b03166326afaadd6040518163ffffffff1660e01b8152600401602060405180830381865afa15801561070f573d6000803e3d6000fd5b505050506040513d601f19601f82011682018060405250810190610733919061241b565b6001600160a01b03169190610efc565b6040805160208101839052016040516020818303038152906040529250505095945050505050565b3360009081526003602052604090205460ff166107ca5760405162461bcd60e51b815260206004820152601460248201527f43616c6c6572206973206e6f74207061757365720000000000000000000000006044820152606401610446565b6107d26110b1565b565b336107e76000546001600160a01b031690565b6001600160a01b03161461083d5760405162461bcd60e51b815260206004820181905260248201527f4f776e61626c653a2063616c6c6572206973206e6f7420746865206f776e65726044820152606401610446565b6001805473ffffffffffffffffffffffffffffffffffffffff19166001600160a01b0383169081179091556040519081527f3f8223bcd8b3b875473e9f9e14e1ad075451a2b5ffd31591655da9a01516bf5e906020015b60405180910390a150565b336108b26000546001600160a01b031690565b6001600160a01b0316146109085760405162461bcd60e51b815260206004820181905260248201527f4f776e61626c653a2063616c6c6572206973206e6f7420746865206f776e65726044820152606401610446565b61091181611106565b50565b336109276000546001600160a01b031690565b6001600160a01b03161461097d5760405162461bcd60e51b815260206004820181905260248201527f4f776e61626c653a2063616c6c6572206973206e6f7420746865206f776e65726044820152606401610446565b61091181611161565b6107d233611161565b336109a26000546001600160a01b031690565b6001600160a01b0316146109f85760405162461bcd60e51b815260206004820181905260248201527f4f776e61626c653a2063616c6c6572206973206e6f7420746865206f776e65726044820152606401610446565b6109118161121a565b3360009081526003602052604090205460ff16610a605760405162461bcd60e51b815260206004820152601460248201527f43616c6c6572206973206e6f74207061757365720000000000000000000000006044820152606401610446565b6107d26112d7565b33610a7b6000546001600160a01b031690565b6001600160a01b031614610ad15760405162461bcd60e51b815260206004820181905260248201527f4f776e61626c653a2063616c6c6572206973206e6f7420746865206f776e65726044820152606401610446565b6001600160a01b038116610b4d5760405162461bcd60e51b815260206004820152602660248201527f4f776e61626c653a206e6577206f776e657220697320746865207a65726f206160448201527f64647265737300000000000000000000000000000000000000000000000000006064820152608401610446565b6109118161131a565b6002546001600160a01b0390811690831603610cd757600154604080516320a6037160e21b815290516000926001600160a01b0316916382980dc49160048083019260209291908290030181865afa158015610bb6573d6000803e3d6000fd5b505050506040513d601f19601f82011682018060405250810190610bda919061241b565b9050600260009054906101000a90046001600160a01b03166001600160a01b0316816001600160a01b031663457bfa2f6040518163ffffffff1660e01b8152600401602060405180830381865afa158015610c39573d6000803e3d6000fd5b505050506040513d601f19601f82011682018060405250810190610c5d919061241b565b6001600160a01b031603610cd557600260009054906101000a90046001600160a01b03166001600160a01b031663d0e30db0836040518263ffffffff1660e01b81526004016000604051808303818588803b158015610cbb57600080fd5b505af1158015610ccf573d6000803e3d6000fd5b50505050505b505b5050565b8015610e4a576002546001600160a01b03858116911614610d3e5760405162461bcd60e51b815260206004820152600c60248201527f746b206e6f206e617469766500000000000000000000000000000000000000006044820152606401610446565b600254604051632e1a7d4d60e01b8152600481018590526001600160a01b0390911690632e1a7d4d90602401600060405180830381600087803b158015610d8457600080fd5b505af1158015610d98573d6000803e3d6000fd5b505050506000826001600160a01b03168461c35090604051600060405180830381858888f193505050503d8060008114610dee576040519150601f19603f3d011682016040523d82523d6000602084013e610df3565b606091505b5050905080610e445760405162461bcd60e51b815260206004820152600960248201527f73656e64206661696c00000000000000000000000000000000000000000000006044820152606401610446565b50610e5e565b610e5e6001600160a01b0385168385611377565b50505050565b6040516001600160a01b0380851660248301528316604482015260648101829052610e5e9085906323b872dd60e01b906084015b60408051601f198184030181529190526020810180517bffffffffffffffffffffffffffffffffffffffffffffffffffffffff167fffffffff00000000000000000000000000000000000000000000000000000000909316929092179091526113a7565b801580610f765750604051636eb1769f60e11b81523060048201526001600160a01b03838116602483015284169063dd62ed3e90604401602060405180830381865afa158015610f50573d6000803e3d6000fd5b505050506040513d601f19601f82011682018060405250810190610f749190612438565b155b610fe85760405162461bcd60e51b815260206004820152603660248201527f5361666545524332303a20617070726f76652066726f6d206e6f6e2d7a65726f60448201527f20746f206e6f6e2d7a65726f20616c6c6f77616e6365000000000000000000006064820152608401610446565b6040516001600160a01b038316602482015260448101829052610cd590849063095ea7b360e01b90606401610e98565b600080600061102d8d8d8d8d8d8d8c8c61148c565b88519193509150156110a157846001600160a01b0316634289fbb3858f8d85878d6040518763ffffffff1660e01b815260040161106e959493929190612451565b6000604051808303818588803b15801561108757600080fd5b505af115801561109b573d6000803e3d6000fd5b50505050505b509b9a5050505050505050505050565b6110b9611c1d565b6002805460ff60a01b191690557f5db9ee0a495bf2e6ff9c91a7834c1ba4fdd244a5e8aa4e537bd38aeae4b073aa335b6040516001600160a01b03909116815260200160405180910390a1565b6002805473ffffffffffffffffffffffffffffffffffffffff19166001600160a01b0383169081179091556040519081527fb878cd71628ac64b2df1872301925e01164824535b02e8601077749eeeb88c3d90602001610894565b6001600160a01b03811660009081526003602052604090205460ff166111c95760405162461bcd60e51b815260206004820152601560248201527f4163636f756e74206973206e6f742070617573657200000000000000000000006044820152606401610446565b6001600160a01b038116600081815260036020908152604091829020805460ff1916905590519182527fcd265ebaf09df2871cc7bd4133404a235ba12eff2041bb89d9c714a2621c7c7e9101610894565b6001600160a01b03811660009081526003602052604090205460ff16156112835760405162461bcd60e51b815260206004820152601960248201527f4163636f756e7420697320616c726561647920706175736572000000000000006044820152606401610446565b6001600160a01b038116600081815260036020908152604091829020805460ff1916600117905590519182527f6719d08c1888103bea251a4ed56406bd0c3e69723c8a1686e017e7bbe159b6f89101610894565b6112df611c76565b6002805460ff60a01b1916600160a01b1790557f62e78cea01bee320cd4e420270b5ea74000d11b0c9f74754ebdbfc544b05a2586110e93390565b600080546001600160a01b0383811673ffffffffffffffffffffffffffffffffffffffff19831681178455604051919092169283917f8be0079c531659141344cd1fd0a4f28419497f9722a3daafe3b4186f6b6457e09190a35050565b6040516001600160a01b038316602482015260448101829052610cd590849063a9059cbb60e01b90606401610e98565b60006113fc826040518060400160405280602081526020017f5361666545524332303a206c6f772d6c6576656c2063616c6c206661696c6564815250856001600160a01b0316611cd09092919063ffffffff16565b805190915015610cd5578080602001905181019061141a9190612493565b610cd55760405162461bcd60e51b815260206004820152602a60248201527f5361666545524332303a204552433230206f7065726174696f6e20646964206e60448201527f6f742073756363656564000000000000000000000000000000000000000000006064820152608401610446565b60008060018460068111156114a3576114a36120e4565b036115c257826001600160a01b03166382980dc46040518163ffffffff1660e01b8152600401602060405180830381865afa1580156114e6573d6000803e3d6000fd5b505050506040513d601f19601f8201168201806040525081019061150a919061241b565b90506115206001600160a01b038a16828a611ce9565b60405163a5977fbb60e01b81526001600160a01b038b811660048301528a81166024830152604482018a905267ffffffffffffffff808a1660648401528816608483015263ffffffff871660a483015282169063a5977fbb9060c401600060405180830381600087803b15801561159657600080fd5b505af11580156115aa573d6000803e3d6000fd5b505050506115bb8a8a8a8a8a611d9b565b9150611c10565b60028460068111156115d6576115d66120e4565b036116e257826001600160a01b031663d8257d176040518163ffffffff1660e01b8152600401602060405180830381865afa158015611619573d6000803e3d6000fd5b505050506040513d601f19601f8201168201806040525081019061163d919061241b565b90506116536001600160a01b038a16828a611ce9565b6040516308d18d8960e21b81526001600160a01b038a81166004830152602482018a905267ffffffffffffffff808a1660448401528c821660648401528816608483015282169063234636249060a401600060405180830381600087803b1580156116bd57600080fd5b505af11580156116d1573d6000803e3d6000fd5b505050506115bb8a8a8a8a8a611e23565b60038460068111156116f6576116f66120e4565b0361187d57826001600160a01b031663dfa2dbaf6040518163ffffffff1660e01b8152600401602060405180830381865afa158015611739573d6000803e3d6000fd5b505050506040513d601f19601f8201168201806040525081019061175d919061241b565b90506117736001600160a01b038a16828a611ce9565b604051636f3c863f60e11b81526001600160a01b038a81166004830152602482018a90528b8116604483015267ffffffffffffffff8816606483015282169063de790c7e90608401600060405180830381600087803b1580156117d557600080fd5b505af11580156117e9573d6000803e3d6000fd5b50611803925050506001600160a01b038a16826000610efc565b604080516bffffffffffffffffffffffff1930606090811b82166020808501919091528d821b83166034850152604884018d9052908e901b90911660688301526001600160c01b031960c08a811b8216607c85015246901b1660848301528251808303606c018152608c90920190925280519101206115bb565b6004846006811115611891576118916120e4565b036119a157826001600160a01b031663c66a9c5a6040518163ffffffff1660e01b8152600401602060405180830381865afa1580156118d4573d6000803e3d6000fd5b505050506040513d601f19601f820116820180604052508101906118f8919061241b565b905061190e6001600160a01b038a16828a611ce9565b6040516308d18d8960e21b81526001600160a01b038a81166004830152602482018a905267ffffffffffffffff808a1660448401528c821660648401528816608483015282169063234636249060a4016020604051808303816000875af115801561197d573d6000803e3d6000fd5b505050506040513d601f19601f820116820180604052508101906115bb9190612438565b60058460068111156119b5576119b56120e4565b03611ae257826001600160a01b03166395b12c276040518163ffffffff1660e01b8152600401602060405180830381865afa1580156119f8573d6000803e3d6000fd5b505050506040513d601f19601f82011682018060405250810190611a1c919061241b565b9050611a326001600160a01b038a16828a611ce9565b60405163a002930160e01b81526001600160a01b038a81166004830152602482018a905267ffffffffffffffff808a1660448401528c821660648401528816608483015282169063a00293019060a4015b6020604051808303816000875af1158015611aa2573d6000803e3d6000fd5b505050506040513d601f19601f82011682018060405250810190611ac69190612438565b9150611add6001600160a01b038a16826000610efc565b611c10565b6006846006811115611af657611af66120e4565b03611bc857826001600160a01b03166395b12c276040518163ffffffff1660e01b8152600401602060405180830381865afa158015611b39573d6000803e3d6000fd5b505050506040513d601f19601f82011682018060405250810190611b5d919061241b565b9050611b736001600160a01b038a16828a611ce9565b604051639e422c3360e01b81526001600160a01b038a81166004830152602482018a905267ffffffffffffffff808a1660448401528c8216606484015288166084830152821690639e422c339060a401611a83565b60405162461bcd60e51b815260206004820152601960248201527f6272696467652074797065206e6f7420737570706f72746564000000000000006044820152606401610446565b9850989650505050505050565b600254600160a01b900460ff166107d25760405162461bcd60e51b815260206004820152601460248201527f5061757361626c653a206e6f74207061757365640000000000000000000000006044820152606401610446565b600254600160a01b900460ff16156107d25760405162461bcd60e51b815260206004820152601060248201527f5061757361626c653a20706175736564000000000000000000000000000000006044820152606401610446565b6060611cdf8484600085611e91565b90505b9392505050565b604051636eb1769f60e11b81523060048201526001600160a01b038381166024830152600091839186169063dd62ed3e90604401602060405180830381865afa158015611d3a573d6000803e3d6000fd5b505050506040513d601f19601f82011682018060405250810190611d5e9190612438565b611d6891906124b5565b6040516001600160a01b038516602482015260448101829052909150610e5e90859063095ea7b360e01b90606401610e98565b6040516bffffffffffffffffffffffff1930606090811b8216602084015287811b8216603484015286901b166048820152605c81018490526001600160c01b031960c084811b8216607c84015283811b8216608484015246901b16608c8201526000906094015b60405160208183030381529060405280519060200120905095945050505050565b6040516bffffffffffffffffffffffff1930606090811b8216602084015286811b82166034840152604883018690526001600160c01b031960c086811b821660688601529189901b909216607084015283811b8216608484015246901b16608c820152600090609401611e02565b606082471015611f095760405162461bcd60e51b815260206004820152602660248201527f416464726573733a20696e73756666696369656e742062616c616e636520666f60448201527f722063616c6c00000000000000000000000000000000000000000000000000006064820152608401610446565b6001600160a01b0385163b611f605760405162461bcd60e51b815260206004820152601d60248201527f416464726573733a2063616c6c20746f206e6f6e2d636f6e74726163740000006044820152606401610446565b600080866001600160a01b03168587604051611f7c91906124db565b60006040518083038185875af1925050503d8060008114611fb9576040519150601f19603f3d011682016040523d82523d6000602084013e611fbe565b606091505b5091509150611fce828286611fd9565b979650505050505050565b60608315611fe8575081611ce2565b825115611ff85782518084602001fd5b8160405162461bcd60e51b8152600401610446919061230a565b6001600160a01b038116811461091157600080fd5b60008083601f84011261203957600080fd5b50813567ffffffffffffffff81111561205157600080fd5b60208301915083602082850101111561206957600080fd5b9250929050565b60008060008060006080868803121561208857600080fd5b853561209381612012565b945060208601359350604086013567ffffffffffffffff8111156120b657600080fd5b6120c288828901612027565b90945092505060608601356120d681612012565b809150509295509295909350565b634e487b7160e01b600052602160045260246000fd5b602081016003831061211c57634e487b7160e01b600052602160045260246000fd5b91905290565b6000806000806060858703121561213857600080fd5b843561214381612012565b935060208501359250604085013567ffffffffffffffff81111561216657600080fd5b61217287828801612027565b95989497509550505050565b67ffffffffffffffff8116811461091157600080fd5b634e487b7160e01b600052604160045260246000fd5b604051601f8201601f1916810167ffffffffffffffff811182821017156121d3576121d3612194565b604052919050565b600080600080600060a086880312156121f357600080fd5b85356121fe8161217e565b945060208681013561220f81612012565b945060408701359350606087013561222681612012565b9250608087013567ffffffffffffffff8082111561224357600080fd5b818901915089601f83011261225757600080fd5b81358181111561226957612269612194565b61227b601f8201601f191685016121aa565b91508082528a8482850101111561229157600080fd5b80848401858401376000848284010152508093505050509295509295909350565b60005b838110156122cd5781810151838201526020016122b5565b83811115610e5e5750506000910152565b600081518084526122f68160208601602086016122b2565b601f01601f19169290920160200192915050565b602081526000611ce260208301846122de565b60006020828403121561232f57600080fd5b8135611ce281612012565b60008060008060006080868803121561235257600080fd5b853561235d81612012565b9450602086013561236d8161217e565b9350604086013567ffffffffffffffff8111156120b657600080fd5b60006080828403121561239b57600080fd5b6040516080810181811067ffffffffffffffff821117156123be576123be612194565b6040528251600781106123d057600080fd5b8152602083015163ffffffff811681146123e957600080fd5b602082015260408301516123fc81612012565b6040820152606083015161240f8161217e565b60608201529392505050565b60006020828403121561242d57600080fd5b8151611ce281612012565b60006020828403121561244a57600080fd5b5051919050565b60006001600160a01b03808816835267ffffffffffffffff8716602084015280861660408401525083606083015260a06080830152611fce60a08301846122de565b6000602082840312156124a557600080fd5b81518015158114611ce257600080fd5b600082198211156124d657634e487b7160e01b600052601160045260246000fd5b500190565b600082516124ed8184602087016122b2565b919091019291505056fea264697066735822122043ae16c21256bdadb4e3fef1260adf388e97d9ab7a08a34c41244dddc09dd1d664736f6c634300080f0033",
  "devdoc": {
    "kind": "dev",
    "methods": {
      "executeMessage(address,uint64,bytes,address)": {
        "params": {
          "_executor": "Address who called the MessageBus execution function",
          "_message": "Arbitrary message bytes originated from and encoded by the source app contract",
          "_sender": "The address of the source app contract",
          "_srcChainId": "The source chain ID where the transfer is originated from"
        }
      },
      "executeMessageWithTransferRefund(address,uint256,bytes)": {
        "params": {
          "_amount": "The amount of the original transfer",
          "_message": "The same message associated with the original transfer",
          "_token": "The token address of the original transfer"
        }
      },
      "executeMessageWithTransferRefund(address,uint256,bytes,address)": {
        "details": "only MessageBus can call this function, this requires the user to get sigs of the message from SGNBridge contract *always* sends native token to its receiver (this contract) even though the _token field is always an ERC20 token",
        "params": {
          "_amount": "the amount of token received by this contract",
          "_token": "the token received by this contract"
        },
        "returns": {
          "_0": "ExecutionStatus a status indicates whether the processing is successful"
        }
      },
      "owner()": {
        "details": "Returns the address of the current owner."
      },
      "paused()": {
        "details": "Returns true if the contract is paused, and false otherwise."
      },
      "transferOwnership(address)": {
        "details": "Transfers ownership of the contract to a new account (`newOwner`). Can only be called by the current owner."
      }
    },
    "version": 1
  },
  "userdoc": {
    "kind": "user",
    "methods": {
      "executeMessage(address,uint64,bytes,address)": {
        "notice": "Called by MessageBus (MessageBusReceiver)"
      },
      "executeMessageWithTransferRefund(address,uint256,bytes)": {
        "notice": "Called by MessageBus (MessageBusReceiver) to process refund of the original transfer from this contract"
      },
      "executeMessageWithTransferRefund(address,uint256,bytes,address)": {
        "notice": "Used to trigger refund when bridging fails due to large slippage"
      }
    },
    "version": 1
  },
  "storageLayout": {
    "storage": [
      {
        "astId": 9681,
        "contract": "contracts/bridges/CBridgeAdapter.sol:CBridgeAdapter",
        "label": "_owner",
        "offset": 0,
        "slot": "0",
        "type": "t_address"
      },
      {
        "astId": 119,
        "contract": "contracts/bridges/CBridgeAdapter.sol:CBridgeAdapter",
        "label": "_initialized",
        "offset": 20,
        "slot": "0",
        "type": "t_uint8"
      },
      {
        "astId": 122,
        "contract": "contracts/bridges/CBridgeAdapter.sol:CBridgeAdapter",
        "label": "_initializing",
        "offset": 21,
        "slot": "0",
        "type": "t_bool"
      },
      {
        "astId": 8934,
        "contract": "contracts/bridges/CBridgeAdapter.sol:CBridgeAdapter",
        "label": "testMode",
        "offset": 22,
        "slot": "0",
        "type": "t_bool"
      },
      {
        "astId": 8936,
        "contract": "contracts/bridges/CBridgeAdapter.sol:CBridgeAdapter",
        "label": "messageBus",
        "offset": 0,
        "slot": "1",
        "type": "t_address"
      },
      {
        "astId": 9619,
        "contract": "contracts/bridges/CBridgeAdapter.sol:CBridgeAdapter",
        "label": "nativeWrap",
        "offset": 0,
        "slot": "2",
        "type": "t_address"
      },
      {
        "astId": 281,
        "contract": "contracts/bridges/CBridgeAdapter.sol:CBridgeAdapter",
        "label": "_paused",
        "offset": 20,
        "slot": "2",
        "type": "t_bool"
      },
      {
        "astId": 9795,
        "contract": "contracts/bridges/CBridgeAdapter.sol:CBridgeAdapter",
        "label": "pausers",
        "offset": 0,
        "slot": "3",
        "type": "t_mapping(t_address,t_bool)"
      }
    ],
    "types": {
      "t_address": {
        "encoding": "inplace",
        "label": "address",
        "numberOfBytes": "20"
      },
      "t_bool": {
        "encoding": "inplace",
        "label": "bool",
        "numberOfBytes": "1"
      },
      "t_mapping(t_address,t_bool)": {
        "encoding": "mapping",
        "key": "t_address",
        "label": "mapping(address => bool)",
        "numberOfBytes": "32",
        "value": "t_bool"
      },
      "t_uint8": {
        "encoding": "inplace",
        "label": "uint8",
        "numberOfBytes": "1"
      }
    }
  }
}