{
  "address": "0xb67081AC1598C2a0886f0838CdF57fb0D0283418",
  "abi": [
    {
      "inputs": [
        {
          "internalType": "address[]",
          "name": "_tokens",
          "type": "address[]"
        },
        {
          "internalType": "address[]",
          "name": "_bridges",
          "type": "address[]"
        },
        {
          "internalType": "bool",
          "name": "_isL1",
          "type": "bool"
        },
        {
          "internalType": "address",
          "name": "_nativeWrap",
          "type": "address"
        }
      ],
      "stateMutability": "nonpayable",
      "type": "constructor"
    },
    {
      "anonymous": false,
      "inputs": [
        {
          "indexed": false,
          "internalType": "address[]",
          "name": "tokens",
          "type": "address[]"
        },
        {
          "indexed": false,
          "internalType": "address[]",
          "name": "bridges",
          "type": "address[]"
        }
      ],
      "name": "BridgeUpdated",
      "type": "event"
    },
    {
      "anonymous": false,
      "inputs": [
        {
          "indexed": false,
          "internalType": "uint8",
          "name": "version",
          "type": "uint8"
        }
      ],
      "name": "Initialized",
      "type": "event"
    },
    {
      "anonymous": false,
      "inputs": [
        {
          "indexed": false,
          "internalType": "address",
          "name": "nativeWrap",
          "type": "address"
        }
      ],
      "name": "NativeWrapUpdated",
      "type": "event"
    },
    {
      "anonymous": false,
      "inputs": [
        {
          "indexed": true,
          "internalType": "address",
          "name": "previousOwner",
          "type": "address"
        },
        {
          "indexed": true,
          "internalType": "address",
          "name": "newOwner",
          "type": "address"
        }
      ],
      "name": "OwnershipTransferred",
      "type": "event"
    },
    {
      "inputs": [
        {
          "internalType": "uint64",
          "name": "_dstChainId",
          "type": "uint64"
        },
        {
          "internalType": "address",
          "name": "_receiver",
          "type": "address"
        },
        {
          "internalType": "uint256",
          "name": "_amount",
          "type": "uint256"
        },
        {
          "internalType": "address",
          "name": "_token",
          "type": "address"
        },
        {
          "internalType": "bytes",
          "name": "_bridgeParams",
          "type": "bytes"
        }
      ],
      "name": "bridge",
      "outputs": [
        {
          "internalType": "bytes",
          "name": "bridgeResp",
          "type": "bytes"
        }
      ],
      "stateMutability": "payable",
      "type": "function"
    },
    {
      "inputs": [
        {
          "internalType": "address",
          "name": "",
          "type": "address"
        }
      ],
      "name": "bridges",
      "outputs": [
        {
          "internalType": "address",
          "name": "",
          "type": "address"
        }
      ],
      "stateMutability": "view",
      "type": "function"
    },
    {
      "inputs": [],
      "name": "isL1",
      "outputs": [
        {
          "internalType": "bool",
          "name": "",
          "type": "bool"
        }
      ],
      "stateMutability": "view",
      "type": "function"
    },
    {
      "inputs": [],
      "name": "nativeWrap",
      "outputs": [
        {
          "internalType": "address",
          "name": "",
          "type": "address"
        }
      ],
      "stateMutability": "view",
      "type": "function"
    },
    {
      "inputs": [],
      "name": "owner",
      "outputs": [
        {
          "internalType": "address",
          "name": "",
          "type": "address"
        }
      ],
      "stateMutability": "view",
      "type": "function"
    },
    {
      "inputs": [
        {
          "internalType": "address[]",
          "name": "_tokens",
          "type": "address[]"
        },
        {
          "internalType": "address[]",
          "name": "_bridges",
          "type": "address[]"
        }
      ],
      "name": "setBridges",
      "outputs": [],
      "stateMutability": "nonpayable",
      "type": "function"
    },
    {
      "inputs": [
        {
          "internalType": "address",
          "name": "_nativeWrap",
          "type": "address"
        }
      ],
      "name": "setNativeWrap",
      "outputs": [],
      "stateMutability": "nonpayable",
      "type": "function"
    },
    {
      "inputs": [
        {
          "internalType": "address",
          "name": "newOwner",
          "type": "address"
        }
      ],
      "name": "transferOwnership",
      "outputs": [],
      "stateMutability": "nonpayable",
      "type": "function"
    },
    {
      "stateMutability": "payable",
      "type": "receive"
    }
  ],
  "transactionHash": "0x22e0b5e593937401f916e318b28cb90ef2725485920e6f47db2160b93826b96b",
  "args": [
    [
      "0xFF970A61A04b1cA14834A43f5dE4533eBDDB5CC8",
      "0xFd086bC7CD5C481DCC9C85ebE478A1C0b69FCbb9",
      "0xDA10009cBd5D07dd0CeCc66161FC93D7c9000da1",
      "0x82aF49447D8a07e3bd95BD0d56f35241523fBab1",
      "0x2f2a2543B76A4166549F7aaB2e75Bef0aefC5B0f"
    ],
    [
      "0xe22D2beDb3Eca35E6397e0C6D62857094aA26F52",
      "0xCB0a4177E0A60247C0ad18Be87f8eDfF6DD30283",
      "0xe7F40BF16AB09f4a6906Ac2CAA4094aD2dA48Cc2",
      "0x33ceb27b39d2Bb7D2e61F7564d3Df29344020417",
      "0xC08055b634D43F2176d721E26A3428D3b7E7DdB5"
    ],
    false,
    "0x82aF49447D8a07e3bd95BD0d56f35241523fBab1"
  ],
  "numDeployments": 5,
  "solcInputHash": "13eab8dc6f3c39beb474ead95b3aafe0",
  "bytecode": "0x60a06040523480156200001157600080fd5b5060405162001626380380620016268339810160408190526200003491620002df565b8062000040336200007c565b600180546001600160a01b0319166001600160a01b0392909216919091179055811515608052620000728484620000cc565b5050505062000430565b600080546001600160a01b038381166001600160a01b0319831681178455604051919092169283917f8be0079c531659141344cd1fd0a4f28419497f9722a3daafe3b4186f6b6457e09190a35050565b8051825114620001115760405162461bcd60e51b815260206004820152600c60248201526b0d8cadc40dad2e6dac2e8c6d60a31b604482015260640160405180910390fd5b60005b82518160ff161015620001bf57818160ff168151811062000139576200013962000374565b602002602001015160026000858460ff16815181106200015d576200015d62000374565b60200260200101516001600160a01b03166001600160a01b0316815260200190815260200160002060006101000a8154816001600160a01b0302191690836001600160a01b031602179055508080620001b6906200038a565b91505062000114565b507fe6f8b37160fcd8da316f0f1af6909be686dfdb00300ad6bb0727b8ca058df2f78282604051620001f3929190620003fe565b60405180910390a15050565b634e487b7160e01b600052604160045260246000fd5b80516001600160a01b03811681146200022d57600080fd5b919050565b600082601f8301126200024457600080fd5b815160206001600160401b0380831115620002635762000263620001ff565b8260051b604051601f19603f830116810181811084821117156200028b576200028b620001ff565b604052938452858101830193838101925087851115620002aa57600080fd5b83870191505b84821015620002d457620002c48262000215565b83529183019190830190620002b0565b979650505050505050565b60008060008060808587031215620002f657600080fd5b84516001600160401b03808211156200030e57600080fd5b6200031c8883890162000232565b955060208701519150808211156200033357600080fd5b50620003428782880162000232565b935050604085015180151581146200035957600080fd5b9150620003696060860162000215565b905092959194509250565b634e487b7160e01b600052603260045260246000fd5b600060ff821660ff8103620003af57634e487b7160e01b600052601160045260246000fd5b60010192915050565b600081518084526020808501945080840160005b83811015620003f35781516001600160a01b031687529582019590820190600101620003cc565b509495945050505050565b604081526000620004136040830185620003b8565b8281036020840152620004278185620003b8565b95945050505050565b6080516111d46200045260003960008181609d015261028101526111d46000f3fe60806040526004361061007f5760003560e01c80635b5a66a71161004e5780635b5a66a71461014e5780638da5cb5b1461016e578063ced67f0c1461018c578063f2fde38b146101c257600080fd5b80631974932b1461008b57806324c9401b146100d45780633509c148146100f4578063457bfa2f1461011657600080fd5b3661008657005b600080fd5b34801561009757600080fd5b506100bf7f000000000000000000000000000000000000000000000000000000000000000081565b60405190151581526020015b60405180910390f35b6100e76100e2366004610ded565b6101e2565b6040516100cb9190610f1c565b34801561010057600080fd5b5061011461010f366004610f7b565b61058c565b005b34801561012257600080fd5b50600154610136906001600160a01b031681565b6040516001600160a01b0390911681526020016100cb565b34801561015a57600080fd5b50610114610169366004610fe7565b610668565b34801561017a57600080fd5b506000546001600160a01b0316610136565b34801561019857600080fd5b506101366101a7366004610fe7565b6002602052600090815260409020546001600160a01b031681565b3480156101ce57600080fd5b506101146101dd366004610fe7565b6106dd565b60606000828060200190518101906101fa9190611002565b6001600160a01b03808616600090815260026020526040902054919250168061026a5760405162461bcd60e51b815260206004820152601060248201527f627269646765206e6f7420666f756e640000000000000000000000000000000060448201526064015b60405180910390fd5b61027f6001600160a01b0386163330896107cb565b7f0000000000000000000000000000000000000000000000000000000000000000156103d6576001546000906001600160a01b039081169087160361032057604051632e1a7d4d60e01b8152600481018890526001600160a01b03871690632e1a7d4d90602401600060405180830381600087803b15801561030057600080fd5b505af1158015610314573d6000803e3d6000fd5b50505050869050610334565b6103346001600160a01b0387168389610863565b6040838101516020850151915163deace8f560e01b815267ffffffffffffffff8c1660048201526001600160a01b038b81166024830152604482018b905260648201929092526084810192909252600060a4830181905260c483015283169063deace8f590839060e4016000604051808303818588803b1580156103b757600080fd5b505af11580156103cb573d6000803e3d6000fd5b505050505050610581565b6001546000906001600160a01b0387811691161480156104535750816001600160a01b031663285551256040518163ffffffff1660e01b8152600401602060405180830381865afa15801561042f573d6000803e3d6000fd5b505050506040513d601f19601f820116820180604052508101906104539190611072565b156104ba57604051632e1a7d4d60e01b8152600481018890526001600160a01b03871690632e1a7d4d90602401600060405180830381600087803b15801561049a57600080fd5b505af11580156104ae573d6000803e3d6000fd5b505050508690506104ce565b6104ce6001600160a01b0387168389610863565b825160408085015160208601516080870151606088015193516377506bd960e11b815267ffffffffffffffff8f1660048201526001600160a01b038e81166024830152604482018e90526064820196909652608481019390935260a483019190915260c482015260e48101919091529083169063eea0d7b2908390610104016000604051808303818588803b15801561056657600080fd5b505af115801561057a573d6000803e3d6000fd5b5050505050505b505095945050505050565b3361059f6000546001600160a01b031690565b6001600160a01b0316146105f55760405162461bcd60e51b815260206004820181905260248201527f4f776e61626c653a2063616c6c6572206973206e6f7420746865206f776e65726044820152606401610261565b6106628484808060200260200160405190810160405280939291908181526020018383602002808284376000920191909152505060408051602080880282810182019093528782529093508792508691829185019084908082843760009201919091525061091592505050565b50505050565b3361067b6000546001600160a01b031690565b6001600160a01b0316146106d15760405162461bcd60e51b815260206004820181905260248201527f4f776e61626c653a2063616c6c6572206973206e6f7420746865206f776e65726044820152606401610261565b6106da81610a48565b50565b336106f06000546001600160a01b031690565b6001600160a01b0316146107465760405162461bcd60e51b815260206004820181905260248201527f4f776e61626c653a2063616c6c6572206973206e6f7420746865206f776e65726044820152606401610261565b6001600160a01b0381166107c25760405162461bcd60e51b815260206004820152602660248201527f4f776e61626c653a206e6577206f776e657220697320746865207a65726f206160448201527f64647265737300000000000000000000000000000000000000000000000000006064820152608401610261565b6106da81610aa9565b6040516001600160a01b03808516602483015283166044820152606481018290526106629085906323b872dd60e01b906084015b60408051601f198184030181529190526020810180517bffffffffffffffffffffffffffffffffffffffffffffffffffffffff167fffffffff0000000000000000000000000000000000000000000000000000000090931692909217909152610b06565b604051636eb1769f60e11b81523060048201526001600160a01b038381166024830152600091839186169063dd62ed3e90604401602060405180830381865afa1580156108b4573d6000803e3d6000fd5b505050506040513d601f19601f820116820180604052508101906108d89190611094565b6108e291906110c3565b6040516001600160a01b03851660248201526044810182905290915061066290859063095ea7b360e01b906064016107ff565b80518251146109665760405162461bcd60e51b815260206004820152600c60248201527f6c656e206d69736d6174636800000000000000000000000000000000000000006044820152606401610261565b60005b82518160ff161015610a0a57818160ff168151811061098a5761098a6110db565b602002602001015160026000858460ff16815181106109ab576109ab6110db565b60200260200101516001600160a01b03166001600160a01b0316815260200190815260200160002060006101000a8154816001600160a01b0302191690836001600160a01b031602179055508080610a02906110f1565b915050610969565b507fe6f8b37160fcd8da316f0f1af6909be686dfdb00300ad6bb0727b8ca058df2f78282604051610a3c929190611154565b60405180910390a15050565b6001805473ffffffffffffffffffffffffffffffffffffffff19166001600160a01b0383169081179091556040519081527fb878cd71628ac64b2df1872301925e01164824535b02e8601077749eeeb88c3d9060200160405180910390a150565b600080546001600160a01b0383811673ffffffffffffffffffffffffffffffffffffffff19831681178455604051919092169283917f8be0079c531659141344cd1fd0a4f28419497f9722a3daafe3b4186f6b6457e09190a35050565b6000610b5b826040518060400160405280602081526020017f5361666545524332303a206c6f772d6c6576656c2063616c6c206661696c6564815250856001600160a01b0316610bf09092919063ffffffff16565b805190915015610beb5780806020019051810190610b799190611072565b610beb5760405162461bcd60e51b815260206004820152602a60248201527f5361666545524332303a204552433230206f7065726174696f6e20646964206e60448201527f6f742073756363656564000000000000000000000000000000000000000000006064820152608401610261565b505050565b6060610bff8484600085610c09565b90505b9392505050565b606082471015610c815760405162461bcd60e51b815260206004820152602660248201527f416464726573733a20696e73756666696369656e742062616c616e636520666f60448201527f722063616c6c00000000000000000000000000000000000000000000000000006064820152608401610261565b6001600160a01b0385163b610cd85760405162461bcd60e51b815260206004820152601d60248201527f416464726573733a2063616c6c20746f206e6f6e2d636f6e74726163740000006044820152606401610261565b600080866001600160a01b03168587604051610cf49190611182565b60006040518083038185875af1925050503d8060008114610d31576040519150601f19603f3d011682016040523d82523d6000602084013e610d36565b606091505b5091509150610d46828286610d51565b979650505050505050565b60608315610d60575081610c02565b825115610d705782518084602001fd5b8160405162461bcd60e51b81526004016102619190610f1c565b80356001600160a01b0381168114610da157600080fd5b919050565b634e487b7160e01b600052604160045260246000fd5b604051601f8201601f1916810167ffffffffffffffff81118282101715610de557610de5610da6565b604052919050565b600080600080600060a08688031215610e0557600080fd5b853567ffffffffffffffff8082168214610e1e57600080fd5b909550602090610e2f888301610d8a565b955060408801359450610e4460608901610d8a565b9350608088013581811115610e5857600080fd5b8801601f81018a13610e6957600080fd5b803582811115610e7b57610e7b610da6565b610e8d601f8201601f19168501610dbc565b92508083528a84828401011115610ea357600080fd5b80848301858501376000848285010152505080925050509295509295909350565b60005b83811015610edf578181015183820152602001610ec7565b838111156106625750506000910152565b60008151808452610f08816020860160208601610ec4565b601f01601f19169290920160200192915050565b602081526000610c026020830184610ef0565b60008083601f840112610f4157600080fd5b50813567ffffffffffffffff811115610f5957600080fd5b6020830191508360208260051b8501011115610f7457600080fd5b9250929050565b60008060008060408587031215610f9157600080fd5b843567ffffffffffffffff80821115610fa957600080fd5b610fb588838901610f2f565b90965094506020870135915080821115610fce57600080fd5b50610fdb87828801610f2f565b95989497509550505050565b600060208284031215610ff957600080fd5b610c0282610d8a565b600060a0828403121561101457600080fd5b60405160a0810181811067ffffffffffffffff8211171561103757611037610da6565b806040525082518152602083015160208201526040830151604082015260608301516060820152608083015160808201528091505092915050565b60006020828403121561108457600080fd5b81518015158114610c0257600080fd5b6000602082840312156110a657600080fd5b5051919050565b634e487b7160e01b600052601160045260246000fd5b600082198211156110d6576110d66110ad565b500190565b634e487b7160e01b600052603260045260246000fd5b600060ff821660ff8103611107576111076110ad565b60010192915050565b600081518084526020808501945080840160005b838110156111495781516001600160a01b031687529582019590820190600101611124565b509495945050505050565b6040815260006111676040830185611110565b82810360208401526111798185611110565b95945050505050565b60008251611194818460208701610ec4565b919091019291505056fea26469706673582212209f5105243256da7023c17031528b13799e2163887a08350352e04cff6962b62464736f6c634300080f0033",
  "devdoc": {
    "kind": "dev",
    "methods": {
      "owner()": {
        "details": "Returns the address of the current owner."
      },
      "transferOwnership(address)": {
        "details": "Transfers ownership of the contract to a new account (`newOwner`). Can only be called by the current owner."
      }
    },
    "version": 1
  },
  "userdoc": {
    "kind": "user",
    "methods": {},
    "version": 1
  },
  "storageLayout": {
    "storage": [
      {
        "astId": 9742,
        "contract": "contracts/bridges/HopAdapter.sol:HopAdapter",
        "label": "_owner",
        "offset": 0,
        "slot": "0",
        "type": "t_address"
      },
      {
        "astId": 119,
        "contract": "contracts/bridges/HopAdapter.sol:HopAdapter",
        "label": "_initialized",
        "offset": 20,
        "slot": "0",
        "type": "t_uint8"
      },
      {
        "astId": 122,
        "contract": "contracts/bridges/HopAdapter.sol:HopAdapter",
        "label": "_initializing",
        "offset": 21,
        "slot": "0",
        "type": "t_bool"
      },
      {
        "astId": 9680,
        "contract": "contracts/bridges/HopAdapter.sol:HopAdapter",
        "label": "nativeWrap",
        "offset": 0,
        "slot": "1",
        "type": "t_address"
      },
      {
        "astId": 5060,
        "contract": "contracts/bridges/HopAdapter.sol:HopAdapter",
        "label": "bridges",
        "offset": 0,
        "slot": "2",
        "type": "t_mapping(t_address,t_address)"
      }
    ],
    "types": {
      "t_address": {
        "encoding": "inplace",
        "label": "address",
        "numberOfBytes": "20"
      },
      "t_bool": {
        "encoding": "inplace",
        "label": "bool",
        "numberOfBytes": "1"
      },
      "t_mapping(t_address,t_address)": {
        "encoding": "mapping",
        "key": "t_address",
        "label": "mapping(address => address)",
        "numberOfBytes": "32",
        "value": "t_address"
      },
      "t_uint8": {
        "encoding": "inplace",
        "label": "uint8",
        "numberOfBytes": "1"
      }
    }
  }
}