{
  "address": "0xd8Be5B63938e224415a4cD0d269034BC868347c2",
  "abi": [
    {
      "inputs": [
        {
          "internalType": "address",
          "name": "_pool",
          "type": "address"
        },
        {
          "internalType": "address",
          "name": "_nativeWrap",
          "type": "address"
        }
      ],
      "stateMutability": "nonpayable",
      "type": "constructor"
    },
    {
      "anonymous": false,
      "inputs": [
        {
          "indexed": false,
          "internalType": "address",
          "name": "nativeWrap",
          "type": "address"
        }
      ],
      "name": "NativeWrapUpdated",
      "type": "event"
    },
    {
      "anonymous": false,
      "inputs": [
        {
          "indexed": true,
          "internalType": "address",
          "name": "previousOwner",
          "type": "address"
        },
        {
          "indexed": true,
          "internalType": "address",
          "name": "newOwner",
          "type": "address"
        }
      ],
      "name": "OwnershipTransferred",
      "type": "event"
    },
    {
      "anonymous": false,
      "inputs": [
        {
          "indexed": false,
          "internalType": "address",
          "name": "pool",
          "type": "address"
        }
      ],
      "name": "PoolUpdated",
      "type": "event"
    },
    {
      "inputs": [
        {
          "internalType": "uint64",
          "name": "_dstChainId",
          "type": "uint64"
        },
        {
          "internalType": "address",
          "name": "_receiver",
          "type": "address"
        },
        {
          "internalType": "uint256",
          "name": "_amount",
          "type": "uint256"
        },
        {
          "internalType": "address",
          "name": "_token",
          "type": "address"
        },
        {
          "internalType": "bytes",
          "name": "",
          "type": "bytes"
        },
        {
          "internalType": "bytes",
          "name": "",
          "type": "bytes"
        }
      ],
      "name": "bridge",
      "outputs": [
        {
          "internalType": "bytes",
          "name": "bridgeResp",
          "type": "bytes"
        }
      ],
      "stateMutability": "payable",
      "type": "function"
    },
    {
      "inputs": [],
      "name": "nativeWrap",
      "outputs": [
        {
          "internalType": "address",
          "name": "",
          "type": "address"
        }
      ],
      "stateMutability": "view",
      "type": "function"
    },
    {
      "inputs": [],
      "name": "owner",
      "outputs": [
        {
          "internalType": "address",
          "name": "",
          "type": "address"
        }
      ],
      "stateMutability": "view",
      "type": "function"
    },
    {
      "inputs": [],
      "name": "pool",
      "outputs": [
        {
          "internalType": "address",
          "name": "",
          "type": "address"
        }
      ],
      "stateMutability": "view",
      "type": "function"
    },
    {
      "inputs": [],
      "name": "renounceOwnership",
      "outputs": [],
      "stateMutability": "nonpayable",
      "type": "function"
    },
    {
      "inputs": [
        {
          "internalType": "address",
          "name": "_nativeWrap",
          "type": "address"
        }
      ],
      "name": "setNativeWrap",
      "outputs": [],
      "stateMutability": "nonpayable",
      "type": "function"
    },
    {
      "inputs": [
        {
          "internalType": "address",
          "name": "_pool",
          "type": "address"
        }
      ],
      "name": "setPool",
      "outputs": [],
      "stateMutability": "nonpayable",
      "type": "function"
    },
    {
      "inputs": [
        {
          "internalType": "address",
          "name": "newOwner",
          "type": "address"
        }
      ],
      "name": "transferOwnership",
      "outputs": [],
      "stateMutability": "nonpayable",
      "type": "function"
    },
    {
      "stateMutability": "payable",
      "type": "receive"
    }
  ],
  "transactionHash": "0x9f205ca57cace0195e68f4875c9751dc66ecc467cca7146f010e6d199ea6e197",
  "args": [
    "0x856cb5c3cbbe9e2e21293a644aa1f9363cee11e8",
    "0x82aF49447D8a07e3bd95BD0d56f35241523fBab1"
  ],
  "numDeployments": 1,
  "solcInputHash": "3adec8c27b43fb34c47eeb2e7f2a3fc4",
  "bytecode": "0x60806040523480156200001157600080fd5b506040516200105038038062001050833981016040819052620000349162000160565b806200004033620000d6565b6001600160a01b038116620000725760405162461bcd60e51b81526004016200006990620001cd565b60405180910390fd5b600180546001600160a01b0319166001600160a01b039283161790558216620000af5760405162461bcd60e51b8152600401620000699062000203565b50600280546001600160a01b0319166001600160a01b039290921691909117905562000215565b600080546001600160a01b038381166001600160a01b0319831681178455604051919092169283917f8be0079c531659141344cd1fd0a4f28419497f9722a3daafe3b4186f6b6457e09190a35050565b60006001600160a01b0382165b92915050565b620001448162000126565b81146200015057600080fd5b50565b8051620001338162000139565b60008060408385031215620001785762000178600080fd5b600062000186858562000153565b9250506020620001998582860162000153565b9150509250929050565b601081526000602082016f07a65726f206e617469766520777261760841b815291505b5060200190565b602080825281016200013381620001a3565b600c81526000602082016b7a65726f206164647265737360a01b81529150620001c6565b602080825281016200013381620001df565b610e2b80620002256000396000f3fe60806040526004361061007f5760003560e01c8063715018a61161004e578063715018a614610123578063834bc3ea146101385780638da5cb5b14610158578063f2fde38b1461017657600080fd5b806316f0115b1461008b5780634437152a146100c1578063457bfa2f146100e35780635b5a66a71461010357600080fd5b3661008657005b600080fd5b34801561009757600080fd5b506002546100ab906001600160a01b031681565b6040516100b89190610791565b60405180910390f35b3480156100cd57600080fd5b506100e16100dc3660046107be565b610196565b005b3480156100ef57600080fd5b506001546100ab906001600160a01b031681565b34801561010f57600080fd5b506100e161011e3660046107be565b610201565b34801561012f57600080fd5b506100e1610238565b61014b610146366004610906565b61024c565b6040516100b89190610a24565b34801561016457600080fd5b506000546001600160a01b03166100ab565b34801561018257600080fd5b506100e16101913660046107be565b6103d3565b61019e610416565b6002805473ffffffffffffffffffffffffffffffffffffffff19166001600160a01b0383161790556040517f380cec482764ddef4f75351b5398e3e2bea99ba23e53a00d5521f569fb668e1f906101f6908390610791565b60405180910390a150565b610209610416565b6001805473ffffffffffffffffffffffffffffffffffffffff19166001600160a01b0392909216919091179055565b610240610416565b61024a6000610440565b565b60606102636001600160a01b03851633308861049d565b6001546001600160a01b039081169085160361034657600154604051632e1a7d4d60e01b81526001600160a01b0390911690632e1a7d4d906102a9908890600401610a3b565b600060405180830381600087803b1580156102c357600080fd5b505af11580156102d7573d6000803e3d6000fd5b505060025460405163ea36842160e01b81526001600160a01b03909116925063ea3684219150879061030f908a908c90600401610aa2565b6000604051808303818588803b15801561032857600080fd5b505af115801561033c573d6000803e3d6000fd5b50505050506103c9565b600254610360906001600160a01b03868116911687610528565b6002546040516355d7359560e01b81526001600160a01b03909116906355d7359590610396908a9088908b908b90600401610ace565b600060405180830381600087803b1580156103b057600080fd5b505af11580156103c4573d6000803e3d6000fd5b505050505b9695505050505050565b6103db610416565b6001600160a01b03811661040a5760405162461bcd60e51b815260040161040190610b71565b60405180910390fd5b61041381610440565b50565b6000546001600160a01b0316331461024a5760405162461bcd60e51b815260040161040190610bb3565b600080546001600160a01b0383811673ffffffffffffffffffffffffffffffffffffffff19831681178455604051919092169283917f8be0079c531659141344cd1fd0a4f28419497f9722a3daafe3b4186f6b6457e09190a35050565b610522846323b872dd60e01b8585856040516024016104be93929190610bc3565b60408051601f198184030181529190526020810180517bffffffffffffffffffffffffffffffffffffffffffffffffffffffff167fffffffff00000000000000000000000000000000000000000000000000000000909316929092179091526105c5565b50505050565b600081846001600160a01b031663dd62ed3e30866040518363ffffffff1660e01b8152600401610559929190610beb565b602060405180830381865afa158015610576573d6000803e3d6000fd5b505050506040513d601f19601f8201168201806040525081019061059a9190610c11565b6105a49190610c48565b90506105228463095ea7b360e01b85846040516024016104be929190610c60565b600061061a826040518060400160405280602081526020017f5361666545524332303a206c6f772d6c6576656c2063616c6c206661696c6564815250856001600160a01b03166106599092919063ffffffff16565b80519091501561065457808060200190518101906106389190610c8e565b6106545760405162461bcd60e51b815260040161040190610d09565b505050565b60606106688484600085610672565b90505b9392505050565b6060824710156106945760405162461bcd60e51b815260040161040190610d73565b6001600160a01b0385163b6106bb5760405162461bcd60e51b815260040161040190610db7565b600080866001600160a01b031685876040516106d79190610de9565b60006040518083038185875af1925050503d8060008114610714576040519150601f19603f3d011682016040523d82523d6000602084013e610719565b606091505b5091509150610729828286610736565b925050505b949350505050565b6060831561074557508161066b565b8251156107555782518084602001fd5b8160405162461bcd60e51b81526004016104019190610a24565b60006001600160a01b0382165b92915050565b61078b8161076f565b82525050565b6020810161077c8284610782565b6107a88161076f565b811461041357600080fd5b803561077c8161079f565b6000602082840312156107d3576107d3600080fd5b600061072e84846107b3565b67ffffffffffffffff81166107a8565b803561077c816107df565b806107a8565b803561077c816107fa565b634e487b7160e01b600052604160045260246000fd5b601f19601f830116810181811067ffffffffffffffff821117156108475761084761080b565b6040525050565b600061085960405190565b90506108658282610821565b919050565b600067ffffffffffffffff8211156108845761088461080b565b601f19601f83011660200192915050565b82818337506000910152565b60006108b46108af8461086a565b61084e565b9050828152602081018484840111156108cf576108cf600080fd5b6108da848285610895565b509392505050565b600082601f8301126108f6576108f6600080fd5b813561072e8482602086016108a1565b60008060008060008060c0878903121561092257610922600080fd5b600061092e89896107ef565b965050602061093f89828a016107b3565b955050604061095089828a01610800565b945050606061096189828a016107b3565b935050608087013567ffffffffffffffff81111561098157610981600080fd5b61098d89828a016108e2565b92505060a087013567ffffffffffffffff8111156109ad576109ad600080fd5b6109b989828a016108e2565b9150509295509295509295565b60005b838110156109e15781810151838201526020016109c9565b838111156105225750506000910152565b60006109fc825190565b808452602084019350610a138185602086016109c6565b601f01601f19169290920192915050565b6020808252810161066b81846109f2565b8061078b565b6020810161077c8284610a35565b600061077c610a5f67ffffffffffffffff841681565b90565b61078b81610a49565b600881526000602082017f636861696e686f70000000000000000000000000000000000000000000000000815291505b5060200190565b60608101610ab08285610782565b610abd6020830184610a62565b818103604083015261066881610a6b565b60a08101610adc8287610a62565b610ae96020830186610782565b610af66040830185610782565b610b036060830184610a35565b81810360808301526103c981610a6b565b602681526000602082017f4f776e61626c653a206e6577206f776e657220697320746865207a65726f206181527f6464726573730000000000000000000000000000000000000000000000000000602082015291505b5060400190565b6020808252810161077c81610b14565b60208082527f4f776e61626c653a2063616c6c6572206973206e6f7420746865206f776e657291019081526000610a9b565b6020808252810161077c81610b81565b60608101610bd18286610782565b610bde6020830185610782565b61072e6040830184610a35565b60408101610bf98285610782565b61066b6020830184610782565b805161077c816107fa565b600060208284031215610c2657610c26600080fd5b600061072e8484610c06565b634e487b7160e01b600052601160045260246000fd5b60008219821115610c5b57610c5b610c32565b500190565b60408101610c6e8285610782565b61066b6020830184610a35565b8015156107a8565b805161077c81610c7b565b600060208284031215610ca357610ca3600080fd5b600061072e8484610c83565b602a81526000602082017f5361666545524332303a204552433230206f7065726174696f6e20646964206e81527f6f7420737563636565640000000000000000000000000000000000000000000060208201529150610b6a565b6020808252810161077c81610caf565b602681526000602082017f416464726573733a20696e73756666696369656e742062616c616e636520666f81527f722063616c6c000000000000000000000000000000000000000000000000000060208201529150610b6a565b6020808252810161077c81610d19565b601d81526000602082017f416464726573733a2063616c6c20746f206e6f6e2d636f6e747261637400000081529150610a9b565b6020808252810161077c81610d83565b6000610dd1825190565b610ddf8185602086016109c6565b9290920192915050565b600061066b8284610dc756fea26469706673582212200d934ae891d617f81fc7c3ecc21f18e09db61aac347d52b236bbb1336b6510f164736f6c634300080f0033",
  "devdoc": {
    "kind": "dev",
    "methods": {
      "owner()": {
        "details": "Returns the address of the current owner."
      },
      "renounceOwnership()": {
        "details": "Leaves the contract without owner. It will not be possible to call `onlyOwner` functions anymore. Can only be called by the current owner. NOTE: Renouncing ownership will leave the contract without an owner, thereby removing any functionality that is only available to the owner."
      },
      "transferOwnership(address)": {
        "details": "Transfers ownership of the contract to a new account (`newOwner`). Can only be called by the current owner."
      }
    },
    "version": 1
  },
  "userdoc": {
    "kind": "user",
    "methods": {},
    "version": 1
  },
  "storageLayout": {
    "storage": [
      {
        "astId": 7,
        "contract": "contracts/bridges/HyphenAdapter.sol:HyphenAdapter",
        "label": "_owner",
        "offset": 0,
        "slot": "0",
        "type": "t_address"
      },
      {
        "astId": 10056,
        "contract": "contracts/bridges/HyphenAdapter.sol:HyphenAdapter",
        "label": "nativeWrap",
        "offset": 0,
        "slot": "1",
        "type": "t_address"
      },
      {
        "astId": 5792,
        "contract": "contracts/bridges/HyphenAdapter.sol:HyphenAdapter",
        "label": "pool",
        "offset": 0,
        "slot": "2",
        "type": "t_address"
      }
    ],
    "types": {
      "t_address": {
        "encoding": "inplace",
        "label": "address",
        "numberOfBytes": "20"
      }
    }
  }
}