{
  "address": "0xb56E657a52a87DACbf80d500FAcC4478c7865aD5",
  "abi": [
    {
      "inputs": [
        {
          "internalType": "address",
          "name": "_nativeWrap",
          "type": "address"
        },
        {
          "internalType": "address[]",
          "name": "_routers",
          "type": "address[]"
        }
      ],
      "stateMutability": "nonpayable",
      "type": "constructor"
    },
    {
      "anonymous": false,
      "inputs": [
        {
          "indexed": false,
          "internalType": "uint8",
          "name": "version",
          "type": "uint8"
        }
      ],
      "name": "Initialized",
      "type": "event"
    },
    {
      "anonymous": false,
      "inputs": [
        {
          "indexed": false,
          "internalType": "address",
          "name": "nativeWrap",
          "type": "address"
        }
      ],
      "name": "NativeWrapUpdated",
      "type": "event"
    },
    {
      "anonymous": false,
      "inputs": [
        {
          "indexed": true,
          "internalType": "address",
          "name": "previousOwner",
          "type": "address"
        },
        {
          "indexed": true,
          "internalType": "address",
          "name": "newOwner",
          "type": "address"
        }
      ],
      "name": "OwnershipTransferred",
      "type": "event"
    },
    {
      "anonymous": false,
      "inputs": [
        {
          "indexed": false,
          "internalType": "address",
          "name": "router",
          "type": "address"
        },
        {
          "indexed": false,
          "internalType": "bool",
          "name": "enabled",
          "type": "bool"
        }
      ],
      "name": "SupportedRouterUpdated",
      "type": "event"
    },
    {
      "inputs": [
        {
          "internalType": "uint64",
          "name": "_dstChainId",
          "type": "uint64"
        },
        {
          "internalType": "address",
          "name": "_receiver",
          "type": "address"
        },
        {
          "internalType": "uint256",
          "name": "_amount",
          "type": "uint256"
        },
        {
          "internalType": "address",
          "name": "_token",
          "type": "address"
        },
        {
          "internalType": "bytes",
          "name": "_bridgeParams",
          "type": "bytes"
        }
      ],
      "name": "bridge",
      "outputs": [
        {
          "internalType": "bytes",
          "name": "bridgeResp",
          "type": "bytes"
        }
      ],
      "stateMutability": "payable",
      "type": "function"
    },
    {
      "inputs": [],
      "name": "nativeWrap",
      "outputs": [
        {
          "internalType": "address",
          "name": "",
          "type": "address"
        }
      ],
      "stateMutability": "view",
      "type": "function"
    },
    {
      "inputs": [],
      "name": "owner",
      "outputs": [
        {
          "internalType": "address",
          "name": "",
          "type": "address"
        }
      ],
      "stateMutability": "view",
      "type": "function"
    },
    {
      "inputs": [
        {
          "internalType": "address",
          "name": "_nativeWrap",
          "type": "address"
        }
      ],
      "name": "setNativeWrap",
      "outputs": [],
      "stateMutability": "nonpayable",
      "type": "function"
    },
    {
      "inputs": [
        {
          "internalType": "address",
          "name": "_router",
          "type": "address"
        },
        {
          "internalType": "bool",
          "name": "_enabled",
          "type": "bool"
        }
      ],
      "name": "setSupportedRouter",
      "outputs": [],
      "stateMutability": "nonpayable",
      "type": "function"
    },
    {
      "inputs": [
        {
          "internalType": "address",
          "name": "",
          "type": "address"
        }
      ],
      "name": "supportedRouters",
      "outputs": [
        {
          "internalType": "bool",
          "name": "",
          "type": "bool"
        }
      ],
      "stateMutability": "view",
      "type": "function"
    },
    {
      "inputs": [
        {
          "internalType": "address",
          "name": "newOwner",
          "type": "address"
        }
      ],
      "name": "transferOwnership",
      "outputs": [],
      "stateMutability": "nonpayable",
      "type": "function"
    },
    {
      "inputs": [
        {
          "internalType": "bytes32",
          "name": "",
          "type": "bytes32"
        }
      ],
      "name": "transfers",
      "outputs": [
        {
          "internalType": "bool",
          "name": "",
          "type": "bool"
        }
      ],
      "stateMutability": "view",
      "type": "function"
    },
    {
      "stateMutability": "payable",
      "type": "receive"
    }
  ],
  "transactionHash": "0xc83874fabd47dc34e764fb5d990bda23f8a3d353ce6e3072fa7403d7ebd560c9",
  "args": [
    "0x82aF49447D8a07e3bd95BD0d56f35241523fBab1",
    [
      "0x53Bf833A5d6c4ddA888F69c22C88C9f356a41614",
      "0xbf22f0f184bCcbeA268dF387a49fF5238dD23E40"
    ]
  ],
  "numDeployments": 6,
  "solcInputHash": "fb7635353833d52c2a98e3fc1b0000fe",
  "bytecode": "0x60806040523480156200001157600080fd5b5060405162001781380380620017818339810160408190526200003491620001c4565b81620000403362000141565b600180546001600160a01b0319166001600160a01b039290921691909117905560005b8151811015620001385760006001600160a01b03168282815181106200008d576200008d620002ad565b60200260200101516001600160a01b031603620000d65760405162461bcd60e51b815260206004820152600360248201526206e6f760ec1b604482015260640160405180910390fd5b600160026000848481518110620000f157620000f1620002ad565b6020908102919091018101516001600160a01b03168252810191909152604001600020805460ff1916911515919091179055806200012f81620002c3565b91505062000063565b505050620002eb565b600080546001600160a01b038381166001600160a01b0319831681178455604051919092169283917f8be0079c531659141344cd1fd0a4f28419497f9722a3daafe3b4186f6b6457e09190a35050565b80516001600160a01b0381168114620001a957600080fd5b919050565b634e487b7160e01b600052604160045260246000fd5b60008060408385031215620001d857600080fd5b620001e38362000191565b602084810151919350906001600160401b03808211156200020357600080fd5b818601915086601f8301126200021857600080fd5b8151818111156200022d576200022d620001ae565b8060051b604051601f19603f83011681018181108582111715620002555762000255620001ae565b6040529182528482019250838101850191898311156200027457600080fd5b938501935b828510156200029d576200028d8562000191565b8452938501939285019262000279565b8096505050505050509250929050565b634e487b7160e01b600052603260045260246000fd5b600060018201620002e457634e487b7160e01b600052601160045260246000fd5b5060010190565b61148680620002fb6000396000f3fe60806040526004361061007f5760003560e01c80638da5cb5b1161004e5780638da5cb5b1461014e5780639879c48d1461016c578063f2fde38b1461019c578063f8e9c5c0146101bc57600080fd5b806324c9401b1461008b5780633c64f04b146100b4578063457bfa2f146100f45780635b5a66a71461012c57600080fd5b3661008657005b600080fd5b61009e610099366004611067565b6101dc565b6040516100ab9190611196565b60405180910390f35b3480156100c057600080fd5b506100e46100cf3660046111a9565b60036020526000908152604090205460ff1681565b60405190151581526020016100ab565b34801561010057600080fd5b50600154610114906001600160a01b031681565b6040516001600160a01b0390911681526020016100ab565b34801561013857600080fd5b5061014c6101473660046111c2565b6103d5565b005b34801561015a57600080fd5b506000546001600160a01b0316610114565b34801561017857600080fd5b506100e46101873660046111c2565b60026020526000908152604090205460ff1681565b3480156101a857600080fd5b5061014c6101b73660046111c2565b61044a565b3480156101c857600080fd5b5061014c6101d73660046111ed565b610538565b60606000828060200190518101906101f49190611226565b60a08101516001600160a01b031660009081526002602052604090205490915060ff166102685760405162461bcd60e51b815260206004820152600e60248201527f696c6c6567616c20726f7574657200000000000000000000000000000000000060448201526064015b60405180910390fd5b80516040516bffffffffffffffffffffffff19606089811b8216602084015287901b1660348201526048810187905277ffffffffffffffffffffffffffffffffffffffffffffffff1960c08a811b8216606884015292831b811660708301524690921b909116607882015260009060800160408051601f1981840301815291815281516020928301206000818152600390935291205490915060ff16156103515760405162461bcd60e51b815260206004820152600f60248201527f7472616e73666572206578697374730000000000000000000000000000000000604482015260640161025f565b6000818152600360205260409020805460ff1916600117905561037f6001600160a01b03861633308961065a565b600061038d868989866106f8565b6040805160c09290921b77ffffffffffffffffffffffffffffffffffffffffffffffff1916602083015280516008818403018152602890920190529998505050505050505050565b336103e86000546001600160a01b031690565b6001600160a01b03161461043e5760405162461bcd60e51b815260206004820181905260248201527f4f776e61626c653a2063616c6c6572206973206e6f7420746865206f776e6572604482015260640161025f565b61044781610b97565b50565b3361045d6000546001600160a01b031690565b6001600160a01b0316146104b35760405162461bcd60e51b815260206004820181905260248201527f4f776e61626c653a2063616c6c6572206973206e6f7420746865206f776e6572604482015260640161025f565b6001600160a01b03811661052f5760405162461bcd60e51b815260206004820152602660248201527f4f776e61626c653a206e6577206f776e657220697320746865207a65726f206160448201527f6464726573730000000000000000000000000000000000000000000000000000606482015260840161025f565b61044781610bf8565b3361054b6000546001600160a01b031690565b6001600160a01b0316146105a15760405162461bcd60e51b815260206004820181905260248201527f4f776e61626c653a2063616c6c6572206973206e6f7420746865206f776e6572604482015260640161025f565b6001600160a01b03821660009081526002602052604090205460ff16811515811515036105f65760405162461bcd60e51b815260206004820152600360248201526206e6f760ec1b604482015260640161025f565b6001600160a01b038316600081815260026020908152604091829020805460ff19168615159081179091558251938452908301527f19df4f9d38a9b103263e051a2824d8cd9cd6dc4205d136abbd3932a9eeede061910160405180910390a1505050565b6040516001600160a01b03808516602483015283166044820152606481018290526106f29085906323b872dd60e01b906084015b60408051601f198184030181529190526020810180517bffffffffffffffffffffffffffffffffffffffffffffffffffffffff167fffffffff0000000000000000000000000000000000000000000000000000000090931692909217909152610c55565b50505050565b60a0810151600154600091906001600160a01b039081169087160361081e57604051632e1a7d4d60e01b8152600481018590526001600160a01b03871690632e1a7d4d90602401600060405180830381600087803b15801561075957600080fd5b505af115801561076d573d6000803e3d6000fd5b50505050806001600160a01b0316631114cd2a853461078c91906112bf565b60808601516040516bffffffffffffffffffffffff1960608b901b16602082015289906034016040516020818303038152906040528989606001516040518763ffffffff1660e01b81526004016107e79594939291906112e5565b6000604051808303818588803b15801561080057600080fd5b505af1158015610814573d6000803e3d6000fd5b5050505050610961565b60a0830151610838906001600160a01b0388169086610d3f565b806001600160a01b0316639fbf10fc348560800151866020015187604001518a8a8a606001516040518060600160405280600081526020016000815260200160405180604001604052806002815260200161060f60f31b8152508152508e6040516020016108be919060609190911b6bffffffffffffffffffffffff1916815260140190565b60408051601f198184030181526020830182526000835290517fffffffff0000000000000000000000000000000000000000000000000000000060e08d901b168152610914999897969594939290600401611325565b6000604051808303818588803b15801561092d57600080fd5b505af1158015610941573d6000803e3d6000fd5b50505060a085015161096192506001600160a01b03891691506000610d3f565b6001546000906001600160a01b0390811690881603610a4457816001600160a01b031663a9e56f3c6040518163ffffffff1660e01b8152600401602060405180830381865afa1580156109b8573d6000803e3d6000fd5b505050506040513d601f19601f820116820180604052508101906109dc91906113c4565b6001600160a01b031663e78cea926040518163ffffffff1660e01b8152600401602060405180830381865afa158015610a19573d6000803e3d6000fd5b505050506040513d601f19601f82011682018060405250810190610a3d91906113c4565b9050610aa9565b816001600160a01b031663e78cea926040518163ffffffff1660e01b8152600401602060405180830381865afa158015610a82573d6000803e3d6000fd5b505050506040513d601f19601f82011682018060405250810190610aa691906113c4565b90505b6000816001600160a01b03166307968db16040518163ffffffff1660e01b8152600401602060405180830381865afa158015610ae9573d6000803e3d6000fd5b505050506040513d601f19601f82011682018060405250810190610b0d91906113c4565b6080860151604051630f428ae960e31b815261ffff90911660048201526001600160a01b03848116602483015291925090821690637a14574890604401602060405180830381865afa158015610b67573d6000803e3d6000fd5b505050506040513d601f19601f82011682018060405250810190610b8b91906113e1565b98975050505050505050565b6001805473ffffffffffffffffffffffffffffffffffffffff19166001600160a01b0383169081179091556040519081527fb878cd71628ac64b2df1872301925e01164824535b02e8601077749eeeb88c3d9060200160405180910390a150565b600080546001600160a01b0383811673ffffffffffffffffffffffffffffffffffffffff19831681178455604051919092169283917f8be0079c531659141344cd1fd0a4f28419497f9722a3daafe3b4186f6b6457e09190a35050565b6000610caa826040518060400160405280602081526020017f5361666545524332303a206c6f772d6c6576656c2063616c6c206661696c6564815250856001600160a01b0316610e5b9092919063ffffffff16565b805190915015610d3a5780806020019051810190610cc891906113fe565b610d3a5760405162461bcd60e51b815260206004820152602a60248201527f5361666545524332303a204552433230206f7065726174696f6e20646964206e60448201527f6f74207375636365656400000000000000000000000000000000000000000000606482015260840161025f565b505050565b801580610db95750604051636eb1769f60e11b81523060048201526001600160a01b03838116602483015284169063dd62ed3e90604401602060405180830381865afa158015610d93573d6000803e3d6000fd5b505050506040513d601f19601f82011682018060405250810190610db7919061141b565b155b610e2b5760405162461bcd60e51b815260206004820152603660248201527f5361666545524332303a20617070726f76652066726f6d206e6f6e2d7a65726f60448201527f20746f206e6f6e2d7a65726f20616c6c6f77616e636500000000000000000000606482015260840161025f565b6040516001600160a01b038316602482015260448101829052610d3a90849063095ea7b360e01b9060640161068e565b6060610e6a8484600085610e74565b90505b9392505050565b606082471015610eec5760405162461bcd60e51b815260206004820152602660248201527f416464726573733a20696e73756666696369656e742062616c616e636520666f60448201527f722063616c6c0000000000000000000000000000000000000000000000000000606482015260840161025f565b6001600160a01b0385163b610f435760405162461bcd60e51b815260206004820152601d60248201527f416464726573733a2063616c6c20746f206e6f6e2d636f6e7472616374000000604482015260640161025f565b600080866001600160a01b03168587604051610f5f9190611434565b60006040518083038185875af1925050503d8060008114610f9c576040519150601f19603f3d011682016040523d82523d6000602084013e610fa1565b606091505b5091509150610fb1828286610fbc565b979650505050505050565b60608315610fcb575081610e6d565b825115610fdb5782518084602001fd5b8160405162461bcd60e51b815260040161025f9190611196565b67ffffffffffffffff8116811461044757600080fd5b6001600160a01b038116811461044757600080fd5b634e487b7160e01b600052604160045260246000fd5b604051601f8201601f1916810167ffffffffffffffff8111828210171561105f5761105f611020565b604052919050565b600080600080600060a0868803121561107f57600080fd5b853561108a81610ff5565b945060208681013561109b8161100b565b94506040870135935060608701356110b28161100b565b9250608087013567ffffffffffffffff808211156110cf57600080fd5b818901915089601f8301126110e357600080fd5b8135818111156110f5576110f5611020565b611107601f8201601f19168501611036565b91508082528a8482850101111561111d57600080fd5b80848401858401376000848284010152508093505050509295509295909350565b60005b83811015611159578181015183820152602001611141565b838111156106f25750506000910152565b6000815180845261118281602086016020860161113e565b601f01601f19169290920160200192915050565b602081526000610e6d602083018461116a565b6000602082840312156111bb57600080fd5b5035919050565b6000602082840312156111d457600080fd5b8135610e6d8161100b565b801515811461044757600080fd5b6000806040838503121561120057600080fd5b823561120b8161100b565b9150602083013561121b816111df565b809150509250929050565b600060c0828403121561123857600080fd5b60405160c0810181811067ffffffffffffffff8211171561125b5761125b611020565b604052825161126981610ff5565b80825250602083015160208201526040830151604082015260608301516060820152608083015161ffff811681146112a057600080fd5b608082015260a08301516112b38161100b565b60a08201529392505050565b600082198211156112e057634e487b7160e01b600052601160045260246000fd5b500190565b61ffff861681526001600160a01b038516602082015260a06040820152600061131160a083018661116a565b606083019490945250608001529392505050565b600061012061ffff8c1683528a60208401528960408401526001600160a01b03891660608401528760808401528660a08401528060c08401528551818401525060208501516101408301526040850151606061016084015261138b61018084018261116a565b905082810360e084015261139f818661116a565b90508281036101008401526113b4818561116a565b9c9b505050505050505050505050565b6000602082840312156113d657600080fd5b8151610e6d8161100b565b6000602082840312156113f357600080fd5b8151610e6d81610ff5565b60006020828403121561141057600080fd5b8151610e6d816111df565b60006020828403121561142d57600080fd5b5051919050565b6000825161144681846020870161113e565b919091019291505056fea264697066735822122008a49b6fdaadd349df2e7d9435a96db6296bb46f28f70d845b0b8b17dd90b36b64736f6c634300080f0033",
  "devdoc": {
    "kind": "dev",
    "methods": {
      "owner()": {
        "details": "Returns the address of the current owner."
      },
      "transferOwnership(address)": {
        "details": "Transfers ownership of the contract to a new account (`newOwner`). Can only be called by the current owner."
      }
    },
    "version": 1
  },
  "userdoc": {
    "kind": "user",
    "methods": {},
    "version": 1
  },
  "storageLayout": {
    "storage": [
      {
        "astId": 9681,
        "contract": "contracts/bridges/StargateAdapter.sol:StargateAdapter",
        "label": "_owner",
        "offset": 0,
        "slot": "0",
        "type": "t_address"
      },
      {
        "astId": 119,
        "contract": "contracts/bridges/StargateAdapter.sol:StargateAdapter",
        "label": "_initialized",
        "offset": 20,
        "slot": "0",
        "type": "t_uint8"
      },
      {
        "astId": 122,
        "contract": "contracts/bridges/StargateAdapter.sol:StargateAdapter",
        "label": "_initializing",
        "offset": 21,
        "slot": "0",
        "type": "t_bool"
      },
      {
        "astId": 9619,
        "contract": "contracts/bridges/StargateAdapter.sol:StargateAdapter",
        "label": "nativeWrap",
        "offset": 0,
        "slot": "1",
        "type": "t_address"
      },
      {
        "astId": 5440,
        "contract": "contracts/bridges/StargateAdapter.sol:StargateAdapter",
        "label": "supportedRouters",
        "offset": 0,
        "slot": "2",
        "type": "t_mapping(t_address,t_bool)"
      },
      {
        "astId": 5444,
        "contract": "contracts/bridges/StargateAdapter.sol:StargateAdapter",
        "label": "transfers",
        "offset": 0,
        "slot": "3",
        "type": "t_mapping(t_bytes32,t_bool)"
      }
    ],
    "types": {
      "t_address": {
        "encoding": "inplace",
        "label": "address",
        "numberOfBytes": "20"
      },
      "t_bool": {
        "encoding": "inplace",
        "label": "bool",
        "numberOfBytes": "1"
      },
      "t_bytes32": {
        "encoding": "inplace",
        "label": "bytes32",
        "numberOfBytes": "32"
      },
      "t_mapping(t_address,t_bool)": {
        "encoding": "mapping",
        "key": "t_address",
        "label": "mapping(address => bool)",
        "numberOfBytes": "32",
        "value": "t_bool"
      },
      "t_mapping(t_bytes32,t_bool)": {
        "encoding": "mapping",
        "key": "t_bytes32",
        "label": "mapping(bytes32 => bool)",
        "numberOfBytes": "32",
        "value": "t_bool"
      },
      "t_uint8": {
        "encoding": "inplace",
        "label": "uint8",
        "numberOfBytes": "1"
      }
    }
  }
}