{
  "address": "0x4bd17564306f0eE80d0A5b95809278ab917ba9D7",
  "abi": [
    {
      "inputs": [
        {
          "internalType": "address[]",
          "name": "_coins",
          "type": "address[]"
        },
        {
          "internalType": "uint8[]",
          "name": "_decimals",
          "type": "uint8[]"
        },
        {
          "internalType": "uint256",
          "name": "_fakeSlippage",
          "type": "uint256"
        }
      ],
      "stateMutability": "nonpayable",
      "type": "constructor"
    },
    {
      "inputs": [
        {
          "internalType": "uint256",
          "name": "",
          "type": "uint256"
        }
      ],
      "name": "coins",
      "outputs": [
        {
          "internalType": "address",
          "name": "",
          "type": "address"
        }
      ],
      "stateMutability": "view",
      "type": "function"
    },
    {
      "inputs": [
        {
          "internalType": "uint256",
          "name": "",
          "type": "uint256"
        }
      ],
      "name": "decimals",
      "outputs": [
        {
          "internalType": "uint8",
          "name": "",
          "type": "uint8"
        }
      ],
      "stateMutability": "view",
      "type": "function"
    },
    {
      "inputs": [
        {
          "internalType": "int128",
          "name": "_i",
          "type": "int128"
        },
        {
          "internalType": "int128",
          "name": "_j",
          "type": "int128"
        },
        {
          "internalType": "uint256",
          "name": "_dx",
          "type": "uint256"
        },
        {
          "internalType": "uint256",
          "name": "_min_dy",
          "type": "uint256"
        }
      ],
      "name": "exchange",
      "outputs": [],
      "stateMutability": "nonpayable",
      "type": "function"
    },
    {
      "inputs": [
        {
          "internalType": "int128",
          "name": "_i",
          "type": "int128"
        },
        {
          "internalType": "int128",
          "name": "_j",
          "type": "int128"
        },
        {
          "internalType": "uint256",
          "name": "_dx",
          "type": "uint256"
        }
      ],
      "name": "get_dy",
      "outputs": [
        {
          "internalType": "uint256",
          "name": "",
          "type": "uint256"
        }
      ],
      "stateMutability": "view",
      "type": "function"
    }
  ],
  "transactionHash": "0x1bd9b849e69994bba2d394d0e50ad402c2c4d6a2972c5fadd9169bc10216c955",
  "args": [
    [
      "0xf4B2cbc3bA04c478F0dC824f4806aC39982Dce73",
      "0xcbe56b00d173a26a5978ce90db2e33622fd95a28"
    ],
    [
      6,
      6
    ],
    "3000"
  ],
  "numDeployments": 3,
  "solcInputHash": "a9224e5378c5219b8fc40856144f90e8",
  "bytecode": "0x60806040523480156200001157600080fd5b5060405162000d3b38038062000d3b833981016040819052620000349162000285565b8251620000499060009060208601906200006e565b506002819055815162000064906001906020850190620000d8565b505050506200036c565b828054828255906000526020600020908101928215620000c6579160200282015b82811115620000c657825182546001600160a01b0319166001600160a01b039091161782556020909201916001909101906200008f565b50620000d49291506200017b565b5090565b82805482825590600052602060002090601f01602090048101928215620000c65791602002820160005b838211156200014257835183826101000a81548160ff021916908360ff160217905550926020019260010160208160000104928301926001030262000102565b8015620001715782816101000a81549060ff021916905560010160208160000104928301926001030262000142565b5050620000d49291505b5b80821115620000d457600081556001016200017c565b634e487b7160e01b600052604160045260246000fd5b604051601f8201601f191681016001600160401b0381118282101715620001d357620001d362000192565b604052919050565b60006001600160401b03821115620001f757620001f762000192565b5060051b60200190565b600082601f8301126200021357600080fd5b815160206200022c6200022683620001db565b620001a8565b82815260059290921b840181019181810190868411156200024c57600080fd5b8286015b848110156200027a57805160ff811681146200026c5760008081fd5b835291830191830162000250565b509695505050505050565b6000806000606084860312156200029b57600080fd5b83516001600160401b0380821115620002b357600080fd5b818601915086601f830112620002c857600080fd5b81516020620002db6200022683620001db565b82815260059290921b8401810191818101908a841115620002fb57600080fd5b948201945b83861015620003325785516001600160a01b0381168114620003225760008081fd5b8252948201949082019062000300565b918901519197509093505050808211156200034c57600080fd5b506200035b8682870162000201565b925050604084015190509250925092565b6109bf806200037c6000396000f3fe608060405234801561001057600080fd5b506004361061004c5760003560e01c80633df02124146100515780633f47e662146100665780635e0d443f14610090578063c6610657146100b1575b600080fd5b61006461005f3660046107d1565b6100dc565b005b610079610074366004610813565b610315565b60405160ff90911681526020015b60405180910390f35b6100a361009e36600461082c565b610349565b604051908152602001610087565b6100c46100bf366004610813565b61046a565b6040516001600160a01b039091168152602001610087565b60008085600f0b815481106100f3576100f3610868565b600091825260208220015481546001600160a01b0390911692508190600f87900b90811061012357610123610868565b6000918252602082200154600180546001600160a01b03909216935090600f89900b90811061015457610154610868565b90600052602060002090602091828204019190069054906101000a900460ff1690506000600187600f0b8154811061018e5761018e610868565b60009182526020918290209181049091015460ff601f9092166101000a90041690506001600160a01b0384166101fe5760405162461bcd60e51b815260206004820152601060248201526f18dbda5b881a481b9bdd08199bdd5b9960821b60448201526064015b60405180910390fd5b6001600160a01b0383166102475760405162461bcd60e51b815260206004820152601060248201526f18dbda5b881a881b9bdd08199bdd5b9960821b60448201526064016101f5565b61025c6001600160a01b038516333089610494565b6000620f4240600254620f42406102739190610894565b8360ff168560ff168a61028691906108ab565b61029091906108ca565b61029a91906108ab565b6102a491906108ca565b9050858110156102f65760405162461bcd60e51b815260206004820152601260248201527f736c69707061676520746f6f206c61726765000000000000000000000000000060448201526064016101f5565b61030a6001600160a01b0385163383610532565b505050505050505050565b6001818154811061032557600080fd5b9060005260206000209060209182820401919006915054906101000a900460ff1681565b600080600085600f0b8154811061036257610362610868565b600091825260208220015481546001600160a01b0390911692508190600f87900b90811061039257610392610868565b6000918252602090912001546001600160a01b03908116915082166103ec5760405162461bcd60e51b815260206004820152601060248201526f18dbda5b881a481b9bdd08199bdd5b9960821b60448201526064016101f5565b6001600160a01b0381166104355760405162461bcd60e51b815260206004820152601060248201526f18dbda5b881a881b9bdd08199bdd5b9960821b60448201526064016101f5565b620f4240600254620f424061044a9190610894565b61045490866108ab565b61045e91906108ca565b925050505b9392505050565b6000818154811061047a57600080fd5b6000918252602090912001546001600160a01b0316905081565b6040516001600160a01b038085166024830152831660448201526064810182905261052c9085906323b872dd60e01b906084015b60408051601f198184030181529190526020810180517bffffffffffffffffffffffffffffffffffffffffffffffffffffffff167fffffffff0000000000000000000000000000000000000000000000000000000090931692909217909152610567565b50505050565b6040516001600160a01b03831660248201526044810182905261056290849063a9059cbb60e01b906064016104c8565b505050565b60006105bc826040518060400160405280602081526020017f5361666545524332303a206c6f772d6c6576656c2063616c6c206661696c6564815250856001600160a01b03166106399092919063ffffffff16565b80519091501561056257808060200190518101906105da91906108ec565b6105625760405162461bcd60e51b815260206004820152602a60248201527f5361666545524332303a204552433230206f7065726174696f6e20646964206e6044820152691bdd081cdd58d8d9595960b21b60648201526084016101f5565b60606106488484600085610650565b949350505050565b6060824710156106b15760405162461bcd60e51b815260206004820152602660248201527f416464726573733a20696e73756666696369656e742062616c616e636520666f6044820152651c8818d85b1b60d21b60648201526084016101f5565b6001600160a01b0385163b6107085760405162461bcd60e51b815260206004820152601d60248201527f416464726573733a2063616c6c20746f206e6f6e2d636f6e747261637400000060448201526064016101f5565b600080866001600160a01b03168587604051610724919061093a565b60006040518083038185875af1925050503d8060008114610761576040519150601f19603f3d011682016040523d82523d6000602084013e610766565b606091505b5091509150610776828286610781565b979650505050505050565b60608315610790575081610463565b8251156107a05782518084602001fd5b8160405162461bcd60e51b81526004016101f59190610956565b8035600f81900b81146107cc57600080fd5b919050565b600080600080608085870312156107e757600080fd5b6107f0856107ba565b93506107fe602086016107ba565b93969395505050506040820135916060013590565b60006020828403121561082557600080fd5b5035919050565b60008060006060848603121561084157600080fd5b61084a846107ba565b9250610858602085016107ba565b9150604084013590509250925092565b634e487b7160e01b600052603260045260246000fd5b634e487b7160e01b600052601160045260246000fd5b6000828210156108a6576108a661087e565b500390565b60008160001904831182151516156108c5576108c561087e565b500290565b6000826108e757634e487b7160e01b600052601260045260246000fd5b500490565b6000602082840312156108fe57600080fd5b8151801515811461046357600080fd5b60005b83811015610929578181015183820152602001610911565b8381111561052c5750506000910152565b6000825161094c81846020870161090e565b9190910192915050565b602081526000825180602084015261097581604085016020870161090e565b601f01601f1916919091016040019291505056fea26469706673582212203f5a7bdf55919c2ba1a7f1248654ff5b8be64f077f6a5c3ba55e31a7bc7a643d64736f6c634300080c0033",
  "devdoc": {
    "kind": "dev",
    "methods": {},
    "version": 1
  },
  "userdoc": {
    "kind": "user",
    "methods": {},
    "version": 1
  },
  "storageLayout": {
    "storage": [
      {
        "astId": 9105,
        "contract": "contracts/test-helpers/MockCurvePool.sol:MockCurvePool",
        "label": "coins",
        "offset": 0,
        "slot": "0",
        "type": "t_array(t_address)dyn_storage"
      },
      {
        "astId": 9108,
        "contract": "contracts/test-helpers/MockCurvePool.sol:MockCurvePool",
        "label": "decimals",
        "offset": 0,
        "slot": "1",
        "type": "t_array(t_uint8)dyn_storage"
      },
      {
        "astId": 9110,
        "contract": "contracts/test-helpers/MockCurvePool.sol:MockCurvePool",
        "label": "fakeSlippage",
        "offset": 0,
        "slot": "2",
        "type": "t_uint256"
      }
    ],
    "types": {
      "t_address": {
        "encoding": "inplace",
        "label": "address",
        "numberOfBytes": "20"
      },
      "t_array(t_address)dyn_storage": {
        "base": "t_address",
        "encoding": "dynamic_array",
        "label": "address[]",
        "numberOfBytes": "32"
      },
      "t_array(t_uint8)dyn_storage": {
        "base": "t_uint8",
        "encoding": "dynamic_array",
        "label": "uint8[]",
        "numberOfBytes": "32"
      },
      "t_uint256": {
        "encoding": "inplace",
        "label": "uint256",
        "numberOfBytes": "32"
      },
      "t_uint8": {
        "encoding": "inplace",
        "label": "uint8",
        "numberOfBytes": "1"
      }
    }
  }
}