{
  "address": "0xf0D3Cba6A1fBEd48DF56f53b2a029E544a3FD0B6",
  "abi": [
    {
      "inputs": [
        {
          "internalType": "address",
          "name": "_messageBus",
          "type": "address"
        },
        {
          "internalType": "address",
          "name": "_nativeWrap",
          "type": "address"
        },
        {
          "internalType": "address",
          "name": "_signer",
          "type": "address"
        },
        {
          "internalType": "address",
          "name": "_feeCollector",
          "type": "address"
        },
        {
          "internalType": "string[]",
          "name": "_funcSigs",
          "type": "string[]"
        },
        {
          "internalType": "address[]",
          "name": "_codecs",
          "type": "address[]"
        },
        {
          "internalType": "address[]",
          "name": "_supportedDexList",
          "type": "address[]"
        }
      ],
      "stateMutability": "nonpayable",
      "type": "constructor"
    },
    {
      "anonymous": false,
      "inputs": [
        {
          "indexed": false,
          "internalType": "bytes4",
          "name": "selector",
          "type": "bytes4"
        },
        {
          "indexed": false,
          "internalType": "address",
          "name": "codec",
          "type": "address"
        }
      ],
      "name": "CodecUpdated",
      "type": "event"
    },
    {
      "anonymous": false,
      "inputs": [
        {
          "indexed": false,
          "internalType": "bytes32",
          "name": "id",
          "type": "bytes32"
        },
        {
          "indexed": false,
          "internalType": "uint256",
          "name": "amountIn",
          "type": "uint256"
        },
        {
          "indexed": false,
          "internalType": "address",
          "name": "tokenIn",
          "type": "address"
        },
        {
          "indexed": false,
          "internalType": "uint256",
          "name": "amountOut",
          "type": "uint256"
        },
        {
          "indexed": false,
          "internalType": "address",
          "name": "tokenOut",
          "type": "address"
        }
      ],
      "name": "DirectSwap",
      "type": "event"
    },
    {
      "anonymous": false,
      "inputs": [
        {
          "indexed": false,
          "internalType": "address",
          "name": "from",
          "type": "address"
        },
        {
          "indexed": false,
          "internalType": "address",
          "name": "to",
          "type": "address"
        }
      ],
      "name": "FeeCollectorUpdated",
      "type": "event"
    },
    {
      "anonymous": false,
      "inputs": [
        {
          "indexed": false,
          "internalType": "address",
          "name": "messageBus",
          "type": "address"
        }
      ],
      "name": "MessageBusUpdated",
      "type": "event"
    },
    {
      "anonymous": false,
      "inputs": [
        {
          "indexed": true,
          "internalType": "address",
          "name": "previousOwner",
          "type": "address"
        },
        {
          "indexed": true,
          "internalType": "address",
          "name": "newOwner",
          "type": "address"
        }
      ],
      "name": "OwnershipTransferred",
      "type": "event"
    },
    {
      "anonymous": false,
      "inputs": [
        {
          "indexed": false,
          "internalType": "bytes32",
          "name": "id",
          "type": "bytes32"
        },
        {
          "indexed": false,
          "internalType": "uint256",
          "name": "dstAmount",
          "type": "uint256"
        },
        {
          "indexed": false,
          "internalType": "uint256",
          "name": "refundAmount",
          "type": "uint256"
        },
        {
          "indexed": false,
          "internalType": "address",
          "name": "refundToken",
          "type": "address"
        },
        {
          "indexed": false,
          "internalType": "uint256",
          "name": "feeCollected",
          "type": "uint256"
        },
        {
          "indexed": false,
          "internalType": "enum TransferSwapper.RequestStatus",
          "name": "status",
          "type": "uint8"
        }
      ],
      "name": "RequestDone",
      "type": "event"
    },
    {
      "anonymous": false,
      "inputs": [
        {
          "indexed": false,
          "internalType": "bytes32",
          "name": "id",
          "type": "bytes32"
        },
        {
          "indexed": false,
          "internalType": "bytes32",
          "name": "transferId",
          "type": "bytes32"
        },
        {
          "indexed": false,
          "internalType": "uint64",
          "name": "dstChainId",
          "type": "uint64"
        },
        {
          "indexed": false,
          "internalType": "uint256",
          "name": "srcAmount",
          "type": "uint256"
        },
        {
          "indexed": false,
          "internalType": "address",
          "name": "srcToken",
          "type": "address"
        },
        {
          "indexed": false,
          "internalType": "address",
          "name": "dstToken",
          "type": "address"
        }
      ],
      "name": "RequestSent",
      "type": "event"
    },
    {
      "anonymous": false,
      "inputs": [
        {
          "indexed": false,
          "internalType": "address",
          "name": "from",
          "type": "address"
        },
        {
          "indexed": false,
          "internalType": "address",
          "name": "to",
          "type": "address"
        }
      ],
      "name": "SignerUpdated",
      "type": "event"
    },
    {
      "anonymous": false,
      "inputs": [
        {
          "indexed": false,
          "internalType": "address",
          "name": "dex",
          "type": "address"
        },
        {
          "indexed": false,
          "internalType": "bytes4",
          "name": "selector",
          "type": "bytes4"
        },
        {
          "indexed": false,
          "internalType": "bool",
          "name": "enabled",
          "type": "bool"
        }
      ],
      "name": "SupportedDexUpdated",
      "type": "event"
    },
    {
      "inputs": [
        {
          "internalType": "uint256",
          "name": "",
          "type": "uint256"
        }
      ],
      "name": "codecs",
      "outputs": [
        {
          "internalType": "address",
          "name": "",
          "type": "address"
        }
      ],
      "stateMutability": "view",
      "type": "function"
    },
    {
      "inputs": [
        {
          "internalType": "address[]",
          "name": "_tokens",
          "type": "address[]"
        },
        {
          "internalType": "address",
          "name": "_to",
          "type": "address"
        }
      ],
      "name": "collectFee",
      "outputs": [],
      "stateMutability": "nonpayable",
      "type": "function"
    },
    {
      "inputs": [
        {
          "internalType": "address",
          "name": "",
          "type": "address"
        },
        {
          "internalType": "bytes4",
          "name": "",
          "type": "bytes4"
        }
      ],
      "name": "dexRegistry",
      "outputs": [
        {
          "internalType": "bool",
          "name": "",
          "type": "bool"
        }
      ],
      "stateMutability": "view",
      "type": "function"
    },
    {
      "inputs": [
        {
          "internalType": "address",
          "name": "_sender",
          "type": "address"
        },
        {
          "internalType": "uint64",
          "name": "_srcChainId",
          "type": "uint64"
        },
        {
          "internalType": "bytes",
          "name": "_message",
          "type": "bytes"
        },
        {
          "internalType": "address",
          "name": "_executor",
          "type": "address"
        }
      ],
      "name": "executeMessage",
      "outputs": [
        {
          "internalType": "enum IMessageReceiverApp.ExecutionStatus",
          "name": "",
          "type": "uint8"
        }
      ],
      "stateMutability": "payable",
      "type": "function"
    },
    {
      "inputs": [
        {
          "internalType": "address",
          "name": "",
          "type": "address"
        },
        {
          "internalType": "address",
          "name": "_token",
          "type": "address"
        },
        {
          "internalType": "uint256",
          "name": "_amount",
          "type": "uint256"
        },
        {
          "internalType": "uint64",
          "name": "",
          "type": "uint64"
        },
        {
          "internalType": "bytes",
          "name": "_message",
          "type": "bytes"
        },
        {
          "internalType": "address",
          "name": "",
          "type": "address"
        }
      ],
      "name": "executeMessageWithTransfer",
      "outputs": [
        {
          "internalType": "enum IMessageReceiverApp.ExecutionStatus",
          "name": "",
          "type": "uint8"
        }
      ],
      "stateMutability": "payable",
      "type": "function"
    },
    {
      "inputs": [
        {
          "internalType": "address",
          "name": "",
          "type": "address"
        },
        {
          "internalType": "address",
          "name": "_token",
          "type": "address"
        },
        {
          "internalType": "uint256",
          "name": "_amount",
          "type": "uint256"
        },
        {
          "internalType": "uint64",
          "name": "",
          "type": "uint64"
        },
        {
          "internalType": "bytes",
          "name": "_message",
          "type": "bytes"
        },
        {
          "internalType": "address",
          "name": "",
          "type": "address"
        }
      ],
      "name": "executeMessageWithTransferFallback",
      "outputs": [
        {
          "internalType": "enum IMessageReceiverApp.ExecutionStatus",
          "name": "",
          "type": "uint8"
        }
      ],
      "stateMutability": "payable",
      "type": "function"
    },
    {
      "inputs": [
        {
          "internalType": "address",
          "name": "_token",
          "type": "address"
        },
        {
          "internalType": "uint256",
          "name": "_amount",
          "type": "uint256"
        },
        {
          "internalType": "bytes",
          "name": "_message",
          "type": "bytes"
        },
        {
          "internalType": "address",
          "name": "",
          "type": "address"
        }
      ],
      "name": "executeMessageWithTransferRefund",
      "outputs": [
        {
          "internalType": "enum IMessageReceiverApp.ExecutionStatus",
          "name": "",
          "type": "uint8"
        }
      ],
      "stateMutability": "payable",
      "type": "function"
    },
    {
      "inputs": [],
      "name": "feeCollector",
      "outputs": [
        {
          "internalType": "address",
          "name": "",
          "type": "address"
        }
      ],
      "stateMutability": "view",
      "type": "function"
    },
    {
      "inputs": [],
      "name": "messageBus",
      "outputs": [
        {
          "internalType": "address",
          "name": "",
          "type": "address"
        }
      ],
      "stateMutability": "view",
      "type": "function"
    },
    {
      "inputs": [],
      "name": "nativeWrap",
      "outputs": [
        {
          "internalType": "address",
          "name": "",
          "type": "address"
        }
      ],
      "stateMutability": "view",
      "type": "function"
    },
    {
      "inputs": [],
      "name": "owner",
      "outputs": [
        {
          "internalType": "address",
          "name": "",
          "type": "address"
        }
      ],
      "stateMutability": "view",
      "type": "function"
    },
    {
      "inputs": [],
      "name": "renounceOwnership",
      "outputs": [],
      "stateMutability": "nonpayable",
      "type": "function"
    },
    {
      "inputs": [
        {
          "internalType": "bytes4",
          "name": "",
          "type": "bytes4"
        }
      ],
      "name": "selector2codec",
      "outputs": [
        {
          "internalType": "contract ICodec",
          "name": "",
          "type": "address"
        }
      ],
      "stateMutability": "view",
      "type": "function"
    },
    {
      "inputs": [
        {
          "internalType": "string",
          "name": "_funcSig",
          "type": "string"
        },
        {
          "internalType": "address",
          "name": "_codec",
          "type": "address"
        }
      ],
      "name": "setCodec",
      "outputs": [],
      "stateMutability": "nonpayable",
      "type": "function"
    },
    {
      "inputs": [
        {
          "internalType": "address",
          "name": "_feeCollector",
          "type": "address"
        }
      ],
      "name": "setFeeCollector",
      "outputs": [],
      "stateMutability": "nonpayable",
      "type": "function"
    },
    {
      "inputs": [
        {
          "internalType": "address",
          "name": "_messageBus",
          "type": "address"
        }
      ],
      "name": "setMessageBus",
      "outputs": [],
      "stateMutability": "nonpayable",
      "type": "function"
    },
    {
      "inputs": [
        {
          "internalType": "address",
          "name": "_nativeWrap",
          "type": "address"
        }
      ],
      "name": "setNativeWrap",
      "outputs": [],
      "stateMutability": "nonpayable",
      "type": "function"
    },
    {
      "inputs": [
        {
          "internalType": "address",
          "name": "_signer",
          "type": "address"
        }
      ],
      "name": "setSigner",
      "outputs": [],
      "stateMutability": "nonpayable",
      "type": "function"
    },
    {
      "inputs": [
        {
          "internalType": "address",
          "name": "_dex",
          "type": "address"
        },
        {
          "internalType": "bytes4",
          "name": "_selector",
          "type": "bytes4"
        },
        {
          "internalType": "bool",
          "name": "_enabled",
          "type": "bool"
        }
      ],
      "name": "setSupportedDex",
      "outputs": [],
      "stateMutability": "nonpayable",
      "type": "function"
    },
    {
      "inputs": [],
      "name": "signer",
      "outputs": [
        {
          "internalType": "address",
          "name": "",
          "type": "address"
        }
      ],
      "stateMutability": "view",
      "type": "function"
    },
    {
      "inputs": [
        {
          "internalType": "address",
          "name": "newOwner",
          "type": "address"
        }
      ],
      "name": "transferOwnership",
      "outputs": [],
      "stateMutability": "nonpayable",
      "type": "function"
    },
    {
      "inputs": [
        {
          "internalType": "address",
          "name": "_dstTransferSwapper",
          "type": "address"
        },
        {
          "components": [
            {
              "internalType": "address",
              "name": "receiver",
              "type": "address"
            },
            {
              "internalType": "uint64",
              "name": "dstChainId",
              "type": "uint64"
            },
            {
              "internalType": "uint32",
              "name": "maxBridgeSlippage",
              "type": "uint32"
            },
            {
              "internalType": "enum MsgDataTypes.BridgeSendType",
              "name": "bridgeType",
              "type": "uint8"
            },
            {
              "internalType": "uint64",
              "name": "nonce",
              "type": "uint64"
            },
            {
              "internalType": "bool",
              "name": "nativeIn",
              "type": "bool"
            },
            {
              "internalType": "bool",
              "name": "nativeOut",
              "type": "bool"
            },
            {
              "internalType": "uint256",
              "name": "fee",
              "type": "uint256"
            },
            {
              "internalType": "uint256",
              "name": "feeDeadline",
              "type": "uint256"
            },
            {
              "internalType": "bytes",
              "name": "feeSig",
              "type": "bytes"
            },
            {
              "internalType": "uint256",
              "name": "amountIn",
              "type": "uint256"
            },
            {
              "internalType": "address",
              "name": "tokenIn",
              "type": "address"
            },
            {
              "internalType": "address",
              "name": "dstTokenOut",
              "type": "address"
            },
            {
              "internalType": "bool",
              "name": "allowPartialFill",
              "type": "bool"
            }
          ],
          "internalType": "struct TransferSwapper.TransferDescription",
          "name": "_desc",
          "type": "tuple"
        },
        {
          "components": [
            {
              "internalType": "address",
              "name": "dex",
              "type": "address"
            },
            {
              "internalType": "bytes",
              "name": "data",
              "type": "bytes"
            }
          ],
          "internalType": "struct ICodec.SwapDescription[]",
          "name": "_srcSwaps",
          "type": "tuple[]"
        },
        {
          "components": [
            {
              "internalType": "address",
              "name": "dex",
              "type": "address"
            },
            {
              "internalType": "bytes",
              "name": "data",
              "type": "bytes"
            }
          ],
          "internalType": "struct ICodec.SwapDescription[]",
          "name": "_dstSwaps",
          "type": "tuple[]"
        }
      ],
      "name": "transferWithSwap",
      "outputs": [],
      "stateMutability": "payable",
      "type": "function"
    },
    {
      "stateMutability": "payable",
      "type": "receive"
    }
  ],
  "transactionHash": "0xb7ec12b33ed928a04ec161e5bff6b64ef67e80eaacb19037d8ce53d7f8aecea4",
  "args": [
    "0xF25170F86E4291a99a9A560032Fe9948b8BcFBB2",
    "0xf988115c8F584aABeea99B77239d56443AB03A77",
    "0x9532f934EfcE6c4Bf5BA078b25fDd81a780FBdfB",
    "0x9532f934EfcE6c4Bf5BA078b25fDd81a780FBdfB",
    [
      "swapExactTokensForTokens(uint256,uint256,address[],address,uint256)",
      "exchange(int128,int128,uint256,uint256)",
      "exactInput((bytes,address,uint256,uint256,uint256))"
    ],
    [
      "0x4b7aBE2c6B399C171A20eC96E8Fc8e9e191dB5FD",
      "0xF87Aeab69eE766Cf247a8cf4DC6BCd53e6d35dc1",
      "0xB3B453983207cF2D39022fa6E664F5E241Dafe3f"
    ],
    [
      "0x7a250d5630B4cF539739dF2C5dAcb4c659F2488D",
      "0x4bd17564306f0eE80d0A5b95809278ab917ba9D7"
    ]
  ],
  "numDeployments": 8,
  "solcInputHash": "5284e455062929d7f89fe20002113c31",
  "bytecode": "0x60806040523480156200001157600080fd5b50604051620055d3380380620055d38339810160408190526200003491620005f7565b8385848484808380846200004833620001d2565b8051825114620000755760405162461bcd60e51b81526004016200006c906200071a565b60405180910390fd5b60005b8251811015620000ee5760008382815181106200009957620000996200072c565b6020026020010151805190602001209050620000d881848481518110620000c457620000c46200072c565b60200260200101516200022260201b60201c565b5080620000e58162000758565b91505062000078565b50505060005b82518110156200016c5760008282815181106200011557620001156200072c565b6020026020010151805190602001209050620001568483815181106200013f576200013f6200072c565b60200260200101518260016200029460201b60201c565b5080620001638162000758565b915050620000f4565b5050600580546001600160a01b03199081166001600160a01b039788161790915560068054821697871697909717909655505060016007819055805485169b84169b909b17909a55506008805490921697169690961790955550620007a3945050505050565b600080546001600160a01b038381166001600160a01b0319831681178455604051919092169283917f8be0079c531659141344cd1fd0a4f28419497f9722a3daafe3b4186f6b6457e09190a35050565b6001600160e01b0319909116600090815260026020526040812080546001600160a01b039093166001600160a01b031993841681179091556003805460018101825592527fc2575a0e9e593c00f959f8c92f12db2869c3395a3b0502d05e2516446f71f85b9091018054909216179055565b6001600160a01b03831660009081526004602090815260408083206001600160e01b03198616845290915290205460ff168015158215151415620002ec5760405162461bcd60e51b81526004016200006c9062000791565b506001600160a01b0390921660009081526004602090815260408083206001600160e01b0319909416835292905220805491151560ff19909216919091179055565b60006001600160a01b0382165b92915050565b6200034c816200032e565b81146200035857600080fd5b50565b80516200033b8162000341565b634e487b7160e01b600052604160045260246000fd5b601f19601f83011681018181106001600160401b0382111715620003a657620003a662000368565b6040525050565b6000620003b960405190565b9050620003c782826200037e565b919050565b60006001600160401b03821115620003e857620003e862000368565b5060209081020190565b60006001600160401b038211156200040e576200040e62000368565b601f19601f83011660200192915050565b60005b838110156200043c57818101518382015260200162000422565b838111156200044c576000848401525b50505050565b6000620004696200046384620003f2565b620003ad565b905082815260208101848484011115620004865762000486600080fd5b620004938482856200041f565b509392505050565b600082601f830112620004b157620004b1600080fd5b8151620004c384826020860162000452565b949350505050565b6000620004dc6200046384620003cc565b83815290506020808201908402830185811115620004fd57620004fd600080fd5b835b81811015620005435780516001600160401b03811115620005235762000523600080fd5b8086016200053289826200049b565b8552505060209283019201620004ff565b5050509392505050565b600082601f830112620005635762000563600080fd5b8151620004c3848260208601620004cb565b6000620005866200046384620003cc565b83815290506020808201908402830185811115620005a757620005a7600080fd5b835b81811015620005435780620005bf88826200035b565b84525060209283019201620005a9565b600082601f830112620005e557620005e5600080fd5b8151620004c384826020860162000575565b600080600080600080600060e0888a031215620006175762000617600080fd5b6000620006258a8a6200035b565b9750506020620006388a828b016200035b565b96505060406200064b8a828b016200035b565b95505060606200065e8a828b016200035b565b94505060808801516001600160401b038111156200067f576200067f600080fd5b6200068d8a828b016200054d565b93505060a08801516001600160401b03811115620006ae57620006ae600080fd5b620006bc8a828b01620005cf565b92505060c08801516001600160401b03811115620006dd57620006dd600080fd5b620006eb8a828b01620005cf565b91505092959891949750929550565b60068152600060208201656c656e206d6d60d01b815291505b5060200190565b602080825281016200033b81620006fa565b634e487b7160e01b600052603260045260246000fd5b634e487b7160e01b600052601160045260246000fd5b60006000198214156200076f576200076f62000742565b5060010190565b600381526000602082016206e6f760ec1b8152915062000713565b602080825281016200033b8162000776565b614e2080620007b36000396000f3fe6080604052600436106101795760003560e01c80638da5cb5b116100cb578063c415b95c1161007f578063efcfd8f511610059578063efcfd8f5146103e4578063f2fde38b14610404578063fbf5d7631461042457600080fd5b8063c415b95c14610391578063c5bccca3146103b1578063d8318ae5146103d157600080fd5b80639c649fdf116100b05780639c649fdf1461033e578063a1a227fa14610351578063a42dce801461037157600080fd5b80638da5cb5b146102d857806391ec04b5146102f657600080fd5b80635b5a66a71161012d578063715018a611610107578063715018a6146102905780637cd2bffc146102a557806382665a8f146102b857600080fd5b80635b5a66a714610230578063675df759146102505780636c19e7831461027057600080fd5b8063457bfa2f1161015e578063457bfa2f146101db578063547cad12146101fb5780635ab7afc61461021d57600080fd5b80630bcb498214610185578063238ac933146101ae57600080fd5b3661018057005b600080fd5b610198610193366004612eee565b610467565b6040516101a59190612fc1565b60405180910390f35b3480156101ba57600080fd5b506005546101ce906001600160a01b031681565b6040516101a59190612fd8565b3480156101e757600080fd5b506008546101ce906001600160a01b031681565b34801561020757600080fd5b5061021b610216366004612fe6565b610544565b005b61019861022b366004613110565b6105c5565b34801561023c57600080fd5b5061021b61024b366004612fe6565b6106ba565b34801561025c57600080fd5b5061021b61026b3660046131e3565b610706565b34801561027c57600080fd5b5061021b61028b366004612fe6565b61077b565b34801561029c57600080fd5b5061021b610804565b6101986102b3366004613110565b61083a565b3480156102c457600080fd5b506101ce6102d3366004613233565b610a1c565b3480156102e457600080fd5b506000546001600160a01b03166101ce565b34801561030257600080fd5b50610331610311366004613254565b600460209081526000928352604080842090915290825290205460ff1681565b6040516101a59190613299565b61019861034c3660046132a7565b610a46565b34801561035d57600080fd5b506001546101ce906001600160a01b031681565b34801561037d57600080fd5b5061021b61038c366004612fe6565b610a7c565b34801561039d57600080fd5b506006546101ce906001600160a01b031681565b3480156103bd57600080fd5b5061021b6103cc3660046132df565b610af9565b61021b6103df366004613397565b610bf5565b3480156103f057600080fd5b5061021b6103ff366004613454565b610e77565b34801561041057600080fd5b5061021b61041f366004612fe6565b610f98565b34801561043057600080fd5b5061045a61043f366004613492565b6002602052600090815260409020546001600160a01b031681565b6040516101a591906134f5565b6001546000906001600160a01b0316331461049d5760405162461bcd60e51b81526004016104949061353a565b60405180910390fd5b600260075414156104c05760405162461bcd60e51b81526004016104949061357e565b600260075560006104d384860186613768565b90506104e6878783604001516000610ff4565b7f83fb878bc850fecc32634e2924a47daa8db823de1e2eb33084be9fd29f22c24581600001516000888a85608001516002604051610529969594939291906137be565b60405180910390a16001915050600160075595945050505050565b6000546001600160a01b0316331461056e5760405162461bcd60e51b81526004016104949061384a565b600180546001600160a01b0319166001600160a01b0383169081179091556040517f3f8223bcd8b3b875473e9f9e14e1ad075451a2b5ffd31591655da9a01516bf5e916105ba91612fd8565b60405180910390a150565b6001546000906001600160a01b031633146105f25760405162461bcd60e51b81526004016104949061353a565b600260075414156106155760405162461bcd60e51b81526004016104949061357e565b600260075582516000906106329085016020908101908601613a93565b905060008160800151876106469190613ae4565b9050610659888284604001516000610ff4565b7f83fb878bc850fecc32634e2924a47daa8db823de1e2eb33084be9fd29f22c24582600001516000838b8660800151600260405161069c969594939291906137be565b60405180910390a16001925050505b60016007559695505050505050565b6000546001600160a01b031633146106e45760405162461bcd60e51b81526004016104949061384a565b600880546001600160a01b0319166001600160a01b0392909216919091179055565b6000546001600160a01b031633146107305760405162461bcd60e51b81526004016104949061384a565b61073b838383611124565b7f5e20184b00709d9f103306958e9fb9d509f78bec1829ca7080f2c43eb2ff21a883838360405161076e93929190613b0b565b60405180910390a1505050565b6000546001600160a01b031633146107a55760405162461bcd60e51b81526004016104949061384a565b600580546001600160a01b038381166001600160a01b03198316179092556040519116907f2d025324f0a785e8c12d0a0d91a9caa49df4ef20ff87e0df7213a1d4f3157beb906107f89083908590613b33565b60405180910390a15050565b6000546001600160a01b0316331461082e5760405162461bcd60e51b81526004016104949061384a565b61083860006111bb565b565b6001546000906001600160a01b031633146108675760405162461bcd60e51b81526004016104949061353a565b6002600754141561088a5760405162461bcd60e51b81526004016104949061357e565b600260075582516000906108a79085016020908101908601613a93565b9050806080015186101561090a576080810186905280516040517f83fb878bc850fecc32634e2924a47daa8db823de1e2eb33084be9fd29f22c245916108f89160009081908c908c90600190613b4e565b60405180910390a160019150506106ab565b60808101516109199087613ae4565b955060608101516020820151518891908890600090156109935760606000610944876020015161120b565b90985093509150506001600160a01b03808216908e16146109775760405162461bcd60e51b815260040161049490613baa565b61098b8760200151838e8a60a00151611439565b909450925050505b80156109aa576109aa8b8287604001516000610ff4565b6109ba8483876040015186610ff4565b7f83fb878bc850fecc32634e2924a47daa8db823de1e2eb33084be9fd29f22c245856000015183838e896080015160016040516109fc96959493929190613bba565b60405180910390a160019550505050505060016007559695505050505050565b60038181548110610a2c57600080fd5b6000918252602090912001546001600160a01b0316905081565b6001546000906001600160a01b03163314610a735760405162461bcd60e51b81526004016104949061353a565b95945050505050565b6000546001600160a01b03163314610aa65760405162461bcd60e51b81526004016104949061384a565b600680546001600160a01b038381166001600160a01b03198316179092556040519116907f5d16ad41baeb009cd23eb8f6c7cde5c2e0cd5acf4a33926ab488875c37c37f38906107f89083908590613b33565b6000546001600160a01b03163314610b235760405162461bcd60e51b81526004016104949061384a565b60008383604051610b35929190613be8565b60405180910390209050610bb681836001600160e01b0319909116600090815260026020526040812080546001600160a01b039093166001600160a01b031993841681179091556003805460018101825592527fc2575a0e9e593c00f959f8c92f12db2869c3395a3b0502d05e2516446f71f85b9091018054909216179055565b7f58ddcdb40971f55ad1b6a8a28067274a4ffc7e9d77c3ea14a17652faa705e1978183604051610be7929190613bf5565b60405180910390a150505050565b60026007541415610c185760405162461bcd60e51b81526004016104949061357e565b600260075582151580610c4e575067ffffffffffffffff4616610c416040870160208801613c03565b67ffffffffffffffff1614155b610c6a5760405162461bcd60e51b815260040161049490613c3e565b82151580610ca2575061014085013515801590610ca257506000610c9661018087016101608801612fe6565b6001600160a01b031614155b610cbe5760405162461bcd60e51b815260040161049490613c3e565b6101408501356000610cd861018088016101608901612fe6565b90506000610cee61018089016101608a01612fe6565b905060608615610d5657610d0a610d05888a613c4e565b61120b565b92965090945092509050610d266101808a016101608b01612fe6565b6001600160a01b0316836001600160a01b031614610d565760405162461bcd60e51b815260040161049490613baa565b610d6660c08a0160a08b01613c5b565b15610e26576008546001600160a01b03848116911614610d985760405162461bcd60e51b815260040161049490613cb0565b83341015610db85760405162461bcd60e51b815260040161049490613cf4565b600860009054906101000a90046001600160a01b03166001600160a01b031663d0e30db0856040518263ffffffff1660e01b81526004016000604051808303818588803b158015610e0857600080fd5b505af1158015610e1c573d6000803e3d6000fd5b5050505050610e3b565b610e3b6001600160a01b03841633308761177c565b610e668a858585610e4c8c8e613c4e565b610e568b8d613c4e565b8f610e6090613e96565b886117e9565b505060016007555050505050505050565b6006546001600160a01b03163314610ea15760405162461bcd60e51b815260040161049490613ed6565b60005b82811015610f92576000848483818110610ec057610ec0613ee6565b9050602002016020810190610ed59190612fe6565b6001600160a01b03166370a08231306040518263ffffffff1660e01b8152600401610f009190612fd8565b602060405180830381865afa158015610f1d573d6000803e3d6000fd5b505050506040513d601f19601f82011682018060405250810190610f419190613efc565b9050610f7f8382878786818110610f5a57610f5a613ee6565b9050602002016020810190610f6f9190612fe6565b6001600160a01b03169190611941565b5080610f8a81613f1d565b915050610ea4565b50505050565b6000546001600160a01b03163314610fc25760405162461bcd60e51b81526004016104949061384a565b6001600160a01b038116610fe85760405162461bcd60e51b815260040161049490613f95565b610ff1816111bb565b50565b8015611110576008546001600160a01b038581169116146110275760405162461bcd60e51b815260040161049490613fd9565b600854604051632e1a7d4d60e01b81526001600160a01b0390911690632e1a7d4d90611057908690600401613fe9565b600060405180830381600087803b15801561107157600080fd5b505af1158015611085573d6000803e3d6000fd5b505050506000826001600160a01b03168461c350906040516110a690613ff7565b600060405180830381858888f193505050503d80600081146110e4576040519150601f19603f3d011682016040523d82523d6000602084013e6110e9565b606091505b505090508061110a5760405162461bcd60e51b815260040161049490614036565b50610f92565b610f926001600160a01b0385168385611941565b6001600160a01b03831660009081526004602090815260408083206001600160e01b03198616845290915290205460ff1680151582151514156111795760405162461bcd60e51b815260040161049490613c3e565b506001600160a01b0390921660009081526004602090815260408083206001600160e01b0319909416835292905220805491151560ff19909216919091179055565b600080546001600160a01b038381166001600160a01b0319831681178455604051919092169283917f8be0079c531659141344cd1fd0a4f28419497f9722a3daafe3b4186f6b6457e09190a35050565b6000806000606060008061121e87611965565b925060005b875181101561142f576004600089838151811061124257611242613ee6565b6020026020010151600001516001600160a01b03166001600160a01b03168152602001908152602001600020600089838151811061128257611282613ee6565b6020026020010151602001516112979061405a565b6001600160e01b031916815260208101919091526040016000205460ff166112d15760405162461bcd60e51b8152600401610494906140d3565b60008060008684815181106112e8576112e8613ee6565b60200260200101516001600160a01b031663358f0e1c8c868151811061131057611310613ee6565b60200260200101516040518263ffffffff1660e01b81526004016113349190614141565b606060405180830381865afa158015611351573d6000803e3d6000fd5b505050506040513d601f19601f820116820180604052508101906113759190614152565b919450925090506001600160a01b03861615806113a35750816001600160a01b0316866001600160a01b0316145b6113bf5760405162461bcd60e51b8152600401610494906141cc565b90945084906001600160a01b03851615806113eb5750806001600160a01b0316856001600160a01b0316145b6114075760405162461bcd60e51b815260040161049490614210565b935083611414838b614220565b9950909750955081905061142781613f1d565b915050611223565b5050509193509193565b600080600080600061144c89888a611aa5565b9250925092506000816001600160a01b03166370a08231306040518263ffffffff1660e01b81526004016114809190612fd8565b602060405180830381865afa15801561149d573d6000803e3d6000fd5b505050506040513d601f19601f820116820180604052508101906114c19190613efc565b905060005b8a518110156116cf5760008a82815181106114e3576114e3613ee6565b60200260200101516001600160a01b0316634c6da2698d848151811061150b5761150b613ee6565b60200260200101516020015188858151811061152957611529613ee6565b6020026020010151306040518463ffffffff1660e01b815260040161155093929190614238565b600060405180830381865afa15801561156d573d6000803e3d6000fd5b505050506040513d6000823e601f3d908101601f191682016040526115959190810190614265565b90506115eb8c83815181106115ac576115ac613ee6565b6020026020010151600001518784815181106115ca576115ca613ee6565b6020026020010151876001600160a01b0316611c5a9092919063ffffffff16565b60008c83815181106115ff576115ff613ee6565b6020026020010151600001516001600160a01b03168260405161162291906142c2565b6000604051808303816000865af19150503d806000811461165f576040519150601f19603f3d011682016040523d82523d6000602084013e611664565b606091505b5050905080806116715750895b61168d5760405162461bcd60e51b815260040161049490614302565b806116ba578683815181106116a4576116a4613ee6565b6020026020010151886116b79190614220565b97505b505080806116c790613f1d565b9150506114c6565b506040516370a0823160e01b81526000906001600160a01b038416906370a08231906116ff903090600401612fd8565b602060405180830381865afa15801561171c573d6000803e3d6000fd5b505050506040513d601f19601f820116820180604052508101906117409190613efc565b905061174c8282613ae4565b96506000871161176e5760405162461bcd60e51b815260040161049490614346565b505050505094509492505050565b610f92846323b872dd60e01b85858560405160240161179d93929190614356565b60408051601f198184030181529190526020810180517bffffffffffffffffffffffffffffffffffffffffffffffffffffffff166001600160e01b031990931692909217909152611cf7565b83518790156118215760006117fe8684611d86565b925090508061181f5760405162461bcd60e51b8152600401610494906143b2565b505b6000611835846000015185608001516120d0565b90504667ffffffffffffffff16846020015167ffffffffffffffff1614156118b1577f0e248ac8be20725176a5f0ab093c5fbb964634d4675012f3d3ad66e69e56d5b7818a8a858b60405161188e9594939291906143c2565b60405180910390a16118aa878386600001518760c00151610ff4565b5050611937565b6118bc848a8a612108565b60a08401513490156118d5576118d28a34613ae4565b90505b60006118e6838d888a888e88612191565b90507f958488e5972a6160a144bf2f2c48a92fca44afb5403c6be746904dbdf01cf549838288602001518e8e8b610180015160405161192a9695949392919061441e565b60405180910390a1505050505b5050505050505050565b6119608363a9059cbb60e01b848460405160240161179d92919061446d565b505050565b60606000825167ffffffffffffffff81111561198357611983613022565b6040519080825280602002602001820160405280156119ac578160200160208202803683370190505b50905060005b8351811015611a9e5760008482815181106119cf576119cf613ee6565b6020026020010151602001516119e49061405a565b6001600160e01b0319811660009081526002602052604090205484519192506001600160a01b031690849084908110611a1f57611a1f613ee6565b60200260200101906001600160a01b031690816001600160a01b03168152505060006001600160a01b0316838381518110611a5c57611a5c613ee6565b60200260200101516001600160a01b03161415611a8b5760405162461bcd60e51b8152600401610494906144bc565b5080611a9681613f1d565b9150506119b2565b5092915050565b60606000806000865167ffffffffffffffff811115611ac657611ac6613022565b604051908082528060200260200182016040528015611aef578160200160208202803683370190505b50935060005b8751811015611be3576000868281518110611b1257611b12613ee6565b60200260200101516001600160a01b031663358f0e1c8a8481518110611b3a57611b3a613ee6565b60200260200101516040518263ffffffff1660e01b8152600401611b5e9190614141565b606060405180830381865afa158015611b7b573d6000803e3d6000fd5b505050506040513d601f19601f82011682018060405250810190611b9f9190614152565b90965094509050611bb08184614220565b925080868381518110611bc557611bc5613ee6565b60209081029190910101525080611bdb81613f1d565b915050611af5565b5060005b8451811015611c4f5781858281518110611c0357611c03613ee6565b602002602001015188611c1691906144cc565b611c209190614501565b858281518110611c3257611c32613ee6565b602090810291909101015280611c4781613f1d565b915050611be7565b505093509350939050565b600081846001600160a01b031663dd62ed3e30866040518363ffffffff1660e01b8152600401611c8b929190613b33565b602060405180830381865afa158015611ca8573d6000803e3d6000fd5b505050506040513d601f19601f82011682018060405250810190611ccc9190613efc565b611cd69190614220565b9050610f928463095ea7b360e01b858460405160240161179d92919061446d565b6000611d4c826040518060400160405280602081526020017f5361666545524332303a206c6f772d6c6576656c2063616c6c206661696c6564815250856001600160a01b03166121e59092919063ffffffff16565b8051909150156119605780806020019051810190611d6a9190614515565b6119605760405162461bcd60e51b815260040161049490614590565b60008060005b84518110156120c7576000806000868481518110611dac57611dac613ee6565b60200260200101516001600160a01b031663358f0e1c898681518110611dd457611dd4613ee6565b60200260200101516040518263ffffffff1660e01b8152600401611df89190614141565b606060405180830381865afa158015611e15573d6000803e3d6000fd5b505050506040513d601f19601f82011682018060405250810190611e399190614152565b9250925092506000878581518110611e5357611e53613ee6565b60200260200101516001600160a01b0316634c6da2698a8781518110611e7b57611e7b613ee6565b60200260200101516020015186306040518463ffffffff1660e01b8152600401611ea793929190614238565b600060405180830381865afa158015611ec4573d6000803e3d6000fd5b505050506040513d6000823e601f3d908101601f19168201604052611eec9190810190614265565b9050611f20898681518110611f0357611f03613ee6565b6020908102919091010151516001600160a01b0385169086611c5a565b6040516370a0823160e01b81526000906001600160a01b038416906370a0823190611f4f903090600401612fd8565b602060405180830381865afa158015611f6c573d6000803e3d6000fd5b505050506040513d601f19601f82011682018060405250810190611f909190613efc565b9050898681518110611fa457611fa4613ee6565b6020026020010151600001516001600160a01b031682604051611fc791906142c2565b6000604051808303816000865af19150503d8060008114612004576040519150601f19603f3d011682016040523d82523d6000602084013e612009565b606091505b5050809850508761202657600080975097505050505050506120c9565b6040516370a0823160e01b81526000906001600160a01b038516906370a0823190612055903090600401612fd8565b602060405180830381865afa158015612072573d6000803e3d6000fd5b505050506040513d601f19601f820116820180604052508101906120969190613efc565b90506120a28282613ae4565b6120ac9089614220565b975050505050505080806120bf90613f1d565b915050611d8c565b505b9250929050565b6000338346846040516020016120e994939291906145e7565b6040516020818303038152906040528051906020012090505b92915050565b600046846020015184848761010001518860e001516040516020016121329695949392919061462f565b6040516020818303038152906040528051906020012090506000612155826121fe565b90506121668186610120015161222e565b428561010001511161218a5760405162461bcd60e51b8152600401610494906146f3565b5050505050565b60008061219f89888861226a565b90506121d88885878a602001518b608001518c60400151878e60600151600160009054906101000a90046001600160a01b03168c6122df565b9998505050505050505050565b60606121f484846000856123c7565b90505b9392505050565b6000816040516020016122119190614703565b604051602081830303815290604052805190602001209050919050565b600061223a838361248b565b6005549091506001600160a01b038083169116146119605760405162461bcd60e51b815260040161049490614772565b60606040518060c0016040528085815260200183815260200184600001516001600160a01b031681526020018460c00151151581526020018460e001518152602001846101a0015115158152506040516020016122c7919061486e565b60405160208183030381529060405290509392505050565b600060018460068111156122f5576122f5612f72565b14156123135761230c8b8b8b8b8b8b8b8a8a6124af565b90506123b9565b600284600681111561232757612327612f72565b14806123445750600484600681111561234257612342612f72565b145b1561235a5761230c848c8c8c8c8c8b8a8a612640565b600384600681111561236e5761236e612f72565b148061238b5750600584600681111561238957612389612f72565b145b156123a15761230c848c8c8c8c8c8b8a8a6128ab565b60405162461bcd60e51b8152600401610494906148b3565b9a9950505050505050505050565b6060824710156123e95760405162461bcd60e51b81526004016104949061491d565b6001600160a01b0385163b6124105760405162461bcd60e51b815260040161049490614961565b600080866001600160a01b0316858760405161242c91906142c2565b60006040518083038185875af1925050503d8060008114612469576040519150601f19603f3d011682016040523d82523d6000602084013e61246e565b606091505b509150915061247e828286612af1565b925050505b949350505050565b600080600061249a8585612b2a565b915091506124a781612b97565b509392505050565b600080836001600160a01b03166382980dc46040518163ffffffff1660e01b8152600401602060405180830381865afa1580156124f0573d6000803e3d6000fd5b505050506040513d601f19601f820116820180604052508101906125149190614971565b905061252a6001600160a01b038b16828b611c5a565b60405163a5977fbb60e01b81526001600160a01b0382169063a5977fbb90612560908e908e908e908e908e908e9060040161499e565b600060405180830381600087803b15801561257a57600080fd5b505af115801561258e573d6000803e3d6000fd5b505050506000308c8c8c8c8c466040516020016125b197969594939291906149ed565b604051602081830303815290604052805190602001209050846001600160a01b0316634289fbb3858e8c86868c6040518763ffffffff1660e01b81526004016125fe959493929190614a87565b6000604051808303818588803b15801561261757600080fd5b505af115801561262b573d6000803e3d6000fd5b50939f9e505050505050505050505050505050565b60008060028b600681111561265757612657612f72565b14156126c657836001600160a01b031663d8257d176040518163ffffffff1660e01b8152600401602060405180830381865afa15801561269b573d6000803e3d6000fd5b505050506040513d601f19601f820116820180604052508101906126bf9190614971565b905061272b565b836001600160a01b031663c66a9c5a6040518163ffffffff1660e01b8152600401602060405180830381865afa158015612704573d6000803e3d6000fd5b505050506040513d601f19601f820116820180604052508101906127289190614971565b90505b61273f6001600160a01b038a16828a611c5a565b600060028c600681111561275557612755612f72565b14156127fb57816001600160a01b031663234636248b8b8b8f8c6040518663ffffffff1660e01b815260040161278f959493929190614ace565b600060405180830381600087803b1580156127a957600080fd5b505af11580156127bd573d6000803e3d6000fd5b50505050308a8a8a8e8b466040516020016127de9796959493929190614b10565b604051602081830303815290604052805190602001209050612875565b816001600160a01b031663234636248b8b8b8f8c6040518663ffffffff1660e01b815260040161282f959493929190614ace565b6020604051808303816000875af115801561284e573d6000803e3d6000fd5b505050506040513d601f19601f820116820180604052508101906128729190613efc565b90505b604051634289fbb360e01b81526001600160a01b03861690634289fbb39086906125fe908f908d90889088908e90600401614a87565b60008060038b60068111156128c2576128c2612f72565b141561293157836001600160a01b031663dfa2dbaf6040518163ffffffff1660e01b8152600401602060405180830381865afa158015612906573d6000803e3d6000fd5b505050506040513d601f19601f8201168201806040525081019061292a9190614971565b9050612996565b836001600160a01b03166395b12c276040518163ffffffff1660e01b8152600401602060405180830381865afa15801561296f573d6000803e3d6000fd5b505050506040513d601f19601f820116820180604052508101906129939190614971565b90505b6129aa6001600160a01b038a16828a611c5a565b600060038c60068111156129c0576129c0612f72565b1415612a6257816001600160a01b031663de790c7e8b8b8e8b6040518563ffffffff1660e01b81526004016129f89493929190614b6c565b600060405180830381600087803b158015612a1257600080fd5b505af1158015612a26573d6000803e3d6000fd5b50505050308a8a8d8a46604051602001612a4596959493929190614ba1565b604051602081830303815290604052805190602001209050612adc565b816001600160a01b031663a00293018b8b8b8f8c6040518663ffffffff1660e01b8152600401612a96959493929190614ace565b6020604051808303816000875af1158015612ab5573d6000803e3d6000fd5b505050506040513d601f19601f82011682018060405250810190612ad99190613efc565b90505b6128756001600160a01b038b16836000612c7c565b60608315612b005750816121f7565b825115612b105782518084602001fd5b8160405162461bcd60e51b81526004016104949190614c0b565b600080825160411415612b615760208301516040840151606085015160001a612b5587828585612d30565b945094505050506120c9565b825160401415612b8b5760208301516040840151612b80868383612e10565b9350935050506120c9565b506000905060026120c9565b6000816004811115612bab57612bab612f72565b1415612bb45750565b6001816004811115612bc857612bc8612f72565b1415612be65760405162461bcd60e51b815260040161049490614c50565b6002816004811115612bfa57612bfa612f72565b1415612c185760405162461bcd60e51b815260040161049490614c94565b6003816004811115612c2c57612c2c612f72565b1415612c4a5760405162461bcd60e51b815260040161049490614ce3565b6004816004811115612c5e57612c5e612f72565b1415610ff15760405162461bcd60e51b815260040161049490614d32565b801580612cf55750604051636eb1769f60e11b81526001600160a01b0384169063dd62ed3e90612cb29030908690600401613b33565b602060405180830381865afa158015612ccf573d6000803e3d6000fd5b505050506040513d601f19601f82011682018060405250810190612cf39190613efc565b155b612d115760405162461bcd60e51b815260040161049490614d9c565b6119608363095ea7b360e01b848460405160240161179d92919061446d565b6000807f7fffffffffffffffffffffffffffffff5d576e7357a4501ddfe92f46681b20a0831115612d675750600090506003612e07565b8460ff16601b14158015612d7f57508460ff16601c14155b15612d905750600090506004612e07565b600060018787878760405160008152602001604052604051612db59493929190614db5565b6020604051602081039080840390855afa158015612dd7573d6000803e3d6000fd5b5050604051601f1901519150506001600160a01b038116612e0057600060019250925050612e07565b9150600090505b94509492505050565b6000807f7fffffffffffffffffffffffffffffffffffffffffffffffffffffffffffffff831681612e4660ff86901c601b614220565b9050612e5487828885612d30565b935093505050935093915050565b60006001600160a01b038216612102565b612e7c81612e62565b8114610ff157600080fd5b803561210281612e73565b80612e7c565b803561210281612e92565b60008083601f840112612eb857612eb8600080fd5b50813567ffffffffffffffff811115612ed357612ed3600080fd5b6020830191508360018202830111156120c9576120c9600080fd5b600080600080600060808688031215612f0957612f09600080fd5b6000612f158888612e87565b9550506020612f2688828901612e98565b945050604086013567ffffffffffffffff811115612f4657612f46600080fd5b612f5288828901612ea3565b93509350506060612f6588828901612e87565b9150509295509295909350565b634e487b7160e01b600052602160045260246000fd5b60038110610ff157610ff1612f72565b80612fa281612f88565b919050565b600061210282612f98565b612fbb81612fa7565b82525050565b602081016121028284612fb2565b612fbb81612e62565b602081016121028284612fcf565b600060208284031215612ffb57612ffb600080fd5b60006124838484612e87565b67ffffffffffffffff8116612e7c565b803561210281613007565b634e487b7160e01b600052604160045260246000fd5b601f19601f830116810181811067ffffffffffffffff8211171561305e5761305e613022565b6040525050565b600061307060405190565b9050612fa28282613038565b600067ffffffffffffffff82111561309657613096613022565b601f19601f83011660200192915050565b82818337506000910152565b60006130c66130c18461307c565b613065565b9050828152602081018484840111156130e1576130e1600080fd5b6124a78482856130a7565b600082601f83011261310057613100600080fd5b81356124838482602086016130b3565b60008060008060008060c0878903121561312c5761312c600080fd5b60006131388989612e87565b965050602061314989828a01612e87565b955050604061315a89828a01612e98565b945050606061316b89828a01613017565b935050608087013567ffffffffffffffff81111561318b5761318b600080fd5b61319789828a016130ec565b92505060a06131a889828a01612e87565b9150509295509295509295565b6001600160e01b03198116612e7c565b8035612102816131b5565b801515612e7c565b8035612102816131d0565b6000806000606084860312156131fb576131fb600080fd5b60006132078686612e87565b9350506020613218868287016131c5565b9250506040613229868287016131d8565b9150509250925092565b60006020828403121561324857613248600080fd5b60006124838484612e98565b6000806040838503121561326a5761326a600080fd5b60006132768585612e87565b9250506020613287858286016131c5565b9150509250929050565b801515612fbb565b602081016121028284613291565b6000806000806000608086880312156132c2576132c2600080fd5b60006132ce8888612e87565b9550506020612f2688828901613017565b6000806000604084860312156132f7576132f7600080fd5b833567ffffffffffffffff81111561331157613311600080fd5b61331d86828701612ea3565b9350935050602061322986828701612e87565b60006101c0828403121561334657613346600080fd5b50919050565b60008083601f84011261336157613361600080fd5b50813567ffffffffffffffff81111561337c5761337c600080fd5b6020830191508360208202830111156120c9576120c9600080fd5b600080600080600080608087890312156133b3576133b3600080fd5b60006133bf8989612e87565b965050602087013567ffffffffffffffff8111156133df576133df600080fd5b6133eb89828a01613330565b955050604087013567ffffffffffffffff81111561340b5761340b600080fd5b61341789828a0161334c565b9450945050606087013567ffffffffffffffff81111561343957613439600080fd5b61344589828a0161334c565b92509250509295509295509295565b60008060006040848603121561346c5761346c600080fd5b833567ffffffffffffffff81111561348657613486600080fd5b61331d8682870161334c565b6000602082840312156134a7576134a7600080fd5b600061248384846131c5565b60006121026001600160a01b0383166134ca565b90565b6001600160a01b031690565b6000612102826134b3565b6000612102826134d6565b612fbb816134e1565b6020810161210282846134ec565b601981526000602082017f63616c6c6572206973206e6f74206d6573736167652062757300000000000000815291505b5060200190565b6020808252810161210281613503565b601f81526000602082017f5265656e7472616e637947756172643a207265656e7472616e742063616c6c0081529150613533565b602080825281016121028161354a565b600067ffffffffffffffff8211156135a8576135a8613022565b5060209081020190565b6000604082840312156135c7576135c7600080fd5b6135d16040613065565b905060006135df8484612e87565b825250602082013567ffffffffffffffff8111156135ff576135ff600080fd5b61360b848285016130ec565b60208301525092915050565b60006136256130c18461358e565b8381529050602080820190840283018581111561364457613644600080fd5b835b8181101561368557803567ffffffffffffffff81111561366857613668600080fd5b80860161367589826135b2565b8552505060209283019201613646565b5050509392505050565b600082601f8301126136a3576136a3600080fd5b8135612483848260208601613617565b600060c082840312156136c8576136c8600080fd5b6136d260c0613065565b905060006136e08484612e98565b825250602082013567ffffffffffffffff81111561370057613700600080fd5b61370c8482850161368f565b602083015250604061372084828501612e87565b6040830152506060613734848285016131d8565b606083015250608061374884828501612e98565b60808301525060a061375c848285016131d8565b60a08301525092915050565b60006020828403121561377d5761377d600080fd5b813567ffffffffffffffff81111561379757613797600080fd5b612483848285016136b3565b80612fbb565b60006121026134c78381565b612fbb816137a9565b60c081016137cc82896137a3565b6137d960208301886137b5565b6137e660408301876137a3565b6137f36060830186612fcf565b61380060808301856137a3565b61380d60a0830184612fb2565b979650505050505050565b60208082527f4f776e61626c653a2063616c6c6572206973206e6f7420746865206f776e657291019081526000613533565b6020808252810161210281613818565b805161210281612e92565b805161210281612e73565b60005b8381101561388b578181015183820152602001613873565b83811115610f925750506000910152565b60006138aa6130c18461307c565b9050828152602081018484840111156138c5576138c5600080fd5b6124a7848285613870565b600082601f8301126138e4576138e4600080fd5b815161248384826020860161389c565b60006040828403121561390957613909600080fd5b6139136040613065565b905060006139218484613865565b825250602082015167ffffffffffffffff81111561394157613941600080fd5b61360b848285016138d0565b600061395b6130c18461358e565b8381529050602080820190840283018581111561397a5761397a600080fd5b835b8181101561368557805167ffffffffffffffff81111561399e5761399e600080fd5b8086016139ab89826138f4565b855250506020928301920161397c565b600082601f8301126139cf576139cf600080fd5b815161248384826020860161394d565b8051612102816131d0565b600060c082840312156139ff576139ff600080fd5b613a0960c0613065565b90506000613a17848461385a565b825250602082015167ffffffffffffffff811115613a3757613a37600080fd5b613a43848285016139bb565b6020830152506040613a5784828501613865565b6040830152506060613a6b848285016139df565b6060830152506080613a7f8482850161385a565b60808301525060a061375c848285016139df565b600060208284031215613aa857613aa8600080fd5b815167ffffffffffffffff811115613ac257613ac2600080fd5b612483848285016139ea565b634e487b7160e01b600052601160045260246000fd5b600082821015613af657613af6613ace565b500390565b6001600160e01b03198116612fbb565b60608101613b198286612fcf565b613b266020830185613afb565b6124836040830184613291565b60408101613b418285612fcf565b6121f76020830184612fcf565b60c08101613b5c82896137a3565b613b6960208301886137b5565b6137e660408301876137b5565b600781526000602082017f746b696e206d6d0000000000000000000000000000000000000000000000000081529150613533565b6020808252810161210281613b76565b60c08101613bc882896137a3565b6137d960208301886137a3565b6000613be28385846130a7565b50500190565b6000612483828486613bd5565b60408101613b418285613afb565b600060208284031215613c1857613c18600080fd5b60006124838484613017565b600381526000602082016206e6f760ec1b81529150613533565b6020808252810161210281613c24565b60006121f7368484613617565b600060208284031215613c7057613c70600080fd5b600061248384846131d8565b601281526000602082017f746b696e206e6f206e617469766557726170000000000000000000000000000081529150613533565b6020808252810161210281613c7c565b600b81526000602082017f696e7366636e7420616d7400000000000000000000000000000000000000000081529150613533565b6020808252810161210281613cc0565b63ffffffff8116612e7c565b803561210281613d04565b60078110610ff157600080fd5b803561210281613d1b565b60006101c08284031215613d4957613d49600080fd5b613d546101c0613065565b90506000613d628484612e87565b8252506020613d7384848301613017565b6020830152506040613d8784828501613d10565b6040830152506060613d9b84828501613d28565b6060830152506080613daf84828501613017565b60808301525060a0613dc3848285016131d8565b60a08301525060c0613dd7848285016131d8565b60c08301525060e0613deb84828501612e98565b60e083015250610100613e0084828501612e98565b6101008301525061012082013567ffffffffffffffff811115613e2557613e25600080fd5b613e31848285016130ec565b61012083015250610140613e4784828501612e98565b61014083015250610160613e5d84828501612e87565b61016083015250610180613e7384828501612e87565b610180830152506101a0613e89848285016131d8565b6101a08301525092915050565b60006121023683613d33565b601181526000602082017f6e6f742066656520636f6c6c6563746f7200000000000000000000000000000081529150613533565b6020808252810161210281613ea2565b634e487b7160e01b600052603260045260246000fd5b600060208284031215613f1157613f11600080fd5b6000612483848461385a565b6000600019821415613f3157613f31613ace565b5060010190565b602681526000602082017f4f776e61626c653a206e6577206f776e657220697320746865207a65726f206181527f6464726573730000000000000000000000000000000000000000000000000000602082015291505b5060400190565b6020808252810161210281613f38565b600c81526000602082017f746b206e6f206e6174697665000000000000000000000000000000000000000081529150613533565b6020808252810161210281613fa5565b6020810161210282846137a3565b6000612102826134c7565b600981526000602082017f73656e64206661696c000000000000000000000000000000000000000000000081529150613533565b6020808252810161210281614002565b600061210282516001600160e01b03191690565b6000614064825190565b6020830161407181614046565b92506004821015614098576140936001600160e01b0319836004036008021b90565b831692505b5050919050565b600f81526000602082017f756e737570706f7274656420646578000000000000000000000000000000000081529150613533565b602080825281016121028161409f565b60006140ed825190565b808452602084019350614104818560208601613870565b601f01601f19169290920192915050565b805160009060408401906141298582612fcf565b5060208301518482036020860152610a7382826140e3565b602080825281016121f78184614115565b60008060006060848603121561416a5761416a600080fd5b6000614176868661385a565b935050602061418786828701613865565b925050604061322986828701613865565b600d81526000602082017f746b696e206d69736d617463680000000000000000000000000000000000000081529150613533565b6020808252810161210281614198565b600c81526000602082017f746b6f206d69736d61746368000000000000000000000000000000000000000081529150613533565b60208082528101612102816141dc565b6000821982111561423357614233613ace565b500190565b6060808252810161424981866140e3565b905061425860208301856137a3565b6124836040830184612fcf565b60006020828403121561427a5761427a600080fd5b815167ffffffffffffffff81111561429457614294600080fd5b612483848285016138d0565b60006142aa825190565b6142b8818560208601613870565b9290920192915050565b60006121f782846142a0565b600b81526000602082017f73776170206661696c656400000000000000000000000000000000000000000081529150613533565b60208082528101612102816142ce565b601081526000602082017f616c6c207377617073206661696c65640000000000000000000000000000000081529150613533565b6020808252810161210281614312565b606081016143648286612fcf565b6143716020830185612fcf565b61248360408301846137a3565b600981526000602082017f73776170206661696c000000000000000000000000000000000000000000000081529150613533565b602080825281016121028161437e565b60a081016143d082886137a3565b6143dd60208301876137a3565b6143ea6040830186612fcf565b6143f760608301856137a3565b6144046080830184612fcf565b9695505050505050565b67ffffffffffffffff8116612fbb565b60c0810161442c82896137a3565b61443960208301886137a3565b614446604083018761440e565b61445360608301866137a3565b6144606080830185612fcf565b61380d60a0830184612fcf565b6040810161447b8285612fcf565b6121f760208301846137a3565b600c81526000602082017f636463206e6f20666f756e64000000000000000000000000000000000000000081529150613533565b6020808252810161210281614488565b60008160001904831182151516156144e6576144e6613ace565b500290565b634e487b7160e01b600052601260045260246000fd5b600082614510576145106144eb565b500490565b60006020828403121561452a5761452a600080fd5b600061248384846139df565b602a81526000602082017f5361666545524332303a204552433230206f7065726174696f6e20646964206e81527f6f7420737563636565640000000000000000000000000000000000000000000060208201529150613f8e565b6020808252810161210281614536565b60006121028260601b90565b6000612102826145a0565b612fbb6145c382612e62565b6145ac565b60006121028260c01b90565b612fbb67ffffffffffffffff82166145c8565b60006145f382876145b7565b60148201915061460382866145b7565b60148201915061461382856145d4565b60088201915061462382846145d4565b50600801949350505050565b7f6578656375746f722066656500000000000000000000000000000000000000008152600c01600061466182896145d4565b60088201915061467182886145d4565b60088201915061468182876137a3565b60208201915061469182866145b7565b6014820191506146a182856137a3565b6020820191506146b182846137a3565b506020019695505050505050565b601181526000602082017f646561646c696e6520657863656564656400000000000000000000000000000081529150613533565b60208082528101612102816146bf565b7f19457468657265756d205369676e6564204d6573736167653a0a3332000000008152601c01600061473582846137a3565b50602001919050565b600e81526000602082017f696e76616c6964207369676e657200000000000000000000000000000000000081529150613533565b602080825281016121028161473e565b60006121f78383614115565b6000614798825190565b808452602084019350836020820285016147b28560200190565b8060005b858110156147e757848403895281516147cf8582614782565b94506020830160209a909a01999250506001016147b6565b5091979650505050505050565b805160009060c084019061480885826137a3565b5060208301518482036020860152614820828261478e565b91505060408301516148356040860182612fcf565b5060608301516148486060860182613291565b50608083015161485b60808601826137a3565b5060a08301516124a760a0860182613291565b602080825281016121f781846147f4565b601981526000602082017f6272696467652074797065206e6f7420737570706f727465640000000000000081529150613533565b602080825281016121028161487f565b602681526000602082017f416464726573733a20696e73756666696369656e742062616c616e636520666f81527f722063616c6c000000000000000000000000000000000000000000000000000060208201529150613f8e565b60208082528101612102816148c3565b601d81526000602082017f416464726573733a2063616c6c20746f206e6f6e2d636f6e747261637400000081529150613533565b602080825281016121028161492d565b60006020828403121561498657614986600080fd5b60006124838484613865565b63ffffffff8116612fbb565b60c081016149ac8289612fcf565b6149b96020830188612fcf565b6149c660408301876137a3565b6149d3606083018661440e565b6149e0608083018561440e565b61380d60a0830184614992565b60006149f9828a6145b7565b601482019150614a0982896145b7565b601482019150614a1982886145b7565b601482019150614a2982876137a3565b602082019150614a3982866145d4565b600882019150614a4982856145d4565b600882019150614a5982846145d4565b50600801979650505050505050565b60006121026134c767ffffffffffffffff841681565b612fbb81614a68565b60a08101614a958288612fcf565b614aa26020830187614a7e565b614aaf6040830186612fcf565b614abc60608301856137a3565b818103608083015261380d81846140e3565b60a08101614adc8288612fcf565b614ae960208301876137a3565b614af6604083018661440e565b614b036060830185612fcf565b614404608083018461440e565b6000614b1c828a6145b7565b601482019150614b2c82896145b7565b601482019150614b3c82886137a3565b602082019150614b4c82876145d4565b600882019150614b5c82866145b7565b601482019150614a4982856145d4565b60808101614b7a8287612fcf565b614b8760208301866137a3565b614b946040830185612fcf565b610a73606083018461440e565b6000614bad82896145b7565b601482019150614bbd82886145b7565b601482019150614bcd82876137a3565b602082019150614bdd82866145b7565b601482019150614bed82856145d4565b600882019150614bfd82846145d4565b506008019695505050505050565b602080825281016121f781846140e3565b601881526000602082017f45434453413a20696e76616c6964207369676e6174757265000000000000000081529150613533565b6020808252810161210281614c1c565b601f81526000602082017f45434453413a20696e76616c6964207369676e6174757265206c656e6774680081529150613533565b6020808252810161210281614c60565b602281526000602082017f45434453413a20696e76616c6964207369676e6174757265202773272076616c815261756560f01b60208201529150613f8e565b6020808252810161210281614ca4565b602281526000602082017f45434453413a20696e76616c6964207369676e6174757265202776272076616c815261756560f01b60208201529150613f8e565b6020808252810161210281614cf3565b603681526000602082017f5361666545524332303a20617070726f76652066726f6d206e6f6e2d7a65726f81527f20746f206e6f6e2d7a65726f20616c6c6f77616e63650000000000000000000060208201529150613f8e565b6020808252810161210281614d42565b60ff8116612fbb565b60808101614dc382876137a3565b614dd06020830186614dac565b614ddd60408301856137a3565b610a7360608301846137a356fea2646970667358221220b375e3c851d658fe3472346776826180546f68424ef8365a1b559fb7387f378c64736f6c634300080c0033",
  "devdoc": {
    "author": "Chainhop Dex TeamPadoriku",
    "events": {
      "DirectSwap(bytes32,uint256,address,uint256,address)": {
        "params": {
          "amountIn": "the input amount approved by the sender",
          "amountOut": "the output amount gained after swapping using the input tokens",
          "id": "see _computeId()",
          "tokenIn": "the input token approved by the sender",
          "tokenOut": "the output token gained after swapping using the input tokens"
        }
      },
      "RequestDone(bytes32,uint256,uint256,address,uint256,uint8)": {
        "details": "refundAmount may be fill by either a complete refund or when allowPartialFill is on and some swaps fails in the swap routes",
        "params": {
          "dstAmount": "the final output token (after bridging and swapping) desired by the sender",
          "feeCollected": "the fee chainhop deducts from bridge out token",
          "id": "see _computeId()",
          "refundAmount": "the amount refunded to the receiver in bridge token",
          "refundToken": "bridge out token",
          "status": "see RequestStatus"
        }
      },
      "RequestSent(bytes32,bytes32,uint64,uint256,address,address)": {
        "params": {
          "dstChainId": "destination chain id",
          "dstToken": "the final output token (after bridging and swapping) desired by the sender",
          "id": "see _computeId()",
          "srcAmount": "input amount approved by the sender",
          "srcToken": "the input token approved by the sender",
          "transferId": "the src transfer id produced by MessageSenderLib.sendMessageWithTransfer()"
        }
      }
    },
    "kind": "dev",
    "methods": {
      "executeMessage(address,uint64,bytes,address)": {
        "params": {
          "_executor": "Address who called the MessageBus execution function",
          "_message": "Arbitrary message bytes originated from and encoded by the source app contract",
          "_sender": "The address of the source app contract",
          "_srcChainId": "The source chain ID where the transfer is originated from"
        }
      },
      "executeMessageWithTransfer(address,address,uint256,uint64,bytes,address)": {
        "details": "If allowPartialFill is off, this function reverts as soon as one swap in swap routes failsThis function is called and is only callable by MessageBus. The transaction of such call is triggered by executor.",
        "params": {
          "_amount": "the amount of token received by this contract",
          "_token": "the token received by this contract"
        },
        "returns": {
          "_0": "ok whether the processing is successful"
        }
      },
      "executeMessageWithTransferFallback(address,address,uint256,uint64,bytes,address)": {
        "details": "Only called if executeMessageWithTransfer reverts",
        "params": {
          "_amount": "the amount of token received by this contract",
          "_token": "the token received by this contract"
        },
        "returns": {
          "_0": "ok whether the processing is successful"
        }
      },
      "executeMessageWithTransferRefund(address,uint256,bytes,address)": {
        "details": "only MessageBus can call this function, this requires the user to get sigs of the message from SGN",
        "params": {
          "_amount": "the amount of token received by this contract",
          "_token": "the token received by this contract"
        },
        "returns": {
          "_0": "ok whether the processing is successful"
        }
      },
      "owner()": {
        "details": "Returns the address of the current owner."
      },
      "renounceOwnership()": {
        "details": "Leaves the contract without owner. It will not be possible to call `onlyOwner` functions anymore. Can only be called by the current owner. NOTE: Renouncing ownership will leave the contract without an owner, thereby removing any functionality that is only available to the owner."
      },
      "transferOwnership(address)": {
        "details": "Transfers ownership of the contract to a new account (`newOwner`). Can only be called by the current owner."
      },
      "transferWithSwap(address,(address,uint64,uint32,uint8,uint64,bool,bool,uint256,uint256,bytes,uint256,address,address,bool),(address,bytes)[],(address,bytes)[])": {
        "params": {
          "_dstTransferSwapper": "the address of the TransferSwapper on the destination chain"
        }
      }
    },
    "title": "An app that enables swapping on a chain, transferring to another chain and swapping another time on the destination chain before sending the result tokens to a user",
    "version": 1
  },
  "userdoc": {
    "events": {
      "DirectSwap(bytes32,uint256,address,uint256,address)": {
        "notice": "Emitted when requested dstChainId == srcChainId, no bridging"
      },
      "RequestDone(bytes32,uint256,uint256,address,uint256,uint8)": {
        "notice": "Emitted when operations on dst chain is done."
      },
      "RequestSent(bytes32,bytes32,uint64,uint256,address,address)": {
        "notice": "Emitted when operations on src chain is done, the transfer is sent through the bridge"
      }
    },
    "kind": "user",
    "methods": {
      "executeMessage(address,uint64,bytes,address)": {
        "notice": "Called by MessageBus (MessageBusReceiver)"
      },
      "executeMessageWithTransfer(address,address,uint256,uint64,bytes,address)": {
        "notice": "Executes a swap if needed, then sends the output token to the receiver"
      },
      "executeMessageWithTransferFallback(address,address,uint256,uint64,bytes,address)": {
        "notice": "Sends the received token to the receiver"
      },
      "executeMessageWithTransferRefund(address,uint256,bytes,address)": {
        "notice": "Used to trigger refund when bridging fails due to large slippage"
      },
      "nativeWrap()": {
        "notice": "erc20 wrap of the gas token of this chain, e.g. WETH"
      },
      "transferWithSwap(address,(address,uint64,uint32,uint8,uint64,bool,bool,uint256,uint256,bytes,uint256,address,address,bool),(address,bytes)[],(address,bytes)[])": {
        "notice": "swaps if needed, then transfer the token to another chain along with an instruction on how to swap on that chain"
      }
    },
    "version": 1
  },
  "storageLayout": {
    "storage": [
      {
        "astId": 7,
        "contract": "contracts/TransferSwapper.sol:TransferSwapper",
        "label": "_owner",
        "offset": 0,
        "slot": "0",
        "type": "t_address"
      },
      {
        "astId": 5204,
        "contract": "contracts/TransferSwapper.sol:TransferSwapper",
        "label": "messageBus",
        "offset": 0,
        "slot": "1",
        "type": "t_address"
      },
      {
        "astId": 2090,
        "contract": "contracts/TransferSwapper.sol:TransferSwapper",
        "label": "selector2codec",
        "offset": 0,
        "slot": "2",
        "type": "t_mapping(t_bytes4,t_contract(ICodec)4591)"
      },
      {
        "astId": 2093,
        "contract": "contracts/TransferSwapper.sol:TransferSwapper",
        "label": "codecs",
        "offset": 0,
        "slot": "3",
        "type": "t_array(t_address)dyn_storage"
      },
      {
        "astId": 2345,
        "contract": "contracts/TransferSwapper.sol:TransferSwapper",
        "label": "dexRegistry",
        "offset": 0,
        "slot": "4",
        "type": "t_mapping(t_address,t_mapping(t_bytes4,t_bool))"
      },
      {
        "astId": 2572,
        "contract": "contracts/TransferSwapper.sol:TransferSwapper",
        "label": "signer",
        "offset": 0,
        "slot": "5",
        "type": "t_address"
      },
      {
        "astId": 2462,
        "contract": "contracts/TransferSwapper.sol:TransferSwapper",
        "label": "feeCollector",
        "offset": 0,
        "slot": "6",
        "type": "t_address"
      },
      {
        "astId": 207,
        "contract": "contracts/TransferSwapper.sol:TransferSwapper",
        "label": "_status",
        "offset": 0,
        "slot": "7",
        "type": "t_uint256"
      },
      {
        "astId": 3292,
        "contract": "contracts/TransferSwapper.sol:TransferSwapper",
        "label": "nativeWrap",
        "offset": 0,
        "slot": "8",
        "type": "t_address"
      }
    ],
    "types": {
      "t_address": {
        "encoding": "inplace",
        "label": "address",
        "numberOfBytes": "20"
      },
      "t_array(t_address)dyn_storage": {
        "base": "t_address",
        "encoding": "dynamic_array",
        "label": "address[]",
        "numberOfBytes": "32"
      },
      "t_bool": {
        "encoding": "inplace",
        "label": "bool",
        "numberOfBytes": "1"
      },
      "t_bytes4": {
        "encoding": "inplace",
        "label": "bytes4",
        "numberOfBytes": "4"
      },
      "t_contract(ICodec)4591": {
        "encoding": "inplace",
        "label": "contract ICodec",
        "numberOfBytes": "20"
      },
      "t_mapping(t_address,t_mapping(t_bytes4,t_bool))": {
        "encoding": "mapping",
        "key": "t_address",
        "label": "mapping(address => mapping(bytes4 => bool))",
        "numberOfBytes": "32",
        "value": "t_mapping(t_bytes4,t_bool)"
      },
      "t_mapping(t_bytes4,t_bool)": {
        "encoding": "mapping",
        "key": "t_bytes4",
        "label": "mapping(bytes4 => bool)",
        "numberOfBytes": "32",
        "value": "t_bool"
      },
      "t_mapping(t_bytes4,t_contract(ICodec)4591)": {
        "encoding": "mapping",
        "key": "t_bytes4",
        "label": "mapping(bytes4 => contract ICodec)",
        "numberOfBytes": "32",
        "value": "t_contract(ICodec)4591"
      },
      "t_uint256": {
        "encoding": "inplace",
        "label": "uint256",
        "numberOfBytes": "32"
      }
    }
  }
}